{"abi":[{"type":"constructor","inputs":[{"name":"wrappedToken","type":"address","internalType":"contract IERC20"}],"stateMutability":"nonpayable"},{"type":"function","name":"CLOCK_MODE","inputs":[],"outputs":[{"name":"","type":"string","internalType":"string"}],"stateMutability":"view"},{"type":"function","name":"DOMAIN_SEPARATOR","inputs":[],"outputs":[{"name":"","type":"bytes32","internalType":"bytes32"}],"stateMutability":"view"},{"type":"function","name":"allowance","inputs":[{"name":"owner","type":"address","internalType":"address"},{"name":"spender","type":"address","internalType":"address"}],"outputs":[{"name":"","type":"uint256","internalType":"uint256"}],"stateMutability":"view"},{"type":"function","name":"approve","inputs":[{"name":"spender","type":"address","internalType":"address"},{"name":"value","type":"uint256","internalType":"uint256"}],"outputs":[{"name":"","type":"bool","internalType":"bool"}],"stateMutability":"nonpayable"},{"type":"function","name":"balanceOf","inputs":[{"name":"account","type":"address","internalType":"address"}],"outputs":[{"name":"","type":"uint256","internalType":"uint256"}],"stateMutability":"view"},{"type":"function","name":"checkpoints","inputs":[{"name":"account","type":"address","internalType":"address"},{"name":"pos","type":"uint32","internalType":"uint32"}],"outputs":[{"name":"","type":"tuple","internalType":"struct Checkpoints.Checkpoint208","components":[{"name":"_key","type":"uint48","internalType":"uint48"},{"name":"_value","type":"uint208","internalType":"uint208"}]}],"stateMutability":"view"},{"type":"function","name":"clock","inputs":[],"outputs":[{"name":"","type":"uint48","internalType":"uint48"}],"stateMutability":"view"},{"type":"function","name":"decimals","inputs":[],"outputs":[{"name":"","type":"uint8","internalType":"uint8"}],"stateMutability":"view"},{"type":"function","name":"delegate","inputs":[{"name":"delegatee","type":"address","internalType":"address"}],"outputs":[],"stateMutability":"nonpayable"},{"type":"function","name":"delegateBySig","inputs":[{"name":"delegatee","type":"address","internalType":"address"},{"name":"nonce","type":"uint256","internalType":"uint256"},{"name":"expiry","type":"uint256","internalType":"uint256"},{"name":"v","type":"uint8","internalType":"uint8"},{"name":"r","type":"bytes32","internalType":"bytes32"},{"name":"s","type":"bytes32","internalType":"bytes32"}],"outputs":[],"stateMutability":"nonpayable"},{"type":"function","name":"delegates","inputs":[{"name":"account","type":"address","internalType":"address"}],"outputs":[{"name":"","type":"address","internalType":"address"}],"stateMutability":"view"},{"type":"function","name":"depositFor","inputs":[{"name":"account","type":"address","internalType":"address"},{"name":"value","type":"uint256","internalType":"uint256"}],"outputs":[{"name":"","type":"bool","internalType":"bool"}],"stateMutability":"nonpayable"},{"type":"function","name":"eip712Domain","inputs":[],"outputs":[{"name":"fields","type":"bytes1","internalType":"bytes1"},{"name":"name","type":"string","internalType":"string"},{"name":"version","type":"string","internalType":"string"},{"name":"chainId","type":"uint256","internalType":"uint256"},{"name":"verifyingContract","type":"address","internalType":"address"},{"name":"salt","type":"bytes32","internalType":"bytes32"},{"name":"extensions","type":"uint256[]","internalType":"uint256[]"}],"stateMutability":"view"},{"type":"function","name":"getPastTotalSupply","inputs":[{"name":"timepoint","type":"uint256","internalType":"uint256"}],"outputs":[{"name":"","type":"uint256","internalType":"uint256"}],"stateMutability":"view"},{"type":"function","name":"getPastVotes","inputs":[{"name":"account","type":"address","internalType":"address"},{"name":"timepoint","type":"uint256","internalType":"uint256"}],"outputs":[{"name":"","type":"uint256","internalType":"uint256"}],"stateMutability":"view"},{"type":"function","name":"getVotes","inputs":[{"name":"account","type":"address","internalType":"address"}],"outputs":[{"name":"","type":"uint256","internalType":"uint256"}],"stateMutability":"view"},{"type":"function","name":"name","inputs":[],"outputs":[{"name":"","type":"string","internalType":"string"}],"stateMutability":"view"},{"type":"function","name":"nonces","inputs":[{"name":"owner","type":"address","internalType":"address"}],"outputs":[{"name":"","type":"uint256","internalType":"uint256"}],"stateMutability":"view"},{"type":"function","name":"numCheckpoints","inputs":[{"name":"account","type":"address","internalType":"address"}],"outputs":[{"name":"","type":"uint32","internalType":"uint32"}],"stateMutability":"view"},{"type":"function","name":"permit","inputs":[{"name":"owner","type":"address","internalType":"address"},{"name":"spender","type":"address","internalType":"address"},{"name":"value","type":"uint256","internalType":"uint256"},{"name":"deadline","type":"uint256","internalType":"uint256"},{"name":"v","type":"uint8","internalType":"uint8"},{"name":"r","type":"bytes32","internalType":"bytes32"},{"name":"s","type":"bytes32","internalType":"bytes32"}],"outputs":[],"stateMutability":"nonpayable"},{"type":"function","name":"symbol","inputs":[],"outputs":[{"name":"","type":"string","internalType":"string"}],"stateMutability":"view"},{"type":"function","name":"totalSupply","inputs":[],"outputs":[{"name":"","type":"uint256","internalType":"uint256"}],"stateMutability":"view"},{"type":"function","name":"transfer","inputs":[{"name":"to","type":"address","internalType":"address"},{"name":"value","type":"uint256","internalType":"uint256"}],"outputs":[{"name":"","type":"bool","internalType":"bool"}],"stateMutability":"nonpayable"},{"type":"function","name":"transferFrom","inputs":[{"name":"from","type":"address","internalType":"address"},{"name":"to","type":"address","internalType":"address"},{"name":"value","type":"uint256","internalType":"uint256"}],"outputs":[{"name":"","type":"bool","internalType":"bool"}],"stateMutability":"nonpayable"},{"type":"function","name":"underlying","inputs":[],"outputs":[{"name":"","type":"address","internalType":"contract IERC20"}],"stateMutability":"view"},{"type":"function","name":"withdrawTo","inputs":[{"name":"account","type":"address","internalType":"address"},{"name":"value","type":"uint256","internalType":"uint256"}],"outputs":[{"name":"","type":"bool","internalType":"bool"}],"stateMutability":"nonpayable"},{"type":"event","name":"Approval","inputs":[{"name":"owner","type":"address","indexed":true,"internalType":"address"},{"name":"spender","type":"address","indexed":true,"internalType":"address"},{"name":"value","type":"uint256","indexed":false,"internalType":"uint256"}],"anonymous":false},{"type":"event","name":"DelegateChanged","inputs":[{"name":"delegator","type":"address","indexed":true,"internalType":"address"},{"name":"fromDelegate","type":"address","indexed":true,"internalType":"address"},{"name":"toDelegate","type":"address","indexed":true,"internalType":"address"}],"anonymous":false},{"type":"event","name":"DelegateVotesChanged","inputs":[{"name":"delegate","type":"address","indexed":true,"internalType":"address"},{"name":"previousVotes","type":"uint256","indexed":false,"internalType":"uint256"},{"name":"newVotes","type":"uint256","indexed":false,"internalType":"uint256"}],"anonymous":false},{"type":"event","name":"EIP712DomainChanged","inputs":[],"anonymous":false},{"type":"event","name":"Transfer","inputs":[{"name":"from","type":"address","indexed":true,"internalType":"address"},{"name":"to","type":"address","indexed":true,"internalType":"address"},{"name":"value","type":"uint256","indexed":false,"internalType":"uint256"}],"anonymous":false},{"type":"error","name":"CheckpointUnorderedInsertion","inputs":[]},{"type":"error","name":"ECDSAInvalidSignature","inputs":[]},{"type":"error","name":"ECDSAInvalidSignatureLength","inputs":[{"name":"length","type":"uint256","internalType":"uint256"}]},{"type":"error","name":"ECDSAInvalidSignatureS","inputs":[{"name":"s","type":"bytes32","internalType":"bytes32"}]},{"type":"error","name":"ERC20ExceededSafeSupply","inputs":[{"name":"increasedSupply","type":"uint256","internalType":"uint256"},{"name":"cap","type":"uint256","internalType":"uint256"}]},{"type":"error","name":"ERC20InsufficientAllowance","inputs":[{"name":"spender","type":"address","internalType":"address"},{"name":"allowance","type":"uint256","internalType":"uint256"},{"name":"needed","type":"uint256","internalType":"uint256"}]},{"type":"error","name":"ERC20InsufficientBalance","inputs":[{"name":"sender","type":"address","internalType":"address"},{"name":"balance","type":"uint256","internalType":"uint256"},{"name":"needed","type":"uint256","internalType":"uint256"}]},{"type":"error","name":"ERC20InvalidApprover","inputs":[{"name":"approver","type":"address","internalType":"address"}]},{"type":"error","name":"ERC20InvalidReceiver","inputs":[{"name":"receiver","type":"address","internalType":"address"}]},{"type":"error","name":"ERC20InvalidSender","inputs":[{"name":"sender","type":"address","internalType":"address"}]},{"type":"error","name":"ERC20InvalidSpender","inputs":[{"name":"spender","type":"address","internalType":"address"}]},{"type":"error","name":"ERC20InvalidUnderlying","inputs":[{"name":"token","type":"address","internalType":"address"}]},{"type":"error","name":"ERC2612ExpiredSignature","inputs":[{"name":"deadline","type":"uint256","internalType":"uint256"}]},{"type":"error","name":"ERC2612InvalidSigner","inputs":[{"name":"signer","type":"address","internalType":"address"},{"name":"owner","type":"address","internalType":"address"}]},{"type":"error","name":"ERC5805FutureLookup","inputs":[{"name":"timepoint","type":"uint256","internalType":"uint256"},{"name":"clock","type":"uint48","internalType":"uint48"}]},{"type":"error","name":"ERC6372InconsistentClock","inputs":[]},{"type":"error","name":"InvalidAccountNonce","inputs":[{"name":"account","type":"address","internalType":"address"},{"name":"currentNonce","type":"uint256","internalType":"uint256"}]},{"type":"error","name":"InvalidShortString","inputs":[]},{"type":"error","name":"SafeCastOverflowedUintDowncast","inputs":[{"name":"bits","type":"uint8","internalType":"uint8"},{"name":"value","type":"uint256","internalType":"uint256"}]},{"type":"error","name":"SafeERC20FailedOperation","inputs":[{"name":"token","type":"address","internalType":"address"}]},{"type":"error","name":"StringTooLong","inputs":[{"name":"str","type":"string","internalType":"string"}]},{"type":"error","name":"VotesExpiredSignature","inputs":[{"name":"expiry","type":"uint256","internalType":"uint256"}]}],"bytecode":{"object":"0x61018080604052346104a3576020816126f6803803809161002082856104a7565b8339810103126104a357516001600160a01b0381168082036104a35760405161004a6040826104a7565b600e8152602081016d135e551bdad95b95dc985c1c195960921b8152604051906100756040836104a7565b600e82526d135e551bdad95b95dc985c1c195960921b60208301526040519261009f6040856104a7565b60038452624d544b60e81b6020850152604051936100be6040866104a7565b60018552603160f81b60208601908152845190946001600160401b0382116103a65760035490600182811c92168015610499575b60208310146103885781601f84931161042b575b50602090601f83116001146103c5575f926103ba575b50508160011b915f199060031b1c1916176003555b8051906001600160401b0382116103a65760045490600182811c9216801561039c575b60208310146103885781601f84931161031a575b50602090601f83116001146102b4575f926102a9575b50508160011b915f199060031b1c1916176004555b61019c816104ca565b610120526101a984610651565b61014052519020918260e05251902080610100524660a0526040519060208201927f8b73c3c69bb8fe3d512ecc4cf759cc79239f7b179b0ffacaa9a75d522b39400f8452604083015260608201524660808201523060a082015260a0815261021260c0826104a7565b5190206080523060c05230146102965761016052604051611f6c908161078a823960805181611365015260a05181611422015260c0518161132f015260e051816113b4015261010051816113da015261012051816109360152610140518161095f0152610160518181816103f4015281816105310152818161081d01526112b20152f35b63438d6fe360e01b5f523060045260245ffd5b015190505f8061017e565b60045f9081528281209350601f198516905b81811061030257509084600195949392106102ea575b505050811b01600455610193565b01515f1960f88460031b161c191690555f80806102dc565b929360206001819287860151815501950193016102c6565b60045f529091507f8a35acfbc15ff81a39ae7d344fd709f28e8600b4aa8c65c6b64bfe7fe36bd19b601f840160051c8101916020851061037e575b90601f859493920160051c01905b8181106103705750610168565b5f8155849350600101610363565b9091508190610355565b634e487b7160e01b5f52602260045260245ffd5b91607f1691610154565b634e487b7160e01b5f52604160045260245ffd5b015190505f8061011c565b60035f9081528281209350601f198516905b81811061041357509084600195949392106103fb575b505050811b01600355610131565b01515f1960f88460031b161c191690555f80806103ed565b929360206001819287860151815501950193016103d7565b60035f529091507fc2575a0e9e593c00f959f8c92f12db2869c3395a3b0502d05e2516446f71f85b601f840160051c8101916020851061048f575b90601f859493920160051c01905b8181106104815750610106565b5f8155849350600101610474565b9091508190610466565b91607f16916100f2565b5f80fd5b601f909101601f19168101906001600160401b038211908210176103a657604052565b908151602081105f14610544575090601f8151116105045760208151910151602082106104f5571790565b5f198260200360031b1b161790565b604460209160405192839163305a27a960e01b83528160048401528051918291826024860152018484015e5f828201840152601f01601f19168101030190fd5b6001600160401b0381116103a657600554600181811c91168015610647575b602082101461038857601f8111610614575b50602092601f82116001146105b357928192935f926105a8575b50508160011b915f199060031b1c19161760055560ff90565b015190505f8061058f565b601f1982169360055f52805f20915f5b8681106105fc57508360019596106105e4575b505050811b0160055560ff90565b01515f1960f88460031b161c191690555f80806105d6565b919260206001819286850151815501940192016105c3565b60055f52601f60205f20910160051c810190601f830160051c015b81811061063c5750610575565b5f815560010161062f565b90607f1690610563565b908151602081105f1461067c575090601f8151116105045760208151910151602082106104f5571790565b6001600160401b0381116103a657600654600181811c9116801561077f575b602082101461038857601f811161074c575b50602092601f82116001146106eb57928192935f926106e0575b50508160011b915f199060031b1c19161760065560ff90565b015190505f806106c7565b601f1982169360065f52805f20915f5b868110610734575083600195961061071c575b505050811b0160065560ff90565b01515f1960f88460031b161c191690555f808061070e565b919260206001819286850151815501940192016106fb565b60065f52601f60205f20910160051c810190601f830160051c015b81811061077457506106ad565b5f8155600101610767565b90607f169061069b56fe60806040526004361015610011575f80fd5b5f3560e01c806306fdde03146101b4578063095ea7b3146101af57806318160ddd146101aa578063205c2878146101a557806323b872dd146101a05780632f4f21e21461019b578063313ce567146101965780633644e515146101915780633a46b1a81461018c5780634bf5d7e914610187578063587cde1e146101825780635c19a95c1461017d5780636f307dc3146101785780636fcfff451461017357806370a082311461016e5780637ecebe001461016957806384b0196e146101645780638e539e8c1461015f57806391ddadf41461015a57806395d89b41146101555780639ab24eb014610150578063a9059cbb1461014b578063c3cda52014610146578063d505accf14610141578063dd62ed3e1461013c5763f1127ed814610137575f80fd5b610eb4565b610e5d565b610d35565b610c22565b610bf1565b610baa565b610b05565b610ada565b610a1b565b61091e565b6108e6565b6108ae565b61084c565b610808565b6107e4565b6107a4565b610714565b61062f565b61060d565b6105e8565b6104fa565b610466565b610349565b61032c565b6102fb565b6101f1565b805180835260209291819084018484015e5f828201840152601f01601f1916010190565b9060206101ee9281815201906101b9565b90565b346102cb575f3660031901126102cb576040515f60035461021181610f66565b80845290600181169081156102a75750600114610249575b6102458361023981850382611054565b604051918291826101dd565b0390f35b60035f9081527fc2575a0e9e593c00f959f8c92f12db2869c3395a3b0502d05e2516446f71f85b939250905b80821061028d57509091508101602001610239610229565b919260018160209254838588010152019101909291610275565b60ff191660208086019190915291151560051b840190910191506102399050610229565b5f80fd5b600435906001600160a01b03821682036102cb57565b602435906001600160a01b03821682036102cb57565b346102cb5760403660031901126102cb576103216103176102cf565b6024359033611591565b602060405160018152f35b346102cb575f3660031901126102cb576020600254604051908152f35b346102cb5760403660031901126102cb576103626102cf565b6024356001600160a01b0382163081146104545750331561044157335f908152602081905260409020549181831061042457335f9081526020819052604090206104189383900390556103b88260025403600255565b6040518281525f9033907fddf252ad1be2c89b69c2b068fc378daa952ba7f163c4a11628f55a4df523b3ef90602090a36103f28233611c91565b7f000000000000000000000000000000000000000000000000000000000000000061109f565b60405160018152602090f35b5063391434e360e21b5f523360045260249190915260445260645ffd5b634b637e8f60e11b5f525f60045260245ffd5b63ec442f0560e01b5f5260045260245ffd5b346102cb5760603660031901126102cb5761047f6102cf565b6104876102e5565b6001600160a01b0382165f9081526001602090815260408083203384529091529020549160443591905f1984106104c3575b6104189350611112565b8284106104df576104da836104189503338361162c565b6104b9565b8284637dc7a0d960e11b5f523360045260245260445260645ffd5b346102cb5760403660031901126102cb576105136102cf565b6024353033146105d5576001600160a01b03821630811461045457507f0000000000000000000000000000000000000000000000000000000000000000916040516323b872dd60e01b5f5233600452306024528260445260205f60648180885af160015f51148116156105b6575b6040919091525f6060521561059a5761041892506111fe565b635274afe760e01b5f526001600160a01b03831660045260245ffd5b60018115166105cc573d15853b15151616610581565b503d5f823e3d90fd5b634b637e8f60e11b5f523060045260245ffd5b346102cb575f3660031901126102cb57602061060261129d565b60ff60405191168152f35b346102cb575f3660031901126102cb57602061062761132c565b604051908152f35b346102cb5760403660031901126102cb576106486102cf565b6001600160a01b03165f908152600960205260409020610669602435611448565b8154905f8291600584116106bc575b61068393508461181d565b90816106a157505060205f5b6040516001600160d01b039091168152f35b6106ac602092611495565b905f52815f20015460301c61068f565b91926106c7816116bf565b810390811161070f5761068393855f5265ffffffffffff8260205f2001541665ffffffffffff8516105f146106fd575091610678565b929150610709906114a3565b90610678565b611481565b346102cb575f3660031901126102cb5761072d43611672565b65ffffffffffff8061073e43611672565b1691160361079557610245604051610757604082611054565b601d81527f6d6f64653d626c6f636b6e756d6265722666726f6d3d64656661756c7400000060208201526040519182916020835260208301906101b9565b6301bfc1c560e61b5f5260045ffd5b346102cb5760203660031901126102cb576001600160a01b036107c56102cf565b165f526008602052602060018060a01b0360405f205416604051908152f35b346102cb5760203660031901126102cb576108066108006102cf565b336114b1565b005b346102cb575f3660031901126102cb576040517f00000000000000000000000000000000000000000000000000000000000000006001600160a01b03168152602090f35b346102cb5760203660031901126102cb576001600160a01b0361086d6102cf565b165f52600960205260405f205463ffffffff81116108975760405163ffffffff9091168152602090f35b6306dfcc6560e41b5f52602060045260245260445ffd5b346102cb5760203660031901126102cb5760206106276108cc6102cf565b6001600160a01b03165f9081526020819052604090205490565b346102cb5760203660031901126102cb576001600160a01b036109076102cf565b165f526007602052602060405f2054604051908152f35b346102cb575f3660031901126102cb576109c261095a7f00000000000000000000000000000000000000000000000000000000000000006119a3565b6109837f0000000000000000000000000000000000000000000000000000000000000000611a03565b60206040516109928282611054565b5f8152816109d081830194601f198301368737604051978897600f60f81b895260e0858a015260e08901906101b9565b9087820360408901526101b9565b914660608701523060808701525f60a087015285830360c087015251918281520192915f5b828110610a0457505050500390f35b8351855286955093810193928101926001016109f5565b346102cb5760203660031901126102cb57610a37600435611448565b600a54905f829160058411610a86575b610a539350600a61181d565b80610a6457506040515f8152602090f35b610a81610a72602092611495565b600a5f52825f20015460301c90565b61068f565b9192610a91816116bf565b810390811161070f57610a5393600a5f5265ffffffffffff8260205f2001541665ffffffffffff8516105f14610ac8575091610a47565b929150610ad4906114a3565b90610a47565b346102cb575f3660031901126102cb576020610af543611672565b65ffffffffffff60405191168152f35b346102cb575f3660031901126102cb576040515f600454610b2581610f66565b80845290600181169081156102a75750600114610b4c576102458361023981850382611054565b60045f9081527f8a35acfbc15ff81a39ae7d344fd709f28e8600b4aa8c65c6b64bfe7fe36bd19b939250905b808210610b9057509091508101602001610239610229565b919260018160209254838588010152019101909291610b78565b346102cb5760203660031901126102cb576001600160a01b03610bcb6102cf565b165f526009602052602060018060d01b03610be860405f20611532565b16604051908152f35b346102cb5760403660031901126102cb57610321610c0d6102cf565b6024359033611112565b60ff8116036102cb57565b346102cb5760c03660031901126102cb57610c3b6102cf565b60243590604435606435610c4e81610c17565b6084359060a43592804211610d235791610cd39391610cc5610cca9460405160208101917fe48329057bfd03d55e49b547132e39cffd9c1820ad7b9d4c5307691425d15adf835260018060a01b038a1660408301528a6060830152608082015260808152610cbd60a082611054565b51902061155c565b611a3a565b90929192611ae5565b6001600160a01b0381165f908152600760205260409020805460018101909155809303610d045761080692506114b1565b90506301d4b62360e61b5f5260018060a01b031660045260245260445ffd5b632341d78760e11b5f5260045260245ffd5b346102cb5760e03660031901126102cb57610d4e6102cf565b610d566102e5565b6044359060643592608435610d6a81610c17565b60a43560c43590864211610e4a576001600160a01b0384165f908152600760205260409020805460018101909155610e0f9390610e0a909860405160208101917f6e71edae12b1b97f4d1f60370fef10105fa2faae0126114a169c64845d6126c9835260018060a01b0389169b8c604084015260018060a01b038b1660608401528b608084015260a083015260c082015260c08152610cbd60e082611054565b611582565b936001600160a01b03851603610e29576108069350611591565b6325c0072360e11b5f526001600160a01b038085166004521660245260445ffd5b8663313c898160e11b5f5260045260245ffd5b346102cb5760403660031901126102cb576020610eab610e7b6102cf565b610e836102e5565b6001600160a01b039182165f9081526001855260408082209290931681526020919091522090565b54604051908152f35b346102cb5760403660031901126102cb57610ecd6102cf565b6024359063ffffffff821682036102cb5761024591610f1c91610eee611087565b50610ef7611087565b506001600160a01b03165f908152600960205260409020610f16611087565b50611b61565b5060405190610f2a82611033565b5465ffffffffffff811680835260309190911c60209283019081526040805192835290516001600160d01b031692820192909252918291820190565b90600182811c92168015610f94575b6020831014610f8057565b634e487b7160e01b5f52602260045260245ffd5b91607f1691610f75565b5f9291815491610fad83610f66565b80835292600181169081156110025750600114610fc957505050565b5f9081526020812093945091925b838310610fe8575060209250010190565b600181602092949394548385870101520191019190610fd7565b915050602093945060ff929192191683830152151560051b010190565b634e487b7160e01b5f52604160045260245ffd5b6040810190811067ffffffffffffffff82111761104f57604052565b61101f565b90601f8019910116810190811067ffffffffffffffff82111761104f57604052565b60405190611085604083611054565b565b6040519061109482611033565b5f6020838281520152565b916040519163a9059cbb60e01b5f5260018060a01b031660045260245260205f60448180865af160015f51148116156110fc575b604091909152156110e15750565b635274afe760e01b5f526001600160a01b031660045260245ffd5b60018115166105cc573d15833b151516166110d3565b6001600160a01b038116939291908415610441576001600160a01b03821680156111eb576001600160a01b0382165f90815260208190526040902054958487106111c557846110859697036111768460018060a01b03165f525f60205260405f2090565b556001600160a01b0384165f9081526020819052604090208054860190556040518581527fddf252ad1be2c89b69c2b068fc378daa952ba7f163c4a11628f55a4df523b3ef90602090a3611d8f565b63391434e360e21b5f526001600160a01b0383166004526024879052604485905260645ffd5b63ec442f0560e01b5f525f60045260245ffd5b91906001600160a01b03831680156111eb5760025482810180911161070f576002556001600160a01b0384165f90815260208181526040808320805486019055518481527fddf252ad1be2c89b69c2b068fc378daa952ba7f163c4a11628f55a4df523b3ef9190a36002546001600160d01b0393908481116112865750611085929350611d16565b8490630e58ae9360e11b5f5260045260245260445ffd5b60405163313ce56760e01b81526020816004817f00000000000000000000000000000000000000000000000000000000000000006001600160a01b03165afa5f91816112ef575b506101ee5750601290565b9091506020813d602011611324575b8161130b60209383611054565b810103126102cb575161131d81610c17565b905f6112e4565b3d91506112fe565b307f00000000000000000000000000000000000000000000000000000000000000006001600160a01b0316148061141f575b15611387577f000000000000000000000000000000000000000000000000000000000000000090565b60405160208101907f8b73c3c69bb8fe3d512ecc4cf759cc79239f7b179b0ffacaa9a75d522b39400f82527f000000000000000000000000000000000000000000000000000000000000000060408201527f000000000000000000000000000000000000000000000000000000000000000060608201524660808201523060a082015260a0815261141960c082611054565b51902090565b507f0000000000000000000000000000000000000000000000000000000000000000461461135e565b65ffffffffffff61145843611672565b168082101561146b57506101ee90611672565b90637669fc0f60e11b5f5260045260245260445ffd5b634e487b7160e01b5f52601160045260245ffd5b5f1981019190821161070f57565b906001820180921161070f57565b6001600160a01b038181165f81815260086020526040812080548685166001600160a01b0319821681179092556110859694169461152c9390928691907f3134e8a2e6d97e929a7e54011ea5485d7d196dd5f0ba4d4ef95803e8e3fc257f9080a46001600160a01b03165f9081526020819052604090205490565b91611881565b805490816115405750505f90565b815f1981011161070f575f525f199060205f2001015460301c90565b60429061156761132c565b906040519161190160f01b8352600283015260228201522090565b916101ee9391610cca93611a3a565b6001600160a01b0316908115611619576001600160a01b03811692831561160657806115f97f8c5be1e5ebec7d5bd14f71427d1e84f3dd0314c0f7b2291e5b200ac8c7c3b92593855f52600160205260405f209060018060a01b03165f5260205260405f2090565b55604051908152602090a3565b634a1406b160e11b5f525f60045260245ffd5b63e602df0560e01b5f525f60045260245ffd5b6001600160a01b0316908115611619576001600160a01b038116156116065761166f915f52600160205260405f209060018060a01b03165f5260205260405f2090565b55565b65ffffffffffff811161168a5765ffffffffffff1690565b6306dfcc6560e41b5f52603060045260245260445ffd5b81156116ab570490565b634e487b7160e01b5f52601260045260245ffd5b60018111156101ee57806001600160801b8210156117e0575b61178661177c61177261176861175e61175461174361178d9760048a600160401b6117929c10156117d3575b6401000000008110156117c6575b620100008110156117b9575b6101008110156117ac575b601081101561179f575b1015611797575b60030260011c90565b61174d818b6116a1565b0160011c90565b61174d818a6116a1565b61174d81896116a1565b61174d81886116a1565b61174d81876116a1565b61174d81866116a1565b80936116a1565b821190565b900390565b60011b61173a565b60041c9160021b91611733565b60081c9160041b91611729565b60101c9160081b9161171e565b60201c9160101b91611712565b60401c9160201b91611704565b505061179261178d61178661177c61177261176861175e6117546117436118078a60801c90565b9850600160401b97506116d89650505050505050565b91905b83821061182d5750505090565b9091928083169080841860011c820180921161070f57845f5265ffffffffffff8260205f2001541665ffffffffffff8416105f1461186f5750925b9190611820565b93925061187b906114a3565b91611868565b6001600160a01b0380831693929190811690818514158061199a575b6118a9575b5050505050565b8161192d575b5050826118be575b80806118a2565b6001600160a01b03165f9081526009602052604090207fdec2bacdd2f05b59de34da9b523dff8be42e5e38e818c82fdb0bae774387a7249161190a916119049091611b8a565b90611bf3565b604080516001600160d01b039384168152919092166020820152a25f80806118b7565b6001600160a01b03165f9081526009602052604090207fdec2bacdd2f05b59de34da9b523dff8be42e5e38e818c82fdb0bae774387a724906119789061197286611b8a565b90611bbb565b604080516001600160d01b039384168152919092166020820152a25f806118af565b5083151561189d565b60ff81146119e95760ff811690601f82116119da57604051916119c7604084611054565b6020808452838101919036833783525290565b632cd44ac360e21b5f5260045ffd5b506040516101ee816119fc816005610f9e565b0382611054565b60ff8114611a275760ff811690601f82116119da57604051916119c7604084611054565b506040516101ee816119fc816006610f9e565b91907f7fffffffffffffffffffffffffffffff5d576e7357a4501ddfe92f46681b20a08411611abc579160209360809260ff5f9560405194855216868401526040830152606082015282805260015afa15611ab1575f516001600160a01b03811615611aa757905f905f90565b505f906001905f90565b6040513d5f823e3d90fd5b5050505f9160039190565b60041115611ad157565b634e487b7160e01b5f52602160045260245ffd5b611aee81611ac7565b80611af7575050565b611b0081611ac7565b60018103611b175763f645eedf60e01b5f5260045ffd5b611b2081611ac7565b60028103611b3b575063fce698f760e01b5f5260045260245ffd5b80611b47600392611ac7565b14611b4f5750565b6335e2f38360e21b5f5260045260245ffd5b8054821015611b76575f5260205f2001905f90565b634e487b7160e01b5f52603260045260245ffd5b6001600160d01b038111611ba4576001600160d01b031690565b6306dfcc6560e41b5f5260d060045260245260445ffd5b90611bc543611672565b90611bcf83611532565b6001600160d01b03918216908216039190821161070f57611bef92611e60565b9091565b90611bfd43611672565b90611c0783611532565b6001600160d01b03918216908216019190821161070f57611bef92611e60565b611c3043611672565b90611c3b600a611532565b6001600160d01b039182169082160190811161070f57611bef91600a611e60565b611c6543611672565b90611c70600a611532565b6001600160d01b039182169082160390811161070f57611bef91600a611e60565b61108591906001600160a01b03168015611cfe575b611cb7611cb283611b8a565b611c5c565b50505f908152600860205260408120549080527f5eff886ea0ce6ca488a3d6e336d6c0f75f46d19b42c06ce5ee98e42c96d256c7546001600160a01b039081169116611881565b611d0f611d0a83611b8a565b611c27565b5050611ca6565b9061108591611d27611d0a83611b8a565b50506001600160a01b03168015611d7c575b60086020527f5eff886ea0ce6ca488a3d6e336d6c0f75f46d19b42c06ce5ee98e42c96d256c7545f9182526040909120546001600160a01b039081169116611881565b611d88611cb283611b8a565b5050611d39565b61108592916001600160a01b03909116908115611df2575b6001600160a01b0316908115611ddf575b5f90815260086020526040808220549282529020546001600160a01b039081169116611881565b611deb611cb284611b8a565b5050611db8565b611dfe611d0a84611b8a565b5050611da7565b8054600160401b81101561104f57611e2291600182018155611b61565b611e4d57815160209092015160301b65ffffffffffff191665ffffffffffff92909216919091179055565b634e487b7160e01b5f525f60045260245ffd5b80549293928015611f0c57611e77611e8291611495565b825f5260205f200190565b8054603081901c9365ffffffffffff91821692918116808411611efd57879303611ec95750611ec592509065ffffffffffff82549181199060301b169116179055565b9190565b915050611ec591611ee9611edb611076565b65ffffffffffff9093168352565b6001600160d01b0386166020830152611e05565b632520601d60e01b5f5260045ffd5b5090611f3191611f1d611edb611076565b6001600160d01b0385166020830152611e05565b5f919056fea264697066735822122011e2673c979a8503ffbf81a0daa50b627113c426cf2ea22c65086c156009eab064736f6c634300081c0033","linkReferences":{}},"methodIdentifiers":{"CLOCK_MODE()":"4bf5d7e9","DOMAIN_SEPARATOR()":"3644e515","allowance(address,address)":"dd62ed3e","approve(address,uint256)":"095ea7b3","balanceOf(address)":"70a08231","checkpoints(address,uint32)":"f1127ed8","clock()":"91ddadf4","decimals()":"313ce567","delegate(address)":"5c19a95c","delegateBySig(address,uint256,uint256,uint8,bytes32,bytes32)":"c3cda520","delegates(address)":"587cde1e","depositFor(address,uint256)":"2f4f21e2","eip712Domain()":"84b0196e","getPastTotalSupply(uint256)":"8e539e8c","getPastVotes(address,uint256)":"3a46b1a8","getVotes(address)":"9ab24eb0","name()":"06fdde03","nonces(address)":"7ecebe00","numCheckpoints(address)":"6fcfff45","permit(address,address,uint256,uint256,uint8,bytes32,bytes32)":"d505accf","symbol()":"95d89b41","totalSupply()":"18160ddd","transfer(address,uint256)":"a9059cbb","transferFrom(address,address,uint256)":"23b872dd","underlying()":"6f307dc3","withdrawTo(address,uint256)":"205c2878"},"id":195}