{"abi":[{"type":"function","name":"decimals","inputs":[],"outputs":[{"name":"","type":"uint256","internalType":"uint256"}],"stateMutability":"pure"}],"bytecode":{"object":"0x608080604052346013576074908160188239f35b5f80fdfe60808060405260043610156011575f80fd5b5f3560e01c63313ce567146023575f80fd5b34603a575f366003190112603a575f198152602090f35b5f80fdfea2646970667358221220fbf73beef60a18344a6fab10f47e4ced40ae607f7bf1e030eaf5616c53a2546564736f6c634300081c0033","linkReferences":{}},"methodIdentifiers":{"decimals()":"313ce567"},"id":230}