{"abi":[{"type":"constructor","inputs":[{"name":"configFilePath","type":"string","internalType":"string"},{"name":"writeToFile","type":"bool","internalType":"bool"}],"stateMutability":"nonpayable"},{"type":"function","name":"get","inputs":[{"name":"key","type":"string","internalType":"string"}],"outputs":[{"name":"","type":"tuple","internalType":"struct Variable","components":[{"name":"ty","type":"tuple","internalType":"struct Type","components":[{"name":"kind","type":"uint8","internalType":"enum TypeKind"},{"name":"isArray","type":"bool","internalType":"bool"}]},{"name":"data","type":"bytes","internalType":"bytes"}]}],"stateMutability":"view"},{"type":"function","name":"get","inputs":[{"name":"chain_id","type":"uint256","internalType":"uint256"},{"name":"key","type":"string","internalType":"string"}],"outputs":[{"name":"","type":"tuple","internalType":"struct Variable","components":[{"name":"ty","type":"tuple","internalType":"struct Type","components":[{"name":"kind","type":"uint8","internalType":"enum TypeKind"},{"name":"isArray","type":"bool","internalType":"bool"}]},{"name":"data","type":"bytes","internalType":"bytes"}]}],"stateMutability":"view"},{"type":"function","name":"getChainIds","inputs":[],"outputs":[{"name":"","type":"uint256[]","internalType":"uint256[]"}],"stateMutability":"view"},{"type":"function","name":"getRpcUrl","inputs":[],"outputs":[{"name":"","type":"string","internalType":"string"}],"stateMutability":"view"},{"type":"function","name":"getRpcUrl","inputs":[{"name":"chainId","type":"uint256","internalType":"uint256"}],"outputs":[{"name":"","type":"string","internalType":"string"}],"stateMutability":"view"},{"type":"function","name":"resolveChainId","inputs":[{"name":"aliasOrId","type":"string","internalType":"string"}],"outputs":[{"name":"","type":"uint256","internalType":"uint256"}],"stateMutability":"view"},{"type":"function","name":"set","inputs":[{"name":"chainId","type":"uint256","internalType":"uint256"},{"name":"key","type":"string","internalType":"string"},{"name":"value","type":"int256","internalType":"int256"}],"outputs":[],"stateMutability":"nonpayable"},{"type":"function","name":"set","inputs":[{"name":"chainId","type":"uint256","internalType":"uint256"},{"name":"key","type":"string","internalType":"string"},{"name":"value","type":"bytes32[]","internalType":"bytes32[]"}],"outputs":[],"stateMutability":"nonpayable"},{"type":"function","name":"set","inputs":[{"name":"chainId","type":"uint256","internalType":"uint256"},{"name":"key","type":"string","internalType":"string"},{"name":"value","type":"uint256","internalType":"uint256"}],"outputs":[],"stateMutability":"nonpayable"},{"type":"function","name":"set","inputs":[{"name":"key","type":"string","internalType":"string"},{"name":"value","type":"bytes","internalType":"bytes"}],"outputs":[],"stateMutability":"nonpayable"},{"type":"function","name":"set","inputs":[{"name":"key","type":"string","internalType":"string"},{"name":"value","type":"bytes32","internalType":"bytes32"}],"outputs":[],"stateMutability":"nonpayable"},{"type":"function","name":"set","inputs":[{"name":"key","type":"string","internalType":"string"},{"name":"value","type":"int256","internalType":"int256"}],"outputs":[],"stateMutability":"nonpayable"},{"type":"function","name":"set","inputs":[{"name":"chainId","type":"uint256","internalType":"uint256"},{"name":"key","type":"string","internalType":"string"},{"name":"value","type":"bytes","internalType":"bytes"}],"outputs":[],"stateMutability":"nonpayable"},{"type":"function","name":"set","inputs":[{"name":"key","type":"string","internalType":"string"},{"name":"value","type":"string[]","internalType":"string[]"}],"outputs":[],"stateMutability":"nonpayable"},{"type":"function","name":"set","inputs":[{"name":"chainId","type":"uint256","internalType":"uint256"},{"name":"key","type":"string","internalType":"string"},{"name":"value","type":"address","internalType":"address"}],"outputs":[],"stateMutability":"nonpayable"},{"type":"function","name":"set","inputs":[{"name":"chainId","type":"uint256","internalType":"uint256"},{"name":"key","type":"string","internalType":"string"},{"name":"value","type":"address[]","internalType":"address[]"}],"outputs":[],"stateMutability":"nonpayable"},{"type":"function","name":"set","inputs":[{"name":"chainId","type":"uint256","internalType":"uint256"},{"name":"key","type":"string","internalType":"string"},{"name":"value","type":"string","internalType":"string"}],"outputs":[],"stateMutability":"nonpayable"},{"type":"function","name":"set","inputs":[{"name":"key","type":"string","internalType":"string"},{"name":"value","type":"uint256[]","internalType":"uint256[]"}],"outputs":[],"stateMutability":"nonpayable"},{"type":"function","name":"set","inputs":[{"name":"key","type":"string","internalType":"string"},{"name":"value","type":"address[]","internalType":"address[]"}],"outputs":[],"stateMutability":"nonpayable"},{"type":"function","name":"set","inputs":[{"name":"key","type":"string","internalType":"string"},{"name":"value","type":"uint256","internalType":"uint256"}],"outputs":[],"stateMutability":"nonpayable"},{"type":"function","name":"set","inputs":[{"name":"chainId","type":"uint256","internalType":"uint256"},{"name":"key","type":"string","internalType":"string"},{"name":"value","type":"int256[]","internalType":"int256[]"}],"outputs":[],"stateMutability":"nonpayable"},{"type":"function","name":"set","inputs":[{"name":"chainId","type":"uint256","internalType":"uint256"},{"name":"key","type":"string","internalType":"string"},{"name":"value","type":"bytes[]","internalType":"bytes[]"}],"outputs":[],"stateMutability":"nonpayable"},{"type":"function","name":"set","inputs":[{"name":"key","type":"string","internalType":"string"},{"name":"value","type":"address","internalType":"address"}],"outputs":[],"stateMutability":"nonpayable"},{"type":"function","name":"set","inputs":[{"name":"chainId","type":"uint256","internalType":"uint256"},{"name":"key","type":"string","internalType":"string"},{"name":"value","type":"bool","internalType":"bool"}],"outputs":[],"stateMutability":"nonpayable"},{"type":"function","name":"set","inputs":[{"name":"key","type":"string","internalType":"string"},{"name":"value","type":"bool","internalType":"bool"}],"outputs":[],"stateMutability":"nonpayable"},{"type":"function","name":"set","inputs":[{"name":"key","type":"string","internalType":"string"},{"name":"value","type":"bytes[]","internalType":"bytes[]"}],"outputs":[],"stateMutability":"nonpayable"},{"type":"function","name":"set","inputs":[{"name":"chainId","type":"uint256","internalType":"uint256"},{"name":"key","type":"string","internalType":"string"},{"name":"value","type":"bytes32","internalType":"bytes32"}],"outputs":[],"stateMutability":"nonpayable"},{"type":"function","name":"set","inputs":[{"name":"chainId","type":"uint256","internalType":"uint256"},{"name":"key","type":"string","internalType":"string"},{"name":"value","type":"string[]","internalType":"string[]"}],"outputs":[],"stateMutability":"nonpayable"},{"type":"function","name":"set","inputs":[{"name":"chainId","type":"uint256","internalType":"uint256"},{"name":"key","type":"string","internalType":"string"},{"name":"value","type":"uint256[]","internalType":"uint256[]"}],"outputs":[],"stateMutability":"nonpayable"},{"type":"function","name":"set","inputs":[{"name":"key","type":"string","internalType":"string"},{"name":"value","type":"int256[]","internalType":"int256[]"}],"outputs":[],"stateMutability":"nonpayable"},{"type":"function","name":"set","inputs":[{"name":"chainId","type":"uint256","internalType":"uint256"},{"name":"key","type":"string","internalType":"string"},{"name":"value","type":"bool[]","internalType":"bool[]"}],"outputs":[],"stateMutability":"nonpayable"},{"type":"function","name":"set","inputs":[{"name":"key","type":"string","internalType":"string"},{"name":"value","type":"bytes32[]","internalType":"bytes32[]"}],"outputs":[],"stateMutability":"nonpayable"},{"type":"function","name":"set","inputs":[{"name":"key","type":"string","internalType":"string"},{"name":"value","type":"string","internalType":"string"}],"outputs":[],"stateMutability":"nonpayable"},{"type":"function","name":"set","inputs":[{"name":"key","type":"string","internalType":"string"},{"name":"value","type":"bool[]","internalType":"bool[]"}],"outputs":[],"stateMutability":"nonpayable"},{"type":"function","name":"writeUpdatesBackToFile","inputs":[{"name":"enabled","type":"bool","internalType":"bool"}],"outputs":[],"stateMutability":"nonpayable"},{"type":"error","name":"AlreadyInitialized","inputs":[{"name":"key","type":"string","internalType":"string"}]},{"type":"error","name":"ChainNotInitialized","inputs":[{"name":"chainId","type":"uint256","internalType":"uint256"}]},{"type":"error","name":"InvalidChainKey","inputs":[{"name":"aliasOrId","type":"string","internalType":"string"}]},{"type":"error","name":"TypeMismatch","inputs":[{"name":"expected","type":"string","internalType":"string"},{"name":"actual","type":"string","internalType":"string"}]},{"type":"error","name":"UnableToParseVariable","inputs":[{"name":"key","type":"string","internalType":"string"}]},{"type":"error","name":"WriteToFileInForbiddenCtxt","inputs":[]}],"bytecode":{"object":"0x6080806040523461088e57616d4c803803809161001c828561271d565b8339810160408282031261088e578151906001600160401b03821161088e5761004c602091610053938501612740565b9201612793565b8080612689575b61267a5781516001600160401b0381116107c2576100828161007c5f546127a0565b5f6127d8565b6020601f821160011461261457916100b5826100ea95935f958691612609575b508160011b915f199060031b1c19161790565b83555b60ff8019600554169115151617600555604051809381926360f9bb1160e01b8352602060048401526024830190612907565b03815f516020616d2c5f395f51905f525afa9081156124e957610133915f9182916124f4575b506040518093819263ddd2128d60e01b8352602060048401526024830190612907565b0381835f516020616d2c5f395f51905f525af19081156124e9575f916125ef575b50604051634095225960e11b8152604060048201525f81604061017a6044830186612907565b600960fa1b6020848303926003198401602487015260018152015201815f516020616d2c5f395f51905f525afa9081156124e9575f916125d5575b50905f905b82518210156125c6576101cd82846129dc565b51926040519061121760f11b60208301526102275f86519361020c60228260208b019780898484015e810185838201520301601f19810183528261271d565b60405180938192634095225960e11b835288600484016129f0565b03815f516020616d2c5f395f51905f525afa9081156124e9575f916125ac575b50511561259f5761025785612a15565b90600154680100000000000000008110156107c257600181018060015581101561258b5760015f526102ac9087907fb10e2d527612073b26eecdfd717e6a320cf44b4afac2b0732d9fcbe2b7fa0cf601612827565b6103105f60405161121760f11b60208201526102f5600d6022838c51808b8484015e81016c0b995b991c1bda5b9d17dd5c9b609a1b83820152030160121981018452018261271d565b60405180938192638bb8dd4360e01b835289600484016129f0565b03815f516020616d2c5f395f51905f525afa5f918161256f575b5061250e575060405163975a6ce960e01b8152602060048201525f8180610354602482018b612907565b03815f516020616d2c5f395f51905f525afa9081156124e95761039c915f9182916124f457506040518093819263ddd2128d60e01b8352602060048401526024830190612907565b0381835f516020616d2c5f395f51905f525af180156124e9576103d2915f916124cf575b50835f52600260205260405f20612827565b60015b60ff8116600781116124bb576008811015806107405760208961044560016103fc86612bce565b60226040519586928d8285019761121760f11b89525180918587015e840190601760f91b84830152805192839101602383015e01015f838201520301601f19810184528361271d565b604051634095225960e11b81525f8180610463868e600484016129f0565b03815f516020616d2c5f395f51905f525afa5f918161249f575b506104af575b505050505060ff1660ff811461049b576001016103d5565b634e487b7160e01b5f52601160045260245ffd5b939990955f9b92989399959b5b8551811015612486576104cf81876129dc565b51895f52600460205260405f2060ff604051602081855194828701958087845e8201908152030190205416600881101561074057612464578c908a61054a60018f60206040519485925180918385015e8201601760f91b828201528851908188602183015e01015f838201520301601f19810183528261271d565b5f92610740578f60018103610a2c575061057c6020828d6040519384928392636986e76b60e11b8452600484016129f0565b03815f516020616d2c5f395f51905f525afa5f91816109f1575b50610892575060405163093e7f4d60e11b8152905f90829081906105be908f600484016129f0565b03815f516020616d2c5f395f51905f525afa5f91816107f4575b50610618575b50505b156105ef57506001016104bc565b60405163ea00fa1360e01b815260206004820152908190610614906024830190612907565b0390fd5b9091506040519081604081019160208083015280518093526020606083019101925f905b8082106107d6575050610658925003601f19810183528261271d565b8b5f52600360205260405f206020604051809286518087845e820190815203019020815190916001600160401b0382116107c2576106a08261069a85546127a0565b856127d8565b602090601f831160011461075f576106cf92915f9183610754575b50508160011b915f199060031b1c19161790565b90555b604051906106df82612702565b600182526020820190600182528c5f526004602052602060405f209160405192839187518091845e82019081520301902091519060088210156107405760ff61ff0084549251151560081b1692169061ffff19161717905560015f806105de565b634e487b7160e01b5f52602160045260245ffd5b015190505f806106bb565b90601f19831691845f52815f20925f5b8181106107aa5750908460019594939210610792575b505050811b0190556106d2565b01515f1960f88460031b161c191690555f8080610785565b9293602060018192878601518155019501930161076f565b634e487b7160e01b5f52604160045260245ffd5b9160019193506020809186511515815201940192018492939161063c565b9091503d805f833e610806818361271d565b81019060208183031261088e578051906001600160401b03821161088e57019080601f8301121561088e57815161083c8161292b565b9261084a604051948561271d565b81845260208085019260051b82010192831161088e57602001905b82821061087657505050905f6105d8565b6020809161088384612793565b815201910190610865565b5f80fd5b919250506040519015156020820152602081526108b060408261271d565b8b5f52600360205260405f206020604051809286518087845e820190815203019020815190916001600160401b0382116107c2576108f28261069a85546127a0565b602090601f831160011461098e5761092092915f91836107545750508160011b915f199060031b1c19161790565b90555b6040519061093082612702565b6001825260208201905f82528c5f526004602052602060405f209160405192839187518091845e82019081520301902091519060088210156107405760ff61ff0084549251151560081b1692169061ffff19161717905560016105e1565b90601f19831691845f52815f20925f5b8181106109d957509084600195949392106109c1575b505050811b019055610923565b01515f1960f88460031b161c191690555f80806109b4565b9293602060018192878601518155019501930161099e565b9091506020813d8211610a24575b81610a0c6020938361271d565b8101031261088e57610a1d90612793565b905f610596565b3d91506109ff565b5f9f5060028103610ea75750610a5a6020828d6040519384928392631979f21160e21b8452600484016129f0565b03815f516020616d2c5f395f51905f525afa5f9181610e6c575b50610d0757506040516365c428e760e01b8152905f9082908190610a9c908f600484016129f0565b03815f516020616d2c5f395f51905f525afa5f9181610c6d575b50610ac3575b50506105e1565b9091506040519081604081019160208083015280518093526020606083019101925f905b808210610c47575050610b03925003601f19810183528261271d565b8b5f52600360205260405f206020604051809286518087845e820190815203019020815190916001600160401b0382116107c257610b458261069a85546127a0565b602090601f8311600114610be457610b7392915f91836107545750508160011b915f199060031b1c19161790565b90555b60405190610b8382612702565b600282526020820190600182528c5f526004602052602060405f209160405192839187518091845e82019081520301902091519060088210156107405760ff61ff0084549251151560081b1692169061ffff19161717905560015f80610abc565b90601f19831691845f52815f20925f5b818110610c2f5750908460019594939210610c17575b505050811b019055610b76565b01515f1960f88460031b161c191690555f8080610c0a565b92936020600181928786015181550195019301610bf4565b84516001600160a01b031683526020948501948694509092019160019190910190610ae7565b9091503d805f833e610c7f818361271d565b81019060208183031261088e578051906001600160401b03821161088e57019080601f8301121561088e578151610cb58161292b565b92610cc3604051948561271d565b81845260208085019260051b82010192831161088e57602001905b828210610cef57505050905f610ab6565b60208091610cfc84612d2c565b815201910190610cde565b919250506040519060018060a01b0316602082015260208152610d2b60408261271d565b8b5f52600360205260405f206020604051809286518087845e820190815203019020815190916001600160401b0382116107c257610d6d8261069a85546127a0565b602090601f8311600114610e0957610d9b92915f91836107545750508160011b915f199060031b1c19161790565b90555b60405190610dab82612702565b6002825260208201905f82528c5f526004602052602060405f209160405192839187518091845e82019081520301902091519060088210156107405760ff61ff0084549251151560081b1692169061ffff19161717905560016105e1565b90601f19831691845f52815f20925f5b818110610e545750908460019594939210610e3c575b505050811b019055610d9e565b01515f1960f88460031b161c191690555f8080610e2f565b92936020600181928786015181550195019301610e19565b9091506020813d8211610e9f575b81610e876020938361271d565b8101031261088e57610e9890612d2c565b905f610a74565b3d9150610e7a565b5f9f50600381036112ff5750610ed56020828d60405193849283926308e2148160e41b8452600484016129f0565b03815f516020616d2c5f395f51905f525afa5f91816112cc575b5061116f5750604051633e716f8160e01b8152905f9082908190610f17908f600484016129f0565b03815f516020616d2c5f395f51905f525afa5f91816110dd575b50610f3d5750506105e1565b9091506040519081604081019160208083015280518093526020606083019101925f905b8082106110c1575050610f7d925003601f19810183528261271d565b8b5f52600360205260405f206020604051809286518087845e820190815203019020815190916001600160401b0382116107c257610fbf8261069a85546127a0565b602090601f831160011461105e57610fed92915f91836107545750508160011b915f199060031b1c19161790565b90555b60405190610ffd82612702565b600382526020820190600182528c5f526004602052602060405f209160405192839187518091845e82019081520301902091519060088210156107405760ff61ff0084549251151560081b1692169061ffff19161717905560015f80610abc565b90601f19831691845f52815f20925f5b8181106110a95750908460019594939210611091575b505050811b019055610ff0565b01515f1960f88460031b161c191690555f8080611084565b9293602060018192878601518155019501930161106e565b9160019193506020809186518152019401920184929391610f61565b9091503d805f833e6110ef818361271d565b81019060208183031261088e578051906001600160401b03821161088e57019080601f8301121561088e5781516111258161292b565b92611133604051948561271d565b81845260208085019260051b82010192831161088e57602001905b82821061115f57505050905f610f31565b815181526020918201910161114e565b919250506040519060208201526020815261118b60408261271d565b8b5f52600360205260405f206020604051809286518087845e820190815203019020815190916001600160401b0382116107c2576111cd8261069a85546127a0565b602090601f8311600114611269576111fb92915f91836107545750508160011b915f199060031b1c19161790565b90555b6040519061120b82612702565b6003825260208201905f82528c5f526004602052602060405f209160405192839187518091845e82019081520301902091519060088210156107405760ff61ff0084549251151560081b1692169061ffff19161717905560016105e1565b90601f19831691845f52815f20925f5b8181106112b4575090846001959493921061129c575b505050811b0190556111fe565b01515f1960f88460031b161c191690555f808061128f565b92936020600181928786015181550195019301611279565b9091506020813d82116112f7575b816112e76020938361271d565b8101031261088e5751905f610eef565b3d91506112da565b5f9f5060048103611757575061132d6020828d604051938492839263cc7b048760e01b8452600484016129f0565b03815f516020616d2c5f395f51905f525afa5f9181611724575b506115c757506040516316bbe4f960e31b8152905f908290819061136f908f600484016129f0565b03815f516020616d2c5f395f51905f525afa5f9181611535575b506113955750506105e1565b9091506040519081604081019160208083015280518093526020606083019101925f905b8082106115195750506113d5925003601f19810183528261271d565b8b5f52600360205260405f206020604051809286518087845e820190815203019020815190916001600160401b0382116107c2576114178261069a85546127a0565b602090601f83116001146114b65761144592915f91836107545750508160011b915f199060031b1c19161790565b90555b6040519061145582612702565b600482526020820190600182528c5f526004602052602060405f209160405192839187518091845e82019081520301902091519060088210156107405760ff61ff0084549251151560081b1692169061ffff19161717905560015f80610abc565b90601f19831691845f52815f20925f5b81811061150157509084600195949392106114e9575b505050811b019055611448565b01515f1960f88460031b161c191690555f80806114dc565b929360206001819287860151815501950193016114c6565b91600191935060208091865181520194019201849293916113b9565b9091503d805f833e611547818361271d565b81019060208183031261088e578051906001600160401b03821161088e57019080601f8301121561088e57815161157d8161292b565b9261158b604051948561271d565b81845260208085019260051b82010192831161088e57602001905b8282106115b757505050905f611389565b81518152602091820191016115a6565b91925050604051906020820152602081526115e360408261271d565b8b5f52600360205260405f206020604051809286518087845e820190815203019020815190916001600160401b0382116107c2576116258261069a85546127a0565b602090601f83116001146116c15761165392915f91836107545750508160011b915f199060031b1c19161790565b90555b6040519061166382612702565b6004825260208201905f82528c5f526004602052602060405f209160405192839187518091845e82019081520301902091519060088210156107405760ff61ff0084549251151560081b1692169061ffff19161717905560016105e1565b90601f19831691845f52815f20925f5b81811061170c57509084600195949392106116f4575b505050811b019055611656565b01515f1960f88460031b161c191690555f80806116e7565b929360206001819287860151815501950193016116d1565b9091506020813d821161174f575b8161173f6020938361271d565b8101031261088e5751905f611347565b3d9150611732565b5f9f5060058103611baf57506117856020828d604051938492839263c135073960e01b8452600484016129f0565b03815f516020616d2c5f395f51905f525afa5f9181611b7c575b50611a1f57506040516369a9157360e11b8152905f90829081906117c7908f600484016129f0565b03815f516020616d2c5f395f51905f525afa5f918161198d575b506117ed5750506105e1565b9091506040519081604081019160208083015280518093526020606083019101925f905b80821061197157505061182d925003601f19810183528261271d565b8b5f52600360205260405f206020604051809286518087845e820190815203019020815190916001600160401b0382116107c25761186f8261069a85546127a0565b602090601f831160011461190e5761189d92915f91836107545750508160011b915f199060031b1c19161790565b90555b604051906118ad82612702565b600582526020820190600182528c5f526004602052602060405f209160405192839187518091845e82019081520301902091519060088210156107405760ff61ff0084549251151560081b1692169061ffff19161717905560015f80610abc565b90601f19831691845f52815f20925f5b8181106119595750908460019594939210611941575b505050811b0190556118a0565b01515f1960f88460031b161c191690555f8080611934565b9293602060018192878601518155019501930161191e565b9160019193506020809186518152019401920184929391611811565b9091503d805f833e61199f818361271d565b81019060208183031261088e578051906001600160401b03821161088e57019080601f8301121561088e5781516119d58161292b565b926119e3604051948561271d565b81845260208085019260051b82010192831161088e57602001905b828210611a0f57505050905f6117e1565b81518152602091820191016119fe565b9192505060405190602082015260208152611a3b60408261271d565b8b5f52600360205260405f206020604051809286518087845e820190815203019020815190916001600160401b0382116107c257611a7d8261069a85546127a0565b602090601f8311600114611b1957611aab92915f91836107545750508160011b915f199060031b1c19161790565b90555b60405190611abb82612702565b6005825260208201905f82528c5f526004602052602060405f209160405192839187518091845e82019081520301902091519060088210156107405760ff61ff0084549251151560081b1692169061ffff19161717905560016105e1565b90601f19831691845f52815f20925f5b818110611b645750908460019594939210611b4c575b505050811b019055611aae565b01515f1960f88460031b161c191690555f8080611b3f565b92936020600181928786015181550195019301611b29565b9091506020813d8211611ba7575b81611b976020938361271d565b8101031261088e5751905f61179f565b3d9150611b8a565b5f9f50600781036120615750611bdc5f828d604051938492839263d77bfdb960e01b8452600484016129f0565b03815f516020616d2c5f395f51905f525afa5f9181612022575b50611eb2575060405163b197c24760e01b8152905f9082908190611c1e908f600484016129f0565b03815f516020616d2c5f395f51905f525afa5f9181611dff575b50611c445750506105e1565b90915060405190816040810191602080830152805180935260608201602060608560051b8501019201935f905b808210611dd257505050611c8e925003601f19810183528261271d565b8b5f52600360205260405f206020604051809286518087845e820190815203019020815190916001600160401b0382116107c257611cd08261069a85546127a0565b602090601f8311600114611d6f57611cfe92915f91836107545750508160011b915f199060031b1c19161790565b90555b60405190611d0e82612702565b600782526020820190600182528c5f526004602052602060405f209160405192839187518091845e82019081520301902091519060088210156107405760ff61ff0084549251151560081b1692169061ffff19161717905560015f80610abc565b90601f19831691845f52815f20925f5b818110611dba5750908460019594939210611da2575b505050811b019055611d01565b01515f1960f88460031b161c191690555f8080611d95565b92936020600181928786015181550195019301611d7f565b91935091602080611def600193605f198a82030188528851612907565b9601940192018593949291611c71565b9091503d805f833e611e11818361271d565b81019060208183031261088e578051906001600160401b03821161088e57019080601f8301121561088e578151611e478161292b565b92611e55604051948561271d565b81845260208085019260051b8201019183831161088e5760208201905b838210611e85575050505050905f611c38565b81516001600160401b03811161088e57602091611ea787848094880101612740565b815201910190611e72565b611ed3929350611ee191506040519283916020808401526040830190612907565b03601f19810183528261271d565b8b5f52600360205260405f206020604051809286518087845e820190815203019020815190916001600160401b0382116107c257611f238261069a85546127a0565b602090601f8311600114611fbf57611f5192915f91836107545750508160011b915f199060031b1c19161790565b90555b60405190611f6182612702565b6007825260208201905f82528c5f526004602052602060405f209160405192839187518091845e82019081520301902091519060088210156107405760ff61ff0084549251151560081b1692169061ffff19161717905560016105e1565b90601f19831691845f52815f20925f5b81811061200a5750908460019594939210611ff2575b505050811b019055611f54565b01515f1960f88460031b161c191690555f8080611fe5565b92936020600181928786015181550195019301611fcf565b9091503d805f833e612034818361271d565b810160208282031261088e5781516001600160401b03811161088e5761205a9201612740565b905f611bf6565b5f9f506006146120725750506105e1565b6120935f828d6040519384928392638bb8dd4360e01b8452600484016129f0565b03815f516020616d2c5f395f51905f525afa5f9181612440575b506122de5750604051639f62928160e01b8152905f90829081906120d5908f600484016129f0565b03815f516020616d2c5f395f51905f525afa5f91816122ba575b506120ff575b50505b5f80610abc565b90915060405190816040810191602080830152805180935260608201602060608560051b8501019201935f905b80821061228d57505050612149925003601f19810183528261271d565b8b5f52600360205260405f206020604051809286518087845e820190815203019020815190916001600160401b0382116107c25761218b8261069a85546127a0565b602090601f831160011461222a576121b992915f91836107545750508160011b915f199060031b1c19161790565b90555b604051906121c982612702565b600682526020820190600182528c5f526004602052602060405f209160405192839187518091845e82019081520301902091519060088210156107405760ff61ff0084549251151560081b1692169061ffff19161717905560015f806120f5565b90601f19831691845f52815f20925f5b818110612275575090846001959493921061225d575b505050811b0190556121bc565b01515f1960f88460031b161c191690555f8080612250565b9293602060018192878601518155019501930161223a565b919350916020806122aa600193605f198a82030188528851612907565b960194019201859394929161212c565b6122d79192503d805f833e6122cf818361271d565b810190612942565b905f6120ef565b611ed39293506122ff91506040519283916020808401526040830190612907565b8b5f52600360205260405f206020604051809286518087845e820190815203019020815190916001600160401b0382116107c2576123418261069a85546127a0565b602090601f83116001146123dd5761236f92915f91836107545750508160011b915f199060031b1c19161790565b90555b6040519061237f82612702565b6006825260208201905f82528c5f526004602052602060405f209160405192839187518091845e82019081520301902091519060088210156107405760ff61ff0084549251151560081b1692169061ffff19161717905560016120f8565b90601f19831691845f52815f20925f5b8181106124285750908460019594939210612410575b505050811b019055612372565b01515f1960f88460031b161c191690555f8080612403565b929360206001819287860151815501950193016123ed565b61245d9192503d805f833e612455818361271d565b8101906128df565b905f6120ad565b60405163038a07f760e51b815260206004820152806106146024820185612907565b5095509850989150945060ff919550905f808080610483565b6124b49192503d805f833e6122cf818361271d565b905f61047d565b50509391505060019193505b0190916101ba565b6124e391503d805f833e612455818361271d565b5f6103c0565b6040513d5f823e3d90fd5b61250891503d8084833e612455818361271d565b5f610110565b5f612535916040518093819263ddd2128d60e01b8352602060048401526024830190612907565b0381835f516020616d2c5f395f51905f525af180156124e95761256a915f916124cf5750835f52600260205260405f20612827565b6103d2565b6125849192503d805f833e612455818361271d565b905f61032a565b634e487b7160e01b5f52603260045260245ffd5b92905060019193506124c7565b6125c091503d805f833e6122cf818361271d565b5f610247565b604051613feb9081612d418239f35b6125e991503d805f833e6122cf818361271d565b5f6101b5565b61260391503d805f833e612455818361271d565b5f610154565b90508401515f6100a2565b601f198216905f8052805f20915f5b8181106126625750925f9492600192826100ea98961061264a575b5050811b0183556100b8565b850151861960f88460031b161c191690555f8061263e565b9192602060018192868a015181550194019201612623565b6305d79a4360e31b5f5260045ffd5b506040516364af255d60e01b81526004808201526020816024815f516020616d2c5f395f51905f525afa9081156124e9575f916126c8575b501561005a565b90506020813d6020116126fa575b816126e36020938361271d565b8101031261088e576126f490612793565b5f6126c1565b3d91506126d6565b604081019081106001600160401b038211176107c257604052565b601f909101601f19168101906001600160401b038211908210176107c257604052565b81601f8201121561088e578051906020016001600160401b0382116107c25760405192612777601f8401601f19166020018561271d565b8284528282011161088e57815f926020928386015e8301015290565b5190811515820361088e57565b90600182811c921680156127ce575b60208310146127ba57565b634e487b7160e01b5f52602260045260245ffd5b91607f16916127af565b601f82116127e557505050565b5f5260205f20906020601f840160051c8301931061281d575b601f0160051c01905b818110612812575050565b5f8155600101612807565b90915081906127fe565b81519192916001600160401b0381116107c25761284e8161284884546127a0565b846127d8565b6020601f821160011461288157819061287d9394955f926107545750508160011b915f199060031b1c19161790565b9055565b601f19821690835f52805f20915f5b8181106128c7575095836001959697106128af575b505050811b019055565b01515f1960f88460031b161c191690555f80806128a5565b9192602060018192868b015181550194019201612890565b9060208282031261088e5781516001600160401b03811161088e576129049201612740565b90565b805180835260209291819084018484015e5f828201840152601f01601f1916010190565b6001600160401b0381116107c25760051b60200190565b60208183031261088e578051906001600160401b03821161088e57019080601f8301121561088e5781516129758161292b565b92612983604051948561271d565b81845260208085019260051b8201019183831161088e5760208201905b8382106129af57505050505090565b81516001600160401b03811161088e576020916129d187848094880101612740565b8152019101906129a0565b805182101561258b5760209160051b010190565b9091612a0761290493604084526040840190612907565b916020818403910152612907565b60405163fa91454d60e01b81526020600482018190528180612a3a6024820186612907565b03815f516020616d2c5f395f51905f525afa5f9181612b9a575b50612b955750604051634cc1c2bb60e01b8152602060048201525f8180612a7e6024820186612907565b03815f516020616d2c5f395f51905f525afa5f9181612ac8575b50612abf576040516397aa94df60e01b815260206004820152806106146024820185612907565b60209150015190565b9091503d805f833e612ada818361271d565b81019060208183031261088e578051906001600160401b03821161088e570160808183031261088e5760405191608083016001600160401b038111848210176107c25760405281516001600160401b03811161088e5781612b3c918401612740565b83526020828101519084015260408201516001600160401b03811161088e5781612b67918401612740565b604084015260608201516001600160401b03811161088e57612b899201612740565b6060820152905f612a98565b905090565b9091506020813d602011612bc6575b81612bb66020938361271d565b8101031261088e5751905f612a54565b3d9150612ba9565b60088110156107405760018114612d095760028114612ce35760038114612cbd5760048114612c9a5760058114612c785760068114612c5357600714612c3057604051612c1c60408261271d565b60048152636e6f6e6560e01b602082015290565b604051612c3e60408261271d565b6005815264627974657360d81b602082015290565b50604051612c6260408261271d565b6006815265737472696e6760d01b602082015290565b50604051612c8760408261271d565b60038152621a5b9d60ea1b602082015290565b50604051612ca960408261271d565b60048152631d5a5b9d60e21b602082015290565b50604051612ccc60408261271d565b6007815266313cba32b9999960c91b602082015290565b50604051612cf260408261271d565b60078152666164647265737360c81b602082015290565b50604051612d1860408261271d565b6004815263189bdbdb60e21b602082015290565b51906001600160a01b038216820361088e5756fe60806040526004361015610011575f80fd5b5f3560e01c806307d79d9a146113d057806308f7b4b2146113745780631d7763231461127f57806322dc48fd146112405780632b29c0fa146111825780632e3196a5146110dc5780632ef8ba74146110365780633f3a758814610ff457806343ec8b6a14610f605780634d85ce8014610f0457806359b3952614610e465780635eba0df014610df757806361141c9714610d9b5780636556095014610d3f578063693ec85e14610c945780637b8fed8114610bd65780637df3ef1214610b87578063805da4ad14610b3957806388c63d4514610a7b5780638a42ebe9146109d55780638be199241461097957806393dbe6e01461091d578063a815ff151461086b578063b3a6400114610823578063ba0ff22c14610778578063c91ca7ba146106ba578063cf1cfa991461067b578063cf72a2f31461061f578063d6698dc41461055b578063db0075df146104ff578063de0fc9b314610441578063e298d00b146103e5578063e605325014610327578063e942b516146102695763fa3c074a1461019a575f80fd5b34610252576040366003190112610252576004356001600160401b038111610252576101ca90369060040161147a565b6024356001600160401b038111610252576101e99036906004016116cc565b6040516303408e4760e41b8152916020836004815f516020613f965f395f51905f525afa801561025e575f90610226575b610224935061372b565b005b506020833d602011610256575b816102406020938361143e565b8101031261025257610224925161021a565b5f80fd5b3d9150610233565b6040513d5f823e3d90fd5b34610252576040366003190112610252576004356001600160401b0381116102525761029990369060040161147a565b6024356001600160401b038111610252576102b890369060040161147a565b6040516303408e4760e41b8152916020836004815f516020613f965f395f51905f525afa801561025e575f906102f3575b61022493506127c7565b506020833d60201161031f575b8161030d6020938361143e565b810103126102525761022492516102e9565b3d9150610300565b34610252576040366003190112610252576004356001600160401b0381116102525761035790369060040161147a565b6024356001600160401b038111610252576103769036906004016114d5565b6040516303408e4760e41b8152916020836004815f516020613f965f395f51905f525afa801561025e575f906103b1575b6102249350611ac5565b506020833d6020116103dd575b816103cb6020938361143e565b810103126102525761022492516103a7565b3d91506103be565b34610252576060366003190112610252576024356001600160401b0381116102525761041590369060040161147a565b604435906001600160401b038211610252576104386102249236906004016116cc565b9060043561372b565b34610252576040366003190112610252576004356001600160401b0381116102525761047190369060040161147a565b6024356001600160401b038111610252576104909036906004016114d5565b6040516303408e4760e41b8152916020836004815f516020613f965f395f51905f525afa801561025e575f906104cb575b6102249350612a45565b506020833d6020116104f7575b816104e56020938361143e565b810103126102525761022492516104c1565b3d91506104d8565b34610252576060366003190112610252576024356001600160401b0381116102525761052f90369060040161147a565b604435906001600160401b038211610252576105526102249236906004016114d5565b9060043561351a565b34610252576020366003190112610252576004358015159081810361025257806105a5575b6105965760ff8019600554169116176005555f80f35b6305d79a4360e31b5f5260045ffd5b506040516364af255d60e01b81526004808201526020816024815f516020613f965f395f51905f525afa90811561025e575f916105e4575b5015610580565b90506020813d602011610617575b816105ff6020938361143e565b810103126102525751801515810361025257826105dd565b3d91506105f2565b34610252576060366003190112610252576024356001600160401b0381116102525761064f90369060040161147a565b604435906001600160401b0382116102525761067261022492369060040161158f565b906004356132dd565b34610252576060366003190112610252576024356001600160401b038111610252576106ae61022491369060040161147a565b6044359060043561310a565b34610252576040366003190112610252576004356001600160401b038111610252576106ea90369060040161147a565b6024356001600160401b0381116102525761070990369060040161158f565b6040516303408e4760e41b8152916020836004815f516020613f965f395f51905f525afa801561025e575f90610744575b6102249350612cb2565b506020833d602011610770575b8161075e6020938361143e565b8101031261025257610224925161073a565b3d9150610751565b34610252576040366003190112610252576004356001600160401b038111610252576107a890369060040161147a565b6024358015158103610252576040516303408e4760e41b8152916020836004815f516020613f965f395f51905f525afa801561025e575f906107ef575b6102249350612f37565b506020833d60201161081b575b816108096020938361143e565b810103126102525761022492516107e5565b3d91506107fc565b34610252576060366003190112610252576024356001600160401b0381116102525761085390369060040161147a565b60443580151581036102525761022491600435612f37565b34610252576040366003190112610252576004356001600160401b0381116102525761089b90369060040161147a565b6024356001600160a01b0381168103610252576040516303408e4760e41b8152916020836004815f516020613f965f395f51905f525afa801561025e575f906108e9575b6102249350612384565b506020833d602011610915575b816109036020938361143e565b810103126102525761022492516108df565b3d91506108f6565b34610252576060366003190112610252576024356001600160401b0381116102525761094d90369060040161147a565b604435906001600160401b0382116102525761097061022492369060040161158f565b90600435612cb2565b34610252576060366003190112610252576024356001600160401b038111610252576109a990369060040161147a565b604435906001600160401b038211610252576109cc6102249236906004016114d5565b90600435612a45565b34610252576040366003190112610252576004356001600160401b03811161025257610a0590369060040161147a565b6040516303408e4760e41b8152906020826004815f516020613f965f395f51905f525afa90811561025e575f91610a45575b610224925060243591611dfd565b90506020823d602011610a73575b81610a606020938361143e565b8101031261025257610224915190610a37565b3d9150610a53565b34610252576040366003190112610252576004356001600160401b03811161025257610aab90369060040161147a565b6024356001600160401b03811161025257610aca90369060040161160d565b6040516303408e4760e41b8152916020836004815f516020613f965f395f51905f525afa801561025e575f90610b05575b6102249350612561565b506020833d602011610b31575b81610b1f6020938361143e565b81010312610252576102249251610afb565b3d9150610b12565b34610252576040366003190112610252576024356001600160401b03811161025257610b77610b6f610b8392369060040161147a565b6004356129c2565b6040519182918261167b565b0390f35b34610252576020366003190112610252576004355f526002602052610b83610bbb610bc260405f2060405192838092611d7c565b038261143e565b60405191829160208352602083019061156b565b34610252576040366003190112610252576004356001600160401b03811161025257610c0690369060040161147a565b6024356001600160401b03811161025257610c259036906004016114d5565b6040516303408e4760e41b8152916020836004815f516020613f965f395f51905f525afa801561025e575f90610c60575b610224935061351a565b506020833d602011610c8c575b81610c7a6020938361143e565b81010312610252576102249251610c56565b3d9150610c6d565b34610252576020366003190112610252576004356001600160401b03811161025257610cc490369060040161147a565b610ccc612966565b506040516303408e4760e41b81526020816004815f516020613f965f395f51905f525afa90811561025e575f91610d0b575b610b83610b7784846129c2565b90506020813d602011610d37575b81610d266020938361143e565b810103126102525751610b83610cfe565b3d9150610d19565b34610252576060366003190112610252576024356001600160401b03811161025257610d6f90369060040161147a565b604435906001600160401b03821161025257610d9261022492369060040161147a565b906004356127c7565b34610252576060366003190112610252576024356001600160401b03811161025257610dcb90369060040161147a565b604435906001600160401b03821161025257610dee61022492369060040161160d565b90600435612561565b34610252576060366003190112610252576024356001600160401b03811161025257610e2790369060040161147a565b6044356001600160a01b03811681036102525761022491600435612384565b34610252576040366003190112610252576004356001600160401b03811161025257610e7690369060040161147a565b6024356001600160401b03811161025257610e9590369060040161158f565b6040516303408e4760e41b8152916020836004815f516020613f965f395f51905f525afa801561025e575f90610ed0575b61022493506132dd565b506020833d602011610efc575b81610eea6020938361143e565b81010312610252576102249251610ec6565b3d9150610edd565b34610252576060366003190112610252576024356001600160401b03811161025257610f3490369060040161147a565b604435906001600160401b03821161025257610f5761022492369060040161147a565b90600435612189565b34610252575f366003190112610252576040516303408e4760e41b81526020816004815f516020613f965f395f51905f525afa90811561025e575f91610fc2575b505f526002602052610b83610bbb610bc260405f2060405192838092611d7c565b90506020813d602011610fec575b81610fdd6020938361143e565b81010312610252575181610fa1565b3d9150610fd0565b34610252576020366003190112610252576004356001600160401b0381116102525761102e611029602092369060040161147a565b611fcc565b604051908152f35b34610252576040366003190112610252576004356001600160401b0381116102525761106690369060040161147a565b6040516303408e4760e41b8152906020826004815f516020613f965f395f51905f525afa90811561025e575f916110a6575b6102249250602435916117d6565b90506020823d6020116110d4575b816110c16020938361143e565b8101031261025257610224915190611098565b3d91506110b4565b34610252576040366003190112610252576004356001600160401b0381116102525761110c90369060040161147a565b6040516303408e4760e41b8152906020826004815f516020613f965f395f51905f525afa90811561025e575f9161114c575b61022492506024359161310a565b90506020823d60201161117a575b816111676020938361143e565b810103126102525761022491519061113e565b3d915061115a565b34610252576040366003190112610252576004356001600160401b038111610252576111b290369060040161147a565b6024356001600160401b038111610252576111d190369060040161147a565b6040516303408e4760e41b8152916020836004815f516020613f965f395f51905f525afa801561025e575f9061120c575b6102249350612189565b506020833d602011611238575b816112266020938361143e565b81010312610252576102249251611202565b3d9150611219565b34610252576060366003190112610252576024356001600160401b0381116102525761127361022491369060040161147a565b60443590600435611dfd565b34610252575f3660031901126102525760015461129b816114be565b906112a9604051928361143e565b8082526020820160015f527fb10e2d527612073b26eecdfd717e6a320cf44b4afac2b0732d9fcbe2b7fa0cf65f915b83831061134f578451856112eb826114be565b916112f9604051938461143e565b808352611308601f19916114be565b013660208401375f5b8151811015611341578061133061132a600193856119f3565b51611fcc565b61133a82866119f3565b5201611311565b60405180610b838582611532565b60016020819260405161136681610bbb8189611d7c565b8152019201920191906112d8565b34610252576060366003190112610252576024356001600160401b038111610252576113a490369060040161147a565b604435906001600160401b038211610252576113c76102249236906004016114d5565b90600435611ac5565b34610252576060366003190112610252576024356001600160401b0381116102525761140361022491369060040161147a565b604435906004356117d6565b604081019081106001600160401b0382111761142a57604052565b634e487b7160e01b5f52604160045260245ffd5b90601f801991011681019081106001600160401b0382111761142a57604052565b6001600160401b03811161142a57601f01601f191660200190565b81601f82011215610252576020813591016114948261145f565b926114a2604051948561143e565b8284528282011161025257815f92602092838601378301015290565b6001600160401b03811161142a5760051b60200190565b9080601f830112156102525781356114ec816114be565b926114fa604051948561143e565b81845260208085019260051b82010192831161025257602001905b8282106115225750505090565b8135815260209182019101611515565b60206040818301928281528451809452019201905f5b8181106115555750505090565b8251845260209384019390920191600101611548565b805180835260209291819084018484015e5f828201840152601f01601f1916010190565b9080601f830112156102525781356115a6816114be565b926115b4604051948561143e565b81845260208085019260051b820101918383116102525760208201905b8382106115e057505050505090565b81356001600160401b038111610252576020916116028784809488010161147a565b8152019101906115d1565b9080601f8301121561025257813590611625826114be565b92611633604051948561143e565b82845260208085019360051b82010191821161025257602001915b81831061165b5750505090565b82356001600160a01b03811681036102525781526020928301920161164e565b60208152815180519060088210156116b8576116b5936020809260809482870152015115156040850152015191606080820152019061156b565b90565b634e487b7160e01b5f52602160045260245ffd5b9080601f83011215610252578135906116e4826114be565b926116f2604051948561143e565b82845260208085019360051b82010191821161025257602001915b81831061171a5750505090565b823580151581036102525781526020928301920161170d565b90600182811c92168015611761575b602083101461174d57565b634e487b7160e01b5f52602260045260245ffd5b91607f1691611742565b81601f82011215610252578051906117828261145f565b92611790604051948561143e565b8284526020838301011161025257815f9260208093018386015e8301015290565b906020828203126102525781516001600160401b038111610252576116b5920161176b565b906040516117e38161140f565b600581525f60208201526117f881838561397f565b6040518460208201526020815261181060408261143e565b835f52600360205260405f2060206040518092865180848901845e820190815203019020908051906001600160401b03821161142a5781906118528454611733565b601f8111611984575b50602090601f8311600114611921575f92611916575b50508160011b915f199060031b1c19161790555b60ff60055416611896575b50505050565b5160088110156116b8576118a990613b71565b60405193635191620760e11b855260048501525f846024815f516020613f965f395f51905f525afa92831561025e576118e9945f946118f2575b50613c2a565b5f808080611890565b61190f9194503d805f833e611907818361143e565b8101906117b1565b925f6118e3565b015190505f80611871565b5f8581528281209350601f198516905b81811061196c5750908460019594939210611954575b505050811b019055611885565b01515f1960f88460031b161c191690555f8080611947565b92936020600181928786015181550195019301611931565b909150835f5260205f20601f840160051c810191602085106119ca575b90601f859493920160051c01905b8181106119bc575061185b565b5f81558493506001016119af565b90915081906119a1565b604051906119e360408361143e565b60018252605b60f81b6020830152565b8051821015611a075760209160051b010190565b634e487b7160e01b5f52603260045260245ffd5b611a59906020808095946040519684889551918291018487015e8401908282015f8152815193849201905e01015f815203601f19810184528361143e565b565b90611a596001602080946040519581879251918291018484015e8101600b60fa1b838201520301601e1981018552018361143e565b90611a596001602080946040519581879251918291018484015e8101605d60f81b838201520301601e1981018552018361143e565b60405190611ad28261140f565b6003825260016020830152611ae882848361397f565b604051604081016020808301528551809152816060810160208801925f5b818110611d63575050611b22925003601f19810183528261143e565b815f52600360205260405f2060206040518092875180848a01845e820190815203019020908051906001600160401b03821161142a578190611b648454611733565b601f8111611d13575b50602090601f8311600114611cb0575f92611ca5575b50508160011b915f199060031b1c19161790555b60ff60055416611ba75750505050565b611bb494919293946119d4565b925f935b8651851015611c7757611bcb85886119f3565b519060405191631623433d60e31b835260048301525f826024815f516020613f965f395f51905f525afa91821561025e57611c1792611c11915f91611c5d575b50613dd5565b90611a1b565b9386515f198101908111611c49578110611c35575b60010193611bb8565b93611c41600191611a5b565b949050611c2c565b634e487b7160e01b5f52601160045260245ffd5b611c7191503d805f833e611907818361143e565b5f611c0b565b909350611c879194929550611a90565b91519260088410156116b857611c9f6118e994613b71565b90613c2a565b015190505f80611b83565b5f8581528281209350601f198516905b818110611cfb5750908460019594939210611ce3575b505050811b019055611b97565b01515f1960f88460031b161c191690555f8080611cd6565b92936020600181928786015181550195019301611cc0565b909150835f5260205f20601f840160051c81019160208510611d59575b90601f859493920160051c01905b818110611d4b5750611b6d565b5f8155849350600101611d3e565b9091508190611d30565b8451835260209485019486945090920191600101611b06565b5f9291815491611d8b83611733565b8083529260018116908115611de05750600114611da757505050565b5f9081526020812093945091925b838310611dc6575060209250010190565b600181602092949394548385870101520191019190611db5565b915050602093945060ff929192191683830152151560051b010190565b90604051611e0a8161140f565b600481525f6020820152611e1f81838561397f565b60405184602082015260208152611e3760408261143e565b835f52600360205260405f2060206040518092865180848901845e820190815203019020908051906001600160401b03821161142a578190611e798454611733565b601f8111611f7c575b50602090601f8311600114611f19575f92611f0e575b50508160011b915f199060031b1c19161790555b60ff60055416611ebc5750505050565b5160088110156116b857611ecf90613b71565b6040519363348051d760e11b855260048501525f846024815f516020613f965f395f51905f525afa92831561025e576118e9945f946118f25750613c2a565b015190505f80611e98565b5f8581528281209350601f198516905b818110611f645750908460019594939210611f4c575b505050811b019055611eac565b01515f1960f88460031b161c191690555f8080611f3f565b92936020600181928786015181550195019301611f29565b909150835f5260205f20601f840160051c81019160208510611fc2575b90601f859493920160051c01905b818110611fb45750611e82565b5f8155849350600101611fa7565b9091508190611f99565b60405163fa91454d60e01b81526020600482018190528180611ff1602482018661156b565b03815f516020613f965f395f51905f525afa5f9181612155575b506121505750604051634cc1c2bb60e01b8152602060048201525f8180612035602482018661156b565b03815f516020613f965f395f51905f525afa5f9181612083575b5061207a576040516397aa94df60e01b81526020600482015280612076602482018561156b565b0390fd5b60209150015190565b9091503d805f833e612095818361143e565b810190602081830312610252578051906001600160401b03821161025257016080818303126102525760405191608083018381106001600160401b0382111761142a5760405281516001600160401b03811161025257816120f791840161176b565b83526020820151602084015260408201516001600160401b038111610252578161212291840161176b565b604084015260608201516001600160401b03811161025257612144920161176b565b6060820152905f61204f565b905090565b9091506020813d602011612181575b816121716020938361143e565b810103126102525751905f61200b565b3d9150612164565b906040516121968161140f565b600781525f60208201526121ab81838561397f565b6040516020808201526121d3816121c5604082018861156b565b03601f19810183528261143e565b835f52600360205260405f2060206040518092865180848901845e820190815203019020908051906001600160401b03821161142a5781906122158454611733565b601f8111612334575b50602090601f83116001146122d1575f926122c6575b50508160011b915f199060031b1c19161790555b60ff600554166122585750505050565b519260088410156116b8575f61227061229395613b71565b91604051809681926371aad10d60e01b835260206004840152602483019061156b565b03815f516020613f965f395f51905f525afa93841561025e576118e9946122c0915f91611c5d5750613dd5565b92613c2a565b015190505f80612234565b5f8581528281209350601f198516905b81811061231c5750908460019594939210612304575b505050811b019055612248565b01515f1960f88460031b161c191690555f80806122f7565b929360206001819287860151815501950193016122e1565b909150835f5260205f20601f840160051c8101916020851061237a575b90601f859493920160051c01905b81811061236c575061221e565b5f815584935060010161235f565b9091508190612351565b906040516123918161140f565b600281525f60208201526123a681838561397f565b6040519360018060a01b031693846020820152602081526123c860408261143e565b835f52600360205260405f2060206040518092865180848901845e820190815203019020908051906001600160401b03821161142a57819061240a8454611733565b601f8111612511575b50602090601f83116001146124ae575f926124a3575b50508160011b915f199060031b1c19161790555b60ff6005541661244d5750505050565b5160088110156116b85761246090613b71565b60405193632b65311f60e11b855260048501525f846024815f516020613f965f395f51905f525afa93841561025e576118e9946122c0915f91611c5d5750613dd5565b015190505f80612429565b5f8581528281209350601f198516905b8181106124f957509084600195949392106124e1575b505050811b01905561243d565b01515f1960f88460031b161c191690555f80806124d4565b929360206001819287860151815501950193016124be565b909150835f5260205f20601f840160051c81019160208510612557575b90601f859493920160051c01905b8181106125495750612413565b5f815584935060010161253c565b909150819061252e565b6040519061256e8261140f565b600282526001602083015261258482848361397f565b604051604081016020808301528551809152816060810160208801925f5b8181106127a55750506125be925003601f19810183528261143e565b815f52600360205260405f2060206040518092875180848a01845e820190815203019020908051906001600160401b03821161142a5781906126008454611733565b601f8111612755575b50602090601f83116001146126f2575f926126e7575b50508160011b915f199060031b1c19161790555b60ff600554166126435750505050565b61265094919293946119d4565b925f935b8651851015611c77576001600160a01b0361266f86896119f3565b51604051632b65311f60e11b815291166004820152905f826024815f516020613f965f395f51905f525afa91821561025e576126b592611c11915f91611c5d5750613dd5565b9386515f198101908111611c495781106126d3575b60010193612654565b936126df600191611a5b565b9490506126ca565b015190505f8061261f565b5f8581528281209350601f198516905b81811061273d5750908460019594939210612725575b505050811b019055612633565b01515f1960f88460031b161c191690555f8080612718565b92936020600181928786015181550195019301612702565b909150835f5260205f20601f840160051c8101916020851061279b575b90601f859493920160051c01905b81811061278d5750612609565b5f8155849350600101612780565b9091508190612772565b84516001600160a01b03168352602094850194869450909201916001016125a2565b906040516127d48161140f565b600681525f60208201526127e981838561397f565b604051602080820152612803816121c5604082018861156b565b835f52600360205260405f2060206040518092865180848901845e820190815203019020908051906001600160401b03821161142a5781906128458454611733565b601f8111612916575b50602090601f83116001146128b3575f926128a8575b50508160011b915f199060031b1c19161790555b60ff600554166128885750505050565b519260088410156116b8576122c06128a26118e995613b71565b91613dd5565b015190505f80612864565b5f8581528281209350601f198516905b8181106128fe57509084600195949392106128e6575b505050811b019055612878565b01515f1960f88460031b161c191690555f80806128d9565b929360206001819287860151815501950193016128c3565b909150835f5260205f20601f840160051c8101916020851061295c575b90601f859493920160051c01905b81811061294e575061284e565b5f8155849350600101612941565b9091508190612933565b604051906129738261140f565b60606020836040516129848161140f565b5f81525f8382015281520152565b9060405161299f8161140f565b80925460ff811660088110156116b85760209160ff91845260081c161515910152565b90612a3d610bbb916129d2612966565b50835f526004602052602060405f20916040518281835195828501968088845e820190815203019020955f526003825260405f20604051938492518091845e820190815203019020612a2f60405194612a2a8661140f565b612992565b845260405192838092611d7c565b602082015290565b60405190612a528261140f565b6005825260016020830152612a6882848361397f565b604051604081016020808301528551809152816060810160208801925f5b818110612c99575050612aa2925003601f19810183528261143e565b815f52600360205260405f2060206040518092875180848a01845e820190815203019020908051906001600160401b03821161142a578190612ae48454611733565b601f8111612c49575b50602090601f8311600114612be6575f92612bdb575b50508160011b915f199060031b1c19161790555b60ff60055416612b275750505050565b612b3494919293946119d4565b925f935b8651851015611c7757612b4b85886119f3565b519060405191635191620760e11b835260048301525f826024815f516020613f965f395f51905f525afa90811561025e57612b8d925f92612bbf575b50611a1b565b9386515f198101908111611c49578110612bab575b60010193612b38565b93612bb7600191611a5b565b949050612ba2565b612bd49192503d805f833e611907818361143e565b905f612b87565b015190505f80612b03565b5f8581528281209350601f198516905b818110612c315750908460019594939210612c19575b505050811b019055612b17565b01515f1960f88460031b161c191690555f8080612c0c565b92936020600181928786015181550195019301612bf6565b909150835f5260205f20601f840160051c81019160208510612c8f575b90601f859493920160051c01905b818110612c815750612aed565b5f8155849350600101612c74565b9091508190612c66565b8451835260209485019486945090920191600101612a86565b60405190612cbf8261140f565b6007825260016020830152612cd582848361397f565b60405160408101602080830152855180915281606081019160608160051b8301019060208901935f905b828210612f0a57505050612d1c925003601f19810183528261143e565b815f52600360205260405f2060206040518092875180848a01845e820190815203019020908051906001600160401b03821161142a578190612d5e8454611733565b601f8111612eba575b50602090601f8311600114612e57575f92612e4c575b50508160011b915f199060031b1c19161790555b60ff60055416612da15750505050565b612dae94919293946119d4565b925f935b8651851015611c7757612ded905f612dca878a6119f3565b51604051809481926371aad10d60e01b835260206004840152602483019061156b565b03815f516020613f965f395f51905f525afa91821561025e57612e1a92611c11915f91611c5d5750613dd5565b9386515f198101908111611c49578110612e38575b60010193612db2565b93612e44600191611a5b565b949050612e2f565b015190505f80612d7d565b5f8581528281209350601f198516905b818110612ea25750908460019594939210612e8a575b505050811b019055612d91565b01515f1960f88460031b161c191690555f8080612e7d565b92936020600181928786015181550195019301612e67565b909150835f5260205f20601f840160051c81019160208510612f00575b90601f859493920160051c01905b818110612ef25750612d67565b5f8155849350600101612ee5565b9091508190612ed7565b91935091602080612f27600193605f198a8203018652885161156b565b9601920192018593919492612cff565b90604051612f448161140f565b600181525f6020820152612f5981838561397f565b6040519315159384602082015260208152612f7560408261143e565b835f52600360205260405f2060206040518092865180848901845e820190815203019020908051906001600160401b03821161142a578190612fb78454611733565b601f81116130ba575b50602090601f8311600114613057575f9261304c575b50508160011b915f199060031b1c19161790555b60ff60055416612ffa5750505050565b5160088110156116b85761300d90613b71565b604051936338ee73ed60e11b855260048501525f846024815f516020613f965f395f51905f525afa92831561025e576118e9945f946118f25750613c2a565b015190505f80612fd6565b5f8581528281209350601f198516905b8181106130a2575090846001959493921061308a575b505050811b019055612fea565b01515f1960f88460031b161c191690555f808061307d565b92936020600181928786015181550195019301613067565b909150835f5260205f20601f840160051c81019160208510613100575b90601f859493920160051c01905b8181106130f25750612fc0565b5f81558493506001016130e5565b90915081906130d7565b906040516131178161140f565b600381525f602082015261312c81838561397f565b6040518460208201526020815261314460408261143e565b835f52600360205260405f2060206040518092865180848901845e820190815203019020908051906001600160401b03821161142a5781906131868454611733565b601f811161328d575b50602090601f831160011461322a575f9261321f575b50508160011b915f199060031b1c19161790555b60ff600554166131c95750505050565b5160088110156116b8576131dc90613b71565b60405193631623433d60e31b855260048501525f846024815f516020613f965f395f51905f525afa93841561025e576118e9946122c0915f91611c5d5750613dd5565b015190505f806131a5565b5f8581528281209350601f198516905b818110613275575090846001959493921061325d575b505050811b0190556131b9565b01515f1960f88460031b161c191690555f8080613250565b9293602060018192878601518155019501930161323a565b909150835f5260205f20601f840160051c810191602085106132d3575b90601f859493920160051c01905b8181106132c5575061318f565b5f81558493506001016132b8565b90915081906132aa565b604051906132ea8261140f565b600682526001602083015261330082848361397f565b60405160408101602080830152855180915281606081019160608160051b8301019060208901935f905b8282106134ed57505050613347925003601f19810183528261143e565b815f52600360205260405f2060206040518092875180848a01845e820190815203019020908051906001600160401b03821161142a5781906133898454611733565b601f811161349d575b50602090601f831160011461343a575f9261342f575b50508160011b915f199060031b1c19161790555b60ff600554166133cc5750505050565b6133d994919293946119d4565b925f935b8651851015611c77576133fd90611c116133f7878a6119f3565b51613dd5565b9386515f198101908111611c4957811061341b575b600101936133dd565b93613427600191611a5b565b949050613412565b015190505f806133a8565b5f8581528281209350601f198516905b818110613485575090846001959493921061346d575b505050811b0190556133bc565b01515f1960f88460031b161c191690555f8080613460565b9293602060018192878601518155019501930161344a565b909150835f5260205f20601f840160051c810191602085106134e3575b90601f859493920160051c01905b8181106134d55750613392565b5f81558493506001016134c8565b90915081906134ba565b9193509160208061350a600193605f198a8203018652885161156b565b960192019201859391949261332a565b604051906135278261140f565b600482526001602083015261353d82848361397f565b604051613551816121c58760208301611532565b815f52600360205260405f2060206040518092875180848a01845e820190815203019020908051906001600160401b03821161142a5781906135938454611733565b601f81116136db575b50602090601f8311600114613678575f9261366d575b50508160011b915f199060031b1c19161790555b60ff600554166135d65750505050565b6135e394919293946119d4565b925f935b8651851015611c77576135fa85886119f3565b51906040519163348051d760e11b835260048301525f826024815f516020613f965f395f51905f525afa90811561025e5761363b925f92612bbf5750611a1b565b9386515f198101908111611c49578110613659575b600101936135e7565b93613665600191611a5b565b949050613650565b015190505f806135b2565b5f8581528281209350601f198516905b8181106136c357509084600195949392106136ab575b505050811b0190556135c6565b01515f1960f88460031b161c191690555f808061369e565b92936020600181928786015181550195019301613688565b909150835f5260205f20601f840160051c81019160208510613721575b90601f859493920160051c01905b818110613713575061359c565b5f8155849350600101613706565b90915081906136f8565b604051906137388261140f565b600182526001602083015261374e82848361397f565b604051604081016020808301528551809152816060810160208801925f5b818110613964575050613788925003601f19810183528261143e565b815f52600360205260405f2060206040518092875180848a01845e820190815203019020908051906001600160401b03821161142a5781906137ca8454611733565b601f8111613914575b50602090601f83116001146138b1575f926138a6575b50508160011b915f199060031b1c19161790555b60ff6005541661380d5750505050565b61381a94919293946119d4565b925f935b8651851015611c775761383185886119f3565b516040516338ee73ed60e11b81529015156004820152905f826024815f516020613f965f395f51905f525afa90811561025e57613874925f92612bbf5750611a1b565b9386515f198101908111611c49578110613892575b6001019361381e565b9361389e600191611a5b565b949050613889565b015190505f806137e9565b5f8581528281209350601f198516905b8181106138fc57509084600195949392106138e4575b505050811b0190556137fd565b01515f1960f88460031b161c191690555f80806138d7565b929360206001819287860151815501950193016138c1565b909150835f5260205f20601f840160051c8101916020851061395a575b90601f859493920160051c01905b81811061394c57506137d3565b5f815584935060010161393f565b9091508190613931565b8451151583526020948501948694509092019160010161376c565b9190825f52600460205260405f20906139b0604051602081845195828601968088845e820190815203019020612992565b93845160088110156116b857613a11576020929394505f526004825260405f20604051938492518091845e8201908152030190209080519060088210156116b85760ff61ff0060208554930151151560081b1692169061ffff191617179055565b505050815160088110156116b85781519060088210156116b8571480613a87575b15613a3b575050565b90612076613a54613a4e613a7594613e8e565b92613e8e565b60405193849363b02cf71d60e01b855260406004860152604485019061156b565b8381036003190160248501529061156b565b50602082015115156020820151151514613a32565b60405190613aab60408361143e565b6004825263189bdbdb60e21b6020830152565b60405190613acd60408361143e565b60078252666164647265737360c81b6020830152565b60405190613af260408361143e565b6007825266313cba32b9999960c91b6020830152565b60405190613b1760408361143e565b6006825265737472696e6760d01b6020830152565b60405190613b3b60408361143e565b6005825264627974657360d81b6020830152565b60405190613b5e60408361143e565b60048252636e6f6e6560e01b6020830152565b60088110156116b85760018114613c215760028114613c185760038114613c0f5760048114613bec5760058114613bca5760068114613bc157600714613bb9576116b5613b4f565b6116b5613b2c565b506116b5613b08565b50604051613bd960408261143e565b60038152621a5b9d60ea1b602082015290565b50604051613bfb60408261143e565b60048152631d5a5b9d60e21b602082015290565b506116b5613ae3565b506116b5613abe565b506116b5613a9c565b613ca091600160208095602282613c418597613e2c565b95604051998a9761121760f11b828a0152805191829101858a015e870190601760f91b84830152805192839101602383015e010190601760f91b84830152805192839101600283015e01015f838201520301601f19810183528261143e565b5f516020613f965f395f51905f523b15610252576040516351ac6a3360e01b815260606004820152918290613cd990606483019061156b565b8181036003190160248301525f80549091613cf382611733565b8082529160018116908115613daf5750600114613d4f575b5050613d2582915f9460031984830301604485015261156b565b0381835f516020613f965f395f51905f525af1801561025e57613d455750565b5f611a599161143e565b5f8080527f290decd9548b62a8d60345a988386fc84ba6bc95484008f6362f93160ef3e563959350915b808310613d91575091935001602001613d255f613d0b565b93509193600181602092548385870101520191019093918593613d79565b60ff191660208381019190915292151560051b9091019091019150613d2590505f613d0b565b90611a5960016021602094604051958691601160f91b828401528051918291018484015e8101601160f91b838201520301601e1981018552018361143e565b600154811015611a075760015f5260205f2001905f90565b905f600154905b818110613e4d5783631ff94f8360e11b5f5260045260245ffd5b83613e6d610bbb611029613e6085613e14565b5060405192838092611d7c565b14613e7a57600101613e33565b610bbb9293506116b59150613e6090613e14565b805160088110156116b857613ea290613f02565b90602081015115908115613eef575b5015613eba5790565b6116b56002602080936040519481869251918291018484015e8101615b5d60f01b838201520301601d1981018452018261143e565b90505160088110156116b857155f613eb1565b60088110156116b85760018114613c215760028114613c185760038114613c0f5760048114613f6f5760058114613f4a5760068114613bc157600714613bb9576116b5613b4f565b50604051613f5960408261143e565b600681526534b73a191a9b60d11b602082015290565b50604051613f7e60408261143e565b60078152663ab4b73a191a9b60c91b60208201529056fe0000000000000000000000007109709ecfa91a80626ff3989d68f67f5b1dd12da26469706673582212201d365739a0088f3a2a4055408de19f7e527570e23e088230412879bc46dbd3ad64736f6c634300081c00330000000000000000000000007109709ecfa91a80626ff3989d68f67f5b1dd12d","linkReferences":{}},"methodIdentifiers":{"get(string)":"693ec85e","get(uint256,string)":"805da4ad","getChainIds()":"1d776323","getRpcUrl()":"43ec8b6a","getRpcUrl(uint256)":"7df3ef12","resolveChainId(string)":"3f3a7588","set(string,address)":"a815ff15","set(string,address[])":"88c63d45","set(string,bool)":"ba0ff22c","set(string,bool[])":"fa3c074a","set(string,bytes)":"2b29c0fa","set(string,bytes32)":"2e3196a5","set(string,bytes32[])":"e6053250","set(string,bytes[])":"c91ca7ba","set(string,int256)":"2ef8ba74","set(string,int256[])":"de0fc9b3","set(string,string)":"e942b516","set(string,string[])":"59b39526","set(string,uint256)":"8a42ebe9","set(string,uint256[])":"7b8fed81","set(uint256,string,address)":"5eba0df0","set(uint256,string,address[])":"61141c97","set(uint256,string,bool)":"b3a64001","set(uint256,string,bool[])":"e298d00b","set(uint256,string,bytes)":"4d85ce80","set(uint256,string,bytes32)":"cf1cfa99","set(uint256,string,bytes32[])":"08f7b4b2","set(uint256,string,bytes[])":"93dbe6e0","set(uint256,string,int256)":"07d79d9a","set(uint256,string,int256[])":"8be19924","set(uint256,string,string)":"65560950","set(uint256,string,string[])":"cf72a2f3","set(uint256,string,uint256)":"22dc48fd","set(uint256,string,uint256[])":"db0075df","writeUpdatesBackToFile(bool)":"d6698dc4"},"id":7}