{"abi":[{"type":"constructor","inputs":[],"stateMutability":"nonpayable"},{"type":"function","name":"childInitialize","inputs":[],"outputs":[],"stateMutability":"nonpayable"},{"type":"function","name":"childInitializerRan","inputs":[],"outputs":[{"name":"","type":"bool","internalType":"bool"}],"stateMutability":"view"},{"type":"function","name":"initialize","inputs":[],"outputs":[],"stateMutability":"nonpayable"},{"type":"function","name":"initializeOnlyInitializing","inputs":[],"outputs":[],"stateMutability":"nonpayable"},{"type":"function","name":"initializerRan","inputs":[],"outputs":[{"name":"","type":"bool","internalType":"bool"}],"stateMutability":"view"},{"type":"function","name":"onlyInitializingRan","inputs":[],"outputs":[{"name":"","type":"bool","internalType":"bool"}],"stateMutability":"view"},{"type":"event","name":"Initialized","inputs":[{"name":"version","type":"uint64","indexed":false,"internalType":"uint64"}],"anonymous":false},{"type":"error","name":"InvalidInitialization","inputs":[]},{"type":"error","name":"NotInitializing","inputs":[]}],"bytecode":{"object":"0x60808060405234610484575f51602061081b5f395f51905f5254604081901c60ff1615906001600160401b03168015908161047c575b6001149081610472575b159081610469575b506102cd575f51602061081b5f395f51905f5280546001600160401b03191660011790558061042f575b5f51602061081b5f395f51905f5254604081901c60ff161592906001600160401b031680159081610427575b600114908161041d575b159081610414575b506102cd575f51602061081b5f395f51905f5280546001600160401b0319166001179055826103da575b5f5492610394575b505f51602061081b5f395f51905f52549160ff8360401c16156103855761ffff1916610101175f5561034c575b505f51602061081b5f395f51905f5254604081901c60ff1615906001600160401b031680159081610344575b600114908161033a575b159081610331575b506102cd575f51602061081b5f395f51905f5280546001600160401b0319166001179055806102f7575b5f51602061081b5f395f51905f5254604081901c60ff1615906001600160401b0316801590816102ef575b60011490816102e5575b1590816102dc575b506102cd575f51602061081b5f395f51905f5280546001600160401b031916600117905580610293575b6201000062ff0000195f5416175f5561024c575b610205575b60405161037290816104898239f35b68ff0000000000000000195f51602061081b5f395f51905f5254165f51602061081b5f395f51905f52555f5160206107fb5f395f51905f52602060405160018152a16101f6565b68ff0000000000000000195f51602061081b5f395f51905f5254165f51602061081b5f395f51905f52555f5160206107fb5f395f51905f52602060405160018152a16101f1565b6801000000000000000068ff0000000000000000195f51602061081b5f395f51905f525416175f51602061081b5f395f51905f52556101dd565b63f92ee8a960e01b5f5260045ffd5b9050155f6101b3565b303b1591506101ab565b8291506101a1565b6801000000000000000068ff0000000000000000195f51602061081b5f395f51905f525416175f51602061081b5f395f51905f5255610176565b9050155f61014c565b303b159150610144565b82915061013a565b68ff000000000000000019165f51602061081b5f395f51905f52555f5160206107fb5f395f51905f52602060405160018152a15f61010e565b631afcd79f60e31b5f5260045ffd5b60205f5160206107fb5f395f51905f529168ff0000000000000000195f51602061081b5f395f51905f5254165f51602061081b5f395f51905f525560018152a15f6100e1565b6801000000000000000068ff0000000000000000195f51602061081b5f395f51905f525416175f51602061081b5f395f51905f52556100d9565b9050155f6100af565b303b1591506100a7565b84915061009d565b6801000000000000000068ff0000000000000000195f51602061081b5f395f51905f525416175f51602061081b5f395f51905f5255610071565b9050155f610047565b303b15915061003f565b829150610035565b5f80fdfe60806040526004361015610011575f80fd5b5f3560e01c806310065ed2146102a55780637cffe97a146102815780638129fc1c146101c5578063b23d810b146101a1578063c3b8ef2a146101805763de74c7031461005b575f80fd5b3461017c575f36600319011261017c575f51602061031d5f395f51905f525467ffffffffffffffff60ff8260401c1615911680159081610174575b600114908161016a575b159081610161575b5061015257806100b66102ee565b610122575b6201000062ff0000195f5416175f556100d057005b60ff60401b195f51602061031d5f395f51905f5254165f51602061031d5f395f51905f52557fc7f505b2f371ae2175ee4913f4499e1f2633a7b5936321eed1cdaeb6115181d2602060405160018152a1005b600160401b60ff60401b195f51602061031d5f395f51905f525416175f51602061031d5f395f51905f52556100bb565b63f92ee8a960e01b5f5260045ffd5b9050155f6100a8565b303b1591506100a0565b829150610096565b5f80fd5b3461017c575f36600319011261017c57602060ff5f54166040519015158152f35b3461017c575f36600319011261017c57602060ff5f5460101c166040519015158152f35b3461017c575f36600319011261017c575f51602061031d5f395f51905f525467ffffffffffffffff60ff8260401c1615911680159081610279575b600114908161026f575b159081610266575b5061015257806102206102ee565b610236575b600160ff195f5416175f556100d057005b600160401b60ff60401b195f51602061031d5f395f51905f525416175f51602061031d5f395f51905f5255610225565b90501582610212565b303b15915061020a565b829150610200565b3461017c575f36600319011261017c57602060ff5f5460081c166040519015158152f35b3461017c575f36600319011261017c5760ff5f51602061031d5f395f51905f525460401c16156102df575f805461ff001916610100179055005b631afcd79f60e31b5f5260045ffd5b600167ffffffffffffffff195f51602061031d5f395f51905f525416175f51602061031d5f395f51905f525556fef0c57e16840df040f15088dc2f81fe391c3923bec73e23a9662efc9c229c6a00a264697066735822122069fc51caf3ada2e0407bd68716aa307d6cd8fc4eff5b0cc3fc38e347256b1de964736f6c634300081c0033c7f505b2f371ae2175ee4913f4499e1f2633a7b5936321eed1cdaeb6115181d2f0c57e16840df040f15088dc2f81fe391c3923bec73e23a9662efc9c229c6a00","linkReferences":{}},"methodIdentifiers":{"childInitialize()":"de74c703","childInitializerRan()":"b23d810b","initialize()":"8129fc1c","initializeOnlyInitializing()":"10065ed2","initializerRan()":"c3b8ef2a","onlyInitializingRan()":"7cffe97a"},"id":157}