{"abi":[{"type":"function","name":"fail","inputs":[],"outputs":[],"stateMutability":"pure"},{"type":"function","name":"initialize","inputs":[],"outputs":[],"stateMutability":"nonpayable"},{"type":"function","name":"initializeOnlyInitializing","inputs":[],"outputs":[],"stateMutability":"nonpayable"},{"type":"function","name":"initializeWithX","inputs":[{"name":"_x","type":"uint256","internalType":"uint256"}],"outputs":[],"stateMutability":"payable"},{"type":"function","name":"initializerNested","inputs":[],"outputs":[],"stateMutability":"nonpayable"},{"type":"function","name":"initializerRan","inputs":[],"outputs":[{"name":"","type":"bool","internalType":"bool"}],"stateMutability":"view"},{"type":"function","name":"isInitializing","inputs":[],"outputs":[{"name":"","type":"bool","internalType":"bool"}],"stateMutability":"view"},{"type":"function","name":"nonInitializable","inputs":[{"name":"_x","type":"uint256","internalType":"uint256"}],"outputs":[],"stateMutability":"payable"},{"type":"function","name":"onlyInitializingNested","inputs":[],"outputs":[],"stateMutability":"nonpayable"},{"type":"function","name":"onlyInitializingRan","inputs":[],"outputs":[{"name":"","type":"bool","internalType":"bool"}],"stateMutability":"view"},{"type":"function","name":"x","inputs":[],"outputs":[{"name":"","type":"uint256","internalType":"uint256"}],"stateMutability":"view"},{"type":"event","name":"Initialized","inputs":[{"name":"version","type":"uint64","indexed":false,"internalType":"uint64"}],"anonymous":false},{"type":"error","name":"InvalidInitialization","inputs":[]},{"type":"error","name":"NotInitializing","inputs":[]}],"bytecode":{"object":"0x60808060405234601557610722908161001a8239f35b5f80fdfe6080806040526004361015610012575f80fd5b5f3560e01c90816218eaa81461058e575080630c55699c1461057157806310065ed2146105375780633ec91f051461050657806368449d1b146103ed57806376268ae81461024f5780637cffe97a1461022b5780638129fc1c14610121578063a9cc4718146100cd578063c3b8ef2a146100ac5763e955c9ec14610094575f80fd5b60203660031901126100a857600435600155005b5f80fd5b346100a8575f3660031901126100a857602060ff5f54166040519015158152f35b346100a8575f3660031901126100a857606460405162461bcd60e51b815260206004820152602060248201527f496e697469616c697a61626c654d6f636b20666f72636564206661696c7572656044820152fd5b346100a8575f3660031901126100a8575f5160206106cd5f395f51905f525467ffffffffffffffff60ff8260401c1615911680159081610223575b6001149081610219575b159081610210575b50610201578061017c61067e565b6101d1575b600160ff195f5416175f5561019257005b60ff60401b195f5160206106cd5f395f51905f5254165f5160206106cd5f395f51905f52555f5160206106ad5f395f51905f52602060405160018152a1005b600160401b60ff60401b195f5160206106cd5f395f51905f525416175f5160206106cd5f395f51905f5255610181565b63f92ee8a960e01b5f5260045ffd5b9050158261016e565b303b159150610166565b82915061015c565b346100a8575f3660031901126100a857602060ff5f5460081c166040519015158152f35b346100a8575f3660031901126100a8575f5160206106cd5f395f51905f525467ffffffffffffffff60ff8260401c16159116801590816103e5575b60011490816103db575b1590816103d2575b5061020157806102aa61067e565b6103a2575b5f5160206106cd5f395f51905f525467ffffffffffffffff60ff8260401c161591168015908161039a575b6001149081610390575b159081610387575b5061020157806102fa61067e565b610357575b600160ff195f5416175f55610315575b61019257005b60ff60401b195f5160206106cd5f395f51905f5254165f5160206106cd5f395f51905f52555f5160206106ad5f395f51905f52602060405160018152a161030f565b600160401b60ff60401b195f5160206106cd5f395f51905f525416175f5160206106cd5f395f51905f52556102ff565b905015836102ec565b303b1591506102e4565b8291506102da565b600160401b60ff60401b195f5160206106cd5f395f51905f525416175f5160206106cd5f395f51905f52556102af565b9050158261029c565b303b159150610294565b82915061028a565b346100a8575f3660031901126100a8575f5160206106cd5f395f51905f525467ffffffffffffffff60ff8260401c16159116801590816104fe575b60011490816104f4575b1590816104eb575b50610201578061044861067e565b6104bb575b5f5160206106cd5f395f51905f52549060ff8260401c16156104ac5761010061ff00195f5416175f5561047c57005b60ff60401b19165f5160206106cd5f395f51905f52555f5160206106ad5f395f51905f52602060405160018152a1005b631afcd79f60e31b5f5260045ffd5b600160401b60ff60401b195f5160206106cd5f395f51905f525416175f5160206106cd5f395f51905f525561044d565b9050158261043a565b303b159150610432565b829150610428565b346100a8575f3660031901126100a857602060ff5f5160206106cd5f395f51905f525460401c166040519015158152f35b346100a8575f3660031901126100a85760ff5f5160206106cd5f395f51905f525460401c16156104ac575f805461ff001916610100179055005b346100a8575f3660031901126100a8576020600154604051908152f35b60203660031901126100a8575f5160206106cd5f395f51905f525467ffffffffffffffff60ff8260401c1615911680159081610676575b600114908161066c575b159081610663575b5061020157806105e561067e565b610633575b6004356001556105f657005b60205f5160206106ad5f395f51905f529160ff60401b195f5160206106cd5f395f51905f5254165f5160206106cd5f395f51905f525560018152a1005b600160401b60ff60401b195f5160206106cd5f395f51905f525416175f5160206106cd5f395f51905f52556105ea565b905015836105d7565b303b1591506105cf565b8291506105c5565b600167ffffffffffffffff195f5160206106cd5f395f51905f525416175f5160206106cd5f395f51905f525556fec7f505b2f371ae2175ee4913f4499e1f2633a7b5936321eed1cdaeb6115181d2f0c57e16840df040f15088dc2f81fe391c3923bec73e23a9662efc9c229c6a00a26469706673582212207deef262beedf76f9e7df31f56256a1e8717d6e3a936ee9fdffce336305fc11c64736f6c634300081c0033","linkReferences":{}},"methodIdentifiers":{"fail()":"a9cc4718","initialize()":"8129fc1c","initializeOnlyInitializing()":"10065ed2","initializeWithX(uint256)":"0018eaa8","initializerNested()":"76268ae8","initializerRan()":"c3b8ef2a","isInitializing()":"3ec91f05","nonInitializable(uint256)":"e955c9ec","onlyInitializingNested()":"68449d1b","onlyInitializingRan()":"7cffe97a","x()":"0c55699c"},"id":157}