{"abi":[{"type":"function","name":"supportsInterface","inputs":[{"name":"interfaceId","type":"bytes4","internalType":"bytes4"}],"outputs":[{"name":"","type":"bool","internalType":"bool"}],"stateMutability":"pure"}],"bytecode":{"object":"0x60808060405234601357609a908160188239f35b5f80fdfe608060405260043610156010575f80fd5b5f3560e01c6301ffc9a7146022575f80fd5b34606057602036600319011260605760043563ffffffff60e01b81168091036060576301ffc9a760e01b146058575b62018c7c5ff35b60015f526051565b5f80fdfea26469706673582212207e16dd6a90cb0e224bb81c86627ade4df40eb785ee102bc40f75bac2ad11cc5464736f6c634300081c0033","linkReferences":{}},"methodIdentifiers":{"supportsInterface(bytes4)":"01ffc9a7"},"id":153}