{"abi":[{"type":"constructor","inputs":[],"stateMutability":"nonpayable"},{"type":"function","name":"GOLD","inputs":[],"outputs":[{"name":"","type":"uint256","internalType":"uint256"}],"stateMutability":"view"},{"type":"function","name":"SHIELD","inputs":[],"outputs":[{"name":"","type":"uint256","internalType":"uint256"}],"stateMutability":"view"},{"type":"function","name":"SILVER","inputs":[],"outputs":[{"name":"","type":"uint256","internalType":"uint256"}],"stateMutability":"view"},{"type":"function","name":"SWORD","inputs":[],"outputs":[{"name":"","type":"uint256","internalType":"uint256"}],"stateMutability":"view"},{"type":"function","name":"THORS_HAMMER","inputs":[],"outputs":[{"name":"","type":"uint256","internalType":"uint256"}],"stateMutability":"view"},{"type":"function","name":"allowance","inputs":[{"name":"owner","type":"address","internalType":"address"},{"name":"spender","type":"address","internalType":"address"},{"name":"id","type":"uint256","internalType":"uint256"}],"outputs":[{"name":"","type":"uint256","internalType":"uint256"}],"stateMutability":"view"},{"type":"function","name":"approve","inputs":[{"name":"spender","type":"address","internalType":"address"},{"name":"id","type":"uint256","internalType":"uint256"},{"name":"amount","type":"uint256","internalType":"uint256"}],"outputs":[{"name":"","type":"bool","internalType":"bool"}],"stateMutability":"nonpayable"},{"type":"function","name":"balanceOf","inputs":[{"name":"owner","type":"address","internalType":"address"},{"name":"id","type":"uint256","internalType":"uint256"}],"outputs":[{"name":"","type":"uint256","internalType":"uint256"}],"stateMutability":"view"},{"type":"function","name":"decimals","inputs":[{"name":"id","type":"uint256","internalType":"uint256"}],"outputs":[{"name":"","type":"uint8","internalType":"uint8"}],"stateMutability":"view"},{"type":"function","name":"isOperator","inputs":[{"name":"owner","type":"address","internalType":"address"},{"name":"spender","type":"address","internalType":"address"}],"outputs":[{"name":"","type":"bool","internalType":"bool"}],"stateMutability":"view"},{"type":"function","name":"name","inputs":[{"name":"id","type":"uint256","internalType":"uint256"}],"outputs":[{"name":"","type":"string","internalType":"string"}],"stateMutability":"view"},{"type":"function","name":"setOperator","inputs":[{"name":"spender","type":"address","internalType":"address"},{"name":"approved","type":"bool","internalType":"bool"}],"outputs":[{"name":"","type":"bool","internalType":"bool"}],"stateMutability":"nonpayable"},{"type":"function","name":"supportsInterface","inputs":[{"name":"interfaceId","type":"bytes4","internalType":"bytes4"}],"outputs":[{"name":"","type":"bool","internalType":"bool"}],"stateMutability":"view"},{"type":"function","name":"symbol","inputs":[{"name":"id","type":"uint256","internalType":"uint256"}],"outputs":[{"name":"","type":"string","internalType":"string"}],"stateMutability":"view"},{"type":"function","name":"transfer","inputs":[{"name":"receiver","type":"address","internalType":"address"},{"name":"id","type":"uint256","internalType":"uint256"},{"name":"amount","type":"uint256","internalType":"uint256"}],"outputs":[{"name":"","type":"bool","internalType":"bool"}],"stateMutability":"nonpayable"},{"type":"function","name":"transferFrom","inputs":[{"name":"sender","type":"address","internalType":"address"},{"name":"receiver","type":"address","internalType":"address"},{"name":"id","type":"uint256","internalType":"uint256"},{"name":"amount","type":"uint256","internalType":"uint256"}],"outputs":[{"name":"","type":"bool","internalType":"bool"}],"stateMutability":"nonpayable"},{"type":"event","name":"Approval","inputs":[{"name":"owner","type":"address","indexed":true,"internalType":"address"},{"name":"spender","type":"address","indexed":true,"internalType":"address"},{"name":"id","type":"uint256","indexed":true,"internalType":"uint256"},{"name":"amount","type":"uint256","indexed":false,"internalType":"uint256"}],"anonymous":false},{"type":"event","name":"ERC6909DecimalsUpdated","inputs":[{"name":"id","type":"uint256","indexed":true,"internalType":"uint256"},{"name":"newDecimals","type":"uint8","indexed":false,"internalType":"uint8"}],"anonymous":false},{"type":"event","name":"ERC6909NameUpdated","inputs":[{"name":"id","type":"uint256","indexed":true,"internalType":"uint256"},{"name":"newName","type":"string","indexed":false,"internalType":"string"}],"anonymous":false},{"type":"event","name":"ERC6909SymbolUpdated","inputs":[{"name":"id","type":"uint256","indexed":true,"internalType":"uint256"},{"name":"newSymbol","type":"string","indexed":false,"internalType":"string"}],"anonymous":false},{"type":"event","name":"OperatorSet","inputs":[{"name":"owner","type":"address","indexed":true,"internalType":"address"},{"name":"spender","type":"address","indexed":true,"internalType":"address"},{"name":"approved","type":"bool","indexed":false,"internalType":"bool"}],"anonymous":false},{"type":"event","name":"Transfer","inputs":[{"name":"caller","type":"address","indexed":false,"internalType":"address"},{"name":"sender","type":"address","indexed":true,"internalType":"address"},{"name":"receiver","type":"address","indexed":true,"internalType":"address"},{"name":"id","type":"uint256","indexed":true,"internalType":"uint256"},{"name":"amount","type":"uint256","indexed":false,"internalType":"uint256"}],"anonymous":false},{"type":"error","name":"ERC6909InsufficientAllowance","inputs":[{"name":"spender","type":"address","internalType":"address"},{"name":"allowance","type":"uint256","internalType":"uint256"},{"name":"needed","type":"uint256","internalType":"uint256"},{"name":"id","type":"uint256","internalType":"uint256"}]},{"type":"error","name":"ERC6909InsufficientBalance","inputs":[{"name":"sender","type":"address","internalType":"address"},{"name":"balance","type":"uint256","internalType":"uint256"},{"name":"needed","type":"uint256","internalType":"uint256"},{"name":"id","type":"uint256","internalType":"uint256"}]},{"type":"error","name":"ERC6909InvalidApprover","inputs":[{"name":"approver","type":"address","internalType":"address"}]},{"type":"error","name":"ERC6909InvalidReceiver","inputs":[{"name":"receiver","type":"address","internalType":"address"}]},{"type":"error","name":"ERC6909InvalidSender","inputs":[{"name":"sender","type":"address","internalType":"address"}]},{"type":"error","name":"ERC6909InvalidSpender","inputs":[{"name":"spender","type":"address","internalType":"address"}]}],"bytecode":{"object":"0x6080604052346102d1575f80526003602052600260405f2001601260ff198254161790555f5f516020610b505f395f51905f52602060405160128152a260015f526003602052600260405f2001601260ff1982541617905560015f516020610b505f395f51905f52602060405160128152a260035f526003602052600260405f2001600960ff1982541617905560035f516020610b505f395f51905f52602060405160098152a260045f526003602052600260405f2001600960ff1982541617905560045f516020610b505f395f51905f52602060405160098152a233156102be57335f525f60205260405f205f805260205260405f20805490670de0b6b3a764000082018092116102aa57555f604051338152670de0b6b3a76400006020820152815f516020610b305f395f51905f5260403393a4335f525f60205260405f2060015f5260205260405f208054907d90e40fbeea1d3a4abc8955e946fe31cdcf66f634e100000000000000000082018092116102aa575560016040513381527d90e40fbeea1d3a4abc8955e946fe31cdcf66f634e100000000000000000060208201525f5f516020610b305f395f51905f5260403393a4335f525f60205260405f2060025f5260205260405f20805490600182018092116102aa57556002604051338152600160208201525f5f516020610b305f395f51905f5260403393a4335f525f60205260405f2060035f5260205260405f20805490633b9aca0082018092116102aa57556003604051338152633b9aca0060208201525f5f516020610b305f395f51905f5260403393a4335f525f60205260405f2060045f5260205260405f20805490633b9aca0082018092116102aa57556004604051338152633b9aca0060208201525f5f516020610b305f395f51905f5260403393a460405161085a90816102d68239f35b634e487b7160e01b5f52601160045260245ffd5b630b8bbd6160e41b5f525f60045260245ffd5b5f80fdfe60806040526004361015610011575f80fd5b5f3560e01c8062ad800c14610571578062fdd58e1461052e57806301ffc9a7146104d8578063095bcdb6146104c057806313dc989f146104a55780633e4bee381461048b5780633f47e6621461045b578063426a8493146103dc5780634e41a1fb1461039f578063558a7297146102e2578063598af9e7146102885780635b2725ed1461026d578063b6363cf214610216578063d562e204146101fb578063e3e55f08146101e05763fe99049a146100c7575f80fd5b346101dc5760803660031901126101dc576100e06105c5565b6100e86105db565b6001600160a01b03821691606435916044359133851415806101b9575b61011f575b6101149450610700565b602060405160018152f35b5f85815260026020908152604080832033845282528083208684529091529020545f19811061014f575b5061010a565b84811061018b578490610114965f52600260205260405f2060018060a01b0333165f5260205260405f20855f526020520360405f20555f610149565b604051632c51fead60e11b815233600482015260248101919091526044810185905260648101849052608490fd5b505f85815260016020908152604080832033845290915290205460ff1615610105565b5f80fd5b346101dc575f3660031901126101dc57602060405160018152f35b346101dc575f3660031901126101dc57602060405160028152f35b346101dc5760403660031901126101dc5761022f6105c5565b6102376105db565b9060018060a01b03165f52600160205260405f209060018060a01b03165f52602052602060ff60405f2054166040519015158152f35b346101dc575f3660031901126101dc57602060405160048152f35b346101dc5760603660031901126101dc576102a16105c5565b6102a96105db565b6001600160a01b039182165f90815260026020908152604080832094909316825292835281812060443582528352819020549051908152f35b346101dc5760403660031901126101dc576102fb6105c5565b602435908115158092036101dc57331561038c576001600160a01b031690811561037957335f52600160205260405f20825f5260205260405f2060ff1981541660ff83161790556040519081527fceb576d9f15e4e200fdb5096d64d5dfd667e16def20c1eefd14256d8e3faa26760203392a3602060405160018152f35b636f65f46560e01b5f525f60045260245ffd5b63198ecd5360e31b5f525f60045260245ffd5b346101dc5760203660031901126101dc576004355f5260036020526103d86103cc600160405f200161061b565b6040519182918261059b565b0390f35b346101dc576103ea366105f1565b9091331561038c576001600160a01b031690811561037957335f52600260205260405f20825f5260205260405f20835f526020528060405f20556040519081527fb3fd5071835887567a0671151121894ddccc2842f1d10bedad13e0d17cace9a760203392a4602060405160018152f35b346101dc5760203660031901126101dc576004355f526003602052602060ff600260405f20015416604051908152f35b346101dc575f3660031901126101dc5760206040515f8152f35b346101dc575f3660031901126101dc57602060405160038152f35b346101dc576101146104d1366105f1565b9133610700565b346101dc5760203660031901126101dc5760043563ffffffff60e01b81168091036101dc57602090630f632fb360e01b811490811561051d575b506040519015158152f35b6301ffc9a760e01b14905082610512565b346101dc5760403660031901126101dc576001600160a01b0361054f6105c5565b165f525f60205260405f206024355f52602052602060405f2054604051908152f35b346101dc5760203660031901126101dc576004355f5260036020526103d86103cc60405f2061061b565b602060409281835280519182918282860152018484015e5f828201840152601f01601f1916010190565b600435906001600160a01b03821682036101dc57565b602435906001600160a01b03821682036101dc57565b60609060031901126101dc576004356001600160a01b03811681036101dc57906024359060443590565b90604051915f908054908160011c916001811680156106f6575b6020841081146106e2578387529081156106c4575060011461068c575b5050829003601f01601f1916820167ffffffffffffffff81118382101761067857604052565b634e487b7160e01b5f52604160045260245ffd5b9091505f5260205f205f905b8282106106ae5750602091508301015f80610652565b6001816020925483858901015201910190610698565b9150506020925060ff191682850152151560051b8301015f80610652565b634e487b7160e01b5f52602260045260245ffd5b92607f1692610635565b91926001600160a01b038316918215610811576001600160a01b03169283156107fe57825f525f60205260405f20855f5260205260405f2054908282106107c557508190835f525f60205260405f20865f526020520360405f2055825f525f60205260405f20845f5260205260405f208054918083018093116107b1577f1b3d7edb2e9c0b0e7c525b20aaaef0f5940d2ed71663c7d39266ecafac72885992604092558151903382526020820152a4565b634e487b7160e01b5f52601160045260245ffd5b6040516302c6d3fb60e61b81526001600160a01b0391909116600482015260248101919091526044810182905260648101859052608490fd5b630b8bbd6160e41b5f525f60045260245ffd5b6301486a4160e71b5f525f60045260245ffdfea264697066735822122010fb1b52b8a98aefb1887af4a6a1158f420e110aefc10b5022d0a94e1ed24bc664736f6c634300081c00331b3d7edb2e9c0b0e7c525b20aaaef0f5940d2ed71663c7d39266ecafac728859c7435874568017e6134c851002a405d733521c0f4c63f9f25f3a32a4d595b729","linkReferences":{}},"methodIdentifiers":{"GOLD()":"3e4bee38","SHIELD()":"5b2725ed","SILVER()":"e3e55f08","SWORD()":"13dc989f","THORS_HAMMER()":"d562e204","allowance(address,address,uint256)":"598af9e7","approve(address,uint256,uint256)":"426a8493","balanceOf(address,uint256)":"00fdd58e","decimals(uint256)":"3f47e662","isOperator(address,address)":"b6363cf2","name(uint256)":"00ad800c","setOperator(address,bool)":"558a7297","supportsInterface(bytes4)":"01ffc9a7","symbol(uint256)":"4e41a1fb","transfer(address,uint256,uint256)":"095bcdb6","transferFrom(address,address,uint256,uint256)":"fe99049a"},"id":199}