{"abi":[{"type":"constructor","inputs":[],"stateMutability":"nonpayable"},{"type":"function","name":"callback","inputs":[],"outputs":[],"stateMutability":"nonpayable"},{"type":"function","name":"countAndCall","inputs":[{"name":"attacker","type":"address","internalType":"contract ReentrancyAttack"}],"outputs":[],"stateMutability":"nonpayable"},{"type":"function","name":"countAndCallView","inputs":[{"name":"attacker","type":"address","internalType":"contract ReentrancyAttack"}],"outputs":[],"stateMutability":"nonpayable"},{"type":"function","name":"countLocalRecursive","inputs":[{"name":"n","type":"uint256","internalType":"uint256"}],"outputs":[],"stateMutability":"nonpayable"},{"type":"function","name":"countThisRecursive","inputs":[{"name":"n","type":"uint256","internalType":"uint256"}],"outputs":[],"stateMutability":"nonpayable"},{"type":"function","name":"counter","inputs":[],"outputs":[{"name":"","type":"uint256","internalType":"uint256"}],"stateMutability":"view"},{"type":"function","name":"guardedCheckEntered","inputs":[],"outputs":[],"stateMutability":"nonpayable"},{"type":"function","name":"unguardedCheckNotEntered","inputs":[],"outputs":[],"stateMutability":"view"},{"type":"function","name":"viewCallback","inputs":[],"outputs":[{"name":"","type":"uint256","internalType":"uint256"}],"stateMutability":"view"},{"type":"error","name":"ReentrancyGuardReentrantCall","inputs":[]}],"bytecode":{"object":"0x608080604052346018575f80556105f0908161001d8239f35b5f80fdfe60806040526004361015610011575f80fd5b5f5f3560e01c8063083b27321461049457806332e2a0411461047057806361bc221a146104545780638c5344fa1461032157806396ffa690146102a6578063a408f31214610257578063b672ad8b1461017e578063cb524176146100a65763cecc95a71461007d575f80fd5b346100a357806003193601126100a3575f51602061059b5f395f51905f525c6100a35780f35b80fd5b50346100a35760203660031901126100a357806004356001600160a01b0381169081900361017b576100d6610576565b60015f51602061059b5f395f51905f525d6100ef610565565b6040516332e2a04160e01b6020820152600481529061010f6024836104c5565b803b15610179576101379183916040518080958194631d62478560e11b83526004830161053b565b03915afa801561016e57610159575b505f51602061059b5f395f51905f525d80f35b81610163916104c5565b6100a357805f610146565b6040513d84823e3d90fd5b505b50fd5b5034610253576020366003190112610253576004356001600160a01b03811690819003610253576101ad610576565b60015f51602061059b5f395f51905f525d6101c6610565565b60405163041d939960e11b602082015260048152906101e66024836104c5565b803b156102535760405163f8123dd560e01b8152915f918391829084908290610212906004830161053b565b03925af1801561024857610235575b50805f51602061059b5f395f51905f525d80f35b61024191505f906104c5565b5f5f610221565b6040513d5f823e3d90fd5b5f80fd5b34610253575f3660031901126102535761026f610576565b60015f51602061059b5f395f51905f525d5f51602061059b5f395f51905f525c15610253575f5f51602061059b5f395f51905f525d005b34610253576020366003190112610253576004356102c2610576565b60015f51602061059b5f395f51905f525d806102eb575b5f5f51602061059b5f395f51905f525d005b6102f3610565565b5f19810190811161030d57610307906104e7565b806102d9565b634e487b7160e01b5f52601160045260245ffd5b346102535760203660031901126102535760043561033d610576565b60015f51602061059b5f395f51905f525d80610365575f5f51602061059b5f395f51905f525d005b61036d610565565b5f19810190811161030d575f80916040516020810191634629a27d60e11b83526024820152602481526103a16044826104c5565b519082305af13d1561044f573d67ffffffffffffffff811161043b57604051906103d5601f8201601f1916602001836104c5565b81525f60203d92013e5b156103ea57806102d9565b60405162461bcd60e51b8152602060048201526024808201527f5265656e7472616e63795472616e7369656e744d6f636b3a206661696c65642060448201526318d85b1b60e21b6064820152608490fd5b634e487b7160e01b5f52604160045260245ffd5b6103df565b34610253575f3660031901126102535760205f54604051908152f35b34610253575f36600319011261025357610488610576565b60205f54604051908152f35b34610253575f366003190112610253576104ac610576565b60015f51602061059b5f395f51905f525d6102d9610565565b90601f8019910116810190811067ffffffffffffffff82111761043b57604052565b6104ef610576565b60015f51602061059b5f395f51905f525d80610519575b505f5f51602061059b5f395f51905f525d565b610521610565565b5f19810190811161030d57610535906104e7565b5f610506565b602060409281835280519182918282860152018484015e5f828201840152601f01601f1916010190565b5f546001810180911161030d575f55565b5f51602061059b5f395f51905f525c61058b57565b633ee5aeb560e01b5f5260045ffdfe9b779b17422d0df92223018b32b4d1fa46e071723d6817e2486d003becc55f00a264697066735822122057ac5cf1ac8fa94fac657537e9f5b96d833557ad3e2e2347d4a0144bcea0553e64736f6c634300081c0033","linkReferences":{}},"methodIdentifiers":{"callback()":"083b2732","countAndCall(address)":"b672ad8b","countAndCallView(address)":"cb524176","countLocalRecursive(uint256)":"96ffa690","countThisRecursive(uint256)":"8c5344fa","counter()":"61bc221a","guardedCheckEntered()":"a408f312","unguardedCheckNotEntered()":"cecc95a7","viewCallback()":"32e2a041"},"id":165}