{"abi":[{"type":"function","name":"SubmitProject","inputs":[{"name":"_projectId","type":"uint256","internalType":"uint256"},{"name":"projectDescription","type":"string","internalType":"string"},{"name":"imgCid","type":"string","internalType":"string"}],"outputs":[],"stateMutability":"nonpayable"},{"type":"function","name":"agencyContractor","inputs":[{"name":"","type":"address","internalType":"address"}],"outputs":[{"name":"","type":"address","internalType":"address"}],"stateMutability":"view"},{"type":"function","name":"agency_Contractor","inputs":[{"name":"agency","type":"address","internalType":"address"}],"outputs":[{"name":"contractor","type":"address","internalType":"address"}],"stateMutability":"view"},{"type":"function","name":"contractor","inputs":[{"name":"","type":"uint256","internalType":"uint256"}],"outputs":[{"name":"companyName","type":"string","internalType":"string"},{"name":"registrationNumber","type":"uint256","internalType":"uint256"},{"name":"taxIdenticationNumber","type":"uint256","internalType":"uint256"},{"name":"physicalAddress","type":"string","internalType":"string"},{"name":"owner","type":"address","internalType":"address"},{"name":"addressImageCid","type":"string","internalType":"string"},{"name":"companyUploadedCid","type":"string","internalType":"string"}],"stateMutability":"view"},{"type":"function","name":"contractorProjects","inputs":[{"name":"","type":"address","internalType":"address"},{"name":"","type":"uint256","internalType":"uint256"}],"outputs":[{"name":"","type":"uint256","internalType":"uint256"}],"stateMutability":"view"},{"type":"function","name":"contractors","inputs":[{"name":"","type":"uint256","internalType":"uint256"}],"outputs":[{"name":"companyName","type":"string","internalType":"string"},{"name":"registrationNumber","type":"uint256","internalType":"uint256"},{"name":"taxIdenticationNumber","type":"uint256","internalType":"uint256"},{"name":"physicalAddress","type":"string","internalType":"string"},{"name":"owner","type":"address","internalType":"address"},{"name":"addressImageCid","type":"string","internalType":"string"},{"name":"companyUploadedCid","type":"string","internalType":"string"}],"stateMutability":"view"},{"type":"function","name":"createProject","inputs":[{"name":"_description","type":"string","internalType":"string"},{"name":"_budget","type":"uint256","internalType":"uint256"},{"name":"_contractorAddress","type":"address","internalType":"address"},{"name":"_startdate","type":"uint256","internalType":"uint256"},{"name":"_endate","type":"uint256","internalType":"uint256"}],"outputs":[],"stateMutability":"nonpayable"},{"type":"function","name":"milestoneSubmitted","inputs":[{"name":"","type":"address","internalType":"address"},{"name":"","type":"uint256","internalType":"uint256"}],"outputs":[{"name":"projectId","type":"uint256","internalType":"uint256"},{"name":"milestoneId","type":"uint256","internalType":"uint256"},{"name":"contractor","type":"address","internalType":"address"}],"stateMutability":"view"},{"type":"function","name":"projects","inputs":[{"name":"","type":"uint256","internalType":"uint256"}],"outputs":[{"name":"projectId","type":"uint256","internalType":"uint256"},{"name":"description","type":"string","internalType":"string"},{"name":"budget","type":"uint256","internalType":"uint256"},{"name":"contractorAddress","type":"address","internalType":"address"},{"name":"completed","type":"bool","internalType":"bool"},{"name":"startDate","type":"uint256","internalType":"uint256"},{"name":"endDate","type":"uint256","internalType":"uint256"},{"name":"imageCid","type":"string","internalType":"string"}],"stateMutability":"view"},{"type":"function","name":"projectsubmited","inputs":[{"name":"contractor","type":"address","internalType":"address"},{"name":"","type":"uint256","internalType":"uint256"}],"outputs":[{"name":"","type":"uint256","internalType":"uint256"}],"stateMutability":"view"},{"type":"function","name":"projectsupdate","inputs":[{"name":"","type":"uint256","internalType":"uint256"}],"outputs":[{"name":"projectId","type":"uint256","internalType":"uint256"},{"name":"description","type":"string","internalType":"string"},{"name":"budget","type":"uint256","internalType":"uint256"},{"name":"contractorAddress","type":"address","internalType":"address"},{"name":"completed","type":"bool","internalType":"bool"},{"name":"startDate","type":"uint256","internalType":"uint256"},{"name":"endDate","type":"uint256","internalType":"uint256"},{"name":"imageCid","type":"string","internalType":"string"}],"stateMutability":"view"},{"type":"function","name":"rejectedMilestones","inputs":[{"name":"","type":"address","internalType":"address"},{"name":"","type":"uint256","internalType":"uint256"}],"outputs":[{"name":"projectId","type":"uint256","internalType":"uint256"},{"name":"milestoneId","type":"uint256","internalType":"uint256"},{"name":"contractor","type":"address","internalType":"address"}],"stateMutability":"view"},{"type":"event","name":"CreateProject","inputs":[{"name":"projectDescription","type":"string","indexed":false,"internalType":"string"},{"name":"projectId","type":"uint256","indexed":false,"internalType":"uint256"},{"name":"contractorName","type":"address","indexed":false,"internalType":"address"},{"name":"agencyAddress","type":"address","indexed":false,"internalType":"address"}],"anonymous":false},{"type":"event","name":"SubmitedProject","inputs":[{"name":"projectId","type":"uint256","indexed":false,"internalType":"uint256"},{"name":"milestoneDescription","type":"string","indexed":false,"internalType":"string"},{"name":"Imgcid","type":"string","indexed":false,"internalType":"string"},{"name":"contractoraAddress","type":"address","indexed":false,"internalType":"address"}],"anonymous":false}],"bytecode":{"object":"0x60806040526001600d553480156013575f5ffd5b50610f3c806100215f395ff3fe608060405234801561000f575f5ffd5b50600436106100b1575f3560e01c80637bb820241161006e5780637bb82024146101aa578063aa51b038146101bd578063c9b08c02146101e5578063e053349214610206578063e7c7015114610219578063f28412601461022c575f5ffd5b80630306aa2a146100b5578063107046bd146100e457806317a06cab1461010b5780633481a95a146101205780635aa9077e14610133578063701d156714610173575b5f5ffd5b6100c86100c33660046109fd565b61023f565b6040516100db9796959493929190610a42565b60405180910390f35b6100f76100f23660046109fd565b61049f565b6040516100db989796959493929190610ab7565b61011e610119366004610bd8565b610600565b005b6100c861012e3660046109fd565b610878565b61015b610141366004610c3c565b60086020525f90815260409020546001600160a01b031681565b6040516001600160a01b0390911681526020016100db565b610186610181366004610c5c565b6108a6565b6040805193845260208401929092526001600160a01b0316908201526060016100db565b6100f76101b83660046109fd565b6108ed565b61015b6101cb366004610c3c565b600a6020525f90815260409020546001600160a01b031681565b6101f86101f3366004610c5c565b61090e565b6040519081526020016100db565b6101f8610214366004610c5c565b610939565b61011e610227366004610c84565b610952565b61018661023a366004610c5c565b6109e4565b60056020525f908152604090208054819061025990610cf1565b80601f016020809104026020016040519081016040528092919081815260200182805461028590610cf1565b80156102d05780601f106102a7576101008083540402835291602001916102d0565b820191905f5260205f20905b8154815290600101906020018083116102b357829003601f168201915b5050505050908060010154908060020154908060030180546102f190610cf1565b80601f016020809104026020016040519081016040528092919081815260200182805461031d90610cf1565b80156103685780601f1061033f57610100808354040283529160200191610368565b820191905f5260205f20905b81548152906001019060200180831161034b57829003601f168201915b505050600484015460058501805494956001600160a01b0390921694919350915061039290610cf1565b80601f01602080910402602001604051908101604052809291908181526020018280546103be90610cf1565b80156104095780601f106103e057610100808354040283529160200191610409565b820191905f5260205f20905b8154815290600101906020018083116103ec57829003601f168201915b50505050509080600601805461041e90610cf1565b80601f016020809104026020016040519081016040528092919081815260200182805461044a90610cf1565b80156104955780601f1061046c57610100808354040283529160200191610495565b820191905f5260205f20905b81548152906001019060200180831161047857829003601f168201915b5050505050905087565b60026020525f9081526040902080546001820180549192916104c090610cf1565b80601f01602080910402602001604051908101604052809291908181526020018280546104ec90610cf1565b80156105375780601f1061050e57610100808354040283529160200191610537565b820191905f5260205f20905b81548152906001019060200180831161051a57829003601f168201915b505050506002830154600384015460048501546005860154600687018054969794966001600160a01b0385169650600160a01b90940460ff1694929391929161057f90610cf1565b80601f01602080910402602001604051908101604052809291908181526020018280546105ab90610cf1565b80156105f65780601f106105cd576101008083540402835291602001916105f6565b820191905f5260205f20905b8154815290600101906020018083116105d957829003601f168201915b5050505050905088565b600154604051636eb1769f60e11b81523360048201523060248201525f916001600160a01b03169063dd62ed3e90604401602060405180830381865afa15801561064c573d5f5f3e3d5ffd5b505050506040513d601f19601f820116820180604052508101906106709190610d29565b9050808511156106d85760405162461bcd60e51b815260206004820152602960248201527f4e6f20616c6c6f77616e636520746f207370656e642066756e647320617420746044820152681a19481b5bdb595b9d60ba1b606482015260840160405180910390fd5b6001546040516323b872dd60e01b8152336004820152306024820152604481018790526001600160a01b03909116906323b872dd906064016020604051808303815f875af115801561072c573d5f5f3e3d5ffd5b505050506040513d601f19601f820116820180604052508101906107509190610d40565b50600d545f818152600260205260409020908155600181016107728882610dab565b50600281018690556003810180546001600160a81b0319166001600160a01b03871617905560048101849055600581018390556040805180820190915260018152600160fd1b602082015260068201906107cc9082610dab565b506001600160a01b0385165f818152600460209081526040808320600d805482546001810184559286528486209092019190915533808552600a9093529281902080546001600160a01b031916909417909355905491517faa27ead904746b3537e5326eafdda820a527802df76f8c36e8d26cf4d7a6bca592610853928b928a9190610e66565b60405180910390a1600d8054905f61086a83610e9e565b919050555050505050505050565b600b8181548110610887575f80fd5b905f5260205f2090600702015f91509050805f01805461025990610cf1565b6007602052815f5260405f2081815481106108bf575f80fd5b5f9182526020909120600390910201805460018201546002909201549093509091506001600160a01b031683565b60036020525f9081526040902080546001820180549192916104c090610cf1565b6004602052815f5260405f208181548110610927575f80fd5b905f5260205f20015f91509150505481565b6009602052815f5260405f208181548110610927575f80fd5b5f8381526002602052604090206001810161096d8482610dab565b506006810161097c8382610dab565b50335f81815260096020908152604080832080546001810182559084529190922001869055600d5490517fdd21516e8d64b364bd7a9c1607150492404c8502f6b066727a4e4b1f6b12c963926109d6929187918791610ec2565b60405180910390a150505050565b6006602052815f5260405f2081815481106108bf575f80fd5b5f60208284031215610a0d575f5ffd5b5035919050565b5f81518084528060208401602086015e5f602082860101526020601f19601f83011685010191505092915050565b60e081525f610a5460e083018a610a14565b8860208401528760408401528281036060840152610a728188610a14565b6001600160a01b038716608085015283810360a08501529050610a958186610a14565b905082810360c0840152610aa98185610a14565b9a9950505050505050505050565b88815261010060208201525f610ad161010083018a610a14565b604083018990526001600160a01b0388166060840152861515608084015260a0830186905260c0830185905282810360e0840152610b0f8185610a14565b9b9a5050505050505050505050565b634e487b7160e01b5f52604160045260245ffd5b5f82601f830112610b41575f5ffd5b813567ffffffffffffffff811115610b5b57610b5b610b1e565b604051601f8201601f19908116603f0116810167ffffffffffffffff81118282101715610b8a57610b8a610b1e565b604052818152838201602001851015610ba1575f5ffd5b816020850160208301375f918101602001919091529392505050565b80356001600160a01b0381168114610bd3575f5ffd5b919050565b5f5f5f5f5f60a08688031215610bec575f5ffd5b853567ffffffffffffffff811115610c02575f5ffd5b610c0e88828901610b32565b95505060208601359350610c2460408701610bbd565b94979396509394606081013594506080013592915050565b5f60208284031215610c4c575f5ffd5b610c5582610bbd565b9392505050565b5f5f60408385031215610c6d575f5ffd5b610c7683610bbd565b946020939093013593505050565b5f5f5f60608486031215610c96575f5ffd5b83359250602084013567ffffffffffffffff811115610cb3575f5ffd5b610cbf86828701610b32565b925050604084013567ffffffffffffffff811115610cdb575f5ffd5b610ce786828701610b32565b9150509250925092565b600181811c90821680610d0557607f821691505b602082108103610d2357634e487b7160e01b5f52602260045260245ffd5b50919050565b5f60208284031215610d39575f5ffd5b5051919050565b5f60208284031215610d50575f5ffd5b81518015158114610c55575f5ffd5b601f821115610da657805f5260205f20601f840160051c81016020851015610d845750805b601f840160051c820191505b81811015610da3575f8155600101610d90565b50505b505050565b815167ffffffffffffffff811115610dc557610dc5610b1e565b610dd981610dd38454610cf1565b84610d5f565b6020601f821160018114610e0b575f8315610df45750848201515b5f19600385901b1c1916600184901b178455610da3565b5f84815260208120601f198516915b82811015610e3a5787850151825560209485019460019092019101610e1a565b5084821015610e5757868401515f19600387901b60f8161c191681555b50505050600190811b01905550565b608081525f610e786080830187610a14565b6020830195909552506001600160a01b0392831660408201529116606090910152919050565b5f60018201610ebb57634e487b7160e01b5f52601160045260245ffd5b5060010190565b848152608060208201525f610eda6080830186610a14565b8281036040840152610eec8186610a14565b91505060018060a01b03831660608301529594505050505056fea264697066735822122004740388dc6f15090a7ae537f13e2fab13ab256659bbc97be8102c627c15ca7d64736f6c634300081c0033","linkReferences":{}},"methodIdentifiers":{"SubmitProject(uint256,string,string)":"e7c70151","agencyContractor(address)":"5aa9077e","agency_Contractor(address)":"aa51b038","contractor(uint256)":"0306aa2a","contractorProjects(address,uint256)":"c9b08c02","contractors(uint256)":"3481a95a","createProject(string,uint256,address,uint256,uint256)":"17a06cab","milestoneSubmitted(address,uint256)":"701d1567","projects(uint256)":"107046bd","projectsubmited(address,uint256)":"e0533492","projectsupdate(uint256)":"7bb82024","rejectedMilestones(address,uint256)":"f2841260"},"id":50}