{"abi":[{"type":"constructor","inputs":[{"name":"_tokenAddress","type":"address","internalType":"address"}],"stateMutability":"nonpayable"},{"type":"function","name":"RejectMilestones","inputs":[{"name":"_milestoneId","type":"uint256","internalType":"uint256"},{"name":"_projectId","type":"uint256","internalType":"uint256"},{"name":"contractorAddress","type":"address","internalType":"address"}],"outputs":[{"name":"","type":"bool","internalType":"bool"}],"stateMutability":"nonpayable"},{"type":"function","name":"SubmitProject","inputs":[{"name":"_projectId","type":"uint256","internalType":"uint256"},{"name":"projectDescription","type":"string","internalType":"string"},{"name":"imgCid","type":"string","internalType":"string"}],"outputs":[],"stateMutability":"nonpayable"},{"type":"function","name":"agencyContractor","inputs":[{"name":"","type":"address","internalType":"address"}],"outputs":[{"name":"","type":"address","internalType":"address"}],"stateMutability":"view"},{"type":"function","name":"agency_Contractor","inputs":[{"name":"agency","type":"address","internalType":"address"}],"outputs":[{"name":"contractor","type":"address","internalType":"address"}],"stateMutability":"view"},{"type":"function","name":"contractor","inputs":[{"name":"","type":"uint256","internalType":"uint256"}],"outputs":[{"name":"companyName","type":"string","internalType":"string"},{"name":"registrationNumber","type":"uint256","internalType":"uint256"},{"name":"taxIdenticationNumber","type":"uint256","internalType":"uint256"},{"name":"physicalAddress","type":"string","internalType":"string"},{"name":"owner","type":"address","internalType":"address"},{"name":"addressImageCid","type":"string","internalType":"string"},{"name":"companyUploadedCid","type":"string","internalType":"string"}],"stateMutability":"view"},{"type":"function","name":"contractorProjects","inputs":[{"name":"","type":"address","internalType":"address"},{"name":"","type":"uint256","internalType":"uint256"}],"outputs":[{"name":"","type":"uint256","internalType":"uint256"}],"stateMutability":"view"},{"type":"function","name":"contractors","inputs":[{"name":"","type":"uint256","internalType":"uint256"}],"outputs":[{"name":"companyName","type":"string","internalType":"string"},{"name":"registrationNumber","type":"uint256","internalType":"uint256"},{"name":"taxIdenticationNumber","type":"uint256","internalType":"uint256"},{"name":"physicalAddress","type":"string","internalType":"string"},{"name":"owner","type":"address","internalType":"address"},{"name":"addressImageCid","type":"string","internalType":"string"},{"name":"companyUploadedCid","type":"string","internalType":"string"}],"stateMutability":"view"},{"type":"function","name":"createAgency","inputs":[],"outputs":[],"stateMutability":"nonpayable"},{"type":"function","name":"createContractor","inputs":[{"name":"_companyName","type":"string","internalType":"string"},{"name":"_registrationNumber","type":"uint256","internalType":"uint256"},{"name":"_taxIdenticationNumber","type":"uint256","internalType":"uint256"},{"name":"_physicalAddress","type":"string","internalType":"string"},{"name":"_addressImageCid","type":"string","internalType":"string"},{"name":"_companyUploadedCid","type":"string","internalType":"string"}],"outputs":[],"stateMutability":"nonpayable"},{"type":"function","name":"createProject","inputs":[{"name":"_description","type":"string","internalType":"string"},{"name":"_budget","type":"uint256","internalType":"uint256"},{"name":"_contractorAddress","type":"address","internalType":"address"},{"name":"_startdate","type":"uint256","internalType":"uint256"},{"name":"_endate","type":"uint256","internalType":"uint256"}],"outputs":[],"stateMutability":"nonpayable"},{"type":"function","name":"getAllContractors","inputs":[],"outputs":[{"name":"","type":"tuple[]","internalType":"struct Contractor[]","components":[{"name":"companyName","type":"string","internalType":"string"},{"name":"registrationNumber","type":"uint256","internalType":"uint256"},{"name":"taxIdenticationNumber","type":"uint256","internalType":"uint256"},{"name":"physicalAddress","type":"string","internalType":"string"},{"name":"owner","type":"address","internalType":"address"},{"name":"addressImageCid","type":"string","internalType":"string"},{"name":"companyUploadedCid","type":"string","internalType":"string"}]}],"stateMutability":"view"},{"type":"function","name":"getContractor","inputs":[{"name":"_contractorAddress","type":"address","internalType":"address"}],"outputs":[{"name":"","type":"tuple","internalType":"struct Contractor","components":[{"name":"companyName","type":"string","internalType":"string"},{"name":"registrationNumber","type":"uint256","internalType":"uint256"},{"name":"taxIdenticationNumber","type":"uint256","internalType":"uint256"},{"name":"physicalAddress","type":"string","internalType":"string"},{"name":"owner","type":"address","internalType":"address"},{"name":"addressImageCid","type":"string","internalType":"string"},{"name":"companyUploadedCid","type":"string","internalType":"string"}]}],"stateMutability":"view"},{"type":"function","name":"getProject","inputs":[{"name":"_projectId","type":"uint256","internalType":"uint256"}],"outputs":[{"name":"","type":"tuple","internalType":"struct Project","components":[{"name":"projectId","type":"uint256","internalType":"uint256"},{"name":"description","type":"string","internalType":"string"},{"name":"budget","type":"uint256","internalType":"uint256"},{"name":"contractorAddress","type":"address","internalType":"address"},{"name":"agency","type":"address","internalType":"address"},{"name":"completed","type":"bool","internalType":"bool"},{"name":"startDate","type":"uint256","internalType":"uint256"},{"name":"endDate","type":"uint256","internalType":"uint256"},{"name":"imageCid","type":"string","internalType":"string"},{"name":"status","type":"uint8","internalType":"uint8"}]}],"stateMutability":"view"},{"type":"function","name":"getRejectedProject","inputs":[{"name":"_contractorAddress","type":"address","internalType":"address"}],"outputs":[{"name":"","type":"tuple[]","internalType":"struct RejectedMileStone[]","components":[{"name":"projectId","type":"uint256","internalType":"uint256"},{"name":"milestoneId","type":"uint256","internalType":"uint256"},{"name":"contractor","type":"address","internalType":"address"}]}],"stateMutability":"view"},{"type":"function","name":"getSubmittedProject","inputs":[{"name":"contractOwner","type":"address","internalType":"address"}],"outputs":[{"name":"","type":"tuple[]","internalType":"struct Project[]","components":[{"name":"projectId","type":"uint256","internalType":"uint256"},{"name":"description","type":"string","internalType":"string"},{"name":"budget","type":"uint256","internalType":"uint256"},{"name":"contractorAddress","type":"address","internalType":"address"},{"name":"agency","type":"address","internalType":"address"},{"name":"completed","type":"bool","internalType":"bool"},{"name":"startDate","type":"uint256","internalType":"uint256"},{"name":"endDate","type":"uint256","internalType":"uint256"},{"name":"imageCid","type":"string","internalType":"string"},{"name":"status","type":"uint8","internalType":"uint8"}]}],"stateMutability":"view"},{"type":"function","name":"milestoneSubmitted","inputs":[{"name":"","type":"address","internalType":"address"},{"name":"","type":"uint256","internalType":"uint256"}],"outputs":[{"name":"projectId","type":"uint256","internalType":"uint256"},{"name":"milestoneId","type":"uint256","internalType":"uint256"},{"name":"contractor","type":"address","internalType":"address"}],"stateMutability":"view"},{"type":"function","name":"projects","inputs":[{"name":"","type":"uint256","internalType":"uint256"}],"outputs":[{"name":"projectId","type":"uint256","internalType":"uint256"},{"name":"description","type":"string","internalType":"string"},{"name":"budget","type":"uint256","internalType":"uint256"},{"name":"contractorAddress","type":"address","internalType":"address"},{"name":"agency","type":"address","internalType":"address"},{"name":"completed","type":"bool","internalType":"bool"},{"name":"startDate","type":"uint256","internalType":"uint256"},{"name":"endDate","type":"uint256","internalType":"uint256"},{"name":"imageCid","type":"string","internalType":"string"},{"name":"status","type":"uint8","internalType":"uint8"}],"stateMutability":"view"},{"type":"function","name":"projectsubmited","inputs":[{"name":"contractor","type":"address","internalType":"address"},{"name":"","type":"uint256","internalType":"uint256"}],"outputs":[{"name":"","type":"uint256","internalType":"uint256"}],"stateMutability":"view"},{"type":"function","name":"projectsupdate","inputs":[{"name":"","type":"uint256","internalType":"uint256"}],"outputs":[{"name":"projectId","type":"uint256","internalType":"uint256"},{"name":"description","type":"string","internalType":"string"},{"name":"budget","type":"uint256","internalType":"uint256"},{"name":"contractorAddress","type":"address","internalType":"address"},{"name":"agency","type":"address","internalType":"address"},{"name":"completed","type":"bool","internalType":"bool"},{"name":"startDate","type":"uint256","internalType":"uint256"},{"name":"endDate","type":"uint256","internalType":"uint256"},{"name":"imageCid","type":"string","internalType":"string"},{"name":"status","type":"uint8","internalType":"uint8"}],"stateMutability":"view"},{"type":"function","name":"rejectedMilestones","inputs":[{"name":"","type":"address","internalType":"address"},{"name":"","type":"uint256","internalType":"uint256"}],"outputs":[{"name":"projectId","type":"uint256","internalType":"uint256"},{"name":"milestoneId","type":"uint256","internalType":"uint256"},{"name":"contractor","type":"address","internalType":"address"}],"stateMutability":"view"},{"type":"event","name":"CreateContractor","inputs":[{"name":"","type":"string","indexed":false,"internalType":"string"},{"name":"","type":"address","indexed":false,"internalType":"address"},{"name":"","type":"uint256","indexed":false,"internalType":"uint256"}],"anonymous":false},{"type":"event","name":"CreateProject","inputs":[{"name":"projectDescription","type":"string","indexed":false,"internalType":"string"},{"name":"projectId","type":"uint256","indexed":false,"internalType":"uint256"},{"name":"contractorName","type":"address","indexed":false,"internalType":"address"},{"name":"agencyAddress","type":"address","indexed":false,"internalType":"address"}],"anonymous":false},{"type":"event","name":"SubmitedProject","inputs":[{"name":"projectId","type":"uint256","indexed":false,"internalType":"uint256"},{"name":"milestoneDescription","type":"string","indexed":false,"internalType":"string"},{"name":"Imgcid","type":"string","indexed":false,"internalType":"string"},{"name":"contractoraAddress","type":"address","indexed":false,"internalType":"address"}],"anonymous":false}],"bytecode":{"object":"0x608034608057601f611d5138819003918201601f19168301916001600160401b03831184841017608457808492602094604052833981010312608057516001600160a01b038116908190036080576001600d8190555f80546001600160a01b03199081163317909155815416919091179055604051611cb890816100998239f35b5f80fd5b634e487b7160e01b5f52604160045260245ffdfe60806040526004361015610011575f80fd5b5f3560e01c80630306aa2a1461152a578063107046bd146114fa57806317a06cab146111425780633481a95a146110c25780633a9acd041461108a5780635aa9077e1461104a57806367f8819c14610f465780636ab0bd4c14610e60578063701d156714610e1b5780637692ab4214610c165780637bb8202414610b8e578063807c032814610690578063aa51b03814610650578063b7ae348f14610585578063c9b08c021461053c578063e0533492146104e4578063e7c7015114610254578063f0f3f2c814610187578063f28412601461010b5763f30a3a14146100f5575f80fd5b34610107575f36600319011261010757005b5f80fd5b3461010757604036600319011261010757610124611804565b6001600160a01b03165f90815260066020526040902080546024359081101561010757610150916118c4565b50805460018201546002909201546040805192835260208301939093526001600160a01b03169181019190915280606081015b0390f35b34610107576020366003190112610107576101a0611c22565b506004355f52600260205261018360405f2060ff6008604051926101c3846115a5565b805484526101d3600182016115fd565b60208501526002810154604085015260038101546001600160a01b0390811660608601526004820154908116608086015260a090811c8416151590850152600581015460c0850152600681015460e0850152610231600782016115fd565b6101008501520154166101208201526040519182916020835260208301906118dd565b34610107576060366003190112610107576004356024356001600160401b03811161010757610287903690600401611799565b906044356001600160401b038111610107576102a7903690600401611799565b91815f52600260205260405f209260018401938251946001600160401b038611610461576102df866102d98354611552565b8361199d565b602095601f811160011461048057806007949596975f91610475575b508160011b915f199060031b1c19161790555b0181516001600160401b038111610461576103338161032d8454611552565b8461199d565b6020601f82116001146103db5791817fdd21516e8d64b364bd7a9c1607150492404c8502f6b066727a4e4b1f6b12c9639692610394945f916103d0575b508160011b915f199060031b1c19161790555b335f52600960205260405f206119e0565b6103c5600d54916103b7604051948594855260806020860152608085019061169d565b90838203604085015261169d565b3360608301520390a1005b905085015188610370565b601f19821690835f52805f20915f5b8181106104495750926103949492600192827fdd21516e8d64b364bd7a9c1607150492404c8502f6b066727a4e4b1f6b12c9639a9610610431575b5050811b019055610383565b8701515f1960f88460031b161c191690558880610425565b9192602060018192868a0151815501940192016103ea565b634e487b7160e01b5f52604160045260245ffd5b9050860151886102fb565b601f198116825f52875f20905f5b8181106104cc5750906007959697988360019493106104b4575b5050811b01905561030e565b8801515f1960f88460031b161c1916905588806104a8565b878a015183556020998a01996001909301920161048e565b34610107576040366003190112610107576104fd611804565b6001600160a01b03165f908152600960205260409020805460243591908210156101075760209161052d91611972565b90549060031b1c604051908152f35b3461010757604036600319011261010757610555611804565b6001600160a01b03165f908152600460205260409020805460243591908210156101075760209161052d91611972565b34610107576060366003190112610107576001600160a01b036105a66117ee565b16805f52600660205260405f2090604051906105c18261158a565b602435825260208201926004358452604083019182528054600160401b811015610461576105f4916001820181556118c4565b93909361063d5760029251845551600184015560018060a01b0390511691019060018060a01b03166bffffffffffffffffffffffff60a01b825416179055602060405160018152f35b634e487b7160e01b5f525f60045260245ffd5b34610107576020366003190112610107576001600160a01b03610671611804565b165f52600a602052602060018060a01b0360405f205416604051908152f35b346101075760c0366003190112610107576004356001600160401b038111610107576106c0903690600401611799565b602435906064356001600160401b038111610107576106e3903690600401611799565b916084356001600160401b03811161010757610703903690600401611799565b9260a4356001600160401b03811161010757610723903690600401611799565b93825f52600560205282600160405f20015414610b495760405191610747836115c1565b848352602083019084825260408401604435815260608501918252608085019233845260a0860194855260c08601988952600b54600160401b811015610461578060016107979201600b5561181a565b96909661063d57518051906001600160401b0382116104615781906107c6826107c08b54611552565b8b61199d565b602090601f8311600114610ae6575f92610adb575b50508160011b915f199060031b1c19161786555b51600186015551600285015551805160038501916001600160401b038211610461578190610827826108218654611552565b8661199d565b602090601f8311600114610a78575f92610a6d575b50508160011b915f199060031b1c19161790555b516004830180546001600160a01b0319166001600160a01b039290921691909117905551805160058301916001600160401b0382116104615761089d826108978554611552565b8561199d565b602090601f8311600114610a06576006949392915f91836109fb575b50508160011b915f199060031b1c19161790555b0192519283516001600160401b038111610461576108ef8161032d8454611552565b6020601f8211600114610972579080610956959493927f1a2329f37ef34ee1917f3b35f441382c68224401dd616d88ff4e8938f2b1dd3d975f92610967575b50508160011b915f199060031b1c19161790555b60405192839260608452606084019061169d565b9033602084015260408301520390a1005b01519050878061092e565b601f19821695835f52815f20965f5b8181106109e35750966001928492610956989796957f1a2329f37ef34ee1917f3b35f441382c68224401dd616d88ff4e8938f2b1dd3d9a106109cb575b505050811b019055610942565b01515f1960f88460031b161c191690558780806109be565b83830151895560019098019760209384019301610981565b0151905088806108b9565b90601f19831691845f52815f20925f5b818110610a55575091600193918560069897969410610a3d575b505050811b0190556108cd565b01515f1960f88460031b161c19169055888080610a30565b92936020600181928786015181550195019301610a16565b01519050898061083c565b5f8581528281209350601f198516905b818110610ac35750908460019594939210610aab575b505050811b019055610850565b01515f1960f88460031b161c19169055898080610a9e565b92936020600181928786015181550195019301610a88565b015190508b806107db565b5f8a81528281209350601f198516905b818110610b315750908460019594939210610b19575b505050811b0186556107ef565b01515f1960f88460031b161c191690558b8080610b0c565b92936020600181928786015181550195019301610af6565b60405162461bcd60e51b815260206004820152601860248201527f436f6e74726163746f7220616c726561647920657869737400000000000000006044820152606490fd5b34610107576020366003190112610107576004355f52600360205260405f208054610183610bbe600184016115fd565b9160028401549360018060a01b0360038201541691600482015460058301549060068401549260ff6008610bf4600788016115fd565b9601541695604051998a9960ff8560a01c169460018060a01b0316938b611728565b34610107576020366003190112610107576001600160a01b03610c37611804565b165f52600a60205260018060a01b0360405f2054165f52600960205260405f20604051808260208294549384815201905f5260205f20925f5b818110610e02575050610c85925003826115dc565b8051610c9081611c0b565b91610c9e60405193846115dc565b818352601f19610cad83611c0b565b015f5b818110610deb5750505f5b828110610d2957836040518091602082016020835281518091526040830190602060408260051b8601019301915f905b828210610cfa57505050500390f35b91936001919395506020610d198192603f198a820301865288516118dd565b9601920192018594939192610ceb565b80610d3660019284611c6e565b515f52600260205260405f2060ff600860405192610d53846115a5565b80548452610d628682016115fd565b602085015260028101546040850152858060a01b036003820154166060850152826004820154878060a01b038116608087015260a01c16151560a0850152600581015460c0850152600681015460e0850152610dc0600782016115fd565b610100850152015416610120820152610dd98287611c6e565b52610de48186611c6e565b5001610cbb565b602090610df6611c22565b82828801015201610cb0565b8454835260019485019486945060209093019201610c70565b3461010757604036600319011261010757610e34611804565b6001600160a01b03165f90815260076020526040902080546024359081101561010757610150916118c4565b34610107575f36600319011261010757600b54610e7c81611c0b565b90610e8a60405192836115dc565b808252602082019081600b5f527f0175b7a638427703f0dbe7bb9bbf987a2551717b34e79f33b5b1008d1fa01db95f915b838310610f2857848660405191829160208301906020845251809152604083019060408160051b85010192915f905b828210610ef957505050500390f35b91936001919395506020610f188192603f198a8203018652885161184a565b9601920192018594939192610eea565b60076020600192610f3885611a14565b815201920192019190610ebb565b34610107576020366003190112610107576001600160a01b03610f67611804565b165f52600660205260405f20805490610f7f82611c0b565b91610f8d60405193846115dc565b8083526020830180925f5260205f205f915b83831061100c578486604051918291602083019060208452518091526040830191905f5b818110610fd1575050500390f35b825180518552602081810151818701526040918201516001600160a01b03169186019190915286955060609094019390920191600101610fc3565b6003602060019260405161101f8161158a565b855481528486015483820152848060a01b036002870154166040820152815201920192019190610f9f565b34610107576020366003190112610107576001600160a01b0361106b611804565b165f526008602052602060018060a01b0360405f205416604051908152f35b34610107576020366003190112610107576101836110ae6110a9611804565b611a89565b60405191829160208352602083019061184a565b3461010757602036600319011261010757600435600b54811015610107576110e99061181a565b506110f3816115fd565b61018360018301549260028101549061110e600382016115fd565b60048201546001600160a01b031690611135600661112e600586016115fd565b94016115fd565b93604051978897886116c1565b346101075760a0366003190112610107576004356001600160401b03811161010757611172903690600401611799565b60243561117d6117ee565b9060018060a01b0360015416604051636eb1769f60e11b8152336004820152306024820152602081604481855afa908115611466575f916114c8575b5082116114715760205f916064604051809481936323b872dd60e01b83523360048401523060248401528760448401525af180156114665761142f575b50600d5490815f52600260205260405f209182556001820184516001600160401b0381116104615761122c8161032d8454611552565b6020601f82116001146113a557926007928261134196937faa27ead904746b3537e5326eafdda820a527802df76f8c36e8d26cf4d7a6bca598965f9161139a575b508160011b915f199060031b1c19161790555b60028201556003810180546001600160a01b0319166001600160a01b03851617905560048101805460ff60a01b19169055606435600582015560843560068201550180546112cd90611552565b601f811161137a575b506002600160fd1b0190556001600160a01b03165f818152600460205260409020600d54919491611306916119e0565b335f52600a60205260405f20846bffffffffffffffffffffffff60a01b825416179055600d549360405192839260808452608084019061169d565b9085602084015260408301523360608301520390a15f19811461136657600101600d55005b634e487b7160e01b5f52601160045260245ffd5b61139490825f52601f60205f20910160051c810190611987565b856112d6565b90508901518a61126d565b601f19821690835f52805f20915f5b8181106114175750837faa27ead904746b3537e5326eafdda820a527802df76f8c36e8d26cf4d7a6bca5989693600796936113419996600194106113ff575b5050811b019055611280565b8b01515f1960f88460031b161c191690558a806113f3565b9192602060018192868d0151815501940192016113b4565b6020813d60201161145e575b81611448602093836115dc565b81010312610107575180151581146111f6575f80fd5b3d915061143b565b6040513d5f823e3d90fd5b60405162461bcd60e51b815260206004820152602960248201527f4e6f20616c6c6f77616e636520746f207370656e642066756e647320617420746044820152681a19481b5bdb595b9d60ba1b6064820152608490fd5b90506020813d6020116114f2575b816114e3602093836115dc565b810103126101075751856111b9565b3d91506114d6565b34610107576020366003190112610107576004355f52600260205260405f208054610183610bbe600184016115fd565b34610107576020366003190112610107576004355f52600560205260405f206110f3816115fd565b90600182811c92168015611580575b602083101461156c57565b634e487b7160e01b5f52602260045260245ffd5b91607f1691611561565b606081019081106001600160401b0382111761046157604052565b61014081019081106001600160401b0382111761046157604052565b60e081019081106001600160401b0382111761046157604052565b90601f801991011681019081106001600160401b0382111761046157604052565b9060405191825f82549261161084611552565b808452936001811690811561167b5750600114611637575b50611635925003836115dc565b565b90505f9291925260205f20905f915b81831061165f575050906020611635928201015f611628565b6020919350806001915483858901015201910190918492611646565b90506020925061163594915060ff191682840152151560051b8201015f611628565b805180835260209291819084018484015e5f828201840152601f01601f1916010190565b9591611717946117259896946116e26116fa9460e08b5260e08b019061169d565b9260208a01526040890152878203606089015261169d565b6001600160a01b03909216608086015284820360a086015261169d565b9160c081840391015261169d565b90565b98939461012098939561175560ff99946101409d9e9d60208e6117929c97815201526101408d019061169d565b60408c01979097526001600160a01b0390811660608c01521660808a0152151560a089015260c088015260e087015285820361010087015261169d565b9416910152565b81601f82011215610107578035906001600160401b03821161046157604051926117cd601f8401601f1916602001856115dc565b8284526020838301011161010757815f926020809301838601378301015290565b604435906001600160a01b038216820361010757565b600435906001600160a01b038216820361010757565b600b5481101561183657600b5f52600760205f20910201905f90565b634e487b7160e01b5f52603260045260245ffd5b6117259160c06118b361188f611869855160e0865260e086019061169d565b60208601516020860152604086015160408601526060860151858203606087015261169d565b60018060a01b03608086015116608085015260a085015184820360a086015261169d565b9201519060c081840391015261169d565b8054821015611836575f52600360205f20910201905f90565b908151815261012060ff816119686119066020870151610140602088015261014087019061169d565b6040870151604087015260018060a01b03606088015116606087015260018060a01b03608088015116608087015260a0870151151560a087015260c087015160c087015260e087015160e087015261010087015186820361010088015261169d565b9401511691015290565b8054821015611836575f5260205f2001905f90565b818110611992575050565b5f8155600101611987565b9190601f81116119ac57505050565b611635925f5260205f20906020601f840160051c830193106119d6575b601f0160051c0190611987565b90915081906119c9565b8054600160401b811015610461576119fd91600182018155611972565b819291549060031b91821b915f19901b1916179055565b90604051611a21816115c1565b60c0611a8460068395611a33816115fd565b85526001810154602086015260028101546040860152611a55600382016115fd565b606086015260048101546001600160a01b03166080860152611a79600582016115fd565b60a0860152016115fd565b910152565b604051611a95816115c1565b606081525f60208201525f60408201526060808201525f6080820152606060a0820152606060c08201525060018060a01b03168015611bce57600b54908115611b91575f5b828110611b5757505050604051611af0816115c1565b6020604051611aff82826115dc565b5f815282525f818301525f6040830152604051611b1c82826115dc565b5f815260608301525f6080830152604051611b3782826115dc565b5f815260a0830152611b4c60405191826115dc565b5f815260c082015290565b81611b618261181a565b50600401546001600160a01b031614611b7c57600101611ada565b6117259250611b8b915061181a565b50611a14565b60405162461bcd60e51b8152602060048201526015602482015274139bc810dbdb9d1c9858dd1bdc8813db989bd85c99605a1b6044820152606490fd5b60405162461bcd60e51b8152602060048201526015602482015274416464726573732063616e2774206265207a65726f60581b6044820152606490fd5b6001600160401b0381116104615760051b60200190565b60405190611c2f826115a5565b5f61012083828152606060208201528260408201528260608201528260808201528260a08201528260c08201528260e082015260606101008201520152565b80518210156118365760209160051b01019056fea2646970667358221220aa64639d899483e7ed5af2ddff07120ec5be60804d0d8651e39232060f615a9a64736f6c634300081c0033","linkReferences":{}},"methodIdentifiers":{"RejectMilestones(uint256,uint256,address)":"b7ae348f","SubmitProject(uint256,string,string)":"e7c70151","agencyContractor(address)":"5aa9077e","agency_Contractor(address)":"aa51b038","contractor(uint256)":"0306aa2a","contractorProjects(address,uint256)":"c9b08c02","contractors(uint256)":"3481a95a","createAgency()":"f30a3a14","createContractor(string,uint256,uint256,string,string,string)":"807c0328","createProject(string,uint256,address,uint256,uint256)":"17a06cab","getAllContractors()":"6ab0bd4c","getContractor(address)":"3a9acd04","getProject(uint256)":"f0f3f2c8","getRejectedProject(address)":"67f8819c","getSubmittedProject(address)":"7692ab42","milestoneSubmitted(address,uint256)":"701d1567","projects(uint256)":"107046bd","projectsubmited(address,uint256)":"e0533492","projectsupdate(uint256)":"7bb82024","rejectedMilestones(address,uint256)":"f2841260"},"id":460}