{"abi":[{"type":"constructor","inputs":[{"name":"gateway_","type":"address","internalType":"address"}],"stateMutability":"nonpayable"},{"type":"function","name":"receiveMessage","inputs":[{"name":"receiveId","type":"bytes32","internalType":"bytes32"},{"name":"sender","type":"bytes","internalType":"bytes"},{"name":"payload","type":"bytes","internalType":"bytes"}],"outputs":[{"name":"","type":"bytes4","internalType":"bytes4"}],"stateMutability":"payable"},{"type":"event","name":"MessageReceived","inputs":[{"name":"gateway","type":"address","indexed":false,"internalType":"address"},{"name":"receiveId","type":"bytes32","indexed":false,"internalType":"bytes32"},{"name":"sender","type":"bytes","indexed":false,"internalType":"bytes"},{"name":"payload","type":"bytes","indexed":false,"internalType":"bytes"},{"name":"value","type":"uint256","indexed":false,"internalType":"uint256"}],"anonymous":false},{"type":"error","name":"ERC7786RecipientMessageAlreadyProcessed","inputs":[{"name":"gateway","type":"address","internalType":"address"},{"name":"receiveId","type":"bytes32","internalType":"bytes32"}]},{"type":"error","name":"ERC7786RecipientUnauthorizedGateway","inputs":[{"name":"gateway","type":"address","internalType":"address"},{"name":"sender","type":"bytes","internalType":"bytes"}]}],"bytecode":{"object":"0x60a034606557601f6102ad38819003918201601f19168301916001600160401b03831184841017606957808492602094604052833981010312606557516001600160a01b038116810360655760805260405161022f908161007e823960805181607e0152f35b5f80fd5b634e487b7160e01b5f52604160045260245ffdfe6080806040526004361015610012575f80fd5b5f3560e01c632432ef2614610025575f80fd5b60603660031901126101a7576004359060243567ffffffffffffffff81116101a7576100559036906004016101ab565b919060443567ffffffffffffffff81116101a7576100779036906004016101ab565b90929091907f00000000000000000000000000000000000000000000000000000000000000006001600160a01b0316330361017c5750335f525f60205260405f208560081c600160ff88161b91815f526020528160405f205416610165577f6481284e17cb5e280cd79edd7b43c0bea1c693984dee5b1d9199579884fa0d4e96949261014a949261013c92335f525f60205260405f20905f5260205260405f20908154179055604051968796338852602088015260a0604088015260a08701916101d9565b9184830360608601526101d9565b3460808301520390a1604051631219779360e11b8152602090f35b866352bc305160e01b5f523360045260245260445ffd5b6101a381928663cddea73760e01b84523360048501526040602485015260448401916101d9565b0390fd5b5f80fd5b9181601f840112156101a75782359167ffffffffffffffff83116101a757602083818601950101116101a757565b908060209392818452848401375f828201840152601f01601f191601019056fea2646970667358221220198913a497c3a4fd0e6675408c8767646363fb74d537132eb73a069a4242a53464736f6c634300081c0033","linkReferences":{}},"methodIdentifiers":{"receiveMessage(bytes32,bytes,bytes)":"2432ef26"},"id":180}