{"abi":[{"type":"function","name":"DEFAULT_ADMIN_ROLE","inputs":[],"outputs":[{"name":"","type":"bytes32","internalType":"bytes32"}],"stateMutability":"view"},{"type":"function","name":"getRoleAdmin","inputs":[{"name":"role","type":"bytes32","internalType":"bytes32"}],"outputs":[{"name":"","type":"bytes32","internalType":"bytes32"}],"stateMutability":"view"},{"type":"function","name":"grantRole","inputs":[{"name":"role","type":"bytes32","internalType":"bytes32"},{"name":"account","type":"address","internalType":"address"}],"outputs":[],"stateMutability":"nonpayable"},{"type":"function","name":"hasRole","inputs":[{"name":"role","type":"bytes32","internalType":"bytes32"},{"name":"account","type":"address","internalType":"address"}],"outputs":[{"name":"","type":"bool","internalType":"bool"}],"stateMutability":"view"},{"type":"function","name":"renounceRole","inputs":[{"name":"role","type":"bytes32","internalType":"bytes32"},{"name":"callerConfirmation","type":"address","internalType":"address"}],"outputs":[],"stateMutability":"nonpayable"},{"type":"function","name":"revokeRole","inputs":[{"name":"","type":"bytes32","internalType":"bytes32"},{"name":"","type":"address","internalType":"address"}],"outputs":[],"stateMutability":"pure"},{"type":"function","name":"supportsInterface","inputs":[{"name":"interfaceId","type":"bytes4","internalType":"bytes4"}],"outputs":[{"name":"","type":"bool","internalType":"bool"}],"stateMutability":"view"},{"type":"event","name":"RoleAdminChanged","inputs":[{"name":"role","type":"bytes32","indexed":true,"internalType":"bytes32"},{"name":"previousAdminRole","type":"bytes32","indexed":true,"internalType":"bytes32"},{"name":"newAdminRole","type":"bytes32","indexed":true,"internalType":"bytes32"}],"anonymous":false},{"type":"event","name":"RoleGranted","inputs":[{"name":"role","type":"bytes32","indexed":true,"internalType":"bytes32"},{"name":"account","type":"address","indexed":true,"internalType":"address"},{"name":"sender","type":"address","indexed":true,"internalType":"address"}],"anonymous":false},{"type":"event","name":"RoleRevoked","inputs":[{"name":"role","type":"bytes32","indexed":true,"internalType":"bytes32"},{"name":"account","type":"address","indexed":true,"internalType":"address"},{"name":"sender","type":"address","indexed":true,"internalType":"address"}],"anonymous":false},{"type":"error","name":"AccessControlBadConfirmation","inputs":[]},{"type":"error","name":"AccessControlNonRevocable","inputs":[]},{"type":"error","name":"AccessControlUnauthorizedAccount","inputs":[{"name":"account","type":"address","internalType":"address"},{"name":"neededRole","type":"bytes32","internalType":"bytes32"}]}],"bytecode":{"object":"0x60808060405234601557610368908161001a8239f35b5f80fdfe6080806040526004361015610012575f80fd5b5f3560e01c90816301ffc9a7146101b157508063248a9ca31461017f5780632f2ff15d1461011957806336568abe146100e157806391d14854146100a6578063a217fddf1461008c5763d547741f14610069575f80fd5b346100885761007736610204565b505063b98cbebd60e01b5f5260045ffd5b5f80fd5b34610088575f3660031901126100885760206040515f8152f35b34610088576100b436610204565b905f525f60205260405f209060018060a01b03165f52602052602060ff60405f2054166040519015158152f35b34610088576100ef36610204565b336001600160a01b0382160361010a57610108916102b2565b005b63334bd91960e11b5f5260045ffd5b346100885761012736610204565b61013c825f525f602052600160405f20015490565b5f8181526020818152604080832033845290915290205490929060ff161561016857610108925061022a565b8263e2517d3f60e01b5f523360045260245260445ffd5b346100885760203660031901126100885760206101a96004355f525f602052600160405f20015490565b604051908152f35b34610088576020366003190112610088576004359063ffffffff60e01b821680920361008857602091637965db0b60e01b81149081156101f3575b5015158152f35b6301ffc9a760e01b149050836101ec565b604090600319011261008857600435906024356001600160a01b03811681036100885790565b5f818152602081815260408083206001600160a01b038616845290915290205460ff166102ac575f818152602081815260408083206001600160a01b0395909516808452949091528120805460ff19166001179055339291907f2f8788117e7eff1d82e926ec794901d17c78024a50270940304540a733656f0d9080a4600190565b50505f90565b5f818152602081815260408083206001600160a01b038616845290915290205460ff16156102ac575f818152602081815260408083206001600160a01b0395909516808452949091528120805460ff19169055339291907ff6391f5c32d9c69d2a47ea670b442974b53935d1edc7fd64eb21e047a839171b9080a460019056fea2646970667358221220359be5b50253af22b4b74c253868c84184e7f38372f70e053bbf8d7589243e6164736f6c634300081c0033","linkReferences":{}},"methodIdentifiers":{"DEFAULT_ADMIN_ROLE()":"a217fddf","getRoleAdmin(bytes32)":"248a9ca3","grantRole(bytes32,address)":"2f2ff15d","hasRole(bytes32,address)":"91d14854","renounceRole(bytes32,address)":"36568abe","revokeRole(bytes32,address)":"d547741f","supportsInterface(bytes4)":"01ffc9a7"},"id":187}