{"abi":[{"type":"function","name":"checkReturnValues","inputs":[{"name":"multicallToken","type":"address","internalType":"contract ERC20MulticallMock"},{"name":"recipients","type":"address[]","internalType":"address[]"},{"name":"amounts","type":"uint256[]","internalType":"uint256[]"}],"outputs":[],"stateMutability":"nonpayable"}],"bytecode":{"object":"0x60808060405234601557610423908161001a8239f35b5f80fdfe60806040526004361015610011575f80fd5b5f3560e01c63b568d01614610024575f80fd5b3461015d57606036600319011261015d576004356001600160a01b0381169081900361015d5760243567ffffffffffffffff811161015d5761006a90369060040161034a565b919060443567ffffffffffffffff811161015d5761008c90369060040161034a565b906100968561039d565b946100a4604051968761037b565b808652601f196100b38261039d565b015f5b8181106103395750505f5b8181106102c55786866040518092631592ca1b60e31b8252602482016020600484015281518091526044830190602060448260051b8601019301915f905b82821061027f57855f8180880381838c5af1908115610274575f91610163575b505f5b81518110156101615761013581836103d9565b5160208180518101031261015d576020015180159081150361015d5761015d57600101610122565b5f80fd5b005b90503d805f833e610174818361037b565b81019060208183031261015d5780519067ffffffffffffffff821161015d57019080601f8301121561015d578151916101ac8361039d565b926101ba604051948561037b565b80845260208085019160051b8301019183831161015d5760208101915b8383106101e95750505050508161011f565b825167ffffffffffffffff811161015d57820185603f8201121561015d5760208101519167ffffffffffffffff831161026057604051610233601f8501601f19166020018261037b565b838152604083850101881061015d575f602085819660408397018386015e830101528152019201916101d7565b634e487b7160e01b5f52604160045260245ffd5b6040513d5f823e3d90fd5b919360019193955060208080926043198b82030186528189518051918291828552018484015e5f838284010152601f8019910116010196019201920186949391926100ff565b6102d08183876103b5565b356001600160a01b038116919082900361015d576001916102f28287876103b5565b356040519163a9059cbb60e01b6020840152602483015260448201526044815261031d60648261037b565b610327828a6103d9565b5261033281896103d9565b50016100c1565b806060602080938b010152016100b6565b9181601f8401121561015d5782359167ffffffffffffffff831161015d576020808501948460051b01011161015d57565b90601f8019910116810190811067ffffffffffffffff82111761026057604052565b67ffffffffffffffff81116102605760051b60200190565b91908110156103c55760051b0190565b634e487b7160e01b5f52603260045260245ffd5b80518210156103c55760209160051b01019056fea264697066735822122079c7877f21f5ccde627b3ca1d3b3d80e56ab680728a32b1fd24ffa4f140dac1464736f6c634300081c0033","linkReferences":{}},"methodIdentifiers":{"checkReturnValues(address,address[],uint256[])":"b568d016"},"id":160}