{"abi":[{"type":"receive","stateMutability":"payable"},{"type":"function","name":"entryPoint","inputs":[],"outputs":[{"name":"","type":"address","internalType":"contract IEntryPoint"}],"stateMutability":"view"},{"type":"function","name":"execute","inputs":[{"name":"mode","type":"bytes32","internalType":"bytes32"},{"name":"executionData","type":"bytes","internalType":"bytes"}],"outputs":[],"stateMutability":"payable"},{"type":"function","name":"getNonce","inputs":[{"name":"key","type":"uint192","internalType":"uint192"}],"outputs":[{"name":"","type":"uint256","internalType":"uint256"}],"stateMutability":"view"},{"type":"function","name":"getNonce","inputs":[],"outputs":[{"name":"","type":"uint256","internalType":"uint256"}],"stateMutability":"view"},{"type":"function","name":"onERC1155BatchReceived","inputs":[{"name":"","type":"address","internalType":"address"},{"name":"","type":"address","internalType":"address"},{"name":"","type":"uint256[]","internalType":"uint256[]"},{"name":"","type":"uint256[]","internalType":"uint256[]"},{"name":"","type":"bytes","internalType":"bytes"}],"outputs":[{"name":"","type":"bytes4","internalType":"bytes4"}],"stateMutability":"nonpayable"},{"type":"function","name":"onERC1155Received","inputs":[{"name":"","type":"address","internalType":"address"},{"name":"","type":"address","internalType":"address"},{"name":"","type":"uint256","internalType":"uint256"},{"name":"","type":"uint256","internalType":"uint256"},{"name":"","type":"bytes","internalType":"bytes"}],"outputs":[{"name":"","type":"bytes4","internalType":"bytes4"}],"stateMutability":"nonpayable"},{"type":"function","name":"onERC721Received","inputs":[{"name":"","type":"address","internalType":"address"},{"name":"","type":"address","internalType":"address"},{"name":"","type":"uint256","internalType":"uint256"},{"name":"","type":"bytes","internalType":"bytes"}],"outputs":[{"name":"","type":"bytes4","internalType":"bytes4"}],"stateMutability":"nonpayable"},{"type":"function","name":"supportsExecutionMode","inputs":[{"name":"mode","type":"bytes32","internalType":"bytes32"}],"outputs":[{"name":"result","type":"bool","internalType":"bool"}],"stateMutability":"view"},{"type":"function","name":"supportsInterface","inputs":[{"name":"interfaceId","type":"bytes4","internalType":"bytes4"}],"outputs":[{"name":"","type":"bool","internalType":"bool"}],"stateMutability":"view"},{"type":"function","name":"validateUserOp","inputs":[{"name":"userOp","type":"tuple","internalType":"struct PackedUserOperation","components":[{"name":"sender","type":"address","internalType":"address"},{"name":"nonce","type":"uint256","internalType":"uint256"},{"name":"initCode","type":"bytes","internalType":"bytes"},{"name":"callData","type":"bytes","internalType":"bytes"},{"name":"accountGasLimits","type":"bytes32","internalType":"bytes32"},{"name":"preVerificationGas","type":"uint256","internalType":"uint256"},{"name":"gasFees","type":"bytes32","internalType":"bytes32"},{"name":"paymasterAndData","type":"bytes","internalType":"bytes"},{"name":"signature","type":"bytes","internalType":"bytes"}]},{"name":"userOpHash","type":"bytes32","internalType":"bytes32"},{"name":"missingAccountFunds","type":"uint256","internalType":"uint256"}],"outputs":[{"name":"","type":"uint256","internalType":"uint256"}],"stateMutability":"nonpayable"},{"type":"event","name":"ERC7579TryExecuteFail","inputs":[{"name":"batchExecutionIndex","type":"uint256","indexed":false,"internalType":"uint256"},{"name":"returndata","type":"bytes","indexed":false,"internalType":"bytes"}],"anonymous":false},{"type":"error","name":"AccountUnauthorized","inputs":[{"name":"sender","type":"address","internalType":"address"}]},{"type":"error","name":"ERC7579DecodingError","inputs":[]},{"type":"error","name":"ERC7579UnsupportedExecType","inputs":[{"name":"execType","type":"bytes1","internalType":"ExecType"}]},{"type":"error","name":"FailedCall","inputs":[]},{"type":"error","name":"OutOfRangeAccess","inputs":[]},{"type":"error","name":"UnsupportedExecutionMode","inputs":[]}],"bytecode":{"object":"0x608080604052346015576109da908161001a8239f35b5f80fdfe608080604052600436101561001c575b50361561001a575f80fd5b005b5f3560e01c90816301ffc9a71461066957508063150b7a021461061457806319822f7c146105215780633e1b0812146104ae578063b0d691fe14610480578063bc197c81146103eb578063d03c7914146103c3578063d087d28814610327578063e9ae5c53146100ef5763f23a6e6114610096575f61000f565b346100eb5760a03660031901126100eb576100af6106bc565b506100b86106d2565b506084356001600160401b0381116100eb576100d890369060040161076e565b5060405163f23a6e6160e01b8152602090f35b5f80fd5b60403660031901126100eb576024356001600160401b0381116100eb57366023820112156100eb578060040135906001600160401b0382116100eb5736602483830101116100eb57734337084d9e255ff0702461cf8895ce9e3b5ff1083314801561031e575b1561030b57610165600435610832565b156102fc57602082106102d857816020116100eb576024810135601f19830181116102d857602081018082116100eb5783106100eb5781810160240135926001600160401b0384119081156102e7575b506102d857016044016101c78261078c565b906101d560405192836106e8565b828252601f196101e48461078c565b015f5b8181106102c75750505f5b8381106101fb57005b610206818584610878565b35906001600160a01b0382168083036100eb575f8091600194602061022c868b8a610878565b013561024661023c878c8b610878565b6040810190610800565b9290931585146102c1575030925b826040519384928337810185815203925af13d156102b5576102983d6102798161071d565b9061028760405192836106e8565b81529182903d5f602084013e61097e565b506102a382866108ae565b526102ae81856108ae565b50016101f2565b6102986060809261097e565b92610254565b8060606020809387010152016101e7565b63eb0bcc5d60e01b5f5260045ffd5b90508360051b9082601f1991030110846101b5565b637f18127560e01b5f5260045ffd5b637cf8632b60e01b5f523360045260245ffd5b50303314610155565b346100eb575f3660031901126100eb57604051631aab3f0d60e11b81523060048201525f6024820152602081604481734337084d9e255ff0702461cf8895ce9e3b5ff1085afa80156103b8575f90610385575b604051908152602090f35b506020813d6020116103b0575b8161039f602093836106e8565b810103126100eb576020905161037a565b3d9150610392565b6040513d5f823e3d90fd5b346100eb5760203660031901126100eb5760206103e1600435610832565b6040519015158152f35b346100eb5760a03660031901126100eb576104046106bc565b5061040d6106d2565b506044356001600160401b0381116100eb5761042d9036906004016107a3565b506064356001600160401b0381116100eb5761044d9036906004016107a3565b506084356001600160401b0381116100eb5761046d90369060040161076e565b5060405163bc197c8160e01b8152602090f35b346100eb575f3660031901126100eb576020604051734337084d9e255ff0702461cf8895ce9e3b5ff1088152f35b346100eb5760203660031901126100eb576004356001600160c01b038116908190036100eb5760405190631aab3f0d60e11b82523060048301526024820152602081604481734337084d9e255ff0702461cf8895ce9e3b5ff1085afa80156103b8575f9061038557604051908152602090f35b346100eb5760603660031901126100eb576004356001600160401b0381116100eb5761012060031982360301126100eb5760443590734337084d9e255ff0702461cf8895ce9e3b5ff108330361030b5761059061058982610104610598940190600401610800565b3691610738565b6024356108c2565b5091906001600160a01b03163014806105ed575b60209250156105e5575f905b806105c7575b50604051908152f35b5f80808093816040516105da89826106e8565b52335af150826105be565b6001906105b8565b50600482101561060057602091156105ac565b634e487b7160e01b5f52602160045260245ffd5b346100eb5760803660031901126100eb5761062d6106bc565b506106366106d2565b506064356001600160401b0381116100eb5761065690369060040161076e565b50604051630a85bd0160e11b8152602090f35b346100eb5760203660031901126100eb576004359063ffffffff60e01b82168092036100eb57602091630271189760e51b81149081156106ab575b5015158152f35b6301ffc9a760e01b149050836106a4565b600435906001600160a01b03821682036100eb57565b602435906001600160a01b03821682036100eb57565b90601f801991011681019081106001600160401b0382111761070957604052565b634e487b7160e01b5f52604160045260245ffd5b6001600160401b03811161070957601f01601f191660200190565b9291926107448261071d565b9161075260405193846106e8565b8294818452818301116100eb578281602093845f960137010152565b9080601f830112156100eb5781602061078993359101610738565b90565b6001600160401b0381116107095760051b60200190565b9080601f830112156100eb5781356107ba8161078c565b926107c860405194856106e8565b81845260208085019260051b8201019283116100eb57602001905b8282106107f05750505090565b81358152602091820191016107e3565b903590601e19813603018212156100eb57018035906001600160401b0382116100eb576020019181360383136100eb57565b6001600160f81b0319818116600160f81b149190600882901b168261086f575b508161085c575090565b60301b6001600160e01b03191615919050565b1591505f610852565b919081101561089a5760051b81013590605e19813603018212156100eb570190565b634e487b7160e01b5f52603260045260245ffd5b805182101561089a5760209160051b010190565b81519190604183036108f2576108eb9250602082015190606060408401519301515f1a906108fc565b9192909190565b50505f9160029190565b91907f7fffffffffffffffffffffffffffffff5d576e7357a4501ddfe92f46681b20a08411610973579160209360809260ff5f9560405194855216868401526040830152606082015282805260015afa156103b8575f516001600160a01b0381161561096957905f905f90565b505f906001905f90565b5050505f9160039190565b156109865790565b80511561099557602081519101fd5b63d6bda27560e01b5f5260045ffdfea2646970667358221220431a8b4c914d52b8222184023f0a9b5e996370839d1f39566545d26ba8df472464736f6c634300081c0033","linkReferences":{}},"methodIdentifiers":{"entryPoint()":"b0d691fe","execute(bytes32,bytes)":"e9ae5c53","getNonce()":"d087d288","getNonce(uint192)":"3e1b0812","onERC1155BatchReceived(address,address,uint256[],uint256[],bytes)":"bc197c81","onERC1155Received(address,address,uint256,uint256,bytes)":"f23a6e61","onERC721Received(address,address,uint256,bytes)":"150b7a02","supportsExecutionMode(bytes32)":"d03c7914","supportsInterface(bytes4)":"01ffc9a7","validateUserOp((address,uint256,bytes,bytes,bytes32,uint256,bytes32,bytes,bytes),bytes32,uint256)":"19822f7c"},"id":190}