{"abi":[{"type":"constructor","inputs":[],"stateMutability":"nonpayable"},{"type":"function","name":"onApprovalReceived","inputs":[{"name":"owner","type":"address","internalType":"address"},{"name":"value","type":"uint256","internalType":"uint256"},{"name":"data","type":"bytes","internalType":"bytes"}],"outputs":[{"name":"","type":"bytes4","internalType":"bytes4"}],"stateMutability":"nonpayable"},{"type":"function","name":"setUp","inputs":[{"name":"retval","type":"bytes4","internalType":"bytes4"},{"name":"error","type":"uint8","internalType":"enum ERC1363SpenderMock.RevertType"}],"outputs":[],"stateMutability":"nonpayable"},{"type":"event","name":"Approved","inputs":[{"name":"owner","type":"address","indexed":false,"internalType":"address"},{"name":"value","type":"uint256","indexed":false,"internalType":"uint256"},{"name":"data","type":"bytes","indexed":false,"internalType":"bytes"}],"anonymous":false},{"type":"error","name":"CustomError","inputs":[{"name":"","type":"bytes4","internalType":"bytes4"}]}],"bytecode":{"object":"0x60808060405234602757637b04a2d064ffffffffff195f5416175f5561025b908161002c8239f35b5f80fdfe60806040526004361015610011575f80fd5b5f3560e01c806379317985146101d257637b04a2d01461002f575f80fd5b346101ce5760603660031901126101ce576004356001600160a01b038116908190036101ce5760443567ffffffffffffffff81116101ce57366023820112156101ce5780600401359167ffffffffffffffff83116101ce5736602484840101116101ce575f549160ff8360201c1660058110156101ba57600181036100b2575f80fd5b600281036100ff5760405162461bcd60e51b815260206004820152601d60248201527f455243313336335370656e6465724d6f636b3a20726576657274696e670000006044820152606490fd5b6003810361012a576301990d6f60e61b5f90815260e085901b6001600160e01b031916600452602490fd5b6004146101a65760807f1fa7af237aead0c77cd0a035a35b79014351b77f7edcf8d0d003cf14d90fc63192602095806024604051958694855281358a8601526060604086015282606086015201848401375f828201840152601f01601f19168101030190a160405160e09190911b6001600160e01b0319168152f35b634e487b7160e01b5f52601260045260245ffd5b634e487b7160e01b5f52602160045260245ffd5b5f80fd5b346101ce5760403660031901126101ce576004356001600160e01b0319811681036101ce5760243560058110156101ce5764ff000000005f549160201b169160e01c9064ffffffffff191617175f555f80f3fea2646970667358221220f1d3f6dee0f8a70e96c2c61ecc309a542b3ee56de2eaf098e266de1d5c67fb3164736f6c634300081c0033","linkReferences":{}},"methodIdentifiers":{"onApprovalReceived(address,uint256,bytes)":"7b04a2d0","setUp(bytes4,uint8)":"79317985"},"id":226}