{"abi":[{"type":"function","name":"depth","inputs":[],"outputs":[{"name":"","type":"uint256","internalType":"uint256"}],"stateMutability":"view"},{"type":"function","name":"nextLeafIndex","inputs":[],"outputs":[{"name":"","type":"uint256","internalType":"uint256"}],"stateMutability":"view"},{"type":"function","name":"push","inputs":[{"name":"leaf","type":"bytes32","internalType":"bytes32"}],"outputs":[],"stateMutability":"nonpayable"},{"type":"function","name":"root","inputs":[],"outputs":[{"name":"","type":"bytes32","internalType":"bytes32"}],"stateMutability":"view"},{"type":"function","name":"setup","inputs":[{"name":"_depth","type":"uint8","internalType":"uint8"},{"name":"_zero","type":"bytes32","internalType":"bytes32"}],"outputs":[],"stateMutability":"nonpayable"},{"type":"function","name":"sides","inputs":[{"name":"i","type":"uint256","internalType":"uint256"}],"outputs":[{"name":"","type":"bytes32","internalType":"bytes32"}],"stateMutability":"view"},{"type":"function","name":"update","inputs":[{"name":"index","type":"uint256","internalType":"uint256"},{"name":"oldValue","type":"bytes32","internalType":"bytes32"},{"name":"newValue","type":"bytes32","internalType":"bytes32"},{"name":"proof","type":"bytes32[]","internalType":"bytes32[]"}],"outputs":[],"stateMutability":"nonpayable"},{"type":"function","name":"zeros","inputs":[{"name":"i","type":"uint256","internalType":"uint256"}],"outputs":[{"name":"","type":"bytes32","internalType":"bytes32"}],"stateMutability":"view"},{"type":"event","name":"LeafInserted","inputs":[{"name":"leaf","type":"bytes32","indexed":false,"internalType":"bytes32"},{"name":"index","type":"uint256","indexed":false,"internalType":"uint256"},{"name":"root","type":"bytes32","indexed":false,"internalType":"bytes32"}],"anonymous":false},{"type":"event","name":"LeafUpdated","inputs":[{"name":"oldLeaf","type":"bytes32","indexed":false,"internalType":"bytes32"},{"name":"newLeaf","type":"bytes32","indexed":false,"internalType":"bytes32"},{"name":"index","type":"uint256","indexed":false,"internalType":"uint256"},{"name":"root","type":"bytes32","indexed":false,"internalType":"bytes32"}],"anonymous":false},{"type":"error","name":"MerkleTreeUpdateInvalidIndex","inputs":[{"name":"index","type":"uint256","internalType":"uint256"},{"name":"length","type":"uint256","internalType":"uint256"}]},{"type":"error","name":"MerkleTreeUpdateInvalidProof","inputs":[]}],"bytecode":{"object":"0x60808060405234601557610589908161001a8239f35b5f80fdfe6080806040526004361015610012575f80fd5b5f3560e01c9081630be4f42214610519575080631935699e146102eb578063631c56ef146102ce578063b298e36b146101aa578063b3eb738a1461015a578063b66987b6146100f9578063e8295588146100955763ebf0c71714610074575f80fd5b34610091575f366003190112610091576020600354604051908152f35b5f80fd5b34610091576020366003190112610091576004356002548110156100e55760025f527f405787fa12a823e0f2b7631cc41b3ba8828b3321ca811111fa75cd3aa3bb5ace0154604051908152602090f35b634e487b7160e01b5f52603260045260245ffd5b346100915760403660031901126100915760043560ff8116809103610091578060015580600255602435905f905b808210610138575f80556003839055005b909161015260019160025f52808560205f20015580610532565b920190610127565b34610091576020366003190112610091576004356001548110156100e55760015f527fb10e2d527612073b26eecdfd717e6a320cf44b4afac2b0732d9fcbe2b7fa0cf60154604051908152602090f35b34610091576020366003190112610091576002545f54600435905f1981146102ba57600181015f556001831b8110156102a8578082935f5b81811061022657857fd50e83984b64a106ac2ee6314d689ec4d2a656d5ece6d94c585796944b52240c606087876040519182526020820152836040820152a1600355005b909194610277600191828816159081610298575b81156102885780915b15610282575060025f527f405787fa12a823e0f2b7631cc41b3ba8828b3321ca811111fa75cd3aa3bb5ace84015490610532565b95811c9291016101e2565b90610532565b835f528460205f20015491610243565b835f52808560205f20015561023a565b634e487b715f5260416020526024601cfd5b634e487b7160e01b5f52601160045260245ffd5b34610091575f366003190112610091576020600254604051908152f35b346100915760803660031901126100915760043560443560243560643567ffffffffffffffff811161009157366023820112156100915780600401359067ffffffffffffffff8211610505578160051b60405192601f19603f830116840184811067ffffffffffffffff821117610505576040528352602460208401918301019136831161009157602401905b8282106104f5575050505f54808510156104df5760025493945f945f1990920191908087865b63ffffffff891695858710156104915760018516159060011c9460011c968180610488575b610441575b885111156100e55761041e60019163ffffffff936104086020641fffffffe08f60051b168d01015191835f1461043a57805b841561028257508290610532565b9d82156104335780925b1561042b575090610532565b990116979894929461039e565b905090610532565b8192610412565b82906103fa565b60015f527fb10e2d527612073b26eecdfd717e6a320cf44b4afac2b0732d9fcbe2b7fa0cf681018054849003610479578c90556103c8565b636ea6c9a760e11b5f5260045ffd5b508588146103c3565b8a84848b8560035403610479577fe03551f7503c4040ae401d457f073dc1e751b1e9f8ccc5627854fa7a7f3977769260809260405192835260208301526040820152836060820152a1600355005b84637ab6866560e11b5f5260045260245260445ffd5b8135815260209182019101610378565b634e487b7160e01b5f52604160045260245ffd5b34610091575f366003190112610091576020905f548152f35b81811015610546575f5260205260405f2090565b905f5260205260405f209056fea2646970667358221220def2b75c52ad7b2cf2d338c50009cae623379a2bdbff4f5cf6e753460f07be9f64736f6c634300081c0033","linkReferences":{}},"methodIdentifiers":{"depth()":"631c56ef","nextLeafIndex()":"0be4f422","push(bytes32)":"b298e36b","root()":"ebf0c717","setup(uint8,bytes32)":"b66987b6","sides(uint256)":"b3eb738a","update(uint256,bytes32,bytes32,bytes32[])":"1935699e","zeros(uint256)":"e8295588"},"id":159}