{"abi":[{"type":"function","name":"bar","inputs":[],"outputs":[],"stateMutability":"nonpayable"},{"type":"function","name":"foo","inputs":[],"outputs":[],"stateMutability":"nonpayable"},{"type":"function","name":"multicall","inputs":[{"name":"data","type":"bytes[]","internalType":"bytes[]"}],"outputs":[{"name":"results","type":"bytes[]","internalType":"bytes[]"}],"stateMutability":"nonpayable"},{"type":"error","name":"AddressEmptyCode","inputs":[{"name":"target","type":"address","internalType":"address"}]},{"type":"error","name":"FailedCall","inputs":[]}],"bytecode":{"object":"0x6080806040523460155761035d908161001a8239f35b5f80fdfe60806040526004361015610011575f80fd5b5f3560e01c8063ac9650d81461003f578063c29855781461003a5763febb0f7e1461003a575f80fd5b610213565b346101885760203660031901126101885760043567ffffffffffffffff811161018857366023820112156101885780600401359067ffffffffffffffff8211610188573660248360051b8301011161018857604051919060206100a28185610225565b5f845280840191601f1982013684376100ba8461025b565b906100c86040519283610225565b848252601f196100d78661025b565b015f5b8181106102045750503681900360421901905f5b8681101561018c5760248160051b83010135838112156101885782019060248201359167ffffffffffffffff8311610188576044018236038113610188578261016661016c92898b8e60019860405196879585870137840190838201905f8252519283915e01015f815203601f198101835282610225565b3061029b565b6101768287610273565b526101818186610273565b50016100ee565b5f80fd5b5050506040519082820192808352815180945260408301938160408260051b8601019301915f955b8287106101c15785850386f35b90919293828080600193603f198a82030186528189518051918291828552018484015e5f838284010152601f8019910116010196019201960195929190926101b4565b606084820186015284016100da565b34610188575f36600319011261018857005b90601f8019910116810190811067ffffffffffffffff82111761024757604052565b634e487b7160e01b5f52604160045260245ffd5b67ffffffffffffffff81116102475760051b60200190565b80518210156102875760209160051b010190565b634e487b7160e01b5f52603260045260245ffd5b905f8091602081519101845af48080610314575b156102cf5750506040513d81523d5f602083013e60203d82010160405290565b156102f457639996b31560e01b5f9081526001600160a01b0391909116600452602490fd5b3d15610305576040513d5f823e3d90fd5b63d6bda27560e01b5f5260045ffd5b503d1515806102af5750813b15156102af56fea2646970667358221220bbd98d0ba7a63d394b9c3055972b93d6d3a0e9fc86910a712d8082618f865e4164736f6c634300081c0033","linkReferences":{}},"methodIdentifiers":{"bar()":"febb0f7e","foo()":"c2985578","multicall(bytes[])":"ac9650d8"},"id":202}