{"abi":[{"type":"function","name":"callSender","inputs":[{"name":"data","type":"bytes","internalType":"bytes"}],"outputs":[],"stateMutability":"nonpayable"},{"type":"function","name":"staticcallSender","inputs":[{"name":"data","type":"bytes","internalType":"bytes"}],"outputs":[],"stateMutability":"view"}],"bytecode":{"object":"0x608080604052346015576101d1908161001a8239f35b5f80fdfe6080806040526004361015610012575f80fd5b5f3560e01c9081633ac48f0a1461006e575063f8123dd514610032575f80fd5b3461006a576100685f8061004536610099565b908160405192839283378101838152039082335af16100626100ea565b5061014f565b005b5f80fd5b3461006a575f80826100689361008336610099565b8091833781018381520390335afa6100626100ea565b90602060031983011261006a5760043567ffffffffffffffff811161006a578260238201121561006a5780600401359267ffffffffffffffff841161006a576024848301011161006a576024019190565b3d1561014a573d9067ffffffffffffffff82116101365760405191601f8101601f19908116603f0116830167ffffffffffffffff8111848210176101365760405282523d5f602084013e565b634e487b7160e01b5f52604160045260245ffd5b606090565b1561015657565b60405162461bcd60e51b815260206004820152601d60248201527f5265656e7472616e637941747461636b3a206661696c65642063616c6c0000006044820152606490fdfea264697066735822122049c742ab7e0ef93e75aa81e7bcc5b531636239ebcf4a87e87954e15059f2c13164736f6c634300081c0033","linkReferences":{}},"methodIdentifiers":{"callSender(bytes)":"f8123dd5","staticcallSender(bytes)":"3ac48f0a"},"id":163}