{"abi":[{"type":"constructor","inputs":[{"name":"minter","type":"address","internalType":"address"}],"stateMutability":"nonpayable"},{"type":"function","name":"DEFAULT_ADMIN_ROLE","inputs":[],"outputs":[{"name":"","type":"bytes32","internalType":"bytes32"}],"stateMutability":"view"},{"type":"function","name":"MINTER_ROLE","inputs":[],"outputs":[{"name":"","type":"bytes32","internalType":"bytes32"}],"stateMutability":"view"},{"type":"function","name":"allowance","inputs":[{"name":"owner","type":"address","internalType":"address"},{"name":"spender","type":"address","internalType":"address"}],"outputs":[{"name":"","type":"uint256","internalType":"uint256"}],"stateMutability":"view"},{"type":"function","name":"approve","inputs":[{"name":"spender","type":"address","internalType":"address"},{"name":"value","type":"uint256","internalType":"uint256"}],"outputs":[{"name":"","type":"bool","internalType":"bool"}],"stateMutability":"nonpayable"},{"type":"function","name":"balanceOf","inputs":[{"name":"account","type":"address","internalType":"address"}],"outputs":[{"name":"","type":"uint256","internalType":"uint256"}],"stateMutability":"view"},{"type":"function","name":"decimals","inputs":[],"outputs":[{"name":"","type":"uint8","internalType":"uint8"}],"stateMutability":"view"},{"type":"function","name":"getRoleAdmin","inputs":[{"name":"role","type":"bytes32","internalType":"bytes32"}],"outputs":[{"name":"","type":"bytes32","internalType":"bytes32"}],"stateMutability":"view"},{"type":"function","name":"grantRole","inputs":[{"name":"role","type":"bytes32","internalType":"bytes32"},{"name":"account","type":"address","internalType":"address"}],"outputs":[],"stateMutability":"nonpayable"},{"type":"function","name":"hasRole","inputs":[{"name":"role","type":"bytes32","internalType":"bytes32"},{"name":"account","type":"address","internalType":"address"}],"outputs":[{"name":"","type":"bool","internalType":"bool"}],"stateMutability":"view"},{"type":"function","name":"mint","inputs":[{"name":"to","type":"address","internalType":"address"},{"name":"amount","type":"uint256","internalType":"uint256"}],"outputs":[],"stateMutability":"nonpayable"},{"type":"function","name":"name","inputs":[],"outputs":[{"name":"","type":"string","internalType":"string"}],"stateMutability":"view"},{"type":"function","name":"renounceRole","inputs":[{"name":"role","type":"bytes32","internalType":"bytes32"},{"name":"callerConfirmation","type":"address","internalType":"address"}],"outputs":[],"stateMutability":"nonpayable"},{"type":"function","name":"revokeRole","inputs":[{"name":"role","type":"bytes32","internalType":"bytes32"},{"name":"account","type":"address","internalType":"address"}],"outputs":[],"stateMutability":"nonpayable"},{"type":"function","name":"supportsInterface","inputs":[{"name":"interfaceId","type":"bytes4","internalType":"bytes4"}],"outputs":[{"name":"","type":"bool","internalType":"bool"}],"stateMutability":"view"},{"type":"function","name":"symbol","inputs":[],"outputs":[{"name":"","type":"string","internalType":"string"}],"stateMutability":"view"},{"type":"function","name":"totalSupply","inputs":[],"outputs":[{"name":"","type":"uint256","internalType":"uint256"}],"stateMutability":"view"},{"type":"function","name":"transfer","inputs":[{"name":"to","type":"address","internalType":"address"},{"name":"value","type":"uint256","internalType":"uint256"}],"outputs":[{"name":"","type":"bool","internalType":"bool"}],"stateMutability":"nonpayable"},{"type":"function","name":"transferFrom","inputs":[{"name":"from","type":"address","internalType":"address"},{"name":"to","type":"address","internalType":"address"},{"name":"value","type":"uint256","internalType":"uint256"}],"outputs":[{"name":"","type":"bool","internalType":"bool"}],"stateMutability":"nonpayable"},{"type":"event","name":"Approval","inputs":[{"name":"owner","type":"address","indexed":true,"internalType":"address"},{"name":"spender","type":"address","indexed":true,"internalType":"address"},{"name":"value","type":"uint256","indexed":false,"internalType":"uint256"}],"anonymous":false},{"type":"event","name":"RoleAdminChanged","inputs":[{"name":"role","type":"bytes32","indexed":true,"internalType":"bytes32"},{"name":"previousAdminRole","type":"bytes32","indexed":true,"internalType":"bytes32"},{"name":"newAdminRole","type":"bytes32","indexed":true,"internalType":"bytes32"}],"anonymous":false},{"type":"event","name":"RoleGranted","inputs":[{"name":"role","type":"bytes32","indexed":true,"internalType":"bytes32"},{"name":"account","type":"address","indexed":true,"internalType":"address"},{"name":"sender","type":"address","indexed":true,"internalType":"address"}],"anonymous":false},{"type":"event","name":"RoleRevoked","inputs":[{"name":"role","type":"bytes32","indexed":true,"internalType":"bytes32"},{"name":"account","type":"address","indexed":true,"internalType":"address"},{"name":"sender","type":"address","indexed":true,"internalType":"address"}],"anonymous":false},{"type":"event","name":"Transfer","inputs":[{"name":"from","type":"address","indexed":true,"internalType":"address"},{"name":"to","type":"address","indexed":true,"internalType":"address"},{"name":"value","type":"uint256","indexed":false,"internalType":"uint256"}],"anonymous":false},{"type":"error","name":"AccessControlBadConfirmation","inputs":[]},{"type":"error","name":"AccessControlUnauthorizedAccount","inputs":[{"name":"account","type":"address","internalType":"address"},{"name":"neededRole","type":"bytes32","internalType":"bytes32"}]},{"type":"error","name":"CallerNotMinter","inputs":[{"name":"caller","type":"address","internalType":"address"}]},{"type":"error","name":"ERC20InsufficientAllowance","inputs":[{"name":"spender","type":"address","internalType":"address"},{"name":"allowance","type":"uint256","internalType":"uint256"},{"name":"needed","type":"uint256","internalType":"uint256"}]},{"type":"error","name":"ERC20InsufficientBalance","inputs":[{"name":"sender","type":"address","internalType":"address"},{"name":"balance","type":"uint256","internalType":"uint256"},{"name":"needed","type":"uint256","internalType":"uint256"}]},{"type":"error","name":"ERC20InvalidApprover","inputs":[{"name":"approver","type":"address","internalType":"address"}]},{"type":"error","name":"ERC20InvalidReceiver","inputs":[{"name":"receiver","type":"address","internalType":"address"}]},{"type":"error","name":"ERC20InvalidSender","inputs":[{"name":"sender","type":"address","internalType":"address"}]},{"type":"error","name":"ERC20InvalidSpender","inputs":[{"name":"spender","type":"address","internalType":"address"}]}],"bytecode":{"object":"0x60806040523461033357610ea46020813803918261001c81610337565b93849283398101031261033357516001600160a01b0381168103610333576100446040610337565b90600782526626bcaa37b5b2b760c91b60208301526100636040610337565b60038152622a25a760e91b602082015282519091906001600160401b03811161024457600354600181811c91168015610329575b602082101461022657601f81116102c6575b506020601f821160011461026357819293945f92610258575b50508160011b915f199060031b1c1916176003555b8151916001600160401b03831161024457600454600181811c9116801561023a575b602082101461022657601f81116101c3575b50602090601f841160011461015b5761014093915f9183610150575b50508160011b915f199060031b1c19161760045561035c565b50604051610a7c90816104088239f35b015190505f80610127565b90601f1984169160045f52815f20925f5b8181106101ab5750916001939186610140979410610193575b505050811b0160045561035c565b01515f1960f88460031b161c191690555f8080610185565b9293602060018192878601518155019501930161016c565b60045f527f8a35acfbc15ff81a39ae7d344fd709f28e8600b4aa8c65c6b64bfe7fe36bd19b601f850160051c8101916020861061021c575b601f0160051c01905b818110610211575061010b565b5f8155600101610204565b90915081906101fb565b634e487b7160e01b5f52602260045260245ffd5b90607f16906100f9565b634e487b7160e01b5f52604160045260245ffd5b015190505f806100c2565b601f1982169060035f52805f20915f5b8181106102ae57509583600195969710610296575b505050811b016003556100d7565b01515f1960f88460031b161c191690555f8080610288565b9192602060018192868b015181550194019201610273565b60035f527fc2575a0e9e593c00f959f8c92f12db2869c3395a3b0502d05e2516446f71f85b601f830160051c8101916020841061031f575b601f0160051c01905b81811061031457506100a9565b5f8155600101610307565b90915081906102fe565b90607f1690610097565b5f80fd5b6040519190601f01601f191682016001600160401b0381118382101761024457604052565b6001600160a01b0381165f9081525f516020610e845f395f51905f52602052604090205460ff16610402576001600160a01b03165f8181525f516020610e845f395f51905f5260205260408120805460ff191660011790553391907f9f2df0fed2c77648de5860a4cc508cd0818c85b8b8a1ab4ceeef8d981c8956a6907f2f8788117e7eff1d82e926ec794901d17c78024a50270940304540a733656f0d9080a4600190565b505f9056fe6080806040526004361015610012575f80fd5b5f3560e01c90816301ffc9a7146107a95750806306fdde03146106d7578063095ea7b31461065557806318160ddd1461063857806323b872dd14610559578063248a9ca3146105265780632f2ff15d146104e8578063313ce567146104cd57806336568abe1461048957806340c10f191461039b57806370a082311461036457806391d148541461031b57806395d89b4114610200578063a217fddf146101e6578063a9059cbb146101b5578063d53913931461017b578063d547741f146101365763dd62ed3e146100e2575f80fd5b34610132576040366003190112610132576100fb610826565b61010361083c565b6001600160a01b039182165f908152600160209081526040808320949093168252928352819020549051908152f35b5f80fd5b346101325760403660031901126101325761017960043561015561083c565b9061017461016f825f526005602052600160405f20015490565b6108fc565b6109c2565b005b34610132575f3660031901126101325760206040517f9f2df0fed2c77648de5860a4cc508cd0818c85b8b8a1ab4ceeef8d981c8956a68152f35b34610132576040366003190112610132576101db6101d1610826565b6024359033610852565b602060405160018152f35b34610132575f3660031901126101325760206040515f8152f35b34610132575f366003190112610132576040515f6004548060011c90600181168015610311575b6020831081146102fd578285529081156102e1575060011461028c575b50819003601f01601f191681019067ffffffffffffffff82118183101761027857610274829182604052826107fc565b0390f35b634e487b7160e01b5f52604160045260245ffd5b905060045f527f8a35acfbc15ff81a39ae7d344fd709f28e8600b4aa8c65c6b64bfe7fe36bd19b5f905b8282106102cb57506020915082010182610244565b60018160209254838588010152019101906102b6565b90506020925060ff191682840152151560051b82010182610244565b634e487b7160e01b5f52602260045260245ffd5b91607f1691610227565b346101325760403660031901126101325761033461083c565b6004355f52600560205260405f209060018060a01b03165f52602052602060ff60405f2054166040519015158152f35b34610132576020366003190112610132576001600160a01b03610385610826565b165f525f602052602060405f2054604051908152f35b34610132576040366003190112610132576103b4610826565b335f9081527f15a28d26fa1bf736cf7edc9922607171ccb09c3c73b808e7772a3013e068a5226020526040902054602435919060ff1615610476576001600160a01b0316908115610463576002549080820180921161044f5760207fddf252ad1be2c89b69c2b068fc378daa952ba7f163c4a11628f55a4df523b3ef915f9360025584845283825260408420818154019055604051908152a3005b634e487b7160e01b5f52601160045260245ffd5b63ec442f0560e01b5f525f60045260245ffd5b632fdab94f60e11b5f523360045260245ffd5b34610132576040366003190112610132576104a261083c565b336001600160a01b038216036104be57610179906004356109c2565b63334bd91960e11b5f5260045ffd5b34610132575f36600319011261013257602060405160128152f35b346101325760403660031901126101325761017960043561050761083c565b9061052161016f825f526005602052600160405f20015490565b610936565b346101325760203660031901126101325760206105516004355f526005602052600160405f20015490565b604051908152f35b3461013257606036600319011261013257610572610826565b61057a61083c565b6001600160a01b0382165f818152600160209081526040808320338452909152902054909260443592915f1981106105b8575b506101db9350610852565b83811061061d57841561060a5733156105f7576101db945f52600160205260405f2060018060a01b0333165f526020528360405f2091039055846105ad565b634a1406b160e11b5f525f60045260245ffd5b63e602df0560e01b5f525f60045260245ffd5b8390637dc7a0d960e11b5f523360045260245260445260645ffd5b34610132575f366003190112610132576020600254604051908152f35b346101325760403660031901126101325761066e610826565b60243590331561060a576001600160a01b03169081156105f757335f52600160205260405f20825f526020528060405f20556040519081527f8c5be1e5ebec7d5bd14f71427d1e84f3dd0314c0f7b2291e5b200ac8c7c3b92560203392a3602060405160018152f35b34610132575f366003190112610132576040515f6003548060011c9060018116801561079f575b6020831081146102fd578285529081156102e1575060011461074a5750819003601f01601f191681019067ffffffffffffffff82118183101761027857610274829182604052826107fc565b905060035f527fc2575a0e9e593c00f959f8c92f12db2869c3395a3b0502d05e2516446f71f85b5f905b82821061078957506020915082010182610244565b6001816020925483858801015201910190610774565b91607f16916106fe565b34610132576020366003190112610132576004359063ffffffff60e01b821680920361013257602091637965db0b60e01b81149081156107eb575b5015158152f35b6301ffc9a760e01b149050836107e4565b602060409281835280519182918282860152018484015e5f828201840152601f01601f1916010190565b600435906001600160a01b038216820361013257565b602435906001600160a01b038216820361013257565b6001600160a01b03169081156108e9576001600160a01b031691821561046357815f525f60205260405f20548181106108d057817fddf252ad1be2c89b69c2b068fc378daa952ba7f163c4a11628f55a4df523b3ef92602092855f525f84520360405f2055845f525f825260405f20818154019055604051908152a3565b8263391434e360e21b5f5260045260245260445260645ffd5b634b637e8f60e11b5f525f60045260245ffd5b5f81815260056020908152604080832033845290915290205460ff16156109205750565b63e2517d3f60e01b5f523360045260245260445ffd5b5f8181526005602090815260408083206001600160a01b038616845290915290205460ff166109bc575f8181526005602090815260408083206001600160a01b0395909516808452949091528120805460ff19166001179055339291907f2f8788117e7eff1d82e926ec794901d17c78024a50270940304540a733656f0d9080a4600190565b50505f90565b5f8181526005602090815260408083206001600160a01b038616845290915290205460ff16156109bc575f8181526005602090815260408083206001600160a01b0395909516808452949091528120805460ff19169055339291907ff6391f5c32d9c69d2a47ea670b442974b53935d1edc7fd64eb21e047a839171b9080a460019056fea2646970667358221220555ee9e39a5703bbcd52770cf0d4391cf76717ec57f4023338732b4bfebff59064736f6c634300081c003315a28d26fa1bf736cf7edc9922607171ccb09c3c73b808e7772a3013e068a522","linkReferences":{}},"methodIdentifiers":{"DEFAULT_ADMIN_ROLE()":"a217fddf","MINTER_ROLE()":"d5391393","allowance(address,address)":"dd62ed3e","approve(address,uint256)":"095ea7b3","balanceOf(address)":"70a08231","decimals()":"313ce567","getRoleAdmin(bytes32)":"248a9ca3","grantRole(bytes32,address)":"2f2ff15d","hasRole(bytes32,address)":"91d14854","mint(address,uint256)":"40c10f19","name()":"06fdde03","renounceRole(bytes32,address)":"36568abe","revokeRole(bytes32,address)":"d547741f","supportsInterface(bytes4)":"01ffc9a7","symbol()":"95d89b41","totalSupply()":"18160ddd","transfer(address,uint256)":"a9059cbb","transferFrom(address,address,uint256)":"23b872dd"},"id":184}