{"abi":[{"type":"constructor","inputs":[{"name":"_tokenAddress","type":"address","internalType":"address"}],"stateMutability":"nonpayable"},{"type":"function","name":"agencyRatings","inputs":[{"name":"","type":"address","internalType":"address"},{"name":"","type":"uint256","internalType":"uint256"}],"outputs":[{"name":"","type":"uint256","internalType":"uint256"}],"stateMutability":"view"},{"type":"function","name":"agencyReputation","inputs":[{"name":"","type":"address","internalType":"address"}],"outputs":[{"name":"agencyAddress","type":"address","internalType":"address"},{"name":"totalProjects","type":"uint256","internalType":"uint256"},{"name":"completedProjects","type":"uint256","internalType":"uint256"},{"name":"totalRating","type":"uint256","internalType":"uint256"},{"name":"ratingCount","type":"uint256","internalType":"uint256"},{"name":"averageRating","type":"uint256","internalType":"uint256"},{"name":"isVerified","type":"bool","internalType":"bool"},{"name":"verificationLevel","type":"uint256","internalType":"uint256"},{"name":"lastUpdated","type":"uint256","internalType":"uint256"}],"stateMutability":"view"},{"type":"function","name":"agency_Contractor","inputs":[{"name":"","type":"address","internalType":"address"}],"outputs":[{"name":"","type":"address","internalType":"address"}],"stateMutability":"view"},{"type":"function","name":"applyPenalty","inputs":[{"name":"_contractorAddress","type":"address","internalType":"address"},{"name":"_points","type":"uint256","internalType":"uint256"},{"name":"_reason","type":"string","internalType":"string"}],"outputs":[],"stateMutability":"nonpayable"},{"type":"function","name":"approveMilestone","inputs":[{"name":"_milestoneId","type":"uint256","internalType":"uint256"}],"outputs":[],"stateMutability":"nonpayable"},{"type":"function","name":"contractor","inputs":[{"name":"","type":"uint256","internalType":"uint256"}],"outputs":[{"name":"companyName","type":"string","internalType":"string"},{"name":"registrationNumber","type":"uint256","internalType":"uint256"},{"name":"taxIdenticationNumber","type":"uint256","internalType":"uint256"},{"name":"physicalAddress","type":"string","internalType":"string"},{"name":"owner","type":"address","internalType":"address"},{"name":"addressImageCid","type":"string","internalType":"string"},{"name":"companyUploadedCid","type":"string","internalType":"string"}],"stateMutability":"view"},{"type":"function","name":"contractorProjects","inputs":[{"name":"","type":"address","internalType":"address"},{"name":"","type":"uint256","internalType":"uint256"}],"outputs":[{"name":"","type":"uint256","internalType":"uint256"}],"stateMutability":"view"},{"type":"function","name":"contractorRatings","inputs":[{"name":"","type":"address","internalType":"address"},{"name":"","type":"uint256","internalType":"uint256"}],"outputs":[{"name":"","type":"uint256","internalType":"uint256"}],"stateMutability":"view"},{"type":"function","name":"contractorReputation","inputs":[{"name":"","type":"address","internalType":"address"}],"outputs":[{"name":"contractorAddress","type":"address","internalType":"address"},{"name":"totalProjects","type":"uint256","internalType":"uint256"},{"name":"completedProjects","type":"uint256","internalType":"uint256"},{"name":"totalRating","type":"uint256","internalType":"uint256"},{"name":"ratingCount","type":"uint256","internalType":"uint256"},{"name":"averageRating","type":"uint256","internalType":"uint256"},{"name":"rejectedMilestones","type":"uint256","internalType":"uint256"},{"name":"lateDeliveries","type":"uint256","internalType":"uint256"},{"name":"isVerified","type":"bool","internalType":"bool"},{"name":"penaltyPoints","type":"uint256","internalType":"uint256"},{"name":"lastUpdated","type":"uint256","internalType":"uint256"}],"stateMutability":"view"},{"type":"function","name":"contractors","inputs":[{"name":"","type":"uint256","internalType":"uint256"}],"outputs":[{"name":"companyName","type":"string","internalType":"string"},{"name":"registrationNumber","type":"uint256","internalType":"uint256"},{"name":"taxIdenticationNumber","type":"uint256","internalType":"uint256"},{"name":"physicalAddress","type":"string","internalType":"string"},{"name":"owner","type":"address","internalType":"address"},{"name":"addressImageCid","type":"string","internalType":"string"},{"name":"companyUploadedCid","type":"string","internalType":"string"}],"stateMutability":"view"},{"type":"function","name":"createMilestone","inputs":[{"name":"_projectId","type":"uint256","internalType":"uint256"},{"name":"_description","type":"string","internalType":"string"},{"name":"_amount","type":"uint256","internalType":"uint256"},{"name":"_dueDate","type":"uint256","internalType":"uint256"}],"outputs":[{"name":"","type":"uint256","internalType":"uint256"}],"stateMutability":"nonpayable"},{"type":"function","name":"createProject","inputs":[{"name":"_description","type":"string","internalType":"string"},{"name":"_budget","type":"uint256","internalType":"uint256"},{"name":"_contractorAddress","type":"address","internalType":"address"},{"name":"_startDate","type":"uint256","internalType":"uint256"},{"name":"_endDate","type":"uint256","internalType":"uint256"}],"outputs":[{"name":"","type":"uint256","internalType":"uint256"}],"stateMutability":"nonpayable"},{"type":"function","name":"getAgencyReputation","inputs":[{"name":"_agencyAddress","type":"address","internalType":"address"}],"outputs":[{"name":"","type":"tuple","internalType":"struct AgencyReputation","components":[{"name":"agencyAddress","type":"address","internalType":"address"},{"name":"totalProjects","type":"uint256","internalType":"uint256"},{"name":"completedProjects","type":"uint256","internalType":"uint256"},{"name":"totalRating","type":"uint256","internalType":"uint256"},{"name":"ratingCount","type":"uint256","internalType":"uint256"},{"name":"averageRating","type":"uint256","internalType":"uint256"},{"name":"isVerified","type":"bool","internalType":"bool"},{"name":"verificationLevel","type":"uint256","internalType":"uint256"},{"name":"lastUpdated","type":"uint256","internalType":"uint256"}]}],"stateMutability":"view"},{"type":"function","name":"getAllContractors","inputs":[],"outputs":[{"name":"","type":"tuple[]","internalType":"struct Contractor[]","components":[{"name":"companyName","type":"string","internalType":"string"},{"name":"registrationNumber","type":"uint256","internalType":"uint256"},{"name":"taxIdenticationNumber","type":"uint256","internalType":"uint256"},{"name":"physicalAddress","type":"string","internalType":"string"},{"name":"owner","type":"address","internalType":"address"},{"name":"addressImageCid","type":"string","internalType":"string"},{"name":"companyUploadedCid","type":"string","internalType":"string"}]}],"stateMutability":"view"},{"type":"function","name":"getContractor","inputs":[{"name":"_contractorAddress","type":"address","internalType":"address"}],"outputs":[{"name":"","type":"tuple","internalType":"struct Contractor","components":[{"name":"companyName","type":"string","internalType":"string"},{"name":"registrationNumber","type":"uint256","internalType":"uint256"},{"name":"taxIdenticationNumber","type":"uint256","internalType":"uint256"},{"name":"physicalAddress","type":"string","internalType":"string"},{"name":"owner","type":"address","internalType":"address"},{"name":"addressImageCid","type":"string","internalType":"string"},{"name":"companyUploadedCid","type":"string","internalType":"string"}]}],"stateMutability":"view"},{"type":"function","name":"getContractorProjects","inputs":[{"name":"_contractorAddress","type":"address","internalType":"address"}],"outputs":[{"name":"","type":"uint256[]","internalType":"uint256[]"}],"stateMutability":"view"},{"type":"function","name":"getContractorReputation","inputs":[{"name":"_contractorAddress","type":"address","internalType":"address"}],"outputs":[{"name":"","type":"tuple","internalType":"struct ContractorReputation","components":[{"name":"contractorAddress","type":"address","internalType":"address"},{"name":"totalProjects","type":"uint256","internalType":"uint256"},{"name":"completedProjects","type":"uint256","internalType":"uint256"},{"name":"totalRating","type":"uint256","internalType":"uint256"},{"name":"ratingCount","type":"uint256","internalType":"uint256"},{"name":"averageRating","type":"uint256","internalType":"uint256"},{"name":"rejectedMilestones","type":"uint256","internalType":"uint256"},{"name":"lateDeliveries","type":"uint256","internalType":"uint256"},{"name":"isVerified","type":"bool","internalType":"bool"},{"name":"penaltyPoints","type":"uint256","internalType":"uint256"},{"name":"lastUpdated","type":"uint256","internalType":"uint256"}]}],"stateMutability":"view"},{"type":"function","name":"getPaymentStatus","inputs":[{"name":"_projectId","type":"uint256","internalType":"uint256"}],"outputs":[{"name":"","type":"tuple","internalType":"struct ProcurementV2.Payment","components":[{"name":"projectId","type":"uint256","internalType":"uint256"},{"name":"totalAmount","type":"uint256","internalType":"uint256"},{"name":"paidAmount","type":"uint256","internalType":"uint256"},{"name":"remainingAmount","type":"uint256","internalType":"uint256"},{"name":"isReleased","type":"bool","internalType":"bool"},{"name":"releaseTime","type":"uint256","internalType":"uint256"}]}],"stateMutability":"view"},{"type":"function","name":"getProjectMilestones","inputs":[{"name":"_projectId","type":"uint256","internalType":"uint256"}],"outputs":[{"name":"","type":"tuple[]","internalType":"struct ProcurementV2.MilestoneData[]","components":[{"name":"milestoneId","type":"uint256","internalType":"uint256"},{"name":"projectId","type":"uint256","internalType":"uint256"},{"name":"description","type":"string","internalType":"string"},{"name":"amount","type":"uint256","internalType":"uint256"},{"name":"dueDate","type":"uint256","internalType":"uint256"},{"name":"deliverablesCid","type":"string","internalType":"string"},{"name":"status","type":"uint8","internalType":"enum ProcurementV2.MilestoneStatus"},{"name":"submittedAt","type":"uint256","internalType":"uint256"},{"name":"approvedAt","type":"uint256","internalType":"uint256"}]}],"stateMutability":"view"},{"type":"function","name":"getProjectRatings","inputs":[{"name":"_projectId","type":"uint256","internalType":"uint256"}],"outputs":[{"name":"","type":"tuple[]","internalType":"struct Rating[]","components":[{"name":"rater","type":"address","internalType":"address"},{"name":"ratee","type":"address","internalType":"address"},{"name":"projectId","type":"uint256","internalType":"uint256"},{"name":"score","type":"uint8","internalType":"uint8"},{"name":"comment","type":"string","internalType":"string"},{"name":"timestamp","type":"uint256","internalType":"uint256"}]}],"stateMutability":"view"},{"type":"function","name":"milestoneId","inputs":[],"outputs":[{"name":"","type":"uint256","internalType":"uint256"}],"stateMutability":"view"},{"type":"function","name":"milestoneStatus","inputs":[{"name":"","type":"uint256","internalType":"uint256"}],"outputs":[{"name":"","type":"uint8","internalType":"enum ProcurementV2.MilestoneStatus"}],"stateMutability":"view"},{"type":"function","name":"owner","inputs":[],"outputs":[{"name":"","type":"address","internalType":"address"}],"stateMutability":"view"},{"type":"function","name":"projectId","inputs":[],"outputs":[{"name":"","type":"uint256","internalType":"uint256"}],"stateMutability":"view"},{"type":"function","name":"projectMilestones","inputs":[{"name":"","type":"uint256","internalType":"uint256"},{"name":"","type":"uint256","internalType":"uint256"}],"outputs":[{"name":"milestoneId","type":"uint256","internalType":"uint256"},{"name":"projectId","type":"uint256","internalType":"uint256"},{"name":"description","type":"string","internalType":"string"},{"name":"amount","type":"uint256","internalType":"uint256"},{"name":"dueDate","type":"uint256","internalType":"uint256"},{"name":"deliverablesCid","type":"string","internalType":"string"},{"name":"status","type":"uint8","internalType":"enum ProcurementV2.MilestoneStatus"},{"name":"submittedAt","type":"uint256","internalType":"uint256"},{"name":"approvedAt","type":"uint256","internalType":"uint256"}],"stateMutability":"view"},{"type":"function","name":"projectPayments","inputs":[{"name":"","type":"uint256","internalType":"uint256"}],"outputs":[{"name":"projectId","type":"uint256","internalType":"uint256"},{"name":"totalAmount","type":"uint256","internalType":"uint256"},{"name":"paidAmount","type":"uint256","internalType":"uint256"},{"name":"remainingAmount","type":"uint256","internalType":"uint256"},{"name":"isReleased","type":"bool","internalType":"bool"},{"name":"releaseTime","type":"uint256","internalType":"uint256"}],"stateMutability":"view"},{"type":"function","name":"projectRatings","inputs":[{"name":"","type":"uint256","internalType":"uint256"},{"name":"","type":"uint256","internalType":"uint256"}],"outputs":[{"name":"rater","type":"address","internalType":"address"},{"name":"ratee","type":"address","internalType":"address"},{"name":"projectId","type":"uint256","internalType":"uint256"},{"name":"score","type":"uint8","internalType":"uint8"},{"name":"comment","type":"string","internalType":"string"},{"name":"timestamp","type":"uint256","internalType":"uint256"}],"stateMutability":"view"},{"type":"function","name":"projects","inputs":[{"name":"","type":"uint256","internalType":"uint256"}],"outputs":[{"name":"projectId","type":"uint256","internalType":"uint256"},{"name":"description","type":"string","internalType":"string"},{"name":"budget","type":"uint256","internalType":"uint256"},{"name":"contractorAddress","type":"address","internalType":"address"},{"name":"agency","type":"address","internalType":"address"},{"name":"completed","type":"bool","internalType":"bool"},{"name":"startDate","type":"uint256","internalType":"uint256"},{"name":"endDate","type":"uint256","internalType":"uint256"},{"name":"imageCid","type":"string","internalType":"string"},{"name":"status","type":"uint8","internalType":"uint8"}],"stateMutability":"view"},{"type":"function","name":"projectsubmited","inputs":[{"name":"","type":"address","internalType":"address"},{"name":"","type":"uint256","internalType":"uint256"}],"outputs":[{"name":"","type":"uint256","internalType":"uint256"}],"stateMutability":"view"},{"type":"function","name":"rateAgency","inputs":[{"name":"_agencyAddress","type":"address","internalType":"address"},{"name":"_projectId","type":"uint256","internalType":"uint256"},{"name":"_score","type":"uint8","internalType":"uint8"},{"name":"_comment","type":"string","internalType":"string"}],"outputs":[],"stateMutability":"nonpayable"},{"type":"function","name":"rateContractor","inputs":[{"name":"_contractorAddress","type":"address","internalType":"address"},{"name":"_projectId","type":"uint256","internalType":"uint256"},{"name":"_score","type":"uint8","internalType":"uint8"},{"name":"_comment","type":"string","internalType":"string"}],"outputs":[],"stateMutability":"nonpayable"},{"type":"function","name":"ratingId","inputs":[],"outputs":[{"name":"","type":"uint256","internalType":"uint256"}],"stateMutability":"view"},{"type":"function","name":"rejectMilestone","inputs":[{"name":"_milestoneId","type":"uint256","internalType":"uint256"},{"name":"_reason","type":"string","internalType":"string"}],"outputs":[],"stateMutability":"nonpayable"},{"type":"function","name":"rejectedMilestones","inputs":[{"name":"","type":"address","internalType":"address"},{"name":"","type":"uint256","internalType":"uint256"}],"outputs":[{"name":"projectId","type":"uint256","internalType":"uint256"},{"name":"milestoneId","type":"uint256","internalType":"uint256"},{"name":"contractor","type":"address","internalType":"address"}],"stateMutability":"view"},{"type":"function","name":"releaseMilestonePayment","inputs":[{"name":"_milestoneId","type":"uint256","internalType":"uint256"}],"outputs":[],"stateMutability":"nonpayable"},{"type":"function","name":"submitMilestone","inputs":[{"name":"_milestoneId","type":"uint256","internalType":"uint256"},{"name":"_deliverablesCid","type":"string","internalType":"string"}],"outputs":[],"stateMutability":"nonpayable"},{"type":"function","name":"tokenAddress","inputs":[],"outputs":[{"name":"","type":"address","internalType":"address"}],"stateMutability":"view"},{"type":"function","name":"verifyAgency","inputs":[{"name":"_agencyAddress","type":"address","internalType":"address"},{"name":"_verificationLevel","type":"uint256","internalType":"uint256"}],"outputs":[],"stateMutability":"nonpayable"},{"type":"function","name":"verifyContractor","inputs":[{"name":"_contractorAddress","type":"address","internalType":"address"}],"outputs":[],"stateMutability":"nonpayable"},{"type":"event","name":"AgencyRated","inputs":[{"name":"agency","type":"address","indexed":true,"internalType":"address"},{"name":"rater","type":"address","indexed":true,"internalType":"address"},{"name":"projectId","type":"uint256","indexed":true,"internalType":"uint256"},{"name":"score","type":"uint8","indexed":false,"internalType":"uint8"},{"name":"timestamp","type":"uint256","indexed":false,"internalType":"uint256"}],"anonymous":false},{"type":"event","name":"AgencyVerified","inputs":[{"name":"agency","type":"address","indexed":true,"internalType":"address"},{"name":"verificationLevel","type":"uint256","indexed":false,"internalType":"uint256"},{"name":"timestamp","type":"uint256","indexed":false,"internalType":"uint256"}],"anonymous":false},{"type":"event","name":"ContractorRated","inputs":[{"name":"contractor","type":"address","indexed":true,"internalType":"address"},{"name":"rater","type":"address","indexed":true,"internalType":"address"},{"name":"projectId","type":"uint256","indexed":true,"internalType":"uint256"},{"name":"score","type":"uint8","indexed":false,"internalType":"uint8"},{"name":"timestamp","type":"uint256","indexed":false,"internalType":"uint256"}],"anonymous":false},{"type":"event","name":"ContractorVerified","inputs":[{"name":"contractor","type":"address","indexed":true,"internalType":"address"},{"name":"timestamp","type":"uint256","indexed":false,"internalType":"uint256"}],"anonymous":false},{"type":"event","name":"MilestoneApproved","inputs":[{"name":"milestoneId","type":"uint256","indexed":true,"internalType":"uint256"},{"name":"projectId","type":"uint256","indexed":true,"internalType":"uint256"},{"name":"agency","type":"address","indexed":true,"internalType":"address"}],"anonymous":false},{"type":"event","name":"MilestoneCreated","inputs":[{"name":"milestoneId","type":"uint256","indexed":true,"internalType":"uint256"},{"name":"projectId","type":"uint256","indexed":true,"internalType":"uint256"},{"name":"amount","type":"uint256","indexed":false,"internalType":"uint256"},{"name":"dueDate","type":"uint256","indexed":false,"internalType":"uint256"}],"anonymous":false},{"type":"event","name":"MilestoneRejected","inputs":[{"name":"milestoneId","type":"uint256","indexed":true,"internalType":"uint256"},{"name":"projectId","type":"uint256","indexed":true,"internalType":"uint256"},{"name":"agency","type":"address","indexed":true,"internalType":"address"},{"name":"reason","type":"string","indexed":false,"internalType":"string"}],"anonymous":false},{"type":"event","name":"MilestoneSubmitted","inputs":[{"name":"milestoneId","type":"uint256","indexed":true,"internalType":"uint256"},{"name":"projectId","type":"uint256","indexed":true,"internalType":"uint256"},{"name":"contractor","type":"address","indexed":true,"internalType":"address"},{"name":"deliverablesCid","type":"string","indexed":false,"internalType":"string"}],"anonymous":false},{"type":"event","name":"PaymentReleased","inputs":[{"name":"projectId","type":"uint256","indexed":true,"internalType":"uint256"},{"name":"milestoneId","type":"uint256","indexed":true,"internalType":"uint256"},{"name":"contractor","type":"address","indexed":true,"internalType":"address"},{"name":"amount","type":"uint256","indexed":false,"internalType":"uint256"}],"anonymous":false},{"type":"event","name":"PenaltyApplied","inputs":[{"name":"contractor","type":"address","indexed":true,"internalType":"address"},{"name":"points","type":"uint256","indexed":false,"internalType":"uint256"},{"name":"reason","type":"string","indexed":false,"internalType":"string"},{"name":"timestamp","type":"uint256","indexed":false,"internalType":"uint256"}],"anonymous":false},{"type":"event","name":"ProjectCompleted","inputs":[{"name":"projectId","type":"uint256","indexed":true,"internalType":"uint256"},{"name":"contractor","type":"address","indexed":true,"internalType":"address"},{"name":"totalPaid","type":"uint256","indexed":false,"internalType":"uint256"}],"anonymous":false},{"type":"event","name":"ProjectCreated","inputs":[{"name":"projectId","type":"uint256","indexed":true,"internalType":"uint256"},{"name":"agency","type":"address","indexed":true,"internalType":"address"},{"name":"contractor","type":"address","indexed":true,"internalType":"address"},{"name":"budget","type":"uint256","indexed":false,"internalType":"uint256"}],"anonymous":false}],"bytecode":{"object":"0x60803460d657601f613aa338819003918201601f19168301916001600160401b0383118484101760da5780849260209460405283398101031260d657516001600160a01b0381169081900360d65760016011556001601255600160135580156091575f80546001600160a01b03199081163317909155600180549091169190911790556040516139b490816100ef8239f35b60405162461bcd60e51b815260206004820152601560248201527f496e76616c696420746f6b656e206164647265737300000000000000000000006044820152606490fd5b5f80fd5b634e487b7160e01b5f52604160045260245ffdfe60806040526004361015610011575f80fd5b5f3560e01c80630306aa2a14612f4f578063107046bd14612e8057806317a06cab1461256857806325b73f3d146124b457806327276ec5146124195780633481a95a146123995780633a9acd041461235d5780633b08c6d6146123405780633fafa12714612323578063476a119b1461208757806352766d8014611eaf57806355949bc714611e49578063631c7e7a14611ce6578063636f34d614611c325780636775aa4f14611c15578063688d32c814611a815780636ab0bd4c1461199b5780636b0876eb1461146e5780636cb0adba146113a557806374d24b611461121957806378d405f2146110ed5780638da5cb5b146110c65780639d76ea581461109e5780639ed3b4ff14611055578063a165004314610f6f578063a8b757a014610f3b578063aa51b03814610efb578063c274326d14610de6578063c28514cb14610d49578063c438b40f14610c44578063c9b08c0214610bfb578063cd0c15bf14610882578063dc7a72e7146107fb578063e0533492146107b2578063e22443ea146105ad578063f07a1f8914610555578063f2841260146104e2578063f5991b8f146103e75763ff57e740146101c6575f80fd5b346103e3576101d4366132ad565b906101de816138d3565b906101eb81835414613568565b600682019160ff8354169060058210156103cf5761020c6001809314613887565b01545f818152600260205260409020600401549092906001600160a01b0316330361039157600360ff19825416179055805f52600a60205260405f20600360ff19825416179055815f52600260205260018060a01b03600360405f20015416805f52600560205260405f20604051606081018181106001600160401b0382111761037d57604052848152602081019184835260408201908482528054600160401b81101561037d576102c391600182018155613368565b93909361036a5760029251845551600184015560018060a01b0390511691019060018060a01b03166001600160601b0360a01b8254161790555f52600b602052600660405f20018054906001820180921161035657557f4dfc84da87020df96522cd1be73d8e0a2d933702208e9a44d3f7358ed88a9cd36040516020815280610351339660208301906130de565b0390a4005b634e487b7160e01b5f52601160045260245ffd5b634e487b7160e01b5f525f60045260245ffd5b634e487b7160e01b5f52604160045260245ffd5b60405162461bcd60e51b815260206004820152601660248201527513db9b1e481859d95b98de4818d85b881c995a9958dd60521b6044820152606490fd5b634e487b7160e01b5f52602160045260245ffd5b5f80fd5b346103e35760403660031901126103e3576104006131be565b6024359061041860018060a01b035f5416331461383b565b6001600160a01b03169061042d8215156133e8565b6001811015806104d7575b15610492575f828152600c602090815260409182902060068101805460ff19166001179055600701839055815192835242908301527f68e4ab820b9c36c901ef30938a00f3956c805011149f603d656dfe9f1e0842ed91a2005b60405162461bcd60e51b815260206004820152601a60248201527f496e76616c696420766572696669636174696f6e206c6576656c0000000000006044820152606490fd5b506003811115610438565b346103e35760403660031901126103e3576104fb6131be565b6001600160a01b03165f908152600560205260409020805460243591908210156103e35760609161052b91613368565b50805490600181015490600260018060a01b03910154169060405192835260208301526040820152f35b346103e35760403660031901126103e35761056e6131be565b6001600160a01b03165f908152600e60205260409020805460243591908210156103e35760209161059e91613353565b90549060031b1c604051908152f35b346103e3576105bb366132e9565b909192831515806107a7575b6105d0906135aa565b60ff83169060018210158061079c575b6105e990613606565b5f858152600260205260409020600401546001600160a01b031633036107575761067290855f52600260205261062b60ff600460405f20015460a01c16613652565b6040519061063882612faf565b33825260018060a01b03169384602083015286604083015283606083015260808201524260a0820152855f52600d60205260405f2061369e565b815f52600e60205261068a60405f2060135490613399565b815f52600b60205260405f20906106ae6003830191825415610742575b82546133cd565b809155600482018054906001820180921161035657819055606482029180830460641490151715610356576106e291613960565b6005820155600a429101557f10af7d657613f16224484faf29ffb6062ea8d524f0b8d8e8f05b76cf3be6b73e6040518061072f33954290836020909392919360ff60408201951681520152565b0390a461073d6013546133da565b601355005b83546001600160a01b031916851784556106a7565b60405162461bcd60e51b815260206004820152601c60248201527f4f6e6c792070726f6a656374206167656e63792063616e2072617465000000006044820152606490fd5b5060058211156105e0565b5060115484106105c7565b346103e35760403660031901126103e3576107cb6131be565b6001600160a01b03165f908152600760205260409020805460243591908210156103e35760209161059e91613353565b346103e35760203660031901126103e3576108146131be565b61082860018060a01b035f5416331461383b565b6001600160a01b031661083c8115156133e8565b805f52600b602052600860405f2001600160ff198254161790557f5f5e59fb7ff39e453c9febddb1d0f628a84a70771fa5801e0327b1f17e0b8b776020604051428152a2005b346103e35760203660031901126103e35760043561089f816138d3565b6108ab82825414613568565b6006810160ff81541660058110156103cf57600203610bbd5760018201545f818152600260205260409020600401549092906001600160a01b03163303610b7857825f52600860205260405f2093600385019260038454930192835496878210610b3e57600261091e91019788546133cd565b875583548103908111610356578455600460ff19825416179055805f52600a60205260405f20600460ff1982541617905560018060a01b0360015416845f526002602052602060018060a01b03600360405f2001541660448554915f604051958694859363a9059cbb60e01b8552600485015260248401525af1908115610b33575f91610b04575b5015610abf57835f526002602052837f9ba01c1cf20940d4ad9b32173c4bd46bf426aae91b6cb420123d2aa5e2b76c6f602060018060a01b03600360405f200154169454604051908152a454156109f957005b5f81815260026020818152604080842060048101805460ff60a01b1916600160a01b17905560088101805460ff191660019081179091556003909101546001600160a01b0316808652600b9093529320909101805491949282019182106103565755815f52600260205260018060a01b03600460405f200154165f52600c602052600260405f200180549160018301809311610356577fcd1dbe2ce745820f60f93df9d589ab9aca1c122559087027c76d1eb59ced615b926020925554604051908152a3005b60405162461bcd60e51b815260206004820152601760248201527f5061796d656e74207472616e73666572206661696c65640000000000000000006044820152606490fd5b610b26915060203d602011610b2c575b610b1e818361301d565b810190613381565b866109a6565b503d610b14565b6040513d5f823e3d90fd5b60405162461bcd60e51b8152602060048201526012602482015271496e73756666696369656e742066756e647360701b6044820152606490fd5b60405162461bcd60e51b815260206004820152601f60248201527f4f6e6c79206167656e63792063616e2072656c65617365207061796d656e74006044820152606490fd5b60405162461bcd60e51b8152602060048201526016602482015275135a5b195cdd1bdb99481b9bdd08185c1c1c9bdd995960521b6044820152606490fd5b346103e35760403660031901126103e357610c146131be565b6001600160a01b03165f908152600360205260409020805460243591908210156103e35760209161059e91613353565b346103e35760203660031901126103e357600435610c61816138d3565b610c6d82825414613568565b600681019060ff82541660058110156103cf576001610c8c9114613887565b60018101545f818152600260205260409020600401549092906001600160a01b03163303610d0457600260ff19825416179055600842910155815f52600a60205260405f20600260ff1982541617905533917f9ffbb52f2a1362273cd74689a516ca4f52c4282dc13e2e68b7e0646a9a7af7a35f80a4005b60405162461bcd60e51b815260206004820152601760248201527f4f6e6c79206167656e63792063616e20617070726f76650000000000000000006044820152606490fd5b346103e35760203660031901126103e3576001600160a01b03610d6a6131be565b165f52600c60205261012060405f2060018060a01b038154169060018101549060028101546003820154600483015460058401549160ff600686015416936008600787015496015496604051988952602089015260408801526060870152608086015260a0850152151560c084015260e0830152610100820152f35b346103e35760603660031901126103e357610dff6131be565b6024356044356001600160401b0381116103e357610e21903690600401613169565b91610e3660018060a01b035f5416331461383b565b6001600160a01b031691610e4b8315156133e8565b8115610eb6577f121265c9c15b11db7d068fa4928daf00cea4820d259aa348a792e4e642d3a4a291835f52600b602052600960405f2001610e8d8282546133cd565b9055610eab60405192839283526060602084015260608301906130de565b4260408301520390a2005b60405162461bcd60e51b815260206004820152601d60248201527f506f696e7473206d7573742062652067726561746572207468616e20300000006044820152606490fd5b346103e35760203660031901126103e3576001600160a01b03610f1c6131be565b165f526006602052602060018060a01b0360405f205416604051908152f35b346103e35760203660031901126103e3576004355f52600a602052602060ff60405f205416610f6d60405180926132dc565bf35b346103e35760203660031901126103e3576004355f60a0604051610f9281612faf565b82815282602082015282604082015282606082015282608082015201528015158061104a575b610fc1906135aa565b5f52600860205260c060405f20604051610fda81612faf565b8154918282526001810154602083019081526002820154604084019081526003830154916060850192835260a0600560ff600487015416956080880196151587520154950194855260405195865251602086015251604085015251606084015251151560808301525160a0820152f35b506011548110610fb8565b346103e35760403660031901126103e35761106e6131be565b6001600160a01b03165f908152600f60205260409020805460243591908210156103e35760209161059e91613353565b346103e3575f3660031901126103e3576001546040516001600160a01b039091168152602090f35b346103e3575f3660031901126103e3575f546040516001600160a01b039091168152602090f35b346103e35760203660031901126103e3576111066131be565b5f61010060405161111681612fe6565b8281528260208201528260408201528260608201528260808201528260a08201528260c08201528260e0820152015260018060a01b03165f52600c60205261012060405f2060405161116781612fe6565b60018060a01b03825416918282526001810154602083019081526002820154604084019081526003830154606085019081526004840154906080860191825260058501549260a0870193845260ff6006870154169460c088019515158652610100600860078901549860e08b01998a52015498019788526040519889525160208901525160408801525160608701525160808601525160a085015251151560c08401525160e083015251610100820152f35b346103e35760203660031901126103e3576004358015158061139a575b61123f906135aa565b5f52600d60205260405f20805490611256826135ef565b91611264604051938461301d565b8083526020830180925f5260205f205f915b83831061132f57848660405191829160208301906020845251809152604083019060408160051b85010192915f905b8282106112b457505050500390f35b919360019193955060208091603f19898203018552875190848060a01b038251168152848060a01b038383015116838201526040820151604082015260ff606083015116606082015260a080611319608085015160c0608086015260c08501906130de565b93015191015296019201920185949391926112a5565b6006602060019260405161134281612faf565b855460a086901b869003908116825286860154168382015260028601546040820152600386015460ff16606082015261137d6004870161303e565b6080820152600586015460a0820152815201920192019190611276565b506011548110611236565b346103e3576113b3366131d4565b905f52600960205260405f209081548110156103e3576113d29161333a565b5080546001820154916113e76002820161303e565b60038201549161145f6114546004830154946114056005850161303e565b60ff6006860154169661143c60086007880154970154976040519b8c9b8c5260208c015261012060408c01526101208b01906130de565b9260608a0152608089015287820360a08901526130de565b9360c08601906132dc565b60e08401526101008301520390f35b346103e35760803660031901126103e3576024356001600160401b0381116103e35761149e903690600401613169565b60043515158061198e575b6114b2906135aa565b600480355f90815260026020526040902001546001600160a01b0316330361193f57604435156118fa574260643511156118b5576004355f526008602052600360405f200154604435116118705760125460405161150f81612fe6565b818152602081019060043582526040810193845260443560608201526064356080820152602093604051611543868261301d565b5f815260a08301525f60c08301525f60e08301525f6101008301526004355f526009855260405f208054600160401b81101561037d576115889160018201815561333a565b93909361036a5782518455516001840155518051906001600160401b03821161037d5781906115ba6002860154612f77565b601f8111611822575b508690601f83116001146117b8575f926117ad575b50508160011b915f199060031b1c19161760028301555b60608101516003830155608081015160048301556005820160a08201518051906001600160401b03821161037d5781906116298454612f77565b601f811161175f575b508790601f83116001146116fc575f926116f1575b50508160011b915f199060031b1c19161790555b60c0810151600683019160058210156103cf576008926101009260ff8019835416911617905560e081015160078501550151910155805f52600a825260405f2060ff198154169055604051604435815260643583820152817fdd9c8b628c5ee6e97f53a818750c89e0ff818c9250075b01cb58b42d99858943604060043593a36116e66012546133da565b601255604051908152f35b015190508780611647565b5f8581528981209350601f198516905b8a828210611749575050908460019594939210611731575b505050811b01905561165b565b01515f1960f88460031b161c19169055878080611724565b600185968293968601518155019501930161170c565b909150835f52875f20601f840160051c8101918985106117a3575b90601f859493920160051c01905b8181106117955750611632565b5f8155849350600101611788565b909150819061177a565b0151905086806115d8565b600286015f9081528881209350601f198516905b8982821061180c5750509084600195949392106117f4575b505050811b0160028301556115ef565b01515f1960f88460031b161c191690558680806117e4565b60018596829396860151815501950193016117cc565b909150600285015f52865f20601f840160051c8101888510611869575b90849392915b601f830160051c8201811061185b5750506115c3565b5f8155859450600101611845565b508061183f565b60405162461bcd60e51b815260206004820152601f60248201527f416d6f756e7420657863656564732072656d61696e696e6720627564676574006044820152606490fd5b60405162461bcd60e51b815260206004820152601e60248201527f4475652064617465206d75737420626520696e207468652066757475726500006044820152606490fd5b60405162461bcd60e51b815260206004820152601d60248201527f416d6f756e74206d7573742062652067726561746572207468616e20300000006044820152606490fd5b60405162461bcd60e51b815260206004820152602160248201527f4f6e6c792070726f6a656374206167656e63792063616e2063616c6c207468696044820152607360f81b6064820152608490fd5b50601154600435106114a9565b346103e3575f3660031901126103e3576010546119b7816135ef565b906119c5604051928361301d565b80825260208201908160105f527f1b6847dc741a1b0cd08d278845f9d819d87b734759afb55fe2de5cb82a9ae6725f915b838310611a6357848660405191829160208301906020845251809152604083019060408160051b85010192915f905b828210611a3457505050500390f35b91936001919395506020611a538192603f198a82030186528851613233565b9601920192018594939192611a25565b60076020600192611a7385613426565b8152019201920191906119f6565b346103e357611a8f366132e9565b90919283151580611c0a575b611aa4906135aa565b60ff831690600182101580611bff575b611abd90613606565b5f858152600260205260409020600301546001600160a01b03163303611bbb57611aff90855f52600260205261062b60ff600460405f20015460a01c16613652565b815f52600f602052611b1760405f2060135490613399565b815f52600c60205260405f2090611b3a60038301918254156107425782546133cd565b80915560048201805490600182018092116103565781905560648202918083046064149015171561035657611b6e91613960565b60058201556008429101557fd9fe0ed68e3c4366b31f8d0d488267d11de78391d6c2403657f00c7b5a28422e6040518061072f33954290836020909392919360ff60408201951681520152565b606460405162461bcd60e51b815260206004820152602060248201527f4f6e6c792070726f6a65637420636f6e74726163746f722063616e20726174656044820152fd5b506005821115611ab4565b506011548410611a9b565b346103e3575f3660031901126103e3576020601254604051908152f35b346103e35760203660031901126103e3576001600160a01b03611c536131be565b165f52600360205260405f20604051806020835491828152019081935f5260205f20905f5b818110611cd05750505081611c8e91038261301d565b604051918291602083019060208452518091526040830191905f5b818110611cb7575050500390f35b8251845285945060209384019390920191600101611ca9565b8254845260209093019260019283019201611c78565b346103e35760203660031901126103e357611cff6131be565b5f610140604051611d0f81612fca565b8281528260208201528260408201528260608201528260808201528260a08201528260c08201528260e08201528261010082015282610120820152015260018060a01b03165f52600b60205261016060405f20604051611d6e81612fca565b60018060a01b038254169182825260018101546020830190815260028201546040840190815260038301546060850190815260048401546080860190815260058501549060a0870191825260068601549260c0880193845260078701549460e0890195865260ff600889015416966101008a019715158852610140600a60098b01549a6101208d019b8c5201549a01998a526040519a8b525160208b01525160408a01525160608901525160808801525160a08701525160c08601525160e08501525115156101008401525161012083015251610140820152f35b346103e35760203660031901126103e3576004355f52600860205260c060405f208054906001810154906002810154600382015490600560ff600485015416930154936040519586526020860152604085015260608401521515608083015260a0820152f35b346103e35760203660031901126103e3576004358015158061207c575b611ed5906135aa565b5f52600960205260405f20805490611eec826135ef565b91611efa604051938461301d565b808352602083019081925f5260205f20915f905b828210611fea57848660405191829160208301906020845251809152604083019060408160051b85010192915f905b828210611f4c57505050500390f35b919360019193955060208091603f1989820301855287519081518152828201518382015261010080611fb8611f92604086015161012060408701526101208601906130de565b606086015160608601526080860151608086015260a086015185820360a08701526130de565b93611fcb60c082015160c08601906132dc565b60e081015160e085015201519101529601920192018594939192611f3d565b604051611ff681612fe6565b84548152600185015460208201526120106002860161303e565b604082015260038501546060820152600485015460808201526120356005860161303e565b60a082015260ff60068601541660058110156103cf576001928260209260c06009950152600788015460e08201526008880154610100820152815201940191019092611f0e565b506011548110611ecc565b346103e357612095366132ad565b908151156122df576120a6816138d3565b906120b381835414613568565b600682019160ff83541660058110156103cf5761229a5760018101545f818152600260205260409020600301549093906001600160a01b03163303612255576005820185516001600160401b03811161037d576121108254612f77565b601f8111612210575b50806020601f82116001146121ad575f916121a2575b508160011b915f199060031b1c19161790555b600160ff19825416179055600742910155805f52600a60205260405f20600160ff198254161790557ff236f69e7b44f4780f4b9dbabf53e83a6431a1b9a615666f2674baea452555bb6040516020815280610351339660208301906130de565b90508701518861212f565b5f8481528181209250601f198416905b8a8282106121f857505090836001949392106121e0575b5050811b019055612142565b8901515f1960f88460031b161c1916905588806121d4565b600184956020939584930151815501940192016121bd565b825f5260205f20601f830160051c8101916020841061224b575b601f0160051c01905b8181106122405750612119565b5f8155600101612233565b909150819061222a565b60405162461bcd60e51b815260206004820152601a60248201527f4f6e6c7920636f6e74726163746f722063616e207375626d69740000000000006044820152606490fd5b60405162461bcd60e51b815260206004820152601b60248201527f4d696c6573746f6e6520616c7265616479207375626d697474656400000000006044820152606490fd5b606460405162461bcd60e51b815260206004820152602060248201527f44656c6976657261626c6573204349442063616e6e6f7420626520656d7074796044820152fd5b346103e3575f3660031901126103e3576020601154604051908152f35b346103e3575f3660031901126103e3576020601354604051908152f35b346103e35760203660031901126103e35761239561238161237c6131be565b61349b565b604051918291602083526020830190613233565b0390f35b346103e35760203660031901126103e3576004356010548110156103e3576123c090613217565b506123ca8161303e565b6123956001830154926002810154906123e56003820161303e565b60048201546001600160a01b03169061240c60066124056005860161303e565b940161303e565b9360405197889788613102565b346103e357612427366131d4565b905f52600d60205260405f209081548110156103e357612446916131ea565b5060018060a01b0381541660018060a01b03600183015416916124aa60028201549160ff600382015416600561247e6004840161303e565b92015493604051968796875260208701526040860152606085015260c0608085015260c08401906130de565b9060a08301520390f35b346103e35760203660031901126103e3576001600160a01b036124d56131be565b165f52600b60205261016060405f2060018060a01b0381541690600181015490600281015460038201546004830154600584015460068501549160078601549360ff60088801541695600a6009890154980154986040519a8b5260208b015260408a01526060890152608088015260a087015260c086015260e08501521515610100840152610120830152610140820152f35b346103e35760a03660031901126103e3576004356001600160401b0381116103e357612598903690600401613169565b604435906001600160a01b03821682036103e357606435916084359160243515612e3b576001600160a01b03821615612df65783831115612da757600154604051636eb1769f60e11b81523360048201523060248201526001600160a01b0390911690602081604481855afa908115610b33575f91612d75575b5060243511612d375760205f916064604051809481936323b872dd60e01b835233600484015230602484015260243560448401525af1908115610b33575f91612d18575b5015612cdb57601154926040519461014086018681106001600160401b0382111761037d5760405284865260208601928352602435604087015260018060a01b03841660608701523360808701525f60a087015260c086015260e08501526020936040516126c4868261301d565b5f81526101008201525f610120820152835f526002855260405f209181518355518051906001600160401b03821161037d5781906127056001860154612f77565b601f8111612c8d575b508790601f8311600114612c23575f92612c18575b50508160011b915f199060031b1c19161760018301555b6040810151600283015560608101516003830180546001600160a01b0319166001600160a01b03928316179055608082015160048401805460a0808601516001600160a81b0319909216939094169290921791151590921b60ff60a01b1617905560c0810151600583015560e08101516006830155610100810151805160078401916001600160401b03821161037d576127d48354612f77565b601f8111612bd5575b508790601f8311600114612b6857936008938360ff96946101209488965f92612b5d575b50508160011b915f199060031b1c19161790555b0151169201911660ff1982541617905560405161283181612faf565b8281526005848201602435815261289a604084015f815260608501602435815260808601915f835260a08701945f8652895f5260088b5260405f2097518855516001880155516002870155516003860155511515600485019060ff801983541691151516179055565b5191015560018060a01b0381165f52600383526128ba8260405f20613399565b335f90815260068452604080822080546001600160a01b0319166001600160a01b038581169182179092558352600b865291205416612b33576040516128ff81612fca565b60018060a01b0382168152600a825f6129db8488808201600181526040830185815260608401868152608085019087825260a086019288845260c0870194898652600b60e08901978b89526101406101008b019a8d8c5261012081019d8e52019c8d42905260018060a01b03165f525260405f209c60018060a01b039060018060a01b03905116168d6001600160601b0360a01b905416178d555160018d01555160028c01555160038b01555160048a0155516005890155516006880155516007870155511515600886019060ff801983541691151516179055565b516009840155519101555b335f908152600c845260409020546001600160a01b0316612b1157604051612a0d81612fe6565b33815260088480830160018152612ab8604085015f8152606086015f8152608087015f815260a08801915f835260c08901935f855260e08a01965f8852600c6101008c0199428b52335f525260405f209a60018060a01b039060018060a01b03905116166001600160601b0360a01b8c5416178b555160018b01555160028a0155516003890155516004880155516005870155511515600686019060ff801983541691151516179055565b516007840155519101555b60405190602435825260018060a01b031690827ff03bc2e49a83d942284cb30e1c2935d4b542e1e1e6456d28b5365ddb110a52a2853393a4612b066011546133da565b601155604051908152f35b335f52600c8352600160405f2001805490600182018092116103565755612ac3565b60018060a01b0381165f52600b8352600160405f20018054906001820180921161035657556129e6565b015190508c80612801565b90601f19831691845f52895f20925f5b8b828210612bbf575050846101209460ff9894600898948a9860019510612ba7575b505050811b019055612815565b01515f1960f88460031b161c191690558c8080612b9a565b6001859682939686015181550195019301612b78565b835f52885f20601f840160051c8101918a8510612c0e575b601f0160051c01905b818110612c0357506127dd565b5f8155600101612bf6565b9091508190612bed565b015190508780612723565b600186015f9081528981209350601f198516905b8a828210612c77575050908460019594939210612c5f575b505050811b01600183015561273a565b01515f1960f88460031b161c19169055878080612c4f565b6001859682939686015181550195019301612c37565b909150600185015f52875f20601f840160051c8101898510612cd4575b90849392915b601f830160051c82018110612cc657505061270e565b5f8155859450600101612cb0565b5080612caa565b60405162461bcd60e51b8152602060048201526015602482015274151bdad95b881d1c985b9cd9995c8819985a5b1959605a1b6044820152606490fd5b612d31915060203d602011610b2c57610b1e818361301d565b85612656565b60405162461bcd60e51b8152602060048201526016602482015275496e73756666696369656e7420616c6c6f77616e636560501b6044820152606490fd5b90506020813d602011612d9f575b81612d906020938361301d565b810103126103e3575186612612565b3d9150612d83565b60405162461bcd60e51b815260206004820152602160248201527f456e642064617465206d757374206265206166746572207374617274206461746044820152606560f81b6064820152608490fd5b60405162461bcd60e51b815260206004820152601a60248201527f496e76616c696420636f6e74726163746f7220616464726573730000000000006044820152606490fd5b60405162461bcd60e51b815260206004820152601d60248201527f427564676574206d7573742062652067726561746572207468616e20300000006044820152606490fd5b346103e35760203660031901126103e3576004355f52600260205260405f208054612ead6001830161303e565b91612f44600282015460018060a01b03600384015416926004810154600582015460ff600684015492816008612ee56007880161303e565b9601541697612f086040519b8c9b8c5261014060208d01526101408c01906130de565b9660408b015260608a015260018060a01b03811660808a015260a01c16151560a088015260c087015260e08601528482036101008601526130de565b906101208301520390f35b346103e35760203660031901126103e3576004355f52600460205260405f206123ca8161303e565b90600182811c92168015612fa5575b6020831014612f9157565b634e487b7160e01b5f52602260045260245ffd5b91607f1691612f86565b60c081019081106001600160401b0382111761037d57604052565b61016081019081106001600160401b0382111761037d57604052565b61012081019081106001600160401b0382111761037d57604052565b60e081019081106001600160401b0382111761037d57604052565b90601f801991011681019081106001600160401b0382111761037d57604052565b9060405191825f82549261305184612f77565b80845293600181169081156130bc5750600114613078575b506130769250038361301d565b565b90505f9291925260205f20905f915b8183106130a0575050906020613076928201015f613069565b6020919350806001915483858901015201910190918492613087565b90506020925061307694915060ff191682840152151560051b8201015f613069565b805180835260209291819084018484015e5f828201840152601f01601f1916010190565b95916131589461316698969461312361313b9460e08b5260e08b01906130de565b9260208a0152604089015287820360608901526130de565b6001600160a01b03909216608086015284820360a08601526130de565b9160c08184039101526130de565b90565b81601f820112156103e3578035906001600160401b03821161037d576040519261319d601f8401601f19166020018561301d565b828452602083830101116103e357815f926020809301838601378301015290565b600435906001600160a01b03821682036103e357565b60409060031901126103e3576004359060243590565b8054821015613203575f52600660205f20910201905f90565b634e487b7160e01b5f52603260045260245ffd5b6010548110156132035760105f52600760205f20910201905f90565b6131669160c061329c613278613252855160e0865260e08601906130de565b6020860151602086015260408601516040860152606086015185820360608701526130de565b60018060a01b03608086015116608085015260a085015184820360a08601526130de565b9201519060c08184039101526130de565b9060406003198301126103e35760043591602435906001600160401b0382116103e35761316691600401613169565b9060058210156103cf5752565b9060806003198301126103e3576004356001600160a01b03811681036103e357916024359160443560ff811681036103e35791606435906001600160401b0382116103e35761316691600401613169565b8054821015613203575f52600960205f20910201905f90565b8054821015613203575f5260205f2001905f90565b8054821015613203575f52600360205f20910201905f90565b908160209103126103e3575180151581036103e35790565b8054600160401b81101561037d576133b691600182018155613353565b819291549060031b91821b915f19901b1916179055565b9190820180921161035657565b5f1981146103565760010190565b156133ef57565b60405162461bcd60e51b815260206004820152600f60248201526e496e76616c6964206164647265737360881b6044820152606490fd5b9060405161343381613002565b60c0613496600683956134458161303e565b855260018101546020860152600281015460408601526134676003820161303e565b606086015260048101546001600160a01b0316608086015261348b6005820161303e565b60a08601520161303e565b910152565b6040516134a781613002565b606081525f60208201525f60408201526060808201525f6080820152606060a0820152606060c08201525060018060a01b03166134e58115156133e8565b601054905f5b82811061352e5760405162461bcd60e51b815260206004820152601460248201527310dbdb9d1c9858dd1bdc881b9bdd08199bdd5b9960621b6044820152606490fd5b8161353882613217565b50600401546001600160a01b031614613553576001016134eb565b61316692506135629150613217565b50613426565b1561356f57565b60405162461bcd60e51b8152602060048201526013602482015272135a5b195cdd1bdb99481b9bdd08199bdd5b99606a1b6044820152606490fd5b156135b157565b60405162461bcd60e51b8152602060048201526016602482015275141c9bda9958dd08191bd95cc81b9bdd08195e1a5cdd60521b6044820152606490fd5b6001600160401b03811161037d5760051b60200190565b1561360d57565b60405162461bcd60e51b815260206004820152601d60248201527f53636f7265206d757374206265206265747765656e203120616e6420350000006044820152606490fd5b1561365957565b60405162461bcd60e51b815260206004820152601960248201527f50726f6a656374206d75737420626520636f6d706c65746564000000000000006044820152606490fd5b8054600160401b81101561037d576136bb916001820181556131ea565b91909161036a57805182546001600160a01b039182166001600160a01b0319918216178455602083015160018501805491909316911617905560408101516002830155606081015160038301805460ff90921660ff199092169190911790556080810151805160048401916001600160401b03821161037d5761373e8354612f77565b601f81116137f6575b50602090601f831160011461378d57918060a09492600596945f92613782575b50508160011b915f199060031b1c19161790555b0151910155565b015190505f80613767565b90601f19831691845f52815f20925f5b8181106137de57509260019285926005989660a09896106137c6575b505050811b01905561377b565b01515f1960f88460031b161c191690555f80806137b9565b9293602060018192878601518155019501930161379d565b835f5260205f20601f840160051c81019160208510613831575b601f0160051c01905b8181106138265750613747565b5f8155600101613819565b9091508190613810565b1561384257565b60405162461bcd60e51b815260206004820152601860248201527f4f6e6c79206f776e65722063616e2063616c6c207468697300000000000000006044820152606490fd5b1561388e57565b60405162461bcd60e51b815260206004820152601760248201527f4d696c6573746f6e65206e6f74207375626d69747465640000000000000000006044820152606490fd5b6011545f915f1982019182115b61035657815f52600260205260405f20545f52600960205260405f205483101561356f575f92825f52600260205260405f20545f526009602052816139288260405f2061333a565b50541461393857600101926138e0565b91905061395c92505f52600260205260405f20545f52600960205260405f2061333a565b5090565b811561396a570490565b634e487b7160e01b5f52601260045260245ffdfea2646970667358221220be0b68094c39f4becb4ef755db722f80449405a3abd8bc3c9afeb245f96b53cf64736f6c634300081c0033","linkReferences":{}},"methodIdentifiers":{"agencyRatings(address,uint256)":"9ed3b4ff","agencyReputation(address)":"c28514cb","agency_Contractor(address)":"aa51b038","applyPenalty(address,uint256,string)":"c274326d","approveMilestone(uint256)":"c438b40f","contractor(uint256)":"0306aa2a","contractorProjects(address,uint256)":"c9b08c02","contractorRatings(address,uint256)":"f07a1f89","contractorReputation(address)":"25b73f3d","contractors(uint256)":"3481a95a","createMilestone(uint256,string,uint256,uint256)":"6b0876eb","createProject(string,uint256,address,uint256,uint256)":"17a06cab","getAgencyReputation(address)":"78d405f2","getAllContractors()":"6ab0bd4c","getContractor(address)":"3a9acd04","getContractorProjects(address)":"636f34d6","getContractorReputation(address)":"631c7e7a","getPaymentStatus(uint256)":"a1650043","getProjectMilestones(uint256)":"52766d80","getProjectRatings(uint256)":"74d24b61","milestoneId()":"6775aa4f","milestoneStatus(uint256)":"a8b757a0","owner()":"8da5cb5b","projectId()":"3fafa127","projectMilestones(uint256,uint256)":"6cb0adba","projectPayments(uint256)":"55949bc7","projectRatings(uint256,uint256)":"27276ec5","projects(uint256)":"107046bd","projectsubmited(address,uint256)":"e0533492","rateAgency(address,uint256,uint8,string)":"688d32c8","rateContractor(address,uint256,uint8,string)":"e22443ea","ratingId()":"3b08c6d6","rejectMilestone(uint256,string)":"ff57e740","rejectedMilestones(address,uint256)":"f2841260","releaseMilestonePayment(uint256)":"cd0c15bf","submitMilestone(uint256,string)":"476a119b","tokenAddress()":"9d76ea58","verifyAgency(address,uint256)":"f5991b8f","verifyContractor(address)":"dc7a72e7"},"id":461}