{"abi":[{"type":"function","name":"mockFunction","inputs":[],"outputs":[{"name":"","type":"string","internalType":"string"}],"stateMutability":"payable"},{"type":"function","name":"mockFunctionEmptyReturn","inputs":[],"outputs":[],"stateMutability":"payable"},{"type":"function","name":"mockFunctionEmptyReturnWritesStorage","inputs":[{"name":"slot","type":"bytes32","internalType":"bytes32"},{"name":"value","type":"bytes32","internalType":"bytes32"}],"outputs":[],"stateMutability":"payable"},{"type":"function","name":"mockFunctionExtra","inputs":[],"outputs":[],"stateMutability":"payable"},{"type":"function","name":"mockFunctionNonPayable","inputs":[],"outputs":[{"name":"","type":"string","internalType":"string"}],"stateMutability":"nonpayable"},{"type":"function","name":"mockFunctionOutOfGas","inputs":[],"outputs":[],"stateMutability":"payable"},{"type":"function","name":"mockFunctionRevertsNoReason","inputs":[],"outputs":[],"stateMutability":"payable"},{"type":"function","name":"mockFunctionRevertsReason","inputs":[],"outputs":[],"stateMutability":"payable"},{"type":"function","name":"mockFunctionThrows","inputs":[],"outputs":[],"stateMutability":"payable"},{"type":"function","name":"mockFunctionWithArgs","inputs":[{"name":"a","type":"uint256","internalType":"uint256"},{"name":"b","type":"uint256","internalType":"uint256"}],"outputs":[{"name":"","type":"string","internalType":"string"}],"stateMutability":"payable"},{"type":"function","name":"mockFunctionWithArgsReturn","inputs":[{"name":"a","type":"uint256","internalType":"uint256"},{"name":"b","type":"uint256","internalType":"uint256"}],"outputs":[{"name":"","type":"uint256","internalType":"uint256"},{"name":"","type":"uint256","internalType":"uint256"}],"stateMutability":"payable"},{"type":"function","name":"mockFunctionWithArgsReturnWritesStorage","inputs":[{"name":"slot","type":"bytes32","internalType":"bytes32"},{"name":"value","type":"bytes32","internalType":"bytes32"},{"name":"a","type":"uint256","internalType":"uint256"},{"name":"b","type":"uint256","internalType":"uint256"}],"outputs":[{"name":"","type":"uint256","internalType":"uint256"},{"name":"","type":"uint256","internalType":"uint256"}],"stateMutability":"payable"},{"type":"function","name":"mockFunctionWritesStorage","inputs":[{"name":"slot","type":"bytes32","internalType":"bytes32"},{"name":"value","type":"bytes32","internalType":"bytes32"}],"outputs":[{"name":"","type":"string","internalType":"string"}],"stateMutability":"nonpayable"},{"type":"function","name":"mockStaticFunction","inputs":[],"outputs":[{"name":"","type":"string","internalType":"string"}],"stateMutability":"pure"},{"type":"function","name":"mockStaticFunctionWithArgsReturn","inputs":[{"name":"a","type":"uint256","internalType":"uint256"},{"name":"b","type":"uint256","internalType":"uint256"}],"outputs":[{"name":"","type":"uint256","internalType":"uint256"},{"name":"","type":"uint256","internalType":"uint256"}],"stateMutability":"pure"},{"type":"event","name":"MockFunctionCalled","inputs":[],"anonymous":false},{"type":"event","name":"MockFunctionCalledExtra","inputs":[{"name":"caller","type":"address","indexed":false,"internalType":"address"},{"name":"value","type":"uint256","indexed":false,"internalType":"uint256"}],"anonymous":false},{"type":"event","name":"MockFunctionCalledWithArgs","inputs":[{"name":"a","type":"uint256","indexed":false,"internalType":"uint256"},{"name":"b","type":"uint256","indexed":false,"internalType":"uint256"}],"anonymous":false}],"bytecode":{"object":"0x608080604052346015576104a2908161001a8239f35b5f80fdfe6080806040526004361015610012575f80fd5b5f3560e01c9081630c0349681461038c575080630f63e42c146103605780632c81d6381461014c57806334edaa6d146103445780633bcfaa14146103255780633e6fec04146102fe578063425397a2146102e357806343c8d218146102a75780634f1d61d214610262578063a09a84bb1461020d578063a793ab471461016e578063c292d81c14610150578063c8fc769614610131578063f4c6005f146101135763fdb27325146100c1575f80fd5b7f2b42b3c9af4187c86225f201736204c7597312c830cb5c2537dff6ef24b946ae60406100ed36610403565b82519182526020820152a161010f610103610419565b604051918291826103d9565b0390f35b61011c36610403565b90555f51602061044d5f395f51905f525f80a1005b3461014c575f36600319011261014c5761010f610103610419565b5f80fd5b5f36600319011261014c575f51602061044d5f395f51905f525f80a1005b5f36600319011261014c575f5b5f54680100000000000000008110156101f95760018101805f558110156101e5577f290decd9548b62a8d60345a988386fc84ba6bc95484008f6362f93160ef3e563018190555f1981146101d15760010161017b565b634e487b7160e01b5f52601160045260245ffd5b634e487b7160e01b5f52603260045260245ffd5b634e487b7160e01b5f52604160045260245ffd5b608036600319011261014c576040604435606435602435600435557f2b42b3c9af4187c86225f201736204c7597312c830cb5c2537dff6ef24b946ae838051848152836020820152a182519182526020820152f35b604061026d36610403565b7f2b42b3c9af4187c86225f201736204c7597312c830cb5c2537dff6ef24b946ae838051848152836020820152a182519182526020820152f35b5f36600319011261014c577fffa33d28bf6be9e1816e7ffd5fd5a09754144c76f7c08b5325dd3f6ef2c288f660408051338152346020820152a1005b3461014c576102f136610403565b905561010f610103610419565b5f36600319011261014c575f51602061044d5f395f51905f525f80a161010f610103610419565b5f36600319011261014c57634e487b7160e01b5f52600160045260245ffd5b3461014c57604061035436610403565b82519182526020820152f35b3461014c575f36600319011261014c575f51602061044d5f395f51905f525f80a161010f610103610419565b5f36600319011261014c5762461bcd60e51b815260206004820152601b60248201527f43616c6c52656365697665724d6f636b3a20726576657274696e6700000000006044820152606490fd5b602060409281835280519182918282860152018484015e5f828201840152601f01601f1916010190565b604090600319011261014c576004359060243590565b604051906040820182811067ffffffffffffffff8211176101f95760405260068252650c1e0c4c8ccd60d21b602083015256fe52c66ed6ec9ca819cba26fe2b2650059270d8981b295af300187a964f54a8c23a264697066735822122014bf5369ac35c6b376110debf501433c51ddf5d7bb37f3a8d654379358f09e3b64736f6c634300081c0033","linkReferences":{}},"methodIdentifiers":{"mockFunction()":"3e6fec04","mockFunctionEmptyReturn()":"c292d81c","mockFunctionEmptyReturnWritesStorage(bytes32,bytes32)":"f4c6005f","mockFunctionExtra()":"43c8d218","mockFunctionNonPayable()":"0f63e42c","mockFunctionOutOfGas()":"a793ab47","mockFunctionRevertsNoReason()":"2c81d638","mockFunctionRevertsReason()":"0c034968","mockFunctionThrows()":"3bcfaa14","mockFunctionWithArgs(uint256,uint256)":"fdb27325","mockFunctionWithArgsReturn(uint256,uint256)":"4f1d61d2","mockFunctionWithArgsReturnWritesStorage(bytes32,bytes32,uint256,uint256)":"a09a84bb","mockFunctionWritesStorage(bytes32,bytes32)":"425397a2","mockStaticFunction()":"c8fc7696","mockStaticFunctionWithArgsReturn(uint256,uint256)":"34edaa6d"},"id":147}