{"abi":[{"type":"constructor","inputs":[],"stateMutability":"nonpayable"},{"type":"function","name":"callback","inputs":[],"outputs":[],"stateMutability":"nonpayable"},{"type":"function","name":"countAndCall","inputs":[{"name":"attacker","type":"address","internalType":"contract ReentrancyAttack"}],"outputs":[],"stateMutability":"nonpayable"},{"type":"function","name":"countAndCallView","inputs":[{"name":"attacker","type":"address","internalType":"contract ReentrancyAttack"}],"outputs":[],"stateMutability":"nonpayable"},{"type":"function","name":"countLocalRecursive","inputs":[{"name":"n","type":"uint256","internalType":"uint256"}],"outputs":[],"stateMutability":"nonpayable"},{"type":"function","name":"countThisRecursive","inputs":[{"name":"n","type":"uint256","internalType":"uint256"}],"outputs":[],"stateMutability":"nonpayable"},{"type":"function","name":"counter","inputs":[],"outputs":[{"name":"","type":"uint256","internalType":"uint256"}],"stateMutability":"view"},{"type":"function","name":"guardedCheckEntered","inputs":[],"outputs":[],"stateMutability":"nonpayable"},{"type":"function","name":"unguardedCheckNotEntered","inputs":[],"outputs":[],"stateMutability":"view"},{"type":"function","name":"viewCallback","inputs":[],"outputs":[{"name":"","type":"uint256","internalType":"uint256"}],"stateMutability":"view"},{"type":"error","name":"ReentrancyGuardReentrantCall","inputs":[]}],"bytecode":{"object":"0x60808060405234603c5760017f9b779b17422d0df92223018b32b4d1fa46e071723d6817e2486d003becc55f00555f80556105b390816100418239f35b5f80fdfe60806040526004361015610011575f80fd5b5f5f3560e01c8063083b27321461045357806332e2a0411461042f57806361bc221a146104135780638c5344fa146102eb57806396ffa69014610270578063a408f31214610241578063b672ad8b14610186578063cb524176146100a95763cecc95a71461007d575f80fd5b346100a657806003193601126100a65760025f51602061055e5f395f51905f5254146100a65780f35b80fd5b50346100a65760203660031901126100a6576004356001600160a01b03811690819003610182576100d8610536565b60025f51602061055e5f395f51905f52556100f1610525565b6040516332e2a04160e01b602082015260048152908290610113602484610484565b803b156101825761013b9282916040518080968194631d62478560e11b8352600483016104fb565b03915afa80156101755761015e575b60015f51602061055e5f395f51905f525580f35b61016791610484565b805f126100a6575f8161014a565b50604051903d90823e3d90fd5b5080fd5b50346100a65760203660031901126100a657806004356001600160a01b0381169081900361023e576101b6610536565b60025f51602061055e5f395f51905f52556101cf610525565b60405163041d939960e11b602082015260048152906101ef602483610484565b803b1561023c5761021a839291839260405195868094819363f8123dd560e01b8352600483016104fb565b03925af180156101755761015e5760015f51602061055e5f395f51905f525580f35b505b50fd5b3461026c575f36600319011261026c57610259610536565b60015f51602061055e5f395f51905f5255005b5f80fd5b3461026c57602036600319011261026c5760043561028c610536565b60025f51602061055e5f395f51905f5255806102b55760015f51602061055e5f395f51905f5255005b6102bd610525565b5f1981019081116102d7576102d1906104a6565b80610259565b634e487b7160e01b5f52601160045260245ffd5b3461026c57602036600319011261026c57600435610307610536565b60025f51602061055e5f395f51905f5255806103305760015f51602061055e5f395f51905f5255005b610338610525565b5f1981019081116102d7575f80916040516020810191634629a27d60e11b835260248201526024815261036c604482610484565b519082305af13d1561040e573d67ffffffffffffffff81116103fa57604051906103a0601f8201601f191660200183610484565b81525f60203d92013e5b156103b55780610259565b60405162461bcd60e51b815260206004820152601b60248201527f5265656e7472616e63794d6f636b3a206661696c65642063616c6c00000000006044820152606490fd5b634e487b7160e01b5f52604160045260245ffd5b6103aa565b3461026c575f36600319011261026c5760205f54604051908152f35b3461026c575f36600319011261026c57610447610536565b60205f54604051908152f35b3461026c575f36600319011261026c5761046b610536565b60025f51602061055e5f395f51905f5255610259610525565b90601f8019910116810190811067ffffffffffffffff8211176103fa57604052565b6104ae610536565b60025f51602061055e5f395f51905f5255806104d9575b5060015f51602061055e5f395f51905f5255565b6104e1610525565b5f1981019081116102d7576104f5906104a6565b5f6104c5565b602060409281835280519182918282860152018484015e5f828201840152601f01601f1916010190565b5f54600181018091116102d7575f55565b60025f51602061055e5f395f51905f52541461054e57565b633ee5aeb560e01b5f5260045ffdfe9b779b17422d0df92223018b32b4d1fa46e071723d6817e2486d003becc55f00a26469706673582212202d0529341feb5d39e850860041dc0402d78b6557f052ea5a1c20e9d8f822648064736f6c634300081c0033","linkReferences":{}},"methodIdentifiers":{"callback()":"083b2732","countAndCall(address)":"b672ad8b","countAndCallView(address)":"cb524176","countLocalRecursive(uint256)":"96ffa690","countThisRecursive(uint256)":"8c5344fa","counter()":"61bc221a","guardedCheckEntered()":"a408f312","unguardedCheckNotEntered()":"cecc95a7","viewCallback()":"32e2a041"},"id":164}