{"abi":[{"type":"constructor","inputs":[{"name":"initialOwner","type":"address","internalType":"address"}],"stateMutability":"nonpayable"},{"type":"function","name":"normalThing","inputs":[],"outputs":[],"stateMutability":"nonpayable"},{"type":"function","name":"owner","inputs":[],"outputs":[{"name":"","type":"address","internalType":"address"}],"stateMutability":"view"},{"type":"function","name":"renounceOwnership","inputs":[],"outputs":[],"stateMutability":"nonpayable"},{"type":"function","name":"specialThing","inputs":[],"outputs":[],"stateMutability":"nonpayable"},{"type":"function","name":"transferOwnership","inputs":[{"name":"newOwner","type":"address","internalType":"address"}],"outputs":[],"stateMutability":"nonpayable"},{"type":"event","name":"OwnershipTransferred","inputs":[{"name":"previousOwner","type":"address","indexed":true,"internalType":"address"},{"name":"newOwner","type":"address","indexed":true,"internalType":"address"}],"anonymous":false},{"type":"error","name":"OwnableInvalidOwner","inputs":[{"name":"owner","type":"address","internalType":"address"}]},{"type":"error","name":"OwnableUnauthorizedAccount","inputs":[{"name":"account","type":"address","internalType":"address"}]}],"bytecode":{"object":"0x60803460b857601f6102b438819003918201601f19168301916001600160401b0383118484101760bc5780849260209460405283398101031260b857516001600160a01b0381169081900360b857801560a5575f80546001600160a01b031981168317825560405192916001600160a01b03909116907f8be0079c531659141344cd1fd0a4f28419497f9722a3daafe3b4186f6b6457e09080a36101e390816100d18239f35b631e4fbdf760e01b5f525f60045260245ffd5b5f80fd5b634e487b7160e01b5f52604160045260245ffdfe60806040526004361015610011575f80fd5b5f3560e01c8063163e1d931461017557806335fea8c91461015b578063715018a6146101045780638da5cb5b146100dd5763f2fde38b14610050575f80fd5b346100d95760203660031901126100d9576004356001600160a01b038116908190036100d95761007e610187565b80156100c6575f80546001600160a01b03198116831782556001600160a01b0316907f8be0079c531659141344cd1fd0a4f28419497f9722a3daafe3b4186f6b6457e09080a3005b631e4fbdf760e01b5f525f60045260245ffd5b5f80fd5b346100d9575f3660031901126100d9575f546040516001600160a01b039091168152602090f35b346100d9575f3660031901126100d95761011c610187565b5f80546001600160a01b0319811682556001600160a01b03167f8be0079c531659141344cd1fd0a4f28419497f9722a3daafe3b4186f6b6457e08280a3005b346100d9575f3660031901126100d957610173610187565b005b346100d9575f3660031901126100d957005b5f546001600160a01b0316330361019a57565b63118cdaa760e01b5f523360045260245ffdfea2646970667358221220bdc28551bf32784849a4597d61a4e8a987c0ba522c5762beb31af9a3b3de384e64736f6c634300081c0033","linkReferences":{}},"methodIdentifiers":{"normalThing()":"163e1d93","owner()":"8da5cb5b","renounceOwnership()":"715018a6","specialThing()":"35fea8c9","transferOwnership(address)":"f2fde38b"},"id":189}