{"abi":[{"type":"function","name":"disableReentrancy","inputs":[],"outputs":[],"stateMutability":"nonpayable"},{"type":"function","name":"enableReentrancy","inputs":[{"name":"target","type":"address","internalType":"address"},{"name":"data","type":"bytes","internalType":"bytes"}],"outputs":[],"stateMutability":"nonpayable"},{"type":"function","name":"reenter","inputs":[],"outputs":[],"stateMutability":"nonpayable"},{"type":"error","name":"AddressEmptyCode","inputs":[{"name":"target","type":"address","internalType":"address"}]},{"type":"error","name":"FailedCall","inputs":[]},{"type":"error","name":"InsufficientBalance","inputs":[{"name":"balance","type":"uint256","internalType":"uint256"},{"name":"needed","type":"uint256","internalType":"uint256"}]}],"bytecode":{"object":"0x6080806040523460155761040c908161001a8239f35b5f80fdfe60806040526004361015610011575f80fd5b5f3560e01c806316b3283714610159578063a0fe97e31461005d5763cc23fb1c1461003a575f80fd5b34610059575f366003190112610059576002805460ff19166001179055005b5f80fd5b34610059575f3660031901126100595760025460ff81161561007b57005b60019060ff19161760025560018060a01b035f54166040515f6001546100a0816102f1565b808452906001811690811561013d57506001146100fb575b50819003601f01601f191681019167ffffffffffffffff8311828410176100e7576100e592604052610329565b005b634e487b7160e01b5f52604160045260245ffd5b905060015f525f5160206103b75f395f51905f525f905b828210610127575060209150820101836100b8565b6001816020925483858801015201910190610112565b90506020925060ff191682840152151560051b820101836100b8565b34610059576040366003190112610059576004356001600160a01b03811690819003610059576024359067ffffffffffffffff821161005957366023830112156100595781600401359067ffffffffffffffff8211610059573660248385010111610059576bffffffffffffffffffffffff60a01b5f5416175f556101df6001546102f1565b601f811161028d575b505f601f82116001146102225781925f92610214575b50505f19600383901b1c1916600191821b179055005b6024925001013582806101fe565b601f198216925f5160206103b75f395f51905f52915f5b85811061027257508360019510610256575b505050811b01600155005b01602401355f19600384901b60f8161c1916905582808061024b565b90926020600181926024878701013581550194019101610239565b601f820160051c5f5160206103b75f395f51905f520190602083106102dc575b601f0160051c5f5160206103b75f395f51905f5201905b8181106102d157506101e8565b5f81556001016102c4565b5f5160206103b75f395f51905f5291506102ad565b90600182811c9216801561031f575b602083101461030b57565b634e487b7160e01b5f52602260045260245ffd5b91607f1691610300565b905f809160208151910182855af180806103a3575b1561035e5750506040513d81523d5f602083013e60203d82010160405290565b1561038357639996b31560e01b5f9081526001600160a01b0391909116600452602490fd5b3d15610394576040513d5f823e3d90fd5b63d6bda27560e01b5f5260045ffd5b503d15158061033e5750813b151561033e56feb10e2d527612073b26eecdfd717e6a320cf44b4afac2b0732d9fcbe2b7fa0cf6a264697066735822122051de1d6b76e68e37839de1606f4a7247c8e4caa64b974325a62c0116e760163a64736f6c634300081c0033","linkReferences":{}},"methodIdentifiers":{"disableReentrancy()":"cc23fb1c","enableReentrancy(address,bytes)":"16b32837","reenter()":"a0fe97e3"},"id":170}