{"abi":[{"type":"function","name":"execute","inputs":[{"name":"calls","type":"tuple[]","internalType":"struct BatchCaller.Call[]","components":[{"name":"target","type":"address","internalType":"address"},{"name":"value","type":"uint256","internalType":"uint256"},{"name":"data","type":"bytes","internalType":"bytes"}]}],"outputs":[{"name":"","type":"bytes[]","internalType":"bytes[]"}],"stateMutability":"nonpayable"},{"type":"error","name":"AddressEmptyCode","inputs":[{"name":"target","type":"address","internalType":"address"}]},{"type":"error","name":"FailedCall","inputs":[]},{"type":"error","name":"InsufficientBalance","inputs":[{"name":"balance","type":"uint256","internalType":"uint256"},{"name":"needed","type":"uint256","internalType":"uint256"}]}],"bytecode":{"object":"0x60808060405234601557610385908161001a8239f35b5f80fdfe60806040526004361015610011575f80fd5b5f3560e01c633f707e6b14610024575f80fd5b346101f25760203660031901126101f25760043567ffffffffffffffff81116101f257366023820112156101f257806004013567ffffffffffffffff81116101f2576024820191602436918360051b0101116101f25761008b61008682610241565b610207565b81815291601f1961009b83610241565b015f5b8181106101f65750505f5b82811061012e57836040518091602082016020835281518091526040830190602060408260051b8601019301915f905b8282106100e857505050500390f35b91936001919395506020808092603f198a82030186528189518051918291828552018484015e5f838284010152601f8019910116010196019201920185949391926100d9565b610139818484610259565b35906001600160a01b03821682036101f257610156818585610259565b604081013590601e19813603018212156101f2570180359267ffffffffffffffff84116101f257602082019184360383136101f2576020610198858989610259565b0135916101ae601f8701601f1916602001610207565b9186835260208736920101116101f2575f6020876001986101d69783870137840101526102a3565b6101e0828761028f565b526101eb818661028f565b50016100a9565b5f80fd5b80606060208093880101520161009e565b6040519190601f01601f1916820167ffffffffffffffff81118382101761022d57604052565b634e487b7160e01b5f52604160045260245ffd5b67ffffffffffffffff811161022d5760051b60200190565b919081101561027b5760051b81013590605e19813603018212156101f2570190565b634e487b7160e01b5f52603260045260245ffd5b805182101561027b5760209160051b010190565b9180471061033957815f92916020849351920190855af18080610326575b156102e15750506040513d81523d5f602083013e60203d82010160405290565b1561030657639996b31560e01b5f9081526001600160a01b0391909116600452602490fd5b3d15610317576040513d5f823e3d90fd5b63d6bda27560e01b5f5260045ffd5b503d1515806102c15750813b15156102c1565b4763cf47918160e01b5f5260045260245260445ffdfea264697066735822122002ba41eaf34ec1de6705c4f8c5e65bbf5afd262c95c6cd5cbf4aebb23b32367d64736f6c634300081c0033","linkReferences":{}},"methodIdentifiers":{"execute((address,uint256,bytes)[])":"3f707e6b"},"id":146}