{"abi":[{"type":"constructor","inputs":[{"name":"_token","type":"address","internalType":"contract IVotes"},{"name":"_timelock","type":"address","internalType":"contract TimelockController"}],"stateMutability":"nonpayable"},{"type":"receive","stateMutability":"payable"},{"type":"function","name":"BALLOT_TYPEHASH","inputs":[],"outputs":[{"name":"","type":"bytes32","internalType":"bytes32"}],"stateMutability":"view"},{"type":"function","name":"CLOCK_MODE","inputs":[],"outputs":[{"name":"","type":"string","internalType":"string"}],"stateMutability":"view"},{"type":"function","name":"COUNTING_MODE","inputs":[],"outputs":[{"name":"","type":"string","internalType":"string"}],"stateMutability":"pure"},{"type":"function","name":"EXTENDED_BALLOT_TYPEHASH","inputs":[],"outputs":[{"name":"","type":"bytes32","internalType":"bytes32"}],"stateMutability":"view"},{"type":"function","name":"cancel","inputs":[{"name":"targets","type":"address[]","internalType":"address[]"},{"name":"values","type":"uint256[]","internalType":"uint256[]"},{"name":"calldatas","type":"bytes[]","internalType":"bytes[]"},{"name":"descriptionHash","type":"bytes32","internalType":"bytes32"}],"outputs":[{"name":"","type":"uint256","internalType":"uint256"}],"stateMutability":"nonpayable"},{"type":"function","name":"castVote","inputs":[{"name":"proposalId","type":"uint256","internalType":"uint256"},{"name":"support","type":"uint8","internalType":"uint8"}],"outputs":[{"name":"","type":"uint256","internalType":"uint256"}],"stateMutability":"nonpayable"},{"type":"function","name":"castVoteBySig","inputs":[{"name":"proposalId","type":"uint256","internalType":"uint256"},{"name":"support","type":"uint8","internalType":"uint8"},{"name":"voter","type":"address","internalType":"address"},{"name":"signature","type":"bytes","internalType":"bytes"}],"outputs":[{"name":"","type":"uint256","internalType":"uint256"}],"stateMutability":"nonpayable"},{"type":"function","name":"castVoteWithReason","inputs":[{"name":"proposalId","type":"uint256","internalType":"uint256"},{"name":"support","type":"uint8","internalType":"uint8"},{"name":"reason","type":"string","internalType":"string"}],"outputs":[{"name":"","type":"uint256","internalType":"uint256"}],"stateMutability":"nonpayable"},{"type":"function","name":"castVoteWithReasonAndParams","inputs":[{"name":"proposalId","type":"uint256","internalType":"uint256"},{"name":"support","type":"uint8","internalType":"uint8"},{"name":"reason","type":"string","internalType":"string"},{"name":"params","type":"bytes","internalType":"bytes"}],"outputs":[{"name":"","type":"uint256","internalType":"uint256"}],"stateMutability":"nonpayable"},{"type":"function","name":"castVoteWithReasonAndParamsBySig","inputs":[{"name":"proposalId","type":"uint256","internalType":"uint256"},{"name":"support","type":"uint8","internalType":"uint8"},{"name":"voter","type":"address","internalType":"address"},{"name":"reason","type":"string","internalType":"string"},{"name":"params","type":"bytes","internalType":"bytes"},{"name":"signature","type":"bytes","internalType":"bytes"}],"outputs":[{"name":"","type":"uint256","internalType":"uint256"}],"stateMutability":"nonpayable"},{"type":"function","name":"clock","inputs":[],"outputs":[{"name":"","type":"uint48","internalType":"uint48"}],"stateMutability":"view"},{"type":"function","name":"eip712Domain","inputs":[],"outputs":[{"name":"fields","type":"bytes1","internalType":"bytes1"},{"name":"name","type":"string","internalType":"string"},{"name":"version","type":"string","internalType":"string"},{"name":"chainId","type":"uint256","internalType":"uint256"},{"name":"verifyingContract","type":"address","internalType":"address"},{"name":"salt","type":"bytes32","internalType":"bytes32"},{"name":"extensions","type":"uint256[]","internalType":"uint256[]"}],"stateMutability":"view"},{"type":"function","name":"execute","inputs":[{"name":"targets","type":"address[]","internalType":"address[]"},{"name":"values","type":"uint256[]","internalType":"uint256[]"},{"name":"calldatas","type":"bytes[]","internalType":"bytes[]"},{"name":"descriptionHash","type":"bytes32","internalType":"bytes32"}],"outputs":[{"name":"","type":"uint256","internalType":"uint256"}],"stateMutability":"payable"},{"type":"function","name":"getProposalId","inputs":[{"name":"targets","type":"address[]","internalType":"address[]"},{"name":"values","type":"uint256[]","internalType":"uint256[]"},{"name":"calldatas","type":"bytes[]","internalType":"bytes[]"},{"name":"descriptionHash","type":"bytes32","internalType":"bytes32"}],"outputs":[{"name":"","type":"uint256","internalType":"uint256"}],"stateMutability":"view"},{"type":"function","name":"getVotes","inputs":[{"name":"account","type":"address","internalType":"address"},{"name":"timepoint","type":"uint256","internalType":"uint256"}],"outputs":[{"name":"","type":"uint256","internalType":"uint256"}],"stateMutability":"view"},{"type":"function","name":"getVotesWithParams","inputs":[{"name":"account","type":"address","internalType":"address"},{"name":"timepoint","type":"uint256","internalType":"uint256"},{"name":"params","type":"bytes","internalType":"bytes"}],"outputs":[{"name":"","type":"uint256","internalType":"uint256"}],"stateMutability":"view"},{"type":"function","name":"hasVoted","inputs":[{"name":"proposalId","type":"uint256","internalType":"uint256"},{"name":"account","type":"address","internalType":"address"}],"outputs":[{"name":"","type":"bool","internalType":"bool"}],"stateMutability":"view"},{"type":"function","name":"hashProposal","inputs":[{"name":"targets","type":"address[]","internalType":"address[]"},{"name":"values","type":"uint256[]","internalType":"uint256[]"},{"name":"calldatas","type":"bytes[]","internalType":"bytes[]"},{"name":"descriptionHash","type":"bytes32","internalType":"bytes32"}],"outputs":[{"name":"","type":"uint256","internalType":"uint256"}],"stateMutability":"pure"},{"type":"function","name":"name","inputs":[],"outputs":[{"name":"","type":"string","internalType":"string"}],"stateMutability":"view"},{"type":"function","name":"nonces","inputs":[{"name":"owner","type":"address","internalType":"address"}],"outputs":[{"name":"","type":"uint256","internalType":"uint256"}],"stateMutability":"view"},{"type":"function","name":"onERC1155BatchReceived","inputs":[{"name":"","type":"address","internalType":"address"},{"name":"","type":"address","internalType":"address"},{"name":"","type":"uint256[]","internalType":"uint256[]"},{"name":"","type":"uint256[]","internalType":"uint256[]"},{"name":"","type":"bytes","internalType":"bytes"}],"outputs":[{"name":"","type":"bytes4","internalType":"bytes4"}],"stateMutability":"nonpayable"},{"type":"function","name":"onERC1155Received","inputs":[{"name":"","type":"address","internalType":"address"},{"name":"","type":"address","internalType":"address"},{"name":"","type":"uint256","internalType":"uint256"},{"name":"","type":"uint256","internalType":"uint256"},{"name":"","type":"bytes","internalType":"bytes"}],"outputs":[{"name":"","type":"bytes4","internalType":"bytes4"}],"stateMutability":"nonpayable"},{"type":"function","name":"onERC721Received","inputs":[{"name":"","type":"address","internalType":"address"},{"name":"","type":"address","internalType":"address"},{"name":"","type":"uint256","internalType":"uint256"},{"name":"","type":"bytes","internalType":"bytes"}],"outputs":[{"name":"","type":"bytes4","internalType":"bytes4"}],"stateMutability":"nonpayable"},{"type":"function","name":"proposalDeadline","inputs":[{"name":"proposalId","type":"uint256","internalType":"uint256"}],"outputs":[{"name":"","type":"uint256","internalType":"uint256"}],"stateMutability":"view"},{"type":"function","name":"proposalEta","inputs":[{"name":"proposalId","type":"uint256","internalType":"uint256"}],"outputs":[{"name":"","type":"uint256","internalType":"uint256"}],"stateMutability":"view"},{"type":"function","name":"proposalNeedsQueuing","inputs":[{"name":"proposalId","type":"uint256","internalType":"uint256"}],"outputs":[{"name":"","type":"bool","internalType":"bool"}],"stateMutability":"view"},{"type":"function","name":"proposalProposer","inputs":[{"name":"proposalId","type":"uint256","internalType":"uint256"}],"outputs":[{"name":"","type":"address","internalType":"address"}],"stateMutability":"view"},{"type":"function","name":"proposalSnapshot","inputs":[{"name":"proposalId","type":"uint256","internalType":"uint256"}],"outputs":[{"name":"","type":"uint256","internalType":"uint256"}],"stateMutability":"view"},{"type":"function","name":"proposalThreshold","inputs":[],"outputs":[{"name":"","type":"uint256","internalType":"uint256"}],"stateMutability":"pure"},{"type":"function","name":"proposalVotes","inputs":[{"name":"proposalId","type":"uint256","internalType":"uint256"}],"outputs":[{"name":"againstVotes","type":"uint256","internalType":"uint256"},{"name":"forVotes","type":"uint256","internalType":"uint256"},{"name":"abstainVotes","type":"uint256","internalType":"uint256"}],"stateMutability":"view"},{"type":"function","name":"propose","inputs":[{"name":"targets","type":"address[]","internalType":"address[]"},{"name":"values","type":"uint256[]","internalType":"uint256[]"},{"name":"calldatas","type":"bytes[]","internalType":"bytes[]"},{"name":"description","type":"string","internalType":"string"}],"outputs":[{"name":"","type":"uint256","internalType":"uint256"}],"stateMutability":"nonpayable"},{"type":"function","name":"queue","inputs":[{"name":"targets","type":"address[]","internalType":"address[]"},{"name":"values","type":"uint256[]","internalType":"uint256[]"},{"name":"calldatas","type":"bytes[]","internalType":"bytes[]"},{"name":"descriptionHash","type":"bytes32","internalType":"bytes32"}],"outputs":[{"name":"","type":"uint256","internalType":"uint256"}],"stateMutability":"nonpayable"},{"type":"function","name":"quorum","inputs":[{"name":"timepoint","type":"uint256","internalType":"uint256"}],"outputs":[{"name":"","type":"uint256","internalType":"uint256"}],"stateMutability":"view"},{"type":"function","name":"quorumDenominator","inputs":[],"outputs":[{"name":"","type":"uint256","internalType":"uint256"}],"stateMutability":"view"},{"type":"function","name":"quorumNumerator","inputs":[{"name":"timepoint","type":"uint256","internalType":"uint256"}],"outputs":[{"name":"","type":"uint256","internalType":"uint256"}],"stateMutability":"view"},{"type":"function","name":"quorumNumerator","inputs":[],"outputs":[{"name":"","type":"uint256","internalType":"uint256"}],"stateMutability":"view"},{"type":"function","name":"relay","inputs":[{"name":"target","type":"address","internalType":"address"},{"name":"value","type":"uint256","internalType":"uint256"},{"name":"data","type":"bytes","internalType":"bytes"}],"outputs":[],"stateMutability":"payable"},{"type":"function","name":"state","inputs":[{"name":"proposalId","type":"uint256","internalType":"uint256"}],"outputs":[{"name":"","type":"uint8","internalType":"enum IGovernor.ProposalState"}],"stateMutability":"view"},{"type":"function","name":"supportsInterface","inputs":[{"name":"interfaceId","type":"bytes4","internalType":"bytes4"}],"outputs":[{"name":"","type":"bool","internalType":"bool"}],"stateMutability":"view"},{"type":"function","name":"timelock","inputs":[],"outputs":[{"name":"","type":"address","internalType":"address"}],"stateMutability":"view"},{"type":"function","name":"token","inputs":[],"outputs":[{"name":"","type":"address","internalType":"contract IERC5805"}],"stateMutability":"view"},{"type":"function","name":"updateQuorumNumerator","inputs":[{"name":"newQuorumNumerator","type":"uint256","internalType":"uint256"}],"outputs":[],"stateMutability":"nonpayable"},{"type":"function","name":"updateTimelock","inputs":[{"name":"newTimelock","type":"address","internalType":"contract TimelockController"}],"outputs":[],"stateMutability":"nonpayable"},{"type":"function","name":"version","inputs":[],"outputs":[{"name":"","type":"string","internalType":"string"}],"stateMutability":"view"},{"type":"function","name":"votingDelay","inputs":[],"outputs":[{"name":"","type":"uint256","internalType":"uint256"}],"stateMutability":"pure"},{"type":"function","name":"votingPeriod","inputs":[],"outputs":[{"name":"","type":"uint256","internalType":"uint256"}],"stateMutability":"pure"},{"type":"event","name":"EIP712DomainChanged","inputs":[],"anonymous":false},{"type":"event","name":"ProposalCanceled","inputs":[{"name":"proposalId","type":"uint256","indexed":false,"internalType":"uint256"}],"anonymous":false},{"type":"event","name":"ProposalCreated","inputs":[{"name":"proposalId","type":"uint256","indexed":false,"internalType":"uint256"},{"name":"proposer","type":"address","indexed":false,"internalType":"address"},{"name":"targets","type":"address[]","indexed":false,"internalType":"address[]"},{"name":"values","type":"uint256[]","indexed":false,"internalType":"uint256[]"},{"name":"signatures","type":"string[]","indexed":false,"internalType":"string[]"},{"name":"calldatas","type":"bytes[]","indexed":false,"internalType":"bytes[]"},{"name":"voteStart","type":"uint256","indexed":false,"internalType":"uint256"},{"name":"voteEnd","type":"uint256","indexed":false,"internalType":"uint256"},{"name":"description","type":"string","indexed":false,"internalType":"string"}],"anonymous":false},{"type":"event","name":"ProposalExecuted","inputs":[{"name":"proposalId","type":"uint256","indexed":false,"internalType":"uint256"}],"anonymous":false},{"type":"event","name":"ProposalQueued","inputs":[{"name":"proposalId","type":"uint256","indexed":false,"internalType":"uint256"},{"name":"etaSeconds","type":"uint256","indexed":false,"internalType":"uint256"}],"anonymous":false},{"type":"event","name":"QuorumNumeratorUpdated","inputs":[{"name":"oldQuorumNumerator","type":"uint256","indexed":false,"internalType":"uint256"},{"name":"newQuorumNumerator","type":"uint256","indexed":false,"internalType":"uint256"}],"anonymous":false},{"type":"event","name":"TimelockChange","inputs":[{"name":"oldTimelock","type":"address","indexed":false,"internalType":"address"},{"name":"newTimelock","type":"address","indexed":false,"internalType":"address"}],"anonymous":false},{"type":"event","name":"VoteCast","inputs":[{"name":"voter","type":"address","indexed":true,"internalType":"address"},{"name":"proposalId","type":"uint256","indexed":false,"internalType":"uint256"},{"name":"support","type":"uint8","indexed":false,"internalType":"uint8"},{"name":"weight","type":"uint256","indexed":false,"internalType":"uint256"},{"name":"reason","type":"string","indexed":false,"internalType":"string"}],"anonymous":false},{"type":"event","name":"VoteCastWithParams","inputs":[{"name":"voter","type":"address","indexed":true,"internalType":"address"},{"name":"proposalId","type":"uint256","indexed":false,"internalType":"uint256"},{"name":"support","type":"uint8","indexed":false,"internalType":"uint8"},{"name":"weight","type":"uint256","indexed":false,"internalType":"uint256"},{"name":"reason","type":"string","indexed":false,"internalType":"string"},{"name":"params","type":"bytes","indexed":false,"internalType":"bytes"}],"anonymous":false},{"type":"error","name":"CheckpointUnorderedInsertion","inputs":[]},{"type":"error","name":"FailedCall","inputs":[]},{"type":"error","name":"GovernorAlreadyCastVote","inputs":[{"name":"voter","type":"address","internalType":"address"}]},{"type":"error","name":"GovernorAlreadyQueuedProposal","inputs":[{"name":"proposalId","type":"uint256","internalType":"uint256"}]},{"type":"error","name":"GovernorDisabledDeposit","inputs":[]},{"type":"error","name":"GovernorInsufficientProposerVotes","inputs":[{"name":"proposer","type":"address","internalType":"address"},{"name":"votes","type":"uint256","internalType":"uint256"},{"name":"threshold","type":"uint256","internalType":"uint256"}]},{"type":"error","name":"GovernorInvalidProposalLength","inputs":[{"name":"targets","type":"uint256","internalType":"uint256"},{"name":"calldatas","type":"uint256","internalType":"uint256"},{"name":"values","type":"uint256","internalType":"uint256"}]},{"type":"error","name":"GovernorInvalidQuorumFraction","inputs":[{"name":"quorumNumerator","type":"uint256","internalType":"uint256"},{"name":"quorumDenominator","type":"uint256","internalType":"uint256"}]},{"type":"error","name":"GovernorInvalidSignature","inputs":[{"name":"voter","type":"address","internalType":"address"}]},{"type":"error","name":"GovernorInvalidVoteParams","inputs":[]},{"type":"error","name":"GovernorInvalidVoteType","inputs":[]},{"type":"error","name":"GovernorInvalidVotingPeriod","inputs":[{"name":"votingPeriod","type":"uint256","internalType":"uint256"}]},{"type":"error","name":"GovernorNonexistentProposal","inputs":[{"name":"proposalId","type":"uint256","internalType":"uint256"}]},{"type":"error","name":"GovernorNotQueuedProposal","inputs":[{"name":"proposalId","type":"uint256","internalType":"uint256"}]},{"type":"error","name":"GovernorOnlyExecutor","inputs":[{"name":"account","type":"address","internalType":"address"}]},{"type":"error","name":"GovernorQueueNotImplemented","inputs":[]},{"type":"error","name":"GovernorRestrictedProposer","inputs":[{"name":"proposer","type":"address","internalType":"address"}]},{"type":"error","name":"GovernorUnableToCancel","inputs":[{"name":"proposalId","type":"uint256","internalType":"uint256"},{"name":"account","type":"address","internalType":"address"}]},{"type":"error","name":"GovernorUnexpectedProposalState","inputs":[{"name":"proposalId","type":"uint256","internalType":"uint256"},{"name":"current","type":"uint8","internalType":"enum IGovernor.ProposalState"},{"name":"expectedStates","type":"bytes32","internalType":"bytes32"}]},{"type":"error","name":"InvalidAccountNonce","inputs":[{"name":"account","type":"address","internalType":"address"},{"name":"currentNonce","type":"uint256","internalType":"uint256"}]},{"type":"error","name":"InvalidShortString","inputs":[]},{"type":"error","name":"SafeCastOverflowedUintDowncast","inputs":[{"name":"bits","type":"uint8","internalType":"uint8"},{"name":"value","type":"uint256","internalType":"uint256"}]},{"type":"error","name":"StringTooLong","inputs":[{"name":"str","type":"string","internalType":"string"}]}],"bytecode":{"object":"0x610180604052346100a05761001b610015610102565b9061016e565b6040516136cc908161093482396080518161321f015260a051816132d6015260c051816131e9015260e0518161326e01526101005181613294015261012051816113110152610140518161133d015261016051818181611595015281816119a001528181611a8301528181611c0601528181611f830152818161219901526125e60152f35b5f80fd5b634e487b7160e01b5f52604160045260245ffd5b601f909101601f19168101906001600160401b038211908210176100db57604052565b6100a4565b604051906100ef6040836100b8565b565b6001600160a01b038116036100a057565b6140009060408238039283825194859261011c82856100b8565b8339810103126100a0576020825192610134846100f1565b015191610140836100f1565b9190565b604051906101536040836100b8565b600a8252565b604051906101686040836100b8565b60018252565b906100ef9161023661017e610144565b602081016926bca3b7bb32b93737b960b11b815261019a610159565b906020820190603160f81b82526101b0846104bc565b610120526101bd836105ac565b6101405283519020918260e05251902080610100524660a0526040519060208201927f8b73c3c69bb8fe3d512ecc4cf759cc79239f7b179b0ffacaa9a75d522b39400f8452604083015260608201524660808201523060a082015260a0815261022760c0826100b8565b5190206080523060c0526102d7565b6001600160a01b03166101605261024b61040f565b6103bc565b90600182811c9216801561027e575b602083101461026a57565b634e487b7160e01b5f52602260045260245ffd5b91607f169161025f565b601f821161029557505050565b5f5260205f20906020601f840160051c830193106102cd575b601f0160051c01905b8181106102c2575050565b5f81556001016102b7565b90915081906102ae565b80519091906001600160401b0381116100db57610300816102f9600354610250565b6003610288565b602092601f821160011461034057610330929382915f92610335575b50508160011b915f199060031b1c19161790565b600355565b015190505f8061031c565b60035f52601f198216937fc2575a0e9e593c00f959f8c92f12db2869c3395a3b0502d05e2516446f71f85b915f5b8681106103a4575083600195961061038c575b505050811b01600355565b01515f1960f88460031b161c191690555f8080610381565b9192602060018192868501518155019401920161036e565b600954604080516001600160a01b03808416825290931660208401819052927f08f74ea46ef7894f65eabfb5e6e695de773a000b47c529ab559178069b2264019190a16001600160a01b03191617600955565b6008548061046f57505f5b6001600160d01b031661042b61069e565b7f0553476bf02ef2726e8ce5ced78d63e26e602e4a2257b1f559418e24b46339979160049161045b9083906107ff565b5050604080519182526020820192909252a1565b805f198101116104a85760085f527ff3f7a9fe364faab93b216da50a3214154f22a0a2b415b23a84c8169e8b636ee2015460301c61041a565b634e487b7160e01b5f52601160045260245ffd5b908151602081105f146104d75750906104d49061071f565b90565b6001600160401b0381116100db576104f9816104f35f54610250565b5f610288565b602092601f821160011461052f57610528929382915f926103355750508160011b915f199060031b1c19161790565b5f5560ff90565b5f8052601f198216937f290decd9548b62a8d60345a988386fc84ba6bc95484008f6362f93160ef3e563915f5b868110610594575083600195961061057c575b505050811b015f5560ff90565b01515f1960f88460031b161c191690555f808061056f565b9192602060018192868501518155019401920161055c565b908151602081105f146105c45750906104d49061071f565b6001600160401b0381116100db576105e8816105e1600154610250565b6001610288565b602092601f821160011461061f57610617929382915f926103355750508160011b915f199060031b1c19161790565b60015560ff90565b60015f52601f198216937fb10e2d527612073b26eecdfd717e6a320cf44b4afac2b0732d9fcbe2b7fa0cf6915f5b868110610686575083600195961061066e575b505050811b0160015560ff90565b01515f1960f88460031b161c191690555f8080610660565b9192602060018192868501518155019401920161064d565b610160516040516324776b7d60e21b815290602090829060049082906001600160a01b03165afa5f91816106dc575b506104d457506104d443610904565b9091506020813d602011610717575b816106f8602093836100b8565b810103126100a0575165ffffffffffff811681036100a057905f6106cd565b3d91506106eb565b601f81511161074a57602081519101516020821061073b571790565b5f198260200360031b1b161790565b604460209160405192839163305a27a960e01b83528160048401528051918291826024860152018484015e5f828201840152601f01601f19168101030190fd5b5f198101919082116104a857565b908154680100000000000000008110156100db57600181018084558110156107eb575f9283526020928390208251929093015160301b65ffffffffffff191665ffffffffffff9290921691909117910155565b634e487b7160e01b5f52603260045260245ffd5b60085491929180156108db576108176108409161078a565b60085f527ff3f7a9fe364faab93b216da50a3214154f22a0a2b415b23a84c8169e8b636ee30190565b90815461085c6108558265ffffffffffff1690565b9160301c90565b9265ffffffffffff8084169216918083116108cc578692036108965761014092509065ffffffffffff82549181199060301b169116179055565b5050610140906108b56108a76100e0565b65ffffffffffff9092168252565b6001600160d01b03851660208201525b6008610798565b632520601d60e01b5f5260045ffd5b506108ff906108eb6108a76100e0565b6001600160d01b03841660208201526108c5565b5f9190565b65ffffffffffff811161091c5765ffffffffffff1690565b6306dfcc6560e41b5f52603060045260245260445ffdfe60806040526004361015610022575b3615610018575f80fd5b61002061220a565b005b5f3560e01c806301ffc9a7146102fc57806302a251a3146102f757806306f3f9e6146102f257806306fdde03146102ed578063143489d0146102e8578063150b7a02146102e3578063160cbed7146102de5780632656227d146102d95780632d63f693146102d45780632fe3e261146102cf5780633932abb1146102ca5780633e4f49e6146102c557806343859632146102c0578063452115d6146102bb5780634bf5d7e9146102b6578063544ffc9c146102b157806354fd4d50146102ac57806356781388146102a75780635b8d0e0d146102a25780635f398a141461029d57806360c4247f146102985780637b3c71d3146102935780637d5e81e21461028e5780637ecebe001461028957806384b0196e146102845780638ff262e31461027f57806391ddadf41461027a57806397c3d334146102755780639a802a6d14610270578063a7713a701461026b578063a890c91014610266578063a8f8a66814610243578063a9a9529414610261578063ab58fb8e1461025c578063b58131b014610257578063bc197c8114610252578063c01f9e371461024d578063c28bc2fa14610248578063c59057e414610243578063d33219b41461023e578063dd4e2ba514610239578063deaaa7cc14610234578063eb9019d41461022f578063f23a6e611461022a578063f8ce560a146102255763fc0c546a0361000e57611a6e565b611a50565b6119e3565b61193e565b611904565b6118a5565b61187d565b61169b565b6117eb565b6117cd565b611720565b611706565b6116d3565b6116b7565b611623565b6115f8565b611523565b611508565b6114de565b6113c9565b6112f9565b61128b565b6111dd565b611188565b61116a565b6110f5565b61104f565b610fe1565b610f8e565b610f4d565b610f1e565b610da9565b610d54565b610d25565b610cd8565b610c9e565b610c69565b610b09565b6108c2565b61067e565b610584565b6104aa565b6103ac565b610390565b346103825760203660031901126103825760043563ffffffff60e01b8116809103610382576366defe7760e11b8114908115610371575b8115610360575b811561034f575b506040519015158152602090f35b6301ffc9a760e01b1490505f610341565b630271189760e51b8114915061033a565b6332a2ad4360e11b81149150610333565b5f80fd5b5f91031261038257565b34610382575f36600319011261038257602060405161c4e08152f35b34610382576020366003190112610382576004356103c8612220565b6064811161045b576001600160d01b036103e0612982565b16906103ea611f6e565b916001600160d01b038211610443577f0553476bf02ef2726e8ce5ced78d63e26e602e4a2257b1f559418e24b46339979261042f906001600160d01b038416906130c2565b5050604080519182526020820192909252a1005b506306dfcc6560e41b5f5260d060045260245260445ffd5b63243e544560e01b5f52600452606460245260445ffd5b805180835260209291819084018484015e5f828201840152601f01601f1916010190565b9060206104a7928181520190610472565b90565b34610382575f366003190112610382576040515f6003546104ca81611ab2565b80845290600181169081156105605750600114610502575b6104fe836104f2818503826105db565b60405191829182610496565b0390f35b60035f9081527fc2575a0e9e593c00f959f8c92f12db2869c3395a3b0502d05e2516446f71f85b939250905b808210610546575090915081016020016104f26104e2565b91926001816020925483858801015201910190929161052e565b60ff191660208086019190915291151560051b840190910191506104f290506104e2565b34610382576020366003190112610382576004355f526004602052602060018060a01b0360405f205416604051908152f35b6001600160a01b0381160361038257565b634e487b7160e01b5f52604160045260245ffd5b90601f801991011681019081106001600160401b038211176105fc57604052565b6105c7565b604051906106106040836105db565b565b6001600160401b0381116105fc57601f01601f191660200190565b92919261063982610612565b9161064760405193846105db565b829481845281830111610382578281602093845f960137010152565b9080601f83011215610382578160206104a79335910161062d565b346103825760803660031901126103825761069a6004356105b6565b6106a56024356105b6565b6064356001600160401b038111610382576106c4903690600401610663565b50600954306001600160a01b03909116036106eb57604051630a85bd0160e11b8152602090f35b637485328f60e11b5f5260045ffd5b6001600160401b0381116105fc5760051b60200190565b9080601f83011215610382578135610728816106fa565b9261073660405194856105db565b81845260208085019260051b82010192831161038257602001905b82821061075e5750505090565b60208091833561076d816105b6565b815201910190610751565b9080601f8301121561038257813561078f816106fa565b9261079d60405194856105db565b81845260208085019260051b82010192831161038257602001905b8282106107c55750505090565b81358152602091820191016107b8565b9080601f830112156103825781356107ec816106fa565b926107fa60405194856105db565b81845260208085019260051b820101918383116103825760208201905b83821061082657505050505090565b81356001600160401b0381116103825760209161084887848094880101610663565b815201910190610817565b6080600319820112610382576004356001600160401b038111610382578161087d91600401610711565b916024356001600160401b038111610382578261089c91600401610778565b91604435906001600160401b038211610382576108bb916004016107d5565b9060643590565b34610382576108d036610853565b90926108de82858584612106565b936108e8856122c8565b50600954610906906001600160a01b03165b6001600160a01b031690565b936040519363793d064960e11b8552602085600481895afa948515610ab4575f95610ae8575b503060601b6bffffffffffffffffffffffff191618946020604051809263b1c5f42760e01b825281806109658b89898c60048601612adf565b03915afa908115610ab4575f91610ab9575b5061098a875f52600a60205260405f2090565b556009546109a0906001600160a01b03166108fa565b90813b15610382575f80946109cc87604051998a97889687956308f2a0bb60e41b875260048701612b24565b03925af1908115610ab4576109f0926109eb92610a9a575b5042612845565b612ecf565b9065ffffffffffff821615610a8b577f9a2e42fd6722813d69113e7d0079d3d940171428df7373df9c7f7617cfda2892610a7883610a596104fe956001610a3f875f52600460205260405f2090565b019065ffffffffffff1665ffffffffffff19825416179055565b6040805185815265ffffffffffff909216602083015290918291820190565b0390a16040519081529081906020820190565b634844252360e11b5f5260045ffd5b80610aa85f610aae936105db565b80610386565b5f6109e4565b611b98565b610adb915060203d602011610ae1575b610ad381836105db565b81019061216d565b5f610977565b503d610ac9565b610b0291955060203d602011610ae157610ad381836105db565b935f61092c565b610b1236610853565b91610b1f83838387612106565b936020610b2d603087612348565b50610b56610b43875f52600460205260405f2090565b805460ff60f01b1916600160f01b179055565b600954306001600160a01b0390911603610c01575b5091849391610b7d936104fe96612b81565b6009543090610b94906001600160a01b03166108fa565b141580610bdc575b610bd3575b6040518181527f712ae1383f79ac853f8d882153778e0260ef8f03b504e2866e0593e04d2b291f908060208101610a78565b5f600555610ba1565b50610bfc610bf86005546001600160801b0381169060801c1490565b1590565b610b9c565b949091935f5b8351811015610c5b5760019030610c316108fa610c248489611b7f565b516001600160a01b031690565b14610c3d575b01610c07565b610c56610c4a8288611b7f565b51898151910120612386565b610c37565b5090945092906104fe610b6b565b34610382576020366003190112610382576004355f526004602052602065ffffffffffff60405f205460a01c16604051908152f35b34610382575f3660031901126103825760206040517f3e83946653575f9a39005e1545185629e92736b7528ab20ca3816f315424a8118152f35b34610382575f366003190112610382576020604051611c208152f35b634e487b7160e01b5f52602160045260245ffd5b60081115610d1257565b610cf4565b6008811015610d1257602452565b3461038257602036600319011261038257610d416004356123f5565b6040516008821015610d12576020918152f35b3461038257604036600319011261038257602060ff610d9d602435600435610d7b826105b6565b5f5260078452600360405f20019060018060a01b03165f5260205260405f2090565b54166040519015158152f35b3461038257610db736610853565b91610dc483838387612106565b93610dce856123f5565b6008811015610d12571580610f01575b15610eea57610ded9450612106565b610df8603b82612348565b50610e23610e0e825f52600460205260405f2090565b80546001600160f81b0316600160f81b179055565b6040518181527f789cf55be980739dad1d0699b93b58e806b51c9d96619bfa8fe0a28abaa7b30c90602090a1610e61815f52600a60205260405f2090565b549081610e74575b604051908152602090f35b600954610e89906001600160a01b03166108fa565b803b156103825760405163c4d252f560e01b815260048101939093525f908390602490829084905af1918215610ab4576104fe92610ed6575b505f818152600a6020526040812055610e69565b80610aa85f610ee4936105db565b5f610ec2565b84638fe5d8a960e01b5f526004523360245260445ffd5b50845f52600460205260018060a01b0360405f2054163314610dde565b34610382575f366003190112610382576104fe610f39611bf2565b604051918291602083526020830190610472565b34610382576020366003190112610382576004355f526007602052606060405f20805490600260018201549101549060405192835260208301526040820152f35b34610382575f366003190112610382576104fe604051610faf6040826105db565b60018152603160f81b6020820152604051918291602083526020830190610472565b6024359060ff8216820361038257565b3461038257604036600319011261038257602061101a600435611002610fd1565b6040519161101085846105db565b5f83523390612502565b604051908152f35b9181601f84011215610382578235916001600160401b038311610382576020838186019501011161038257565b346103825760c03660031901126103825760043561106b610fd1565b9060443590611079826105b6565b6064356001600160401b03811161038257611098903690600401611022565b6084356001600160401b038111610382576110b7903690600401610663565b9160a435946001600160401b038611610382576104fe966110df6110e5973690600401610663565b95611cc1565b6040519081529081906020820190565b3461038257608036600319011261038257600435611111610fd1565b906044356001600160401b03811161038257611131903690600401611022565b9190926064356001600160401b03811161038257610e699461115a611162923690600401610663565b94369161062d565b91339061257f565b3461038257602036600319011261038257602061101a6004356126ba565b34610382576060366003190112610382576004356111a4610fd1565b90604435906001600160401b038211610382576020926111d56111ce61101a943690600401611022565b369161062d565b913390612502565b34610382576080366003190112610382576004356001600160401b0381116103825761120d903690600401610711565b6024356001600160401b0381116103825761122c903690600401610778565b906044356001600160401b0381116103825761124c9036906004016107d5565b90606435916001600160401b0383116103825736602384011215610382576104fe936112856110e594369060248160040135910161062d565b92611dc5565b34610382576020366003190112610382576004356112a8816105b6565b60018060a01b03165f526002602052602060405f2054604051908152f35b90602080835192838152019201905f5b8181106112e35750505090565b82518452602093840193909201916001016112d6565b34610382575f3660031901126103825761139b6113357f0000000000000000000000000000000000000000000000000000000000000000612fba565b6104fe6113617f0000000000000000000000000000000000000000000000000000000000000000613019565b6113a9604051916113736020846105db565b5f808452366020850137604051958695600f60f81b875260e0602088015260e0870190610472565b908582036040870152610472565b904660608501523060808501525f60a085015283820360c08501526112c6565b34610382576080366003190112610382576004356113e5610fd1565b90604435916113f3836105b6565b6064356001600160401b03811161038257610bf86114186114a6923690600401610663565b6001600160a01b0386165f9081526002602052604090208054600181019091556114a09060405160208101917ff2aad550cf55f045cb27e9c559f9889fdfb6e6cdaa032301d6ea397784ae51d7835288604083015260ff8816606083015260018060a01b038a16608083015260a082015260a0815261149860c0826105db565b519020612d19565b86612d49565b6114c157906110e5916104fe936114bb611ba3565b92612502565b6394ab6c0760e01b5f526001600160a01b03831660045260245b5ffd5b34610382575f3660031901126103825760206114f8611f6e565b65ffffffffffff60405191168152f35b34610382575f36600319011261038257602060405160648152f35b3461038257606036600319011261038257600435611540816105b6565b6024356044356001600160401b03811161038257611562903690600401610663565b50604051630748d63560e31b81526001600160a01b039283166004820152602481019190915290602090829060449082907f0000000000000000000000000000000000000000000000000000000000000000165afa8015610ab4576104fe915f916115d9575b506040519081529081906020820190565b6115f2915060203d602011610ae157610ad381836105db565b5f6115c8565b34610382575f3660031901126103825760206001600160d01b0361161a612982565b16604051908152f35b3461038257602036600319011261038257600435611640816105b6565b611648612220565b600954604080516001600160a01b03808416825290931660208401819052927f08f74ea46ef7894f65eabfb5e6e695de773a000b47c529ab559178069b2264019190a16001600160a01b03191617600955005b3461038257602061101a6116ae36610853565b92919091612106565b3461038257602036600319011261038257602060405160018152f35b3461038257602036600319011261038257602061101a6004355f52600460205265ffffffffffff600160405f2001541690565b34610382575f3660031901126103825760206040515f8152f35b346103825760a03660031901126103825761173c6004356105b6565b6117476024356105b6565b6044356001600160401b03811161038257611766903690600401610778565b506064356001600160401b03811161038257611786903690600401610778565b506084356001600160401b038111610382576117a6903690600401610663565b506104fe6117b2612007565b6040516001600160e01b031990911681529081906020820190565b3461038257602036600319011261038257602061101a600435612026565b606036600319011261038257600435611803816105b6565b6024356044356001600160401b03811161038257610020925f9261182c84933690600401611022565b9190611836612220565b826040519384928337810185815203925af13d15611875573d9061185982610612565b9161186760405193846105db565b82523d5f602084013e6129c6565b6060906129c6565b34610382575f366003190112610382576009546040516001600160a01b039091168152602090f35b34610382575f366003190112610382576104fe6040516118c66040826105db565b602081527f737570706f72743d627261766f2671756f72756d3d666f722c6162737461696e6020820152604051918291602083526020830190610472565b34610382575f3660031901126103825760206040517ff2aad550cf55f045cb27e9c559f9889fdfb6e6cdaa032301d6ea397784ae51d78152f35b346103825760403660031901126103825760043561195b816105b6565b6024355f60405161196d6020826105db565b52604051630748d63560e31b81526001600160a01b039283166004820152602481019190915290602090829060449082907f0000000000000000000000000000000000000000000000000000000000000000165afa8015610ab4576104fe915f916115d957506040519081529081906020820190565b346103825760a0366003190112610382576119ff6004356105b6565b611a0a6024356105b6565b6084356001600160401b03811161038257611a29903690600401610663565b50600954306001600160a01b03909116036106eb5760405163f23a6e6160e01b8152602090f35b3461038257602036600319011261038257602061101a60043561217c565b34610382575f366003190112610382576040517f00000000000000000000000000000000000000000000000000000000000000006001600160a01b03168152602090f35b90600182811c92168015611ae0575b6020831014611acc57565b634e487b7160e01b5f52602260045260245ffd5b91607f1691611ac1565b5f9291815491611af983611ab2565b8083529260018116908115611b4e5750600114611b1557505050565b5f9081526020812093945091925b838310611b34575060209250010190565b600181602092949394548385870101520191019190611b23565b915050602093945060ff929192191683830152151560051b010190565b634e487b7160e01b5f52603260045260245ffd5b8051821015611b935760209160051b010190565b611b6b565b6040513d5f823e3d90fd5b60405190611bb26020836105db565b5f8252565b60405190611bc66040836105db565b601d82527f6d6f64653d626c6f636b6e756d6265722666726f6d3d64656661756c740000006020830152565b604051634bf5d7e960e01b81525f816004817f00000000000000000000000000000000000000000000000000000000000000006001600160a01b03165afa5f9181611c46575b506104a757506104a7611bb7565b9091503d805f833e611c5881836105db565b810190602081830312610382578051906001600160401b038211610382570181601f8201121561038257805190611c8e82610612565b92611c9c60405194856105db565b8284526020838301011161038257815f9260208093018386015e83010152905f611c38565b939092919695610bf8611d7a91611d748a611cdd36878961062d565b6001600160a01b0382165f90815260026020526040902080546001810190915590602081519101208b5160208d0120906040519260208401947f3e83946653575f9a39005e1545185629e92736b7528ab20ca3816f315424a81186528d604086015260ff8d16606086015260018060a01b0316608085015260a084015260c083015260e082015260e08152611498610100826105db565b8a612d49565b611d95576104a7959691611d8f91369161062d565b9261257f565b6394ab6c0760e01b5f526001600160a01b03871660045260245ffd5b634e487b7160e01b5f52601160045260245ffd5b909192611dd281336127b1565b15611f5b57611de981516020830120858585612106565b938251845190818114801590611f50575b8015611f48575b611f2957505065ffffffffffff611e32611e23875f52600460205260405f2090565b5460a01c65ffffffffffff1690565b16611f0c577f7d84a6263ae0d98d3329bd7b46bb4e8d6f98cd35a7adb45c274c8b7fd5ebd5e0939291611f0691611e7765ffffffffffff611e71611f6e565b16612827565b611ee3611e8c895f52600460205260405f2090565b80546001600160a01b03191633178155611ecc611ea884612ecf565b825465ffffffffffff60a01b191660a09190911b65ffffffffffff60a01b16178255565b805463ffffffff60d01b191661062760d51b179055565b611eed8551612852565b91611ef782612836565b92604051978897338c8a61289b565b0390a190565b6114db85611f19816123f5565b6331b75e4d60e01b5f52906122af565b9151630447b05d60e41b5f908152600493909352602452604452606490fd5b508015611e01565b508251811415611dfa565b63d9b3955760e01b5f523360045260245ffd5b6040516324776b7d60e21b81526020816004817f00000000000000000000000000000000000000000000000000000000000000006001600160a01b03165afa5f9181611fc4575b506104a757506104a743612ecf565b9091506020813d602011611fff575b81611fe0602093836105db565b81010312610382575165ffffffffffff8116810361038257905f611fb5565b3d9150611fd3565b600954306001600160a01b03909116036106eb5763bc197c8160e01b90565b805f52600460205265ffffffffffff60405f205460a01c16905f52600460205263ffffffff60405f205460d01c160165ffffffffffff811161206d5765ffffffffffff1690565b611db1565b90602080835192838152019201905f5b81811061208f5750505090565b82516001600160a01b0316845260209384019390920191600101612082565b9080602083519182815201916020808360051b8301019401925f915b8383106120d957505050505090565b90919293946020806120f7600193601f198682030187528951610472565b970193019301919392906120ca565b9290612167916121536121419460405195869461212f602087019960808b5260a0880190612072565b868103601f19016040880152906112c6565b848103601f19016060860152906120ae565b90608083015203601f1981018352826105db565b51902090565b90816020910312610382575190565b604051632394e7a360e21b815260048101829052906020826024817f00000000000000000000000000000000000000000000000000000000000000006001600160a01b03165afa908115610ab4576104a7925f926121e5575b506121df906126ba565b90612a0a565b6121df9192506122039060203d602011610ae157610ad381836105db565b91906121d5565b600954306001600160a01b03909116036106eb57565b600954336001600160a01b039091160361228957600954306001600160a01b039091160361224a57565b61225336610612565b61226060405191826105db565b3681526020810190365f83375f602036830101525190205b80612281612a76565b036122785750565b6347096e4760e01b5f523360045260245ffd5b6008811015610d125760ff600191161b90565b600452606491906008811015610d12576024525f604452565b6122d1816123f5565b9060106122dd8361229c565b16156122e7575090565b6331b75e4d60e01b5f526004526122fe9150610d17565b601060445260645ffd5b612311816123f5565b90600261231d8361229c565b1615612327575090565b6331b75e4d60e01b5f5260045261233e9150610d17565b600260445260645ffd5b90612352826123f5565b918161235d8461229c565b161561236857505090565b6331b75e4d60e01b5f5260045261237e82610d17565b60445260645ffd5b600554908160801c6001600160801b03806001830116931683146123cb575f52600660205260405f20556001600160801b036005549181199060801b16911617600555565b634e487b715f5260416020526024601cfd5b90816020910312610382575180151581036103825790565b6123fe81612c0e565b9061240882610d08565b600582036124fe5761242391505f52600a60205260405f2090565b54600954612439906001600160a01b03166108fa565b604051632c258a9f60e11b815260048101839052602081602481855afa908115610ab4575f916124df575b5015612471575050600590565b604051632ab0f52960e01b81526004810192909252602090829060249082905afa908115610ab4575f916124b0575b50156124ab57600790565b600290565b6124d2915060203d6020116124d8575b6124ca81836105db565b8101906123dd565b5f6124a0565b503d6124c0565b6124f8915060203d6020116124d8576124ca81836105db565b5f612464565b5090565b916104a79391604051936125176020866105db565b5f855261257f565b93909260ff61254b936104a797958752166020860152604085015260a0606085015260a0840190610472565b916080818403910152610472565b909260ff6080936104a79695845216602083015260408201528160608201520190610472565b9291909261258c81612308565b50805f52600460205265ffffffffffff6125b360405f2065ffffffffffff905460a01c1690565b1693604051630748d63560e31b815260018060a01b03821695866004830152602482015260208160448160018060a01b037f0000000000000000000000000000000000000000000000000000000000000000165afa908115610ab4576126239285915f93612699575b5084612db7565b948051155f1461266657506126607fb8e138887d0aa13bab447e82de9d5c1777041ecd21ca36ba824ff1e6c07ddda4938660405194859485612559565b0390a290565b612660907fe2babfbac5889a709b63bb7f598b324e08bc5a4fb9ec647fb3cbc9ec07eb871294876040519586958661251f565b6126b391935060203d602011610ae157610ad381836105db565b915f61261c565b65ffffffffffff90806126cd6008612e94565b9491501611155f146126e757505b6001600160d01b031690565b6126f19150612ecf565b600854905f82916005841161275d575b61270d93506008613494565b8061271957505f6126db565b61275161272861275892612967565b60085f527ff3f7a9fe364faab93b216da50a3214154f22a0a2b415b23a84c8169e8b636ee30190565b5460301c90565b6126db565b919261276881613336565b810390811161206d5761270d9360085f5265ffffffffffff8260205f2001541665ffffffffffff8516105f1461279f575091612701565b9291506127ab90612819565b90612701565b908051603481106128115760131981830101516001600160b01b03191669dc8f8d908f908c9a8dc360b01b01612811576127f091602919820190612f2a565b90159182156127fe57505090565b6001600160a01b03918216911614919050565b505050600190565b906001820180921161206d57565b90611c20820180921161206d57565b9061c4e0820180921161206d57565b9190820180921161206d57565b9061285c826106fa565b61286960405191826105db565b828152809261287a601f19916106fa565b01905f5b82811061288a57505050565b80606060208093850101520161287e565b9599989697949391926128dc936128ce92885260018060a01b031660208801526101206040880152610120870190612072565b9085820360608701526112c6565b968388036080850152815180895260208901906020808260051b8c01019401915f905b82821061293b57505050506104a7969750906129229184820360a08601526120ae565b9360c083015260e0820152610100818403910152610472565b909192946020806129596001938f601f199082030186528951610472565b9701920192019092916128ff565b5f1981019190821161206d57565b9190820391821161206d57565b6008548061298f57505f90565b805f1981011161206d5760085f527ff3f7a9fe364faab93b216da50a3214154f22a0a2b415b23a84c8169e8b636ee2015460301c90565b156129ce5790565b8051156129dd57602081519101fd5b63d6bda27560e01b5f5260045ffd5b81156129f6570490565b634e487b7160e01b5f52601260045260245ffd5b5f19828209908281029182808210910303908115612a6b578160641115612a64577f5c28f5c28f5c28f5c28f5c28f5c28f5c28f5c28f5c28f5c28f5c28f5c28f5c29936064910990828211900360fe1b910360021c170290565b6011612b71565b505060649004919050565b600554906001600160801b0382169160801c8214612acd57815f5260066020526001600160801b0380600160405f2054948281165f5260066020525f60408120550116166001600160801b03196005541617600555565b634e487b715f5260316020526024601cfd5b949392612b0b608093612afd612b199460a08a5260a08a0190612072565b9088820360208a01526112c6565b9086820360408801526120ae565b935f60608201520152565b9192612b5360a094612b45612b61949998979960c0875260c0870190612072565b9085820360208701526112c6565b9083820360408501526120ae565b945f606083015260808201520152565b634e487b715f526020526024601cfd5b60095490949192916001600160a01b03909116906bffffffffffffffffffffffff193060601b16823b1561038257612bd35f956040519788968795869563e38335e560e01b8752189260048601612adf565b039134905af18015610ab457612bf5575b505f908152600a6020526040812055565b80612c015f80936105db565b800312610382575f612be4565b612c20815f52600460205260405f2090565b5460f881901c9060f01c60ff16612d1257612d0c57612c58612c4d611e23835f52600460205260405f2090565b65ffffffffffff1690565b8015612cf857612c69612c4d611f6e565b80911015612cf257612c7a82612026565b10612c855750600190565b612c91610bf8826131a2565b8015612ccf575b15612ca35750600390565b612cc1905f52600460205265ffffffffffff600160405f2001541690565b612cca57600490565b600590565b50612ced610bf8825f52600760205260405f20600181015490541090565b612c98565b50505f90565b636ad0607560e01b5f52600482905260245ffd5b50600290565b5050600790565b604290612d246131e6565b906040519161190160f01b8352600283015260228201522090565b60041115610d1257565b9190823b612d715790612d5b916132fc565b50612d6581612d3f565b1591826127fe57505090565b916020926064835f94519060405193630b135d3f60e11b855260048501526040602485015286820190604485015e01915afa630b135d3f60e11b5f5114601f3d11161690565b612dcc909291925f52600760205260405f2090565b9160038301612df5612dee83839060018060a01b03165f5260205260405f2090565b5460ff1690565b612e7857612e1960ff9392612e26929060018060a01b03165f5260205260405f2090565b805460ff19166001179055565b1680612e3d5750612e38828254612845565b905590565b60018103612e545750600101612e38828254612845565b600203612e6957600201612e38828254612845565b6303599be160e11b5f5260045ffd5b6371c6af4960e01b5f526001600160a01b03821660045260245ffd5b80549081612ea65750505f905f905f90565b815f1981011161206d575f525f199060205f2001015460019165ffffffffffff82169160301c90565b65ffffffffffff8111612ee75765ffffffffffff1690565b6306dfcc6560e41b5f52603060045260245260445ffd5b908160011b918083046002149015171561206d57565b908160041b918083046010149015171561206d57565b9190825182118015612fb1575b612f8a57612f4481612819565b821180612f93575b612f57901515612efe565b6028018060281161206d57612f6c8284612975565b03612f8a57612f7a926134f8565b90916001600160a01b0390911690565b5050505f905f90565b50602081840101516001600160f01b03191661060f60f31b14612f4c565b50818111612f37565b60ff81146130005760ff811690601f8211612ff15760405191612fde6040846105db565b6020808452838101919036833783525290565b632cd44ac360e21b5f5260045ffd5b506040516104a781613012815f611aea565b03826105db565b60ff811461303d5760ff811690601f8211612ff15760405191612fde6040846105db565b506040516104a781613012816001611aea565b908154600160401b8110156105fc5760018101808455811015611b9357610610925f5260205f2001906130a065ffffffffffff825116839065ffffffffffff1665ffffffffffff19825416179055565b60200151815465ffffffffffff1660309190911b65ffffffffffff1916179055565b6008549192918015613179576127286130da91612967565b9081546130f66130ef8265ffffffffffff1690565b9160301c90565b9265ffffffffffff80841692169180831161316a578692036131345761313092509065ffffffffffff82549181199060301b169116179055565b9190565b505061313090613153613145610601565b65ffffffffffff9092168252565b6001600160d01b03851660208201525b6008613050565b632520601d60e01b5f5260045ffd5b5061319d90613189613145610601565b6001600160d01b0384166020820152613163565b5f9190565b805f52600760205260405f20905f5260046020526131ce65ffffffffffff60405f205460a01c1661217c565b60026001830154920154820180921161206d57111590565b307f00000000000000000000000000000000000000000000000000000000000000006001600160a01b031614806132d3575b15613241577f000000000000000000000000000000000000000000000000000000000000000090565b60405160208101907f8b73c3c69bb8fe3d512ecc4cf759cc79239f7b179b0ffacaa9a75d522b39400f82527f000000000000000000000000000000000000000000000000000000000000000060408201527f000000000000000000000000000000000000000000000000000000000000000060608201524660808201523060a082015260a0815261216760c0826105db565b507f00000000000000000000000000000000000000000000000000000000000000004614613218565b815191906041830361332c576133259250602082015190606060408401519301515f1a906135a2565b9192909190565b50505f9160029190565b60018111156104a757806001600160801b821015613457575b6133fd6133f36133e96133df6133d56133cb6133ba6134049760048a600160401b6134099c101561344a575b64010000000081101561343d575b62010000811015613430575b610100811015613423575b6010811015613416575b101561340e575b60030260011c90565b6133c4818b6129ec565b0160011c90565b6133c4818a6129ec565b6133c481896129ec565b6133c481886129ec565b6133c481876129ec565b6133c481866129ec565b80936129ec565b821190565b900390565b60011b6133b1565b60041c9160021b916133aa565b60081c9160041b916133a0565b60101c9160081b91613395565b60201c9160101b91613389565b60401c9160201b9161337b565b50506134096134046133fd6133f36133e96133df6133d56133cb6133ba61347e8a60801c90565b9850600160401b975061334f9650505050505050565b91905b8382106134a45750505090565b9091928083169080841860011c820180921161206d57845f5265ffffffffffff8260205f2001541665ffffffffffff8416105f146134e65750925b9190613497565b9392506134f290612819565b916134df565b92909261350484612819565b831180613584575b61351e61352591949293941515612efe565b5f95612845565b915b8183106135375750505060019190565b9092919360ff6135586135536020888601015160ff60f81b1690565b613624565b1690600f8211613579579061356e600192612f14565b019401919290613527565b505f94508493505050565b50602084820101516001600160f01b03191661060f60f31b1461350c565b91907f7fffffffffffffffffffffffffffffff5d576e7357a4501ddfe92f46681b20a08411613619579160209360809260ff5f9560405194855216868401526040830152606082015282805260015afa15610ab4575f516001600160a01b0381161561360f57905f905f90565b505f906001905f90565b5050505f9160039190565b60f81c602f81118061368c575b1561364057602f190160ff1690565b6060811180613682575b15613659576056190160ff1690565b6040811180613678575b15613672576036190160ff1690565b5060ff90565b5060478110613663565b506067811061364a565b50603a811061363156fea2646970667358221220e74a0c3a77786ad16073b60c4ca6190aac2919d81e43f2c3dd7181a24303430a64736f6c634300081c0033","linkReferences":{}},"methodIdentifiers":{"BALLOT_TYPEHASH()":"deaaa7cc","CLOCK_MODE()":"4bf5d7e9","COUNTING_MODE()":"dd4e2ba5","EXTENDED_BALLOT_TYPEHASH()":"2fe3e261","cancel(address[],uint256[],bytes[],bytes32)":"452115d6","castVote(uint256,uint8)":"56781388","castVoteBySig(uint256,uint8,address,bytes)":"8ff262e3","castVoteWithReason(uint256,uint8,string)":"7b3c71d3","castVoteWithReasonAndParams(uint256,uint8,string,bytes)":"5f398a14","castVoteWithReasonAndParamsBySig(uint256,uint8,address,string,bytes,bytes)":"5b8d0e0d","clock()":"91ddadf4","eip712Domain()":"84b0196e","execute(address[],uint256[],bytes[],bytes32)":"2656227d","getProposalId(address[],uint256[],bytes[],bytes32)":"a8f8a668","getVotes(address,uint256)":"eb9019d4","getVotesWithParams(address,uint256,bytes)":"9a802a6d","hasVoted(uint256,address)":"43859632","hashProposal(address[],uint256[],bytes[],bytes32)":"c59057e4","name()":"06fdde03","nonces(address)":"7ecebe00","onERC1155BatchReceived(address,address,uint256[],uint256[],bytes)":"bc197c81","onERC1155Received(address,address,uint256,uint256,bytes)":"f23a6e61","onERC721Received(address,address,uint256,bytes)":"150b7a02","proposalDeadline(uint256)":"c01f9e37","proposalEta(uint256)":"ab58fb8e","proposalNeedsQueuing(uint256)":"a9a95294","proposalProposer(uint256)":"143489d0","proposalSnapshot(uint256)":"2d63f693","proposalThreshold()":"b58131b0","proposalVotes(uint256)":"544ffc9c","propose(address[],uint256[],bytes[],string)":"7d5e81e2","queue(address[],uint256[],bytes[],bytes32)":"160cbed7","quorum(uint256)":"f8ce560a","quorumDenominator()":"97c3d334","quorumNumerator()":"a7713a70","quorumNumerator(uint256)":"60c4247f","relay(address,uint256,bytes)":"c28bc2fa","state(uint256)":"3e4f49e6","supportsInterface(bytes4)":"01ffc9a7","timelock()":"d33219b4","token()":"fc0c546a","updateQuorumNumerator(uint256)":"06f3f9e6","updateTimelock(address)":"a890c910","version()":"54fd4d50","votingDelay()":"3932abb1","votingPeriod()":"02a251a3"},"id":192}