{"abi":[{"type":"function","name":"get","inputs":[],"outputs":[{"name":"","type":"bool","internalType":"bool"}],"stateMutability":"pure"},{"type":"function","name":"initialize","inputs":[{"name":"_value","type":"uint256","internalType":"uint256"},{"name":"_text","type":"string","internalType":"string"},{"name":"_values","type":"uint256[]","internalType":"uint256[]"}],"outputs":[],"stateMutability":"nonpayable"},{"type":"function","name":"initializeNonPayable","inputs":[],"outputs":[],"stateMutability":"nonpayable"},{"type":"function","name":"initializeNonPayableWithValue","inputs":[{"name":"_value","type":"uint256","internalType":"uint256"}],"outputs":[],"stateMutability":"nonpayable"},{"type":"function","name":"initializePayable","inputs":[],"outputs":[],"stateMutability":"payable"},{"type":"function","name":"initializePayableWithValue","inputs":[{"name":"_value","type":"uint256","internalType":"uint256"}],"outputs":[],"stateMutability":"payable"},{"type":"function","name":"reverts","inputs":[],"outputs":[],"stateMutability":"pure"},{"type":"function","name":"text","inputs":[],"outputs":[{"name":"","type":"string","internalType":"string"}],"stateMutability":"view"},{"type":"function","name":"unsafeOverrideAdmin","inputs":[{"name":"newAdmin","type":"address","internalType":"address"}],"outputs":[],"stateMutability":"nonpayable"},{"type":"function","name":"value","inputs":[],"outputs":[{"name":"","type":"uint256","internalType":"uint256"}],"stateMutability":"view"},{"type":"function","name":"values","inputs":[{"name":"","type":"uint256","internalType":"uint256"}],"outputs":[{"name":"","type":"uint256","internalType":"uint256"}],"stateMutability":"view"},{"type":"function","name":"version","inputs":[],"outputs":[{"name":"","type":"string","internalType":"string"}],"stateMutability":"pure"}],"bytecode":{"object":"0x60808060405234601557610717908161001a8239f35b5f80fdfe6080806040526004361015610012575f80fd5b5f3560e01c90816319af86e7146105875781631f1bd692146104c757508063227367d5146104b15780633bccbbc91461045c5780633fa4f2451461044057806354fd4d50146104005780635e383d21146103c35780636d4ce63c146103a8578063763e2831146103905780639fba1f9a1461037f578063d31f8b6b146100b75763e79f5bee146100a0575f80fd5b60203660031901126100b3576004355f55005b5f80fd5b346100b35760603660031901126100b35760243567ffffffffffffffff81116100b357366023820112156100b357806004013567ffffffffffffffff81116102845760405191610111601f8301601f19166020018461063f565b81835236602483830101116100b357815f92602460209301838601378301015260443567ffffffffffffffff81116100b357366023820112156100b357806004013567ffffffffffffffff8111610284578060051b9160405191610178602085018461063f565b82526020820160248194830101913683116100b357602401905b82821061036f575050506004355f55825167ffffffffffffffff8111610284576101bd600154610607565b601f8111610311575b506020601f82116001146102a357819293945f92610298575b50508160011b915f199060031b1c1916176001555b519067ffffffffffffffff8211610284576801000000000000000082116102845760025482600255808310610256575b509060025f525f5b81811061023557005b60019060208451940193815f5160206106a25f395f51905f5201550161022c565b61027e905f5160206106a25f395f51905f5201835f5160206106a25f395f51905f520161068b565b82610224565b634e487b7160e01b5f52604160045260245ffd5b0151905084806101df565b601f1982169060015f525f5160206106c25f395f51905f52915f5b8181106102f9575095836001959697106102e1575b505050811b016001556101f4565b01515f1960f88460031b161c191690558480806102d3565b9192602060018192868b0151815501940192016102be565b6103549060015f52601f830160051c5f5160206106c25f395f51905f5201906020841061035a575b601f0160051c5f5160206106c25f395f51905f52019061068b565b846101c6565b5f5160206106c25f395f51905f529150610339565b8135815260209182019101610192565b5f3660031901126100b35760645f55005b346100b35760203660031901126100b3576004355f55005b346100b3575f3660031901126100b357602060405160018152f35b346100b35760203660031901126100b3576004356002548110156100b35760209060025f525f5160206106a25f395f51905f520154604051908152f35b346100b3575f3660031901126100b35761043c60405161042160408261063f565b6002815261563160f01b602082015260405191829182610661565b0390f35b346100b3575f3660031901126100b35760205f54604051908152f35b346100b3575f3660031901126100b35760405162461bcd60e51b815260206004820152601c60248201527f44756d6d79496d706c656d656e746174696f6e207265766572746564000000006044820152606490fd5b346100b3575f3660031901126100b357600a5f55005b346100b3575f3660031901126100b3575f6001546104e481610607565b80845290600181169081156105635750600114610518575b61043c8361050c8185038261063f565b60405191829182610661565b91905060015f525f5160206106c25f395f51905f52915f905b8082106105495750909150810160200161050c6104fc565b919260018160209254838588010152019101909291610531565b60ff191660208086019190915291151560051b8401909101915061050c90506104fc565b346100b35760203660031901126100b3576004356001600160a01b038116908190036100b3576bffffffffffffffffffffffff60a01b7fb53127684a568b3173ae13b9f8a6016e243e63b6e8ee1178d6a717850b5d61035416177fb53127684a568b3173ae13b9f8a6016e243e63b6e8ee1178d6a717850b5d6103555f80f35b90600182811c92168015610635575b602083101461062157565b634e487b7160e01b5f52602260045260245ffd5b91607f1691610616565b90601f8019910116810190811067ffffffffffffffff82111761028457604052565b602060409281835280519182918282860152018484015e5f828201840152601f01601f1916010190565b818110610696575050565b5f815560010161068b56fe405787fa12a823e0f2b7631cc41b3ba8828b3321ca811111fa75cd3aa3bb5aceb10e2d527612073b26eecdfd717e6a320cf44b4afac2b0732d9fcbe2b7fa0cf6a26469706673582212201b4d21042948d8bcf3135c77bc2afcf351d77ded41d1e48c225d378a5c252eb064736f6c634300081c0033","linkReferences":{}},"methodIdentifiers":{"get()":"6d4ce63c","initialize(uint256,string,uint256[])":"d31f8b6b","initializeNonPayable()":"227367d5","initializeNonPayableWithValue(uint256)":"763e2831","initializePayable()":"9fba1f9a","initializePayableWithValue(uint256)":"e79f5bee","reverts()":"3bccbbc9","text()":"1f1bd692","unsafeOverrideAdmin(address)":"19af86e7","value()":"3fa4f245","values(uint256)":"5e383d21","version()":"54fd4d50"},"id":150}