{"abi":[{"type":"function","name":"get","inputs":[],"outputs":[{"name":"","type":"bool","internalType":"bool"}],"stateMutability":"pure"},{"type":"function","name":"initialize","inputs":[{"name":"_value","type":"uint256","internalType":"uint256"},{"name":"_text","type":"string","internalType":"string"},{"name":"_values","type":"uint256[]","internalType":"uint256[]"}],"outputs":[],"stateMutability":"nonpayable"},{"type":"function","name":"initializeNonPayable","inputs":[],"outputs":[],"stateMutability":"nonpayable"},{"type":"function","name":"initializeNonPayableWithValue","inputs":[{"name":"_value","type":"uint256","internalType":"uint256"}],"outputs":[],"stateMutability":"nonpayable"},{"type":"function","name":"initializePayable","inputs":[],"outputs":[],"stateMutability":"payable"},{"type":"function","name":"initializePayableWithValue","inputs":[{"name":"_value","type":"uint256","internalType":"uint256"}],"outputs":[],"stateMutability":"payable"},{"type":"function","name":"migrate","inputs":[{"name":"newVal","type":"uint256","internalType":"uint256"}],"outputs":[],"stateMutability":"payable"},{"type":"function","name":"reverts","inputs":[],"outputs":[],"stateMutability":"pure"},{"type":"function","name":"text","inputs":[],"outputs":[{"name":"","type":"string","internalType":"string"}],"stateMutability":"view"},{"type":"function","name":"unsafeOverrideAdmin","inputs":[{"name":"newAdmin","type":"address","internalType":"address"}],"outputs":[],"stateMutability":"nonpayable"},{"type":"function","name":"value","inputs":[],"outputs":[{"name":"","type":"uint256","internalType":"uint256"}],"stateMutability":"view"},{"type":"function","name":"values","inputs":[{"name":"","type":"uint256","internalType":"uint256"}],"outputs":[{"name":"","type":"uint256","internalType":"uint256"}],"stateMutability":"view"},{"type":"function","name":"version","inputs":[],"outputs":[{"name":"","type":"string","internalType":"string"}],"stateMutability":"pure"}],"bytecode":{"object":"0x60808060405234601557610727908161001a8239f35b5f80fdfe6080806040526004361015610012575f80fd5b5f3560e01c90816319af86e7146105845781631f1bd692146104c457508063227367d5146104ae5780633bccbbc9146104595780633fa4f2451461043d578063454b0608146100ab57806354fd4d50146103fd5780635e383d21146103c05780636d4ce63c146103a5578063763e28311461038d5780639fba1f9a1461037c578063d31f8b6b146100b05763e79f5bee146100ab575f80fd5b610688565b346103785760603660031901126103785760243567ffffffffffffffff8111610378573660238201121561037857806004013567ffffffffffffffff811161027d576040519161010a601f8301601f19166020018461063c565b818352366024838301011161037857815f92602460209301838601378301015260443567ffffffffffffffff8111610378573660238201121561037857806004013567ffffffffffffffff811161027d578060051b9160405191610171602085018461063c565b825260208201602481948301019136831161037857602401905b828210610368575050506004355f55825167ffffffffffffffff811161027d576101b6600154610604565b601f811161030a575b506020601f821160011461029c57819293945f92610291575b50508160011b915f199060031b1c1916176001555b519067ffffffffffffffff821161027d5768010000000000000000821161027d576002548260025580831061024f575b509060025f525f5b81811061022e57005b60019060208451940193815f5160206106b25f395f51905f52015501610225565b610277905f5160206106b25f395f51905f5201835f5160206106b25f395f51905f520161069b565b8261021d565b634e487b7160e01b5f52604160045260245ffd5b0151905084806101d8565b601f1982169060015f525f5160206106d25f395f51905f52915f5b8181106102f2575095836001959697106102da575b505050811b016001556101ed565b01515f1960f88460031b161c191690558480806102cc565b9192602060018192868b0151815501940192016102b7565b61034d9060015f52601f830160051c5f5160206106d25f395f51905f52019060208410610353575b601f0160051c5f5160206106d25f395f51905f52019061069b565b846101bf565b5f5160206106d25f395f51905f529150610332565b813581526020918201910161018b565b5f80fd5b5f3660031901126103785760645f55005b34610378576020366003190112610378576004355f55005b34610378575f36600319011261037857602060405160018152f35b34610378576020366003190112610378576004356002548110156103785760209060025f525f5160206106b25f395f51905f520154604051908152f35b34610378575f3660031901126103785761043960405161041e60408261063c565b60028152612b1960f11b60208201526040519182918261065e565b0390f35b34610378575f3660031901126103785760205f54604051908152f35b34610378575f3660031901126103785760405162461bcd60e51b815260206004820152601c60248201527f44756d6d79496d706c656d656e746174696f6e207265766572746564000000006044820152606490fd5b34610378575f36600319011261037857600a5f55005b34610378575f366003190112610378575f6001546104e181610604565b80845290600181169081156105605750600114610515575b610439836105098185038261063c565b6040519182918261065e565b91905060015f525f5160206106d25f395f51905f52915f905b808210610546575090915081016020016105096104f9565b91926001816020925483858801015201910190929161052e565b60ff191660208086019190915291151560051b8401909101915061050990506104f9565b34610378576020366003190112610378576004356001600160a01b03811690819003610378576bffffffffffffffffffffffff60a01b7fb53127684a568b3173ae13b9f8a6016e243e63b6e8ee1178d6a717850b5d61035416177fb53127684a568b3173ae13b9f8a6016e243e63b6e8ee1178d6a717850b5d6103555f80f35b90600182811c92168015610632575b602083101461061e57565b634e487b7160e01b5f52602260045260245ffd5b91607f1691610613565b90601f8019910116810190811067ffffffffffffffff82111761027d57604052565b602060409281835280519182918282860152018484015e5f828201840152601f01601f1916010190565b6020366003190112610378576004355f55005b8181106106a6575050565b5f815560010161069b56fe405787fa12a823e0f2b7631cc41b3ba8828b3321ca811111fa75cd3aa3bb5aceb10e2d527612073b26eecdfd717e6a320cf44b4afac2b0732d9fcbe2b7fa0cf6a26469706673582212202dffc5556a61dcd04f00b4c3770585c098840d1edb4c8fe72bb12ffda7ed596664736f6c634300081c0033","linkReferences":{}},"methodIdentifiers":{"get()":"6d4ce63c","initialize(uint256,string,uint256[])":"d31f8b6b","initializeNonPayable()":"227367d5","initializeNonPayableWithValue(uint256)":"763e2831","initializePayable()":"9fba1f9a","initializePayableWithValue(uint256)":"e79f5bee","migrate(uint256)":"454b0608","reverts()":"3bccbbc9","text()":"1f1bd692","unsafeOverrideAdmin(address)":"19af86e7","value()":"3fa4f245","values(uint256)":"5e383d21","version()":"54fd4d50"},"id":150}