{"abi":[{"type":"constructor","inputs":[{"name":"enableReturn","type":"bool","internalType":"bool"},{"name":"enableApprove","type":"bool","internalType":"bool"}],"stateMutability":"nonpayable"},{"type":"function","name":"onFlashLoan","inputs":[{"name":"","type":"address","internalType":"address"},{"name":"token","type":"address","internalType":"address"},{"name":"amount","type":"uint256","internalType":"uint256"},{"name":"fee","type":"uint256","internalType":"uint256"},{"name":"data","type":"bytes","internalType":"bytes"}],"outputs":[{"name":"","type":"bytes32","internalType":"bytes32"}],"stateMutability":"nonpayable"},{"type":"event","name":"BalanceOf","inputs":[{"name":"token","type":"address","indexed":false,"internalType":"address"},{"name":"account","type":"address","indexed":false,"internalType":"address"},{"name":"value","type":"uint256","indexed":false,"internalType":"uint256"}],"anonymous":false},{"type":"event","name":"TotalSupply","inputs":[{"name":"token","type":"address","indexed":false,"internalType":"address"},{"name":"value","type":"uint256","indexed":false,"internalType":"uint256"}],"anonymous":false},{"type":"error","name":"AddressEmptyCode","inputs":[{"name":"target","type":"address","internalType":"address"}]},{"type":"error","name":"FailedCall","inputs":[]},{"type":"error","name":"InsufficientBalance","inputs":[{"name":"balance","type":"uint256","internalType":"uint256"},{"name":"needed","type":"uint256","internalType":"uint256"}]}],"bytecode":{"object":"0x60c034607257601f6104e338819003918201601f19168301916001600160401b038311848410176076578084926040948552833981010312607257604b6020604583608a565b9201608a565b60805260a05260405161044c908161009782396080518161016e015260a051816101970152f35b5f80fd5b634e487b7160e01b5f52604160045260245ffd5b5190811515820360725756fe6080806040526004361015610012575f80fd5b5f3560e01c6323e30c8b14610025575f80fd5b346102705760a03660031901126102705761003e61033d565b506024356001600160a01b03811691828203610270576044359060843567ffffffffffffffff811161027057366023820112156102705780600401359167ffffffffffffffff831161027057366024848401011161027057853303610270576370a0823160e01b8152306004820152602081602481895afa90811561027c575f9161030a575b5060607f6ff2acfcb07917b1e80e53f0fe390b467b1151d15b38730a6e08397799c05a8b91604051908882523060208301526040820152a16040516318160ddd60e01b8152602081600481895afa90811561027c575f916102d6575b50604080516001600160a01b038716815260208101929092527f7249fd4c03cce09b30a13d77804b198e2647c0ccd59eadf4de4e7c16099badc59190819081015b0390a18161029b575b50507f00000000000000000000000000000000000000000000000000000000000000006101f0575b5050507f00000000000000000000000000000000000000000000000000000000000000005f146101e85760207f439148f0bbc682ca079e46d6e2c2f0c1e3b820f1a291b069d8882abf8cf18dd95b604051908152f35b60205f6101e0565b60643581018091116102875760405163095ea7b360e01b81526001600160a01b03929092166004830152602482015290602090829060449082905f905af1801561027c57610240575b8080610192565b6020813d602011610274575b8161025960209383610353565b81010312610270575180151503610270575f610239565b5f80fd5b3d915061024c565b6040513d5f823e3d90fd5b634e487b7160e01b5f52601160045260245ffd5b5f60206102ce93806024604051956102bc85601f19601f8601160188610353565b82875201838601378301015283610389565b505f8061016a565b90506020813d602011610302575b816102f160209383610353565b810103126102705751610161610120565b3d91506102e4565b90506020813d602011610335575b8161032560209383610353565b81010312610270575160606100c4565b3d9150610318565b600435906001600160a01b038216820361027057565b90601f8019910116810190811067ffffffffffffffff82111761037557604052565b634e487b7160e01b5f52604160045260245ffd5b905f809160208151910182855af18080610403575b156103be5750506040513d81523d5f602083013e60203d82010160405290565b156103e357639996b31560e01b5f9081526001600160a01b0391909116600452602490fd5b3d156103f4576040513d5f823e3d90fd5b63d6bda27560e01b5f5260045ffd5b503d15158061039e5750813b151561039e56fea2646970667358221220665dc6821834f18a1a24d24e0440c65431b0352fa0cfff566b0be8a2881c947c64736f6c634300081c0033","linkReferences":{}},"methodIdentifiers":{"onFlashLoan(address,address,uint256,uint256,bytes)":"23e30c8b"},"id":155}