{"abi":[{"type":"function","name":"child","inputs":[],"outputs":[{"name":"","type":"uint256","internalType":"uint256"}],"stateMutability":"view"},{"type":"function","name":"father","inputs":[],"outputs":[{"name":"","type":"uint256","internalType":"uint256"}],"stateMutability":"view"},{"type":"function","name":"gramps","inputs":[],"outputs":[{"name":"","type":"string","internalType":"string"}],"stateMutability":"view"},{"type":"function","name":"initialize","inputs":[{"name":"_mother","type":"uint256","internalType":"uint256"},{"name":"_gramps","type":"string","internalType":"string"},{"name":"_father","type":"uint256","internalType":"uint256"},{"name":"_child","type":"uint256","internalType":"uint256"}],"outputs":[],"stateMutability":"nonpayable"},{"type":"function","name":"initialize","inputs":[],"outputs":[],"stateMutability":"nonpayable"},{"type":"function","name":"initialize","inputs":[{"name":"_gramps","type":"string","internalType":"string"},{"name":"_father","type":"uint256","internalType":"uint256"}],"outputs":[],"stateMutability":"nonpayable"},{"type":"function","name":"initialize","inputs":[{"name":"value","type":"string","internalType":"string"}],"outputs":[],"stateMutability":"nonpayable"},{"type":"function","name":"initialize","inputs":[{"name":"value","type":"uint256","internalType":"uint256"}],"outputs":[],"stateMutability":"nonpayable"},{"type":"function","name":"isHuman","inputs":[],"outputs":[{"name":"","type":"bool","internalType":"bool"}],"stateMutability":"view"},{"type":"function","name":"mother","inputs":[],"outputs":[{"name":"","type":"uint256","internalType":"uint256"}],"stateMutability":"view"},{"type":"event","name":"Initialized","inputs":[{"name":"version","type":"uint64","indexed":false,"internalType":"uint64"}],"anonymous":false},{"type":"error","name":"InvalidInitialization","inputs":[]},{"type":"error","name":"NotInitializing","inputs":[]}],"bytecode":{"object":"0x60808060405234601557610c71908161001a8239f35b5f80fdfe6080806040526004361015610012575f80fd5b5f3560e01c9081631c8aca3b14610adb57508063237b5e9614610abe5780634a6c9db614610a9d5780636f2edbd21461081b5780638129fc1c146107505780638beaf7d71461050d578063ed7dfee3146104f0578063f62d1888146102af578063fa39851f146101d15763fe4b84df1461008a575f80fd5b346101cd5760203660031901126101cd575f516020610c1c5f395f51905f52546001600160401b0360ff8260401c16159116801590816101c5575b60011490816101bb575b1590816101b2575b506101a357806100e5610ba3565b610173575b6100f2610bd0565b6100fa610bd0565b610102610bd0565b600160ff195f5416175f55610115610bd0565b60043560015561012157005b60ff60401b195f516020610c1c5f395f51905f5254165f516020610c1c5f395f51905f52557fc7f505b2f371ae2175ee4913f4499e1f2633a7b5936321eed1cdaeb6115181d2602060405160018152a1005b600160401b60ff60401b195f516020610c1c5f395f51905f525416175f516020610c1c5f395f51905f52556100ea565b63f92ee8a960e01b5f5260045ffd5b9050155f6100d7565b303b1591506100cf565b8291506100c5565b5f80fd5b346101cd575f3660031901126101cd57604051600254905f6101f283610b6b565b8083526020830193600181169081156102945750600114610249575b509061021e816040930382610af5565b8151928391602083525180918160208501528484015e5f828201840152601f01601f19168101030190f35b91905060025f525f516020610bfc5f395f51905f52915f905b80821061027a5750909150810160200161021e61020e565b919260018160209254838588010152019101909291610262565b60ff1916855250151560051b8201602001905061021e61020e565b346101cd5760203660031901126101cd576004356001600160401b0381116101cd576102df903690600401610b16565b5f516020610c1c5f395f51905f52546001600160401b0360ff8260401c16159116801590816104e8575b60011490816104de575b1590816104d5575b506101a35780610329610ba3565b6104a5575b610336610bd0565b61033e610bd0565b610346610bd0565b600160ff195f5416175f55610359610bd0565b81516001600160401b03811161049157610374600254610b6b565b601f8111610429575b50602092601f82116001146103bd57928192935f926103b2575b50508160011b915f199060031b1c1916176002555b61012157005b015190508380610397565b601f1982169360025f525f516020610bfc5f395f51905f52915f5b86811061041157508360019596106103f9575b505050811b016002556103ac565b01515f1960f88460031b161c191690558380806103eb565b919260206001819286850151815501940192016103d8565b60025f52601f820160051c5f516020610bfc5f395f51905f5201906020831061047c575b601f0160051c5f516020610bfc5f395f51905f5201905b818110610471575061037d565b5f8155600101610464565b5f516020610bfc5f395f51905f52915061044d565b634e487b7160e01b5f52604160045260245ffd5b600160401b60ff60401b195f516020610c1c5f395f51905f525416175f516020610c1c5f395f51905f525561032e565b9050158361031b565b303b159150610313565b829150610309565b346101cd575f3660031901126101cd576020600154604051908152f35b346101cd5760403660031901126101cd576004356001600160401b0381116101cd5761053d903690600401610b16565b5f516020610c1c5f395f51905f52546001600160401b0360ff8260401c1615911680159081610748575b600114908161073e575b159081610735575b506101a35780610587610ba3565b610705575b610594610bd0565b61059c610bd0565b6105a4610bd0565b6105ac610bd0565b600160ff195f5416175f556105bf610bd0565b81516001600160401b038111610491576105da600254610b6b565b601f811161069d575b50602092601f821160011461063157928192935f92610626575b50508160011b915f199060031b1c1916176002555b61061a610bd0565b60243560035561012157005b0151905083806105fd565b601f1982169360025f525f516020610bfc5f395f51905f52915f5b868110610685575083600195961061066d575b505050811b01600255610612565b01515f1960f88460031b161c1916905583808061065f565b9192602060018192868501518155019401920161064c565b60025f52601f820160051c5f516020610bfc5f395f51905f520190602083106106f0575b601f0160051c5f516020610bfc5f395f51905f5201905b8181106106e557506105e3565b5f81556001016106d8565b5f516020610bfc5f395f51905f5291506106c1565b600160401b60ff60401b195f516020610c1c5f395f51905f525416175f516020610c1c5f395f51905f525561058c565b90501583610579565b303b159150610571565b829150610567565b346101cd575f3660031901126101cd575f516020610c1c5f395f51905f52546001600160401b0360ff8260401c1615911680159081610813575b6001149081610809575b159081610800575b506101a357806107aa610ba3565b6107d0575b6107b7610bd0565b6107bf610bd0565b600160ff195f5416175f5561012157005b600160401b60ff60401b195f516020610c1c5f395f51905f525416175f516020610c1c5f395f51905f52556107af565b9050158261079c565b303b159150610794565b82915061078a565b346101cd5760803660031901126101cd576024356001600160401b0381116101cd5761084b903690600401610b16565b5f516020610c1c5f395f51905f52546001600160401b0360ff8260401c1615911680159081610a95575b6001149081610a8b575b159081610a82575b506101a35780610895610ba3565b610a52575b6108a2610bd0565b6108aa610bd0565b6108b2610bd0565b6108ba610bd0565b600160ff195f541617805f556108ce610bd0565b6004356001556108dc610bd0565b6108e4610bd0565b6108ec610bd0565b6108f4610bd0565b5f556108fe610bd0565b81516001600160401b03811161049157610919600254610b6b565b601f81116109ea575b50602092601f821160011461097e57928192935f92610973575b50508160011b915f199060031b1c1916176002555b610959610bd0565b604435600355610967610bd0565b60643560045561012157005b01519050838061093c565b601f1982169360025f525f516020610bfc5f395f51905f52915f5b8681106109d257508360019596106109ba575b505050811b01600255610951565b01515f1960f88460031b161c191690558380806109ac565b91926020600181928685015181550194019201610999565b60025f52601f820160051c5f516020610bfc5f395f51905f52019060208310610a3d575b601f0160051c5f516020610bfc5f395f51905f5201905b818110610a325750610922565b5f8155600101610a25565b5f516020610bfc5f395f51905f529150610a0e565b600160401b60ff60401b195f516020610c1c5f395f51905f525416175f516020610c1c5f395f51905f525561089a565b90501583610887565b303b15915061087f565b829150610875565b346101cd575f3660031901126101cd57602060ff5f54166040519015158152f35b346101cd575f3660031901126101cd576020600454604051908152f35b346101cd575f3660031901126101cd576020906003548152f35b90601f801991011681019081106001600160401b0382111761049157604052565b81601f820112156101cd578035906001600160401b0382116104915760405192610b4a601f8401601f191660200185610af5565b828452602083830101116101cd57815f926020809301838601378301015290565b90600182811c92168015610b99575b6020831014610b8557565b634e487b7160e01b5f52602260045260245ffd5b91607f1691610b7a565b60016001600160401b03195f516020610c1c5f395f51905f525416175f516020610c1c5f395f51905f5255565b60ff5f516020610c1c5f395f51905f525460401c1615610bec57565b631afcd79f60e31b5f5260045ffdfe405787fa12a823e0f2b7631cc41b3ba8828b3321ca811111fa75cd3aa3bb5acef0c57e16840df040f15088dc2f81fe391c3923bec73e23a9662efc9c229c6a00a264697066735822122047020222ab82eb49385ef33d5f45a74cc9c2bff8fc73bda0343bf369463cdd1e64736f6c634300081c0033","linkReferences":{}},"methodIdentifiers":{"child()":"237b5e96","father()":"1c8aca3b","gramps()":"fa39851f","initialize()":"8129fc1c","initialize(string)":"f62d1888","initialize(string,uint256)":"8beaf7d7","initialize(uint256)":"fe4b84df","initialize(uint256,string,uint256,uint256)":"6f2edbd2","isHuman()":"4a6c9db6","mother()":"ed7dfee3"},"id":161}