{"abi":[{"type":"function","name":"initialize","inputs":[],"outputs":[],"stateMutability":"nonpayable"},{"type":"function","name":"initialize","inputs":[{"name":"value","type":"uint256","internalType":"uint256"}],"outputs":[],"stateMutability":"nonpayable"},{"type":"function","name":"isHuman","inputs":[],"outputs":[{"name":"","type":"bool","internalType":"bool"}],"stateMutability":"view"},{"type":"function","name":"mother","inputs":[],"outputs":[{"name":"","type":"uint256","internalType":"uint256"}],"stateMutability":"view"},{"type":"event","name":"Initialized","inputs":[{"name":"version","type":"uint64","indexed":false,"internalType":"uint64"}],"anonymous":false},{"type":"error","name":"InvalidInitialization","inputs":[]},{"type":"error","name":"NotInitializing","inputs":[]}],"bytecode":{"object":"0x60808060405234601557610346908161001a8239f35b5f80fdfe6080806040526004361015610012575f80fd5b5f3560e01c9081634a6c9db614610279575080638129fc1c146101ad578063ed7dfee3146101905763fe4b84df14610048575f80fd5b3461018c57602036600319011261018c575f5160206102f15f395f51905f525467ffffffffffffffff60ff8260401c1615911680159081610184575b600114908161017a575b159081610171575b5061016257806100a4610297565b610132575b6100b16102c5565b6100b96102c5565b6100c16102c5565b600160ff195f5416175f556100d46102c5565b6004356001556100e057005b60ff60401b195f5160206102f15f395f51905f5254165f5160206102f15f395f51905f52557fc7f505b2f371ae2175ee4913f4499e1f2633a7b5936321eed1cdaeb6115181d2602060405160018152a1005b600160401b60ff60401b195f5160206102f15f395f51905f525416175f5160206102f15f395f51905f52556100a9565b63f92ee8a960e01b5f5260045ffd5b9050155f610096565b303b15915061008e565b829150610084565b5f80fd5b3461018c575f36600319011261018c576020600154604051908152f35b3461018c575f36600319011261018c575f5160206102f15f395f51905f525467ffffffffffffffff60ff8260401c1615911680159081610271575b6001149081610267575b15908161025e575b506101625780610208610297565b61022e575b6102156102c5565b61021d6102c5565b600160ff195f5416175f556100e057005b600160401b60ff60401b195f5160206102f15f395f51905f525416175f5160206102f15f395f51905f525561020d565b905015826101fa565b303b1591506101f2565b8291506101e8565b3461018c575f36600319011261018c5760209060ff5f541615158152f35b600167ffffffffffffffff195f5160206102f15f395f51905f525416175f5160206102f15f395f51905f5255565b60ff5f5160206102f15f395f51905f525460401c16156102e157565b631afcd79f60e31b5f5260045ffdfef0c57e16840df040f15088dc2f81fe391c3923bec73e23a9662efc9c229c6a00a2646970667358221220e7df9fc2a0fcb62c20cd9bcd4428f05a4b77a32d6d16e36555619c7ac61bfdd164736f6c634300081c0033","linkReferences":{}},"methodIdentifiers":{"initialize()":"8129fc1c","initialize(uint256)":"fe4b84df","isHuman()":"4a6c9db6","mother()":"ed7dfee3"},"id":161}