{"abi":[{"type":"function","name":"multicall","inputs":[{"name":"data","type":"bytes[]","internalType":"bytes[]"}],"outputs":[{"name":"results","type":"bytes[]","internalType":"bytes[]"}],"stateMutability":"nonpayable"},{"type":"function","name":"tloadAddress","inputs":[{"name":"slot","type":"bytes32","internalType":"bytes32"}],"outputs":[],"stateMutability":"nonpayable"},{"type":"function","name":"tloadBoolean","inputs":[{"name":"slot","type":"bytes32","internalType":"bytes32"}],"outputs":[],"stateMutability":"nonpayable"},{"type":"function","name":"tloadBytes32","inputs":[{"name":"slot","type":"bytes32","internalType":"bytes32"}],"outputs":[],"stateMutability":"nonpayable"},{"type":"function","name":"tloadInt256","inputs":[{"name":"slot","type":"bytes32","internalType":"bytes32"}],"outputs":[],"stateMutability":"nonpayable"},{"type":"function","name":"tloadUint256","inputs":[{"name":"slot","type":"bytes32","internalType":"bytes32"}],"outputs":[],"stateMutability":"nonpayable"},{"type":"function","name":"tstore","inputs":[{"name":"slot","type":"bytes32","internalType":"bytes32"},{"name":"value","type":"address","internalType":"address"}],"outputs":[],"stateMutability":"nonpayable"},{"type":"function","name":"tstore","inputs":[{"name":"slot","type":"bytes32","internalType":"bytes32"},{"name":"value","type":"bool","internalType":"bool"}],"outputs":[],"stateMutability":"nonpayable"},{"type":"function","name":"tstore","inputs":[{"name":"slot","type":"bytes32","internalType":"bytes32"},{"name":"value","type":"uint256","internalType":"uint256"}],"outputs":[],"stateMutability":"nonpayable"},{"type":"function","name":"tstore","inputs":[{"name":"slot","type":"bytes32","internalType":"bytes32"},{"name":"value","type":"int256","internalType":"int256"}],"outputs":[],"stateMutability":"nonpayable"},{"type":"function","name":"tstore","inputs":[{"name":"slot","type":"bytes32","internalType":"bytes32"},{"name":"value","type":"bytes32","internalType":"bytes32"}],"outputs":[],"stateMutability":"nonpayable"},{"type":"event","name":"AddressValue","inputs":[{"name":"slot","type":"bytes32","indexed":false,"internalType":"bytes32"},{"name":"value","type":"address","indexed":false,"internalType":"address"}],"anonymous":false},{"type":"event","name":"BooleanValue","inputs":[{"name":"slot","type":"bytes32","indexed":false,"internalType":"bytes32"},{"name":"value","type":"bool","indexed":false,"internalType":"bool"}],"anonymous":false},{"type":"event","name":"Bytes32Value","inputs":[{"name":"slot","type":"bytes32","indexed":false,"internalType":"bytes32"},{"name":"value","type":"bytes32","indexed":false,"internalType":"bytes32"}],"anonymous":false},{"type":"event","name":"Int256Value","inputs":[{"name":"slot","type":"bytes32","indexed":false,"internalType":"bytes32"},{"name":"value","type":"int256","indexed":false,"internalType":"int256"}],"anonymous":false},{"type":"event","name":"Uint256Value","inputs":[{"name":"slot","type":"bytes32","indexed":false,"internalType":"bytes32"},{"name":"value","type":"uint256","indexed":false,"internalType":"uint256"}],"anonymous":false},{"type":"error","name":"AddressEmptyCode","inputs":[{"name":"target","type":"address","internalType":"address"}]},{"type":"error","name":"FailedCall","inputs":[]}],"bytecode":{"object":"0x60808060405234601557610571908161001a8239f35b5f80fdfe6080806040526004361015610012575f80fd5b5f3560e01c90816320656eb6146103f4575080632ddc1e8f146103ca5780634912c97c146103845780635d6f2b9314610361578063824bd70b1461009557806385daa7b414610319578063938ee4c814610095578063ac9650d814610149578063ba96e3ea146100f9578063bd4522bb146100b35763d25bb76214610095575f80fd5b346100af5760403660031901126100af576024356004355d005b5f80fd5b346100af5760203660031901126100af577faa96f8aa155cc584d3b4080ac3c322f1347d2b82ac812e67a8ee926d3057a1986040600435805c82519182526020820152a1005b346100af5760203660031901126100af57604080516004358082525c6001600160a01b031660208201527f28adb451742b081abc04788984120a5256bb9cb76cd5b61a181c8a088c08e49d9190a1005b346100af5760203660031901126100af5760043567ffffffffffffffff81116100af57366023820112156100af5780600401359067ffffffffffffffff82116100af573660248360051b830101116100af57604051919060206101ac8185610439565b5f845280840191601f1982013684376101c48461046f565b906101d26040519283610439565b848252601f196101e18661046f565b015f5b81811061030a5750503681900360421901905f5b868110156102925760248160051b83010135838112156100af5782019060248201359167ffffffffffffffff83116100af5760440182360381136100af578261027061027692898b8e60019860405196879585870137840190838201905f8252519283915e01015f815203601f198101835282610439565b306104af565b6102808287610487565b5261028b8186610487565b50016101f8565b5050506040519082820192808352815180945260408301938160408260051b8601019301915f955b8287106102c75785850386f35b90919293828080600193603f198a82030186528189518051918291828552018484015e5f838284010152601f8019910116010196019201960195929190926102ba565b606084820186015284016101e4565b346100af5760203660031901126100af577f3d52ff56f17a99f5b126ffe58fc0ff5637819d2f2390fcb898ca339d5c7af2b36040600435805c825191825215156020820152a1005b346100af5760403660031901126100af5760243580151581036100af576004355d005b346100af5760203660031901126100af577fbf9aaddfa8a1b987c7c32a9295dea19fb7b4e3b5b05f05c831f3634ef90e1a5e6040600435805c82519182526020820152a1005b346100af5760403660031901126100af576024356001600160a01b03811681036100af576004355d005b346100af5760203660031901126100af5760407f71eecf44688d15d894339e18504cad8f6634d454a9496b065503cebfac1f9b6391600435805c9082526020820152a1005b90601f8019910116810190811067ffffffffffffffff82111761045b57604052565b634e487b7160e01b5f52604160045260245ffd5b67ffffffffffffffff811161045b5760051b60200190565b805182101561049b5760209160051b010190565b634e487b7160e01b5f52603260045260245ffd5b905f8091602081519101845af48080610528575b156104e35750506040513d81523d5f602083013e60203d82010160405290565b1561050857639996b31560e01b5f9081526001600160a01b0391909116600452602490fd5b3d15610519576040513d5f823e3d90fd5b63d6bda27560e01b5f5260045ffd5b503d1515806104c35750813b15156104c356fea2646970667358221220d3710a5c69a2aac1c0b464182314671b48e63ff5be0e7f2bf8a5b205cbcd06f864736f6c634300081c0033","linkReferences":{}},"methodIdentifiers":{"multicall(bytes[])":"ac9650d8","tloadAddress(bytes32)":"ba96e3ea","tloadBoolean(bytes32)":"85daa7b4","tloadBytes32(bytes32)":"4912c97c","tloadInt256(bytes32)":"20656eb6","tloadUint256(bytes32)":"bd4522bb","tstore(bytes32,address)":"2ddc1e8f","tstore(bytes32,bool)":"5d6f2b93","tstore(bytes32,bytes32)":"d25bb762","tstore(bytes32,int256)":"938ee4c8","tstore(bytes32,uint256)":"824bd70b"},"id":171}