{"abi":[{"type":"constructor","inputs":[],"stateMutability":"nonpayable"},{"type":"function","name":"INITIAL_SUPPLY","inputs":[],"outputs":[{"name":"","type":"uint256","internalType":"uint256"}],"stateMutability":"view"},{"type":"function","name":"allowance","inputs":[{"name":"owner","type":"address","internalType":"address"},{"name":"spender","type":"address","internalType":"address"}],"outputs":[{"name":"","type":"uint256","internalType":"uint256"}],"stateMutability":"view"},{"type":"function","name":"approve","inputs":[{"name":"spender","type":"address","internalType":"address"},{"name":"value","type":"uint256","internalType":"uint256"}],"outputs":[{"name":"","type":"bool","internalType":"bool"}],"stateMutability":"nonpayable"},{"type":"function","name":"balanceOf","inputs":[{"name":"account","type":"address","internalType":"address"}],"outputs":[{"name":"","type":"uint256","internalType":"uint256"}],"stateMutability":"view"},{"type":"function","name":"burn","inputs":[{"name":"amount","type":"uint256","internalType":"uint256"}],"outputs":[],"stateMutability":"nonpayable"},{"type":"function","name":"burnFrom","inputs":[{"name":"account","type":"address","internalType":"address"},{"name":"amount","type":"uint256","internalType":"uint256"}],"outputs":[],"stateMutability":"nonpayable"},{"type":"function","name":"decimals","inputs":[],"outputs":[{"name":"","type":"uint8","internalType":"uint8"}],"stateMutability":"view"},{"type":"function","name":"mint","inputs":[{"name":"to","type":"address","internalType":"address"},{"name":"amount","type":"uint256","internalType":"uint256"}],"outputs":[],"stateMutability":"nonpayable"},{"type":"function","name":"name","inputs":[],"outputs":[{"name":"","type":"string","internalType":"string"}],"stateMutability":"view"},{"type":"function","name":"owner","inputs":[],"outputs":[{"name":"","type":"address","internalType":"address"}],"stateMutability":"view"},{"type":"function","name":"renounceOwnership","inputs":[],"outputs":[],"stateMutability":"nonpayable"},{"type":"function","name":"symbol","inputs":[],"outputs":[{"name":"","type":"string","internalType":"string"}],"stateMutability":"view"},{"type":"function","name":"totalSupply","inputs":[],"outputs":[{"name":"","type":"uint256","internalType":"uint256"}],"stateMutability":"view"},{"type":"function","name":"transfer","inputs":[{"name":"to","type":"address","internalType":"address"},{"name":"value","type":"uint256","internalType":"uint256"}],"outputs":[{"name":"","type":"bool","internalType":"bool"}],"stateMutability":"nonpayable"},{"type":"function","name":"transferFrom","inputs":[{"name":"from","type":"address","internalType":"address"},{"name":"to","type":"address","internalType":"address"},{"name":"value","type":"uint256","internalType":"uint256"}],"outputs":[{"name":"","type":"bool","internalType":"bool"}],"stateMutability":"nonpayable"},{"type":"function","name":"transferOwnership","inputs":[{"name":"newOwner","type":"address","internalType":"address"}],"outputs":[],"stateMutability":"nonpayable"},{"type":"event","name":"Approval","inputs":[{"name":"owner","type":"address","indexed":true,"internalType":"address"},{"name":"spender","type":"address","indexed":true,"internalType":"address"},{"name":"value","type":"uint256","indexed":false,"internalType":"uint256"}],"anonymous":false},{"type":"event","name":"OwnershipTransferred","inputs":[{"name":"previousOwner","type":"address","indexed":true,"internalType":"address"},{"name":"newOwner","type":"address","indexed":true,"internalType":"address"}],"anonymous":false},{"type":"event","name":"Transfer","inputs":[{"name":"from","type":"address","indexed":true,"internalType":"address"},{"name":"to","type":"address","indexed":true,"internalType":"address"},{"name":"value","type":"uint256","indexed":false,"internalType":"uint256"}],"anonymous":false},{"type":"error","name":"ERC20InsufficientAllowance","inputs":[{"name":"spender","type":"address","internalType":"address"},{"name":"allowance","type":"uint256","internalType":"uint256"},{"name":"needed","type":"uint256","internalType":"uint256"}]},{"type":"error","name":"ERC20InsufficientBalance","inputs":[{"name":"sender","type":"address","internalType":"address"},{"name":"balance","type":"uint256","internalType":"uint256"},{"name":"needed","type":"uint256","internalType":"uint256"}]},{"type":"error","name":"ERC20InvalidApprover","inputs":[{"name":"approver","type":"address","internalType":"address"}]},{"type":"error","name":"ERC20InvalidReceiver","inputs":[{"name":"receiver","type":"address","internalType":"address"}]},{"type":"error","name":"ERC20InvalidSender","inputs":[{"name":"sender","type":"address","internalType":"address"}]},{"type":"error","name":"ERC20InvalidSpender","inputs":[{"name":"spender","type":"address","internalType":"address"}]},{"type":"error","name":"OwnableInvalidOwner","inputs":[{"name":"owner","type":"address","internalType":"address"}]},{"type":"error","name":"OwnableUnauthorizedAccount","inputs":[{"name":"account","type":"address","internalType":"address"}]}],"bytecode":{"object":"0x6080604052346103f357604080519081016001600160401b03811182821017610306576040908152600c82526b2a39bbb4b33a102a37b5b2b760a11b602083015280519081016001600160401b038111828210176103065760405260068152651514d5d2519560d21b602082015281516001600160401b03811161030657600354600181811c911680156103e9575b60208210146102e857601f8111610386575b50602092601f821160011461032557928192935f9261031a575b50508160011b915f199060031b1c1916176003555b80516001600160401b03811161030657600454600181811c911680156102fc575b60208210146102e857601f8111610285575b50602091601f8211600114610225579181925f9261021a575b50508160011b915f199060031b1c1916176004555b33156102075760058054336001600160a01b0319821681179092556001600160a01b03167f8be0079c531659141344cd1fd0a4f28419497f9722a3daafe3b4186f6b6457e05f80a360025469d3c21bcecceda100000081018091116101f357600255335f525f60205260405f2069d3c21bcecceda1000000815401905560405169d3c21bcecceda100000081525f7fddf252ad1be2c89b69c2b068fc378daa952ba7f163c4a11628f55a4df523b3ef60203393a360405161093690816103f88239f35b634e487b7160e01b5f52601160045260245ffd5b631e4fbdf760e01b5f525f60045260245ffd5b015190505f8061011b565b601f1982169260045f52805f20915f5b85811061026d57508360019510610255575b505050811b01600455610130565b01515f1960f88460031b161c191690555f8080610247565b91926020600181928685015181550194019201610235565b60045f527f8a35acfbc15ff81a39ae7d344fd709f28e8600b4aa8c65c6b64bfe7fe36bd19b601f830160051c810191602084106102de575b601f0160051c01905b8181106102d35750610102565b5f81556001016102c6565b90915081906102bd565b634e487b7160e01b5f52602260045260245ffd5b90607f16906100f0565b634e487b7160e01b5f52604160045260245ffd5b015190505f806100ba565b601f1982169360035f52805f20915f5b86811061036e5750836001959610610356575b505050811b016003556100cf565b01515f1960f88460031b161c191690555f8080610348565b91926020600181928685015181550194019201610335565b60035f527fc2575a0e9e593c00f959f8c92f12db2869c3395a3b0502d05e2516446f71f85b601f830160051c810191602084106103df575b601f0160051c01905b8181106103d457506100a0565b5f81556001016103c7565b90915081906103be565b90607f169061008e565b5f80fdfe6080806040526004361015610012575f80fd5b5f3560e01c90816306fdde03146105e357508063095ea7b31461053b57806318160ddd1461051e57806323b872dd146104e65780632ff2e9dc146104c2578063313ce567146104a757806340c10f19146103fb57806342966c68146103de57806370a08231146103a7578063715018a61461034c57806379cc67901461031a5780638da5cb5b146102f257806395d89b41146101d7578063a9059cbb146101a6578063dd62ed3e146101565763f2fde38b146100cc575f80fd5b34610152576020366003190112610152576100e56106dc565b6100ed610855565b6001600160a01b0316801561013f57600580546001600160a01b0319811683179091556001600160a01b03167f8be0079c531659141344cd1fd0a4f28419497f9722a3daafe3b4186f6b6457e05f80a3005b631e4fbdf760e01b5f525f60045260245ffd5b5f80fd5b346101525760403660031901126101525761016f6106dc565b6101776106f2565b6001600160a01b039182165f908152600160209081526040808320949093168252928352819020549051908152f35b34610152576040366003190112610152576101cc6101c26106dc565b60243590336107ab565b602060405160018152f35b34610152575f366003190112610152576040515f6004548060011c906001811680156102e8575b6020831081146102d4578285529081156102b85750600114610263575b50819003601f01601f191681019067ffffffffffffffff82118183101761024f5761024b829182604052826106b2565b0390f35b634e487b7160e01b5f52604160045260245ffd5b905060045f527f8a35acfbc15ff81a39ae7d344fd709f28e8600b4aa8c65c6b64bfe7fe36bd19b5f905b8282106102a25750602091508201018261021b565b600181602092548385880101520191019061028d565b90506020925060ff191682840152151560051b8201018261021b565b634e487b7160e01b5f52602260045260245ffd5b91607f16916101fe565b34610152575f366003190112610152576005546040516001600160a01b039091168152602090f35b346101525760403660031901126101525761034a6103366106dc565b60243590610345823383610708565b61087c565b005b34610152575f36600319011261015257610364610855565b600580546001600160a01b031981169091555f906001600160a01b03167f8be0079c531659141344cd1fd0a4f28419497f9722a3daafe3b4186f6b6457e08280a3005b34610152576020366003190112610152576001600160a01b036103c86106dc565b165f525f602052602060405f2054604051908152f35b346101525760203660031901126101525761034a6004353361087c565b34610152576040366003190112610152576104146106dc565b60243590610420610855565b6001600160a01b031690811561049457600254908082018092116104805760207fddf252ad1be2c89b69c2b068fc378daa952ba7f163c4a11628f55a4df523b3ef915f9360025584845283825260408420818154019055604051908152a3005b634e487b7160e01b5f52601160045260245ffd5b63ec442f0560e01b5f525f60045260245ffd5b34610152575f36600319011261015257602060405160128152f35b34610152575f36600319011261015257602060405169d3c21bcecceda10000008152f35b34610152576060366003190112610152576101cc6105026106dc565b61050a6106f2565b60443591610519833383610708565b6107ab565b34610152575f366003190112610152576020600254604051908152f35b34610152576040366003190112610152576105546106dc565b6024359033156105d0576001600160a01b03169081156105bd57335f52600160205260405f20825f526020528060405f20556040519081527f8c5be1e5ebec7d5bd14f71427d1e84f3dd0314c0f7b2291e5b200ac8c7c3b92560203392a3602060405160018152f35b634a1406b160e11b5f525f60045260245ffd5b63e602df0560e01b5f525f60045260245ffd5b34610152575f366003190112610152575f6003548060011c906001811680156106a8575b6020831081146102d4578285529081156102b857506001146106535750819003601f01601f191681019067ffffffffffffffff82118183101761024f5761024b829182604052826106b2565b905060035f527fc2575a0e9e593c00f959f8c92f12db2869c3395a3b0502d05e2516446f71f85b5f905b8282106106925750602091508201018261021b565b600181602092548385880101520191019061067d565b91607f1691610607565b602060409281835280519182918282860152018484015e5f828201840152601f01601f1916010190565b600435906001600160a01b038216820361015257565b602435906001600160a01b038216820361015257565b6001600160a01b039081165f818152600160209081526040808320948616835293905291909120549291905f198410610742575b50505050565b8284106107885780156105d0576001600160a01b038216156105bd575f52600160205260405f209060018060a01b03165f5260205260405f20910390555f80808061073c565b508290637dc7a0d960e11b5f5260018060a01b031660045260245260445260645ffd5b6001600160a01b0316908115610842576001600160a01b031691821561049457815f525f60205260405f205481811061082957817fddf252ad1be2c89b69c2b068fc378daa952ba7f163c4a11628f55a4df523b3ef92602092855f525f84520360405f2055845f525f825260405f20818154019055604051908152a3565b8263391434e360e21b5f5260045260245260445260645ffd5b634b637e8f60e11b5f525f60045260245ffd5b6005546001600160a01b0316330361086957565b63118cdaa760e01b5f523360045260245ffd5b9091906001600160a01b0316801561084257805f525f60205260405f20548381106108e6576020845f94957fddf252ad1be2c89b69c2b068fc378daa952ba7f163c4a11628f55a4df523b3ef938587528684520360408620558060025403600255604051908152a3565b915063391434e360e21b5f5260045260245260445260645ffdfea2646970667358221220e213b5a2fd04623227d81f4911ac1fc22653cf070bfc00db27d173c012e0911264736f6c634300081c0033","linkReferences":{}},"methodIdentifiers":{"INITIAL_SUPPLY()":"2ff2e9dc","allowance(address,address)":"dd62ed3e","approve(address,uint256)":"095ea7b3","balanceOf(address)":"70a08231","burn(uint256)":"42966c68","burnFrom(address,uint256)":"79cc6790","decimals()":"313ce567","mint(address,uint256)":"40c10f19","name()":"06fdde03","owner()":"8da5cb5b","renounceOwnership()":"715018a6","symbol()":"95d89b41","totalSupply()":"18160ddd","transfer(address,uint256)":"a9059cbb","transferFrom(address,address,uint256)":"23b872dd","transferOwnership(address)":"f2fde38b"},"id":463}