{"abi":[{"type":"function","name":"bytesMap","inputs":[{"name":"key","type":"uint256","internalType":"uint256"}],"outputs":[{"name":"","type":"bytes","internalType":"bytes"}],"stateMutability":"view"},{"type":"function","name":"getAddressSlot","inputs":[{"name":"slot","type":"bytes32","internalType":"bytes32"}],"outputs":[{"name":"","type":"address","internalType":"address"}],"stateMutability":"view"},{"type":"function","name":"getBooleanSlot","inputs":[{"name":"slot","type":"bytes32","internalType":"bytes32"}],"outputs":[{"name":"","type":"bool","internalType":"bool"}],"stateMutability":"view"},{"type":"function","name":"getBytes32Slot","inputs":[{"name":"slot","type":"bytes32","internalType":"bytes32"}],"outputs":[{"name":"","type":"bytes32","internalType":"bytes32"}],"stateMutability":"view"},{"type":"function","name":"getBytesSlot","inputs":[{"name":"slot","type":"bytes32","internalType":"bytes32"}],"outputs":[{"name":"","type":"bytes","internalType":"bytes"}],"stateMutability":"view"},{"type":"function","name":"getBytesStorage","inputs":[{"name":"key","type":"uint256","internalType":"uint256"}],"outputs":[{"name":"","type":"bytes","internalType":"bytes"}],"stateMutability":"view"},{"type":"function","name":"getInt256Slot","inputs":[{"name":"slot","type":"bytes32","internalType":"bytes32"}],"outputs":[{"name":"","type":"int256","internalType":"int256"}],"stateMutability":"view"},{"type":"function","name":"getStringSlot","inputs":[{"name":"slot","type":"bytes32","internalType":"bytes32"}],"outputs":[{"name":"","type":"string","internalType":"string"}],"stateMutability":"view"},{"type":"function","name":"getStringStorage","inputs":[{"name":"key","type":"uint256","internalType":"uint256"}],"outputs":[{"name":"","type":"string","internalType":"string"}],"stateMutability":"view"},{"type":"function","name":"getUint256Slot","inputs":[{"name":"slot","type":"bytes32","internalType":"bytes32"}],"outputs":[{"name":"","type":"uint256","internalType":"uint256"}],"stateMutability":"view"},{"type":"function","name":"multicall","inputs":[{"name":"data","type":"bytes[]","internalType":"bytes[]"}],"outputs":[{"name":"results","type":"bytes[]","internalType":"bytes[]"}],"stateMutability":"nonpayable"},{"type":"function","name":"setAddressSlot","inputs":[{"name":"slot","type":"bytes32","internalType":"bytes32"},{"name":"value","type":"address","internalType":"address"}],"outputs":[],"stateMutability":"nonpayable"},{"type":"function","name":"setBooleanSlot","inputs":[{"name":"slot","type":"bytes32","internalType":"bytes32"},{"name":"value","type":"bool","internalType":"bool"}],"outputs":[],"stateMutability":"nonpayable"},{"type":"function","name":"setBytes32Slot","inputs":[{"name":"slot","type":"bytes32","internalType":"bytes32"},{"name":"value","type":"bytes32","internalType":"bytes32"}],"outputs":[],"stateMutability":"nonpayable"},{"type":"function","name":"setBytesSlot","inputs":[{"name":"slot","type":"bytes32","internalType":"bytes32"},{"name":"value","type":"bytes","internalType":"bytes"}],"outputs":[],"stateMutability":"nonpayable"},{"type":"function","name":"setBytesStorage","inputs":[{"name":"key","type":"uint256","internalType":"uint256"},{"name":"value","type":"bytes","internalType":"bytes"}],"outputs":[],"stateMutability":"nonpayable"},{"type":"function","name":"setInt256Slot","inputs":[{"name":"slot","type":"bytes32","internalType":"bytes32"},{"name":"value","type":"int256","internalType":"int256"}],"outputs":[],"stateMutability":"nonpayable"},{"type":"function","name":"setStringSlot","inputs":[{"name":"slot","type":"bytes32","internalType":"bytes32"},{"name":"value","type":"string","internalType":"string"}],"outputs":[],"stateMutability":"nonpayable"},{"type":"function","name":"setStringStorage","inputs":[{"name":"key","type":"uint256","internalType":"uint256"},{"name":"value","type":"string","internalType":"string"}],"outputs":[],"stateMutability":"nonpayable"},{"type":"function","name":"setUint256Slot","inputs":[{"name":"slot","type":"bytes32","internalType":"bytes32"},{"name":"value","type":"uint256","internalType":"uint256"}],"outputs":[],"stateMutability":"nonpayable"},{"type":"function","name":"stringMap","inputs":[{"name":"key","type":"uint256","internalType":"uint256"}],"outputs":[{"name":"","type":"string","internalType":"string"}],"stateMutability":"view"},{"type":"error","name":"AddressEmptyCode","inputs":[{"name":"target","type":"address","internalType":"address"}]},{"type":"error","name":"FailedCall","inputs":[]}],"bytecode":{"object":"0x608080604052346015576109d1908161001a8239f35b5f80fdfe60806040526004361015610011575f80fd5b5f3560e01c80630afb30ba146106645780631e133d0f1461012e57806329c027e01461016f57806337f4a46d146106405780633e60bd781461059757806347e57533146101c85780634c650c86146104de5780635a46e25d146103d15780636e0e0483146104de578063767e35e0146104f857806383681c5b146104de578063913a2e32146103fb578063949a352c1461016f5780639b22f343146103d1578063a55a27f6146103a0578063ac9650d8146101e7578063b62b81ef146101c8578063b86c5dd51461018e578063dd4e27621461016f578063df6e58d61461012e5763e8ff0b1d14610100575f80fd5b3461012a57602036600319011261012a57600435546040516001600160a01b039091168152602090f35b5f80fd5b3461012a57602036600319011261012a576004355f525f60205261016b61015760405f206107bc565b60405191829160208352602083019061085c565b0390f35b3461012a57602036600319011261012a57602060043554604051908152f35b3461012a57604036600319011261012a576004356024356001600160a01b0381169081900361012a5781546001600160a01b031916179055005b3461012a57602036600319011261012a5761016b6101576004356107bc565b3461012a57602036600319011261012a5760043567ffffffffffffffff811161012a573660238201121561012a5780600401359067ffffffffffffffff821161012a573660248360051b8301011161012a576040519190602061024a818561079a565b5f845280840191601f198201368437610262846108cf565b90610270604051928361079a565b848252601f1961027f866108cf565b015f5b8181106103915750503681900360421901905f5b868110156103305760248160051b830101358381121561012a5782019060248201359167ffffffffffffffff831161012a57604401823603811361012a578261030e61031492898b8e60019860405196879585870137840190838201905f8252519283915e01015f815203601f19810183528261079a565b3061090f565b61031e82876108e7565b5261032981866108e7565b5001610296565b5050506040519082820192808352815180945260408301938160408260051b8601019301915f955b8287106103655785850386f35b909192938280610381600193603f198a8203018652885161085c565b9601920196019592919092610358565b60608482018601528401610282565b3461012a57604036600319011261012a5760043560243580151580910361012a5760ff801983541691161790555f80f35b3461012a57602036600319011261012a576004355f52600160205261016b61015760405f206107bc565b3461012a576104093661070e565b67ffffffffffffffff81939293116104ca5761042f816104298454610762565b84610880565b5f601f821160011461046c57819061045d93945f92610461575b50508160011b915f199060031b1c19161790565b9055005b013590508480610449565b601f19821693835f5260205f20915f5b8681106104b25750836001959610610499575b505050811b019055005b01355f19600384901b60f8161c1916905583808061048f565b9092602060018192868601358155019401910161047c565b634e487b7160e01b5f52604160045260245ffd5b3461012a57604036600319011261012a5760243560043555005b3461012a576105063661070e565b67ffffffffffffffff81939293116104ca57610526816104298454610762565b5f601f821160011461055357819061045d93945f926104615750508160011b915f199060031b1c19161790565b601f19821693835f5260205f20915f5b86811061057f575083600195961061049957505050811b019055005b90926020600181928686013581550194019101610563565b3461012a576105a53661070e565b90915f525f60205260405f209067ffffffffffffffff81116104ca576105cf816104298454610762565b5f601f82116001146105fc57819061045d93945f926104615750508160011b915f199060031b1c19161790565b601f19821693835f5260205f20915f5b868110610628575083600195961061049957505050811b019055005b9092602060018192868601358155019401910161060c565b3461012a57602036600319011261012a57602060ff60043554166040519015158152f35b3461012a576106723661070e565b90915f52600160205260405f209067ffffffffffffffff81116104ca5761069d816104298454610762565b5f601f82116001146106ca57819061045d93945f926104615750508160011b915f199060031b1c19161790565b601f19821693835f5260205f20915f5b8681106106f6575083600195961061049957505050811b019055005b909260206001819286860135815501940191016106da565b604060031982011261012a576004359160243567ffffffffffffffff811161012a5760040182601f8201121561012a5780359267ffffffffffffffff841161012a576020848184019301011161012a579190565b90600182811c92168015610790575b602083101461077c57565b634e487b7160e01b5f52602260045260245ffd5b91607f1691610771565b90601f8019910116810190811067ffffffffffffffff8211176104ca57604052565b9060405191825f8254926107cf84610762565b808452936001811690811561083a57506001146107f6575b506107f49250038361079a565b565b90505f9291925260205f20905f915b81831061081e5750509060206107f4928201015f6107e7565b6020919350806001915483858901015201910190918492610805565b9050602092506107f494915060ff191682840152151560051b8201015f6107e7565b805180835260209291819084018484015e5f828201840152601f01601f1916010190565b601f821161088d57505050565b5f5260205f20906020601f840160051c830193106108c5575b601f0160051c01905b8181106108ba575050565b5f81556001016108af565b90915081906108a6565b67ffffffffffffffff81116104ca5760051b60200190565b80518210156108fb5760209160051b010190565b634e487b7160e01b5f52603260045260245ffd5b905f8091602081519101845af48080610988575b156109435750506040513d81523d5f602083013e60203d82010160405290565b1561096857639996b31560e01b5f9081526001600160a01b0391909116600452602490fd5b3d15610979576040513d5f823e3d90fd5b63d6bda27560e01b5f5260045ffd5b503d1515806109235750813b151561092356fea2646970667358221220f0d2fb2bfc870633807f446f6aa201ca8bbfec497273b183b4e8e095c9a48fd564736f6c634300081c0033","linkReferences":{}},"methodIdentifiers":{"bytesMap(uint256)":"5a46e25d","getAddressSlot(bytes32)":"e8ff0b1d","getBooleanSlot(bytes32)":"37f4a46d","getBytes32Slot(bytes32)":"dd4e2762","getBytesSlot(bytes32)":"47e57533","getBytesStorage(uint256)":"9b22f343","getInt256Slot(bytes32)":"29c027e0","getStringSlot(bytes32)":"b62b81ef","getStringStorage(uint256)":"df6e58d6","getUint256Slot(bytes32)":"949a352c","multicall(bytes[])":"ac9650d8","setAddressSlot(bytes32,address)":"b86c5dd5","setBooleanSlot(bytes32,bool)":"a55a27f6","setBytes32Slot(bytes32,bytes32)":"6e0e0483","setBytesSlot(bytes32,bytes)":"767e35e0","setBytesStorage(uint256,bytes)":"0afb30ba","setInt256Slot(bytes32,int256)":"83681c5b","setStringSlot(bytes32,string)":"913a2e32","setStringStorage(uint256,string)":"3e60bd78","setUint256Slot(bytes32,uint256)":"4c650c86","stringMap(uint256)":"1e133d0f"},"id":169}