{"abi":[{"type":"constructor","inputs":[],"stateMutability":"nonpayable"},{"type":"function","name":"onTransferReceived","inputs":[{"name":"operator","type":"address","internalType":"address"},{"name":"from","type":"address","internalType":"address"},{"name":"value","type":"uint256","internalType":"uint256"},{"name":"data","type":"bytes","internalType":"bytes"}],"outputs":[{"name":"","type":"bytes4","internalType":"bytes4"}],"stateMutability":"nonpayable"},{"type":"function","name":"setUp","inputs":[{"name":"retval","type":"bytes4","internalType":"bytes4"},{"name":"error","type":"uint8","internalType":"enum ERC1363ReceiverMock.RevertType"}],"outputs":[],"stateMutability":"nonpayable"},{"type":"event","name":"Received","inputs":[{"name":"operator","type":"address","indexed":false,"internalType":"address"},{"name":"from","type":"address","indexed":false,"internalType":"address"},{"name":"value","type":"uint256","indexed":false,"internalType":"uint256"},{"name":"data","type":"bytes","indexed":false,"internalType":"bytes"}],"anonymous":false},{"type":"error","name":"CustomError","inputs":[{"name":"","type":"bytes4","internalType":"bytes4"}]}],"bytecode":{"object":"0x608080604052346027576388a7ca5c64ffffffffff195f5416175f55610277908161002c8239f35b5f80fdfe60806040526004361015610011575f80fd5b5f3560e01c806379317985146101ee576388a7ca5c1461002f575f80fd5b346101ea5760803660031901126101ea576004356001600160a01b038116908190036101ea576024356001600160a01b038116908190036101ea576064359067ffffffffffffffff82116101ea57366023830112156101ea5781600401359067ffffffffffffffff82116101ea5736602483850101116101ea575f549260ff8460201c1660058110156101d657600181036100c8575f80fd5b600281036101155760405162461bcd60e51b815260206004820152601e60248201527f4552433133363352656365697665724d6f636b3a20726576657274696e6700006044820152606490fd5b60038103610140576301990d6f60e61b5f90815260e086901b6001600160e01b031916600452602490fd5b6004146101c257602094837ed9411ae77b2bacabe5cbe62a2abdbeb78992a0182c6f3c83e0029c7615d6b694602460a09460405196879586528a86015260443560408601526080606086015282608086015201848401375f828201840152601f01601f19168101030190a160405160e09190911b6001600160e01b0319168152f35b634e487b7160e01b5f52601260045260245ffd5b634e487b7160e01b5f52602160045260245ffd5b5f80fd5b346101ea5760403660031901126101ea576004356001600160e01b0319811681036101ea5760243560058110156101ea5764ff000000005f549160201b169160e01c9064ffffffffff191617175f555f80f3fea264697066735822122012f9c4f7ea2e59b0726fac9999b6802a79ba6c42db5980bca3abd40166b49ff364736f6c634300081c0033","linkReferences":{}},"methodIdentifiers":{"onTransferReceived(address,address,uint256,bytes)":"88a7ca5c","setUp(bytes4,uint8)":"79317985"},"id":224}