{"abi":[{"type":"function","name":"isValidSignature","inputs":[{"name":"","type":"bytes32","internalType":"bytes32"},{"name":"","type":"bytes","internalType":"bytes"}],"outputs":[{"name":"","type":"bytes4","internalType":"bytes4"}],"stateMutability":"pure"}],"bytecode":{"object":"0x60808060405234601557610102908161001a8239f35b5f80fdfe608060405260043610156010575f80fd5b5f3560e01c631626ba7e146022575f80fd5b3460ab57604036600319011260ab5760243567ffffffffffffffff811160ab573660238201121560ab5780600401359067ffffffffffffffff821160af5760405191601f8101601f19908116603f0116830167ffffffffffffffff81118482101760af57604052808352366024828401011160ab575f92816024602094018483013701015260c3565b5f80fd5b634e487b7160e01b5f52604160045260245ffd5b5f195f5260205ff3fea2646970667358221220d4bbf4e877a779801be96513a1aa251bcc7bcd71befb55520bae5caea4cbdeec64736f6c634300081c0033","linkReferences":{}},"methodIdentifiers":{"isValidSignature(bytes32,bytes)":"1626ba7e"},"id":152}