{"abi":[{"type":"constructor","inputs":[{"name":"impl_","type":"address","internalType":"address"}],"stateMutability":"nonpayable"},{"type":"function","name":"cloneAndInitialize","inputs":[{"name":"callData","type":"bytes","internalType":"bytes"}],"outputs":[{"name":"","type":"address","internalType":"address"}],"stateMutability":"nonpayable"},{"type":"function","name":"predictAddress","inputs":[{"name":"callData","type":"bytes","internalType":"bytes"}],"outputs":[{"name":"","type":"address","internalType":"address"}],"stateMutability":"view"},{"type":"error","name":"AddressEmptyCode","inputs":[{"name":"target","type":"address","internalType":"address"}]},{"type":"error","name":"FailedCall","inputs":[]},{"type":"error","name":"FailedDeployment","inputs":[]},{"type":"error","name":"InsufficientBalance","inputs":[{"name":"balance","type":"uint256","internalType":"uint256"},{"name":"needed","type":"uint256","internalType":"uint256"}]}],"bytecode":{"object":"0x60a034607257601f6103e138819003918201601f19168301916001600160401b03831184841017607657808492602094604052833981010312607257516001600160a01b0381168103607257803b15607257608052604051610356908161008b8239608051818181609601526102350152f35b5f80fd5b634e487b7160e01b5f52604160045260245ffdfe60806040526004361015610011575f80fd5b5f3560e01c80639f053bcc1461005e5763b29ebe051461002f575f80fd5b3461005a57602061004861004236610144565b90610201565b6040516001600160a01b039091168152f35b5f80fd5b3461005a5761006c36610144565b906100778282610201565b90813b15610094575b6040516001600160a01b0383168152602090f35b7f00000000000000000000000000000000000000000000000000000000000000006e5af43d82803e903d91602b57fd5bf36100d0368685610195565b6020815191012091763d602d80600a3d3981f3363d3d373d3d3d363d7300000062ffffff8260881c16175f5260781b1760205260018060a01b0390603760095ff516156101355761012861012e916020943691610195565b82610293565b5082610080565b63b06ebf3d60e01b5f5260045ffd5b90602060031983011261005a5760043567ffffffffffffffff811161005a578260238201121561005a5780600401359267ffffffffffffffff841161005a576024848301011161005a576024019190565b92919267ffffffffffffffff82116101ed5760405191601f8101601f19908116603f0116830167ffffffffffffffff8111848210176101ed5760405282948184528183011161005a578281602093845f960137010152565b634e487b7160e01b5f52604160045260245ffd5b61020c913691610195565b60208151910120604051903060388301526f5af43d82803e903d91602b57fd5bf3ff60248301527f00000000000000000000000000000000000000000000000000000000000000006014830152733d602d80600a3d3981f3363d3d373d3d3d363d73825260588201526037600c82012060788201526055604360018060a01b039201201690565b905f809160208151910182855af1808061030d575b156102c85750506040513d81523d5f602083013e60203d82010160405290565b156102ed57639996b31560e01b5f9081526001600160a01b0391909116600452602490fd5b3d156102fe576040513d5f823e3d90fd5b63d6bda27560e01b5f5260045ffd5b503d1515806102a85750813b15156102a856fea2646970667358221220f4943577403940edc7d4d8a19eb581a8524ac4bc77ace1e15203a0940859936264736f6c634300081c0033","linkReferences":{}},"methodIdentifiers":{"cloneAndInitialize(bytes)":"9f053bcc","predictAddress(bytes)":"b29ebe05"},"id":191}