{"abi":[{"type":"function","name":"current","inputs":[],"outputs":[{"name":"","type":"uint256","internalType":"uint256"}],"stateMutability":"view"},{"type":"function","name":"increment","inputs":[],"outputs":[],"stateMutability":"nonpayable"}],"bytecode":{"object":"0x6080806040523460135760b2908160188239f35b5f80fdfe60808060405260043610156011575f80fd5b5f3560e01c9081639fa6a6e3146065575063d09de08a14602f575f80fd5b346061575f3660031901126061575f545f198114604d576001015f55005b634e487b7160e01b5f52601160045260245ffd5b5f80fd5b346061575f3660031901126061576020905f548152f3fea2646970667358221220e89c94d6101db1d00e7658b689bb1d2bd37895e134af0e02e219a3b61fbf1d4a64736f6c634300081c0033","linkReferences":{}},"methodIdentifiers":{"current()":"9fa6a6e3","increment()":"d09de08a"},"id":220}