{"abi":[{"type":"function","name":"msgData","inputs":[{"name":"integerValue","type":"uint256","internalType":"uint256"},{"name":"stringValue","type":"string","internalType":"string"}],"outputs":[],"stateMutability":"nonpayable"},{"type":"function","name":"msgDataShort","inputs":[],"outputs":[],"stateMutability":"nonpayable"},{"type":"function","name":"msgSender","inputs":[],"outputs":[],"stateMutability":"nonpayable"},{"type":"event","name":"Data","inputs":[{"name":"data","type":"bytes","indexed":false,"internalType":"bytes"},{"name":"integerValue","type":"uint256","indexed":false,"internalType":"uint256"},{"name":"stringValue","type":"string","indexed":false,"internalType":"string"}],"anonymous":false},{"type":"event","name":"DataShort","inputs":[{"name":"data","type":"bytes","indexed":false,"internalType":"bytes"}],"anonymous":false},{"type":"event","name":"Sender","inputs":[{"name":"sender","type":"address","indexed":false,"internalType":"address"}],"anonymous":false}],"bytecode":{"object":"0x60808060405234601557610226908161001a8239f35b5f80fdfe6080806040526004361015610012575f80fd5b5f3560e01c908163376bf262146100c857508063d737d0c71461008c5763ff5f6b591461003d575f80fd5b34610088575f366003190112610088577f6d7cec71eba467294d92341ddc4e8634eb4d742a90e16f408f06e4b70bc4cd66604051602081528061008360208201366101d0565b0390a1005b5f80fd5b34610088575f366003190112610088577fd6558c3ed910d959271054471fd1c326679d9fece99c5091b00ed89627cf2bfc6020604051338152a1005b34610088576040366003190112610088576024359067ffffffffffffffff821161008857366023830112156100885781600401359167ffffffffffffffff83116101bc57601f8301601f19908116603f0116820167ffffffffffffffff8111838210176101bc57604052828252602082013660248584010111610088575f6020857faf235354a0a47c91ee171961326335cb2d1a8e55b8a89859b0e61eb049e50ea09660248396018537850101526040519283916060835261018d60608401366101d0565b916004358585015283830360408501525180918184528584015e5f828201850152601f01601f191601030190a1005b634e487b7160e01b5f52604160045260245ffd5b90602091808252805f848401375f828201840152601f01601f191601019056fea2646970667358221220b76f4b9f907505d6e6153a2abcac07ed7015b31a05d38b9b7f7aae0d564de69364736f6c634300081c0033","linkReferences":{}},"methodIdentifiers":{"msgData(uint256,string)":"376bf262","msgDataShort()":"ff5f6b59","msgSender()":"d737d0c7"},"id":149}