{"abi":[{"type":"constructor","inputs":[{"name":"initialAdmin","type":"address","internalType":"address"}],"stateMutability":"nonpayable"},{"type":"function","name":"ADMIN_ROLE","inputs":[],"outputs":[{"name":"","type":"uint64","internalType":"uint64"}],"stateMutability":"view"},{"type":"function","name":"PUBLIC_ROLE","inputs":[],"outputs":[{"name":"","type":"uint64","internalType":"uint64"}],"stateMutability":"view"},{"type":"function","name":"canCall","inputs":[{"name":"caller","type":"address","internalType":"address"},{"name":"target","type":"address","internalType":"address"},{"name":"selector","type":"bytes4","internalType":"bytes4"}],"outputs":[{"name":"immediate","type":"bool","internalType":"bool"},{"name":"delay","type":"uint32","internalType":"uint32"}],"stateMutability":"view"},{"type":"function","name":"cancel","inputs":[{"name":"caller","type":"address","internalType":"address"},{"name":"target","type":"address","internalType":"address"},{"name":"data","type":"bytes","internalType":"bytes"}],"outputs":[{"name":"","type":"uint32","internalType":"uint32"}],"stateMutability":"nonpayable"},{"type":"function","name":"consumeScheduledOp","inputs":[{"name":"caller","type":"address","internalType":"address"},{"name":"data","type":"bytes","internalType":"bytes"}],"outputs":[],"stateMutability":"nonpayable"},{"type":"function","name":"execute","inputs":[{"name":"target","type":"address","internalType":"address"},{"name":"data","type":"bytes","internalType":"bytes"}],"outputs":[{"name":"","type":"uint32","internalType":"uint32"}],"stateMutability":"payable"},{"type":"function","name":"expiration","inputs":[],"outputs":[{"name":"","type":"uint32","internalType":"uint32"}],"stateMutability":"view"},{"type":"function","name":"fnRestricted","inputs":[],"outputs":[],"stateMutability":"nonpayable"},{"type":"function","name":"fnUnrestricted","inputs":[],"outputs":[],"stateMutability":"nonpayable"},{"type":"function","name":"getAccess","inputs":[{"name":"roleId","type":"uint64","internalType":"uint64"},{"name":"account","type":"address","internalType":"address"}],"outputs":[{"name":"since","type":"uint48","internalType":"uint48"},{"name":"currentDelay","type":"uint32","internalType":"uint32"},{"name":"pendingDelay","type":"uint32","internalType":"uint32"},{"name":"effect","type":"uint48","internalType":"uint48"}],"stateMutability":"view"},{"type":"function","name":"getNonce","inputs":[{"name":"id","type":"bytes32","internalType":"bytes32"}],"outputs":[{"name":"","type":"uint32","internalType":"uint32"}],"stateMutability":"view"},{"type":"function","name":"getRoleAdmin","inputs":[{"name":"roleId","type":"uint64","internalType":"uint64"}],"outputs":[{"name":"","type":"uint64","internalType":"uint64"}],"stateMutability":"view"},{"type":"function","name":"getRoleGrantDelay","inputs":[{"name":"roleId","type":"uint64","internalType":"uint64"}],"outputs":[{"name":"","type":"uint32","internalType":"uint32"}],"stateMutability":"view"},{"type":"function","name":"getRoleGuardian","inputs":[{"name":"roleId","type":"uint64","internalType":"uint64"}],"outputs":[{"name":"","type":"uint64","internalType":"uint64"}],"stateMutability":"view"},{"type":"function","name":"getSchedule","inputs":[{"name":"id","type":"bytes32","internalType":"bytes32"}],"outputs":[{"name":"","type":"uint48","internalType":"uint48"}],"stateMutability":"view"},{"type":"function","name":"getTargetAdminDelay","inputs":[{"name":"target","type":"address","internalType":"address"}],"outputs":[{"name":"","type":"uint32","internalType":"uint32"}],"stateMutability":"view"},{"type":"function","name":"getTargetFunctionRole","inputs":[{"name":"target","type":"address","internalType":"address"},{"name":"selector","type":"bytes4","internalType":"bytes4"}],"outputs":[{"name":"","type":"uint64","internalType":"uint64"}],"stateMutability":"view"},{"type":"function","name":"grantRole","inputs":[{"name":"roleId","type":"uint64","internalType":"uint64"},{"name":"account","type":"address","internalType":"address"},{"name":"executionDelay","type":"uint32","internalType":"uint32"}],"outputs":[],"stateMutability":"nonpayable"},{"type":"function","name":"hasRole","inputs":[{"name":"roleId","type":"uint64","internalType":"uint64"},{"name":"account","type":"address","internalType":"address"}],"outputs":[{"name":"isMember","type":"bool","internalType":"bool"},{"name":"executionDelay","type":"uint32","internalType":"uint32"}],"stateMutability":"view"},{"type":"function","name":"hashOperation","inputs":[{"name":"caller","type":"address","internalType":"address"},{"name":"target","type":"address","internalType":"address"},{"name":"data","type":"bytes","internalType":"bytes"}],"outputs":[{"name":"","type":"bytes32","internalType":"bytes32"}],"stateMutability":"view"},{"type":"function","name":"isTargetClosed","inputs":[{"name":"target","type":"address","internalType":"address"}],"outputs":[{"name":"","type":"bool","internalType":"bool"}],"stateMutability":"view"},{"type":"function","name":"labelRole","inputs":[{"name":"roleId","type":"uint64","internalType":"uint64"},{"name":"label","type":"string","internalType":"string"}],"outputs":[],"stateMutability":"nonpayable"},{"type":"function","name":"minSetback","inputs":[],"outputs":[{"name":"","type":"uint32","internalType":"uint32"}],"stateMutability":"view"},{"type":"function","name":"multicall","inputs":[{"name":"data","type":"bytes[]","internalType":"bytes[]"}],"outputs":[{"name":"results","type":"bytes[]","internalType":"bytes[]"}],"stateMutability":"nonpayable"},{"type":"function","name":"renounceRole","inputs":[{"name":"roleId","type":"uint64","internalType":"uint64"},{"name":"callerConfirmation","type":"address","internalType":"address"}],"outputs":[],"stateMutability":"nonpayable"},{"type":"function","name":"revokeRole","inputs":[{"name":"roleId","type":"uint64","internalType":"uint64"},{"name":"account","type":"address","internalType":"address"}],"outputs":[],"stateMutability":"nonpayable"},{"type":"function","name":"schedule","inputs":[{"name":"target","type":"address","internalType":"address"},{"name":"data","type":"bytes","internalType":"bytes"},{"name":"when","type":"uint48","internalType":"uint48"}],"outputs":[{"name":"operationId","type":"bytes32","internalType":"bytes32"},{"name":"nonce","type":"uint32","internalType":"uint32"}],"stateMutability":"nonpayable"},{"type":"function","name":"setGrantDelay","inputs":[{"name":"roleId","type":"uint64","internalType":"uint64"},{"name":"newDelay","type":"uint32","internalType":"uint32"}],"outputs":[],"stateMutability":"nonpayable"},{"type":"function","name":"setRoleAdmin","inputs":[{"name":"roleId","type":"uint64","internalType":"uint64"},{"name":"admin","type":"uint64","internalType":"uint64"}],"outputs":[],"stateMutability":"nonpayable"},{"type":"function","name":"setRoleGuardian","inputs":[{"name":"roleId","type":"uint64","internalType":"uint64"},{"name":"guardian","type":"uint64","internalType":"uint64"}],"outputs":[],"stateMutability":"nonpayable"},{"type":"function","name":"setTargetAdminDelay","inputs":[{"name":"target","type":"address","internalType":"address"},{"name":"newDelay","type":"uint32","internalType":"uint32"}],"outputs":[],"stateMutability":"nonpayable"},{"type":"function","name":"setTargetClosed","inputs":[{"name":"target","type":"address","internalType":"address"},{"name":"closed","type":"bool","internalType":"bool"}],"outputs":[],"stateMutability":"nonpayable"},{"type":"function","name":"setTargetFunctionRole","inputs":[{"name":"target","type":"address","internalType":"address"},{"name":"selectors","type":"bytes4[]","internalType":"bytes4[]"},{"name":"roleId","type":"uint64","internalType":"uint64"}],"outputs":[],"stateMutability":"nonpayable"},{"type":"function","name":"updateAuthority","inputs":[{"name":"target","type":"address","internalType":"address"},{"name":"newAuthority","type":"address","internalType":"address"}],"outputs":[],"stateMutability":"nonpayable"},{"type":"event","name":"CalledRestricted","inputs":[{"name":"caller","type":"address","indexed":false,"internalType":"address"}],"anonymous":false},{"type":"event","name":"CalledUnrestricted","inputs":[{"name":"caller","type":"address","indexed":false,"internalType":"address"}],"anonymous":false},{"type":"event","name":"OperationCanceled","inputs":[{"name":"operationId","type":"bytes32","indexed":true,"internalType":"bytes32"},{"name":"nonce","type":"uint32","indexed":true,"internalType":"uint32"}],"anonymous":false},{"type":"event","name":"OperationExecuted","inputs":[{"name":"operationId","type":"bytes32","indexed":true,"internalType":"bytes32"},{"name":"nonce","type":"uint32","indexed":true,"internalType":"uint32"}],"anonymous":false},{"type":"event","name":"OperationScheduled","inputs":[{"name":"operationId","type":"bytes32","indexed":true,"internalType":"bytes32"},{"name":"nonce","type":"uint32","indexed":true,"internalType":"uint32"},{"name":"schedule","type":"uint48","indexed":false,"internalType":"uint48"},{"name":"caller","type":"address","indexed":false,"internalType":"address"},{"name":"target","type":"address","indexed":false,"internalType":"address"},{"name":"data","type":"bytes","indexed":false,"internalType":"bytes"}],"anonymous":false},{"type":"event","name":"RoleAdminChanged","inputs":[{"name":"roleId","type":"uint64","indexed":true,"internalType":"uint64"},{"name":"admin","type":"uint64","indexed":true,"internalType":"uint64"}],"anonymous":false},{"type":"event","name":"RoleGrantDelayChanged","inputs":[{"name":"roleId","type":"uint64","indexed":true,"internalType":"uint64"},{"name":"delay","type":"uint32","indexed":false,"internalType":"uint32"},{"name":"since","type":"uint48","indexed":false,"internalType":"uint48"}],"anonymous":false},{"type":"event","name":"RoleGranted","inputs":[{"name":"roleId","type":"uint64","indexed":true,"internalType":"uint64"},{"name":"account","type":"address","indexed":true,"internalType":"address"},{"name":"delay","type":"uint32","indexed":false,"internalType":"uint32"},{"name":"since","type":"uint48","indexed":false,"internalType":"uint48"},{"name":"newMember","type":"bool","indexed":false,"internalType":"bool"}],"anonymous":false},{"type":"event","name":"RoleGuardianChanged","inputs":[{"name":"roleId","type":"uint64","indexed":true,"internalType":"uint64"},{"name":"guardian","type":"uint64","indexed":true,"internalType":"uint64"}],"anonymous":false},{"type":"event","name":"RoleLabel","inputs":[{"name":"roleId","type":"uint64","indexed":true,"internalType":"uint64"},{"name":"label","type":"string","indexed":false,"internalType":"string"}],"anonymous":false},{"type":"event","name":"RoleRevoked","inputs":[{"name":"roleId","type":"uint64","indexed":true,"internalType":"uint64"},{"name":"account","type":"address","indexed":true,"internalType":"address"}],"anonymous":false},{"type":"event","name":"TargetAdminDelayUpdated","inputs":[{"name":"target","type":"address","indexed":true,"internalType":"address"},{"name":"delay","type":"uint32","indexed":false,"internalType":"uint32"},{"name":"since","type":"uint48","indexed":false,"internalType":"uint48"}],"anonymous":false},{"type":"event","name":"TargetClosed","inputs":[{"name":"target","type":"address","indexed":true,"internalType":"address"},{"name":"closed","type":"bool","indexed":false,"internalType":"bool"}],"anonymous":false},{"type":"event","name":"TargetFunctionRoleUpdated","inputs":[{"name":"target","type":"address","indexed":true,"internalType":"address"},{"name":"selector","type":"bytes4","indexed":false,"internalType":"bytes4"},{"name":"roleId","type":"uint64","indexed":true,"internalType":"uint64"}],"anonymous":false},{"type":"error","name":"AccessManagerAlreadyScheduled","inputs":[{"name":"operationId","type":"bytes32","internalType":"bytes32"}]},{"type":"error","name":"AccessManagerBadConfirmation","inputs":[]},{"type":"error","name":"AccessManagerExpired","inputs":[{"name":"operationId","type":"bytes32","internalType":"bytes32"}]},{"type":"error","name":"AccessManagerInvalidInitialAdmin","inputs":[{"name":"initialAdmin","type":"address","internalType":"address"}]},{"type":"error","name":"AccessManagerLockedRole","inputs":[{"name":"roleId","type":"uint64","internalType":"uint64"}]},{"type":"error","name":"AccessManagerNotReady","inputs":[{"name":"operationId","type":"bytes32","internalType":"bytes32"}]},{"type":"error","name":"AccessManagerNotScheduled","inputs":[{"name":"operationId","type":"bytes32","internalType":"bytes32"}]},{"type":"error","name":"AccessManagerUnauthorizedAccount","inputs":[{"name":"msgsender","type":"address","internalType":"address"},{"name":"roleId","type":"uint64","internalType":"uint64"}]},{"type":"error","name":"AccessManagerUnauthorizedCall","inputs":[{"name":"caller","type":"address","internalType":"address"},{"name":"target","type":"address","internalType":"address"},{"name":"selector","type":"bytes4","internalType":"bytes4"}]},{"type":"error","name":"AccessManagerUnauthorizedCancel","inputs":[{"name":"msgsender","type":"address","internalType":"address"},{"name":"caller","type":"address","internalType":"address"},{"name":"target","type":"address","internalType":"address"},{"name":"selector","type":"bytes4","internalType":"bytes4"}]},{"type":"error","name":"AccessManagerUnauthorizedConsume","inputs":[{"name":"target","type":"address","internalType":"address"}]},{"type":"error","name":"AddressEmptyCode","inputs":[{"name":"target","type":"address","internalType":"address"}]},{"type":"error","name":"FailedCall","inputs":[]},{"type":"error","name":"InsufficientBalance","inputs":[{"name":"balance","type":"uint256","internalType":"uint256"},{"name":"needed","type":"uint256","internalType":"uint256"}]},{"type":"error","name":"SafeCastOverflowedUintDowncast","inputs":[{"name":"bits","type":"uint8","internalType":"uint8"},{"name":"value","type":"uint256","internalType":"uint256"}]}],"bytecode":{"object":"0x6080604052346102b757604051601f6126fe38819003918201601f19168301916001600160401b0383118484101761015a578084926020946040528339810103126102b757516001600160a01b038116908190036102b75780156102a4575f8181525f5160206126be5f395f51905f52602052604090205465ffffffffffff161580156101825765ffffffffffff610096426102bb565b1665ffffffffffff811161016e578060405191604083019383851060018060401b0386111761015a5760409485529183525f60208085018281528783525f5160206126be5f395f51905f529091529481209351845495516001600160a01b031990961665ffffffffffff919091161760309590951b600160301b600160a01b0316949094179092555f5160206126de5f395f51905f52916060915b65ffffffffffff604051928684521660208301526040820152a36040516123d390816102eb8239f35b634e487b7160e01b5f52604160045260245ffd5b634e487b7160e01b5f52601160045260245ffd5b5f8281525f5160206126be5f395f51905f526020526040902054906101a6426102bb565b63ffffffff8360301c169265ffffffffffff808260701c1692168211155f146102925750505b63ffffffff8216801561028b5763ffffffff811161016e575b65ffffffffffff63ffffffff6101fa426102bb565b921691160165ffffffffffff811161016e575f8481525f5160206126be5f395f51905f52602090815260408083208054600160301b600160a01b0319169185901b6dffffffffffff0000000000000000169690921b67ffffffff00000000169590951760301b600160301b600160a01b0316949094179093555f5160206126de5f395f51905f529160609190610131565b505f6101e5565b63ffffffff9060501c169250506101cc565b630409d6d160e11b5f525f60045260245ffd5b5f80fd5b65ffffffffffff81116102d35765ffffffffffff1690565b6306dfcc6560e41b5f52603060045260245260445ffdfe60806040526004361015610011575f80fd5b5f5f3560e01c806308d6122d146115b35780630b0a93ba1461156e57806312be87271461154b578063167bd395146114c057806318ff183c1461142e5780631cff79cd146112ef57806325c471a014610fe65780633078f11414610f8b57806330cae18714610eed5780633adc277a14610ebe5780633ca7c02a14610e9c5780634136a33c14610e695780634665096d14610e4b5780634c1da1e214610e195780635296295214610d61578063530dd45614610d0d57806357a2211114610cc75780636d5115bd14610c675780636f154d2d14610c2957806375b238fc14610c0d578063853551b814610b5357806394c7d7ee14610a8d578063a166aa8914610a41578063a64d95ce14610935578063abd9bd2a14610910578063ac9650d814610763578063b70096131461071e578063b7d2b162146106eb578063cc1b6c81146106cd578063d1f856ee14610688578063d22b5989146105b9578063d6bb62c614610405578063f801a698146101e25763fe0776f514610190575f80fd5b346101df5760403660031901126101df576101a96116f0565b6101b16116aa565b90336001600160a01b038316036101d057906101cc91611dea565b5080f35b635f159e6360e01b8352600483fd5b80fd5b50346101df5760603660031901126101df576101fc611694565b906024356001600160401b0381116104015761021c90369060040161171c565b919060443565ffffffffffff81168091036103fd5761023d84838733611b92565b905061025963ffffffff6102504261236e565b92168092611ac1565b901580156103e2575b6103a9579065ffffffffffff80921690818082119118021816906102888482873361191b565b93848452600260205265ffffffffffff6040852054168015159081610398575b5061038457604095849361037587947f82a2da5dee54ea8021c6545b4444620291e07ee83be6dd57edb175062715f3b494868b99526002602052600163ffffffff8a8a205460301c160163ffffffff81169989898c9b52600260205281812065ffffffffffff881665ffffffffffff198254161790558981526002602052209069ffffffff00000000000082549160301b169069ffffffff00000000000019161790558a51948594855233602086015260018060a01b03168b8501526080606085015260808401916118fb565b0390a382519182526020820152f35b63813e945960e01b84526004859052602484fd5b6103a29150611d94565b155f6102a8565b606484876103b78887611bd9565b6381c6f24b60e01b8352336004526001600160a01b039091166024526001600160e01b031916604452fd5b508115158015610262575065ffffffffffff81168210610262565b8280fd5b5080fd5b50346101df5761042d906104183661179f565b6104258183949793611bd9565b92868561191b565b91828452600260205265ffffffffffff604085205416155f1461045e5763060a299b60e41b84526004839052602484fd5b6001600160a01b0316903382036104d0575b505060209250808252600283526040822065ffffffffffff1981541690558082526002835263ffffffff604083205460301c1680917fbd9ac67a6e2f6463b80927326310338bcbb4bdb7936ce1365ea3e01067e7b9f76040519480a38152f35b65ffffffffffff946104e2335f611857565b5050961695861515968761059c575b505060018060a01b03169485855284602052604085209163ffffffff60e01b1691828652602052610559336105546001600160401b036040892054166001600160401b03165f5260016020526001600160401b03600160405f20015460401c1690565b611a6b565b5090159081610593575b501561047057608492508460405192630ff89d4760e21b8452336004850152602484015260448301526064820152fd5b9050155f610563565b90965065ffffffffffff6105af4261236e565b161015955f6104f1565b50346101df5760403660031901126101df576105d3611694565b7fa56b76017453f399ec2327ba00375dbfb1fd070ff854341ad6191e6a2e2de19c6105fc61178c565b91610605611af3565b60018060a01b0316918284528360205261062f816001600160701b036001604088200154166122db565b9190848652856020526001600160701b036001604088200191166001600160701b03198254161790556106826040519283928390929165ffffffffffff60209163ffffffff604085019616845216910152565b0390a280f35b50346101df5760403660031901126101df576106b36106a56116f0565b6106ad6116aa565b90611a6b565b60408051921515835263ffffffff91909116602083015290f35b50346101df57806003193601126101df576020604051620697808152f35b50346101df5760403660031901126101df576101cc6107086116f0565b6107106116aa565b90610719611af3565b611dea565b50346101df5760603660031901126101df57610738611694565b6107406116aa565b604435916001600160e01b03198316830361075f576106b393506119a9565b8380fd5b50346101df5760203660031901126101df576004356001600160401b038111610401576107949036906004016116c0565b9060206040516107a48282611822565b84815281810191601f1981013684376107bc8561196a565b936107ca6040519586611822565b858552601f196107d98761196a565b01875b81811061090157505036819003601e190190875b87811015610889578060051b82013583811215610885578201908135916001600160401b0383116108815785018236038113610881578261085f610865928d898c6001986040519687958487013784018281018481528e519283915e010190815203601f198101835282611822565b30611dc8565b61086f828a611981565b5261087a8189611981565b50016107f0565b8a80fd5b8980fd5b88848860405191808301818452825180915260408401918060408360051b870101940192865b8388106108bc5786860387f35b9091929394838080600193603f198b8203018752818a518051918291828552018484015e86838284010152601f801991011601019701930197019690939291936108af565b606087820185015283016107dc565b50346101df57602061092d6109243661179f565b9291909161191b565b604051908152f35b50346101df5760403660031901126101df5761094f6116f0565b6001600160401b0361095f61178c565b91610968611af3565b16906001600160401b038214610a2d577ffeb69018ee8b8fd50ea86348f1267d07673379f72cffdeccec63853ee8ce8b489082845260016020526109bf816001600160701b03600160408820015460801c166122db565b84865260016020818152604080892090920180546dffffffffffffffffffffffffffff60801b191660809590951b6dffffffffffffffffffffffffffff60801b1694909417909355805163ffffffff909416845265ffffffffffff9091169183019190915281908101610682565b63061c6a4360e21b83526004829052602483fd5b50346101df5760203660031901126101df576020610a83610a60611694565b6001600160a01b03165f9081526020819052604090206001015460701c60ff1690565b6040519015158152f35b50346101df57610a9c36611749565b91604051638fb3603760e01b8152602081600481335afa908115610b48578591610b01575b506001600160e01b03191663704c9fc960e01b01610aee5791610ae9916101cc93339061191b565b611bef565b630641fee960e31b845233600452602484fd5b90506020813d602011610b40575b81610b1c60209383611822565b81010312610b3c57516001600160e01b031981168103610b3c575f610ac1565b8480fd5b3d9150610b0f565b6040513d87823e3d90fd5b50346101df5760403660031901126101df57610b6d6116f0565b602435906001600160401b0382116103fd57610b956001600160401b0392369060040161171c565b929091610ba0611af3565b169182158015610bfd575b610be957907f1256f5b5ecb89caec12db449738f2fbcd1ba5806cf38f35413f4e5c15bf6a450916106826040519283926020845260208401916118fb565b63061c6a4360e21b84526004839052602484fd5b506001600160401b038314610bab565b50346101df57806003193601126101df57602090604051908152f35b50346101df57806003193601126101df577f723e9347c9cee19522d182a3a0d8287ce6ba225b534114cb124b76e1523bfb7e6020604051338152a180f35b50346101df5760403660031901126101df57610c81611694565b6024359063ffffffff60e01b82168092036103fd576001600160a01b0316825260208281526040808420928452918152918190205490516001600160401b039091168152f35b50346101df57806003193601126101df57610ce0611af3565b7f736614e0596fd68e76f34c74b62efa34b16c2a960f58ae22d1ec8fe770c1961a6020604051338152a180f35b50346101df5760203660031901126101df576020610d50610d2c6116f0565b6001600160401b03165f5260016020526001600160401b03600160405f2001541690565b6001600160401b0360405191168152f35b50346101df5760403660031901126101df57610d7b6116f0565b6001600160401b03610d8b611706565b91610d94611af3565b169081158015610e09575b610a2d576001600160401b0390828452600160205260016040852001805467ffffffffffffffff60401b8360401b169067ffffffffffffffff60401b191617905516907f7a8059630b897b5de4c08ade69f8b90c3ead1f8596d62d10b6c4d14a0afb4ae28380a380f35b506001600160401b038214610d9f565b50346101df5760203660031901126101df576020610e3d610e38611694565b6118d4565b63ffffffff60405191168152f35b50346101df57806003193601126101df57602060405162093a808152f35b50346101df5760203660031901126101df5763ffffffff6040602092600435815260028452205460301c16604051908152f35b50346101df57806003193601126101df5760206040516001600160401b038152f35b50346101df5760203660031901126101df576020610edd6004356118aa565b65ffffffffffff60405191168152f35b50346101df5760403660031901126101df57610f076116f0565b6001600160401b03610f17611706565b91610f20611af3565b169081158015610f7b575b610a2d576001600160401b0390828452600160205260016040852001828216831982541617905516907f1fd6dd7631312dfac2205b52913f99de03b4d7e381d5d27d3dbfe0713e6e63408380a380f35b506001600160401b038214610f2b565b50346101df5760403660031901126101df57608063ffffffff65ffffffffffff81610fc5610fb76116f0565b610fbf6116aa565b90611857565b93929590918560405197168752166020860152166040840152166060820152f35b50346101df5760603660031901126101df576110006116f0565b6110086116aa565b906044359163ffffffff831680930361075f57611023611af3565b6001600160401b03611034836117f1565b9216916001600160401b0383146112db578285526001602090815260408087206001600160a01b0385165f908152925290205465ffffffffffff1615908115611179576110919063ffffffff6110894261236e565b911690611ac1565b604051604081018181106001600160401b03821117611165577ff98448b987f1428e0e230e1f3c6e2ce15b5693eaf31827fbd0b1ec4b424ae7cf94926111466060959365ffffffffffff9360405283831681526001600160701b03602082018b81528a8d52600160205260408d2060018060a01b0389165f52602052858060405f209451161686198454161783555116600160301b600160a01b0382549160301b1690600160301b600160a01b031916179055565b60408051988952911660208801528601526001600160a01b031693a380f35b634e487b7160e01b88526041600452602488fd5b5082855260016020526040852060018060a01b0383165f526020526111ad6001600160701b0360405f205460301c16611d57565b50508463ffffffff82168181115f14611292570363ffffffff811161127e579165ffffffffffff7ff98448b987f1428e0e230e1f3c6e2ce15b5693eaf31827fbd0b1ec4b424ae7cf949261127967ffffffff0000000061121e63ffffffff6060985b166112194261236e565b611ac1565b9260201b1665ffffffffffff60401b8360401b16178917888b52600160205260408b2060018060a01b0387165f5260205260405f2090600160301b600160a01b0382549160301b1690600160301b600160a01b031916179055565b611146565b634e487b7160e01b87526011600452602487fd5b50509160609165ffffffffffff7ff98448b987f1428e0e230e1f3c6e2ce15b5693eaf31827fbd0b1ec4b424ae7cf9461127967ffffffff0000000061121e63ffffffff8c61120f565b63061c6a4360e21b85526004839052602485fd5b506112f936611749565b909161130782848333611b92565b93901580611420575b611412576113208382843361191b565b63ffffffff869516158015906113f9575b6113e7575b506003549261136d6113488284611bd9565b6001600160a01b0385165f9081526001600160e01b0319919091166020526040902090565b6003556001600160401b0381116113d35760405191611396601f8301601f191660200184611822565b81835236828201116113cf579560208284938299836113bd98970137830101523491611cbc565b5060035563ffffffff60405191168152f35b8680fd5b634e487b7160e01b86526041600452602486fd5b6113f2919450611bef565b925f611336565b5065ffffffffffff61140a826118aa565b161515611331565b906103b76064938693611bd9565b5063ffffffff841615611310565b50346114bc5760403660031901126114bc57611448611694565b6114506116aa565b90611459611af3565b6001600160a01b031690813b156114bc57604051637a9e5e4b60e01b81526001600160a01b039091166004820152905f908290602490829084905af180156114b1576114a3575080f35b6114af91505f90611822565b005b6040513d5f823e3d90fd5b5f80fd5b346114bc5760403660031901126114bc576114d9611694565b602435908115158092036114bc5760207f90d4e7bb7e5d933792b3562e1741306f8be94837e1348dacef9b6f1df56eb13891611513611af3565b6001600160a01b03165f818152808352604090819020600101805460ff60701b1916607087901b60ff60701b161790555193845292a2005b346114bc5760203660031901126114bc576020610e3d6115696116f0565b6117f1565b346114bc5760203660031901126114bc576020610d5061158c6116f0565b6001600160401b03165f5260016020526001600160401b03600160405f20015460401c1690565b346114bc5760603660031901126114bc576115cc611694565b6024356001600160401b0381116114bc576115eb9036906004016116c0565b9190604435906001600160401b0382168092036114bc5761160d939293611af3565b6001600160a01b03909316925f5b838110156114af578060051b8201359063ffffffff60e01b82168092036114bc5783867f9ea6790c7dadfd01c9f8b9762b3682607af2c7e79e05a9f9fdf5580dde9491516020600195835f525f825260405f20815f52825260405f20856001600160401b0319825416179055604051908152a30161161b565b600435906001600160a01b03821682036114bc57565b602435906001600160a01b03821682036114bc57565b9181601f840112156114bc578235916001600160401b0383116114bc576020808501948460051b0101116114bc57565b600435906001600160401b03821682036114bc57565b602435906001600160401b03821682036114bc57565b9181601f840112156114bc578235916001600160401b0383116114bc57602083818601950101116114bc57565b9060406003198301126114bc576004356001600160a01b03811681036114bc5791602435906001600160401b0382116114bc576117889160040161171c565b9091565b6024359063ffffffff821682036114bc57565b60606003198201126114bc576004356001600160a01b03811681036114bc57916024356001600160a01b03811681036114bc5791604435906001600160401b0382116114bc576117889160040161171c565b6001600160401b03165f52600160205261181d6001600160701b03600160405f20015460801c16611d57565b505090565b90601f801991011681019081106001600160401b0382111761184357604052565b634e487b7160e01b5f52604160045260245ffd5b6001600160401b03165f9081526001602090815260408083206001600160a01b039094168352929052205465ffffffffffff916118a0603083901c6001600160701b0316611d57565b9490931693909291565b5f52600260205265ffffffffffff60405f2054166118c781611d94565b156118d157505f90565b90565b60018060a01b03165f525f60205261181d6001600160701b03600160405f20015416611d57565b908060209392818452848401375f828201840152601f01601f1916010190565b604080516001600160a01b039283166020820190815292909316908301526060808301529290916119649183916119569160808401916118fb565b03601f198101835282611822565b51902090565b6001600160401b0381116118435760051b60200190565b80518210156119955760209160051b010190565b634e487b7160e01b5f52603260045260245ffd5b6001600160a01b0382165f9081526020819052604090206001015491929160701c60ff16156119db575050505f905f90565b6001600160a01b0381163003611a1857506003546001600160a01b039092165f9081526001600160e01b0319909116602052604090205b14905f90565b90611a519260018060a01b03165f525f60205260405f209063ffffffff60e01b165f526020526001600160401b0360405f205416611a6b565b919015611a645763ffffffff8216159190565b5f91508190565b6001600160401b0381811603611a845750506001905f90565b65ffffffffffff9291611a9691611857565b505092168015159081611aa857509190565b905065ffffffffffff611aba4261236e565b1610159190565b9065ffffffffffff8091169116019065ffffffffffff8211611adf57565b634e487b7160e01b5f52601160045260245ffd5b611afd3633611e99565b9015611b065750565b63ffffffff16611b3b576001600160401b03611b2136611f9c565b50905063f07e038f60e01b5f52336004521660245260445ffd5b611b8f6040516020810190338252306040820152606080820152611b8781602060808201368152365f838301375f823683010152601f19601f360116010103601f198101835282611822565b519020611bef565b50565b909291906001600160a01b0384163003611bb0576117889350611f4d565b9192906004841015611bc657505050505f905f90565b61178893611bd391611bd9565b916119a9565b906004116114bc57356001600160e01b03191690565b5f81815260026020526040902054909190603081901c63ffffffff169065ffffffffffff1680611c2c578363060a299b60e41b5f5260045260245ffd5b65ffffffffffff611c3c4261236e565b16811115611c575783630c65b5bd60e11b5f5260045260245ffd5b611c649093919293611d94565b611caa578190805f52600260205260405f2065ffffffffffff1981541690557f76a2a46953689d4861a5d3f6ed883ad7e6af674a21f8e162707159fc9dde614d5f80a390565b631e2975b960e21b5f5260045260245ffd5b91804710611d4157815f92916020849351920190855af18080611d2e575b15611ce95750506118d16122c2565b15611d0e57639996b31560e01b5f9081526001600160a01b0391909116600452602490fd5b3d15611d1f576040513d5f823e3d90fd5b63d6bda27560e01b5f5260045ffd5b503d151580611cda5750813b1515611cda565b4763cf47918160e01b5f5260045260245260445ffd5b611d604261236e565b63ffffffff82169165ffffffffffff604082901c811692168211611d88575090915f91508190565b60201c63ffffffff1692565b65ffffffffffff62093a8091160165ffffffffffff8111611adf5765ffffffffffff80611dc04261236e565b169116111590565b905f8091602081519101845af48080611d2e5715611ce95750506118d16122c2565b6001600160401b0316906001600160401b038214611e8657815f52600160205260405f2060018060a01b0382165f5260205265ffffffffffff60405f20541615611e8057815f52600160205260405f2060018060a01b0382165f526020525f604081205560018060a01b0316907ff229baa593af28c41b1d16b748cd7688f0c83aaf92d4be41c44005defe84c1665f80a3600190565b50505f90565b5063061c6a4360e21b5f5260045260245ffd5b9060048110611ef5576001600160a01b0382163014611f2457611ebc905f612144565b9290911580611f06575b611efd57611ed391611a6b565b9015611ef55763ffffffff808093169116908180821191180218169081159190565b50505f905f90565b5050505f905f90565b50305f9081526020819052604090206001015460701c60ff16611ec6565b90506004116114bc57600354305f90815280356001600160e01b03191660205260409020611a12565b919060048210611efd576001600160a01b0383163014611f715790611ebc91612144565b611f7b9250611bd9565b600354305f9081526001600160e01b03199092166020526040909120611a12565b5f906004811061213a57806004116114bc575f356001600160e01b031916906310a6aa3760e31b8214801561212a575b801561211a575b801561210a575b80156120fa575b6120ee5763063fc60f60e21b821480156120de575b80156120ce575b61209e5763012e238d60e51b8214801561208e575b61203d575030825281602052604082209082526020526001600160401b036040822054169181929190565b90506024116101df57806101df57506004356001600160401b03811681036114bc57612087906001600160401b03165f5260016020526001600160401b03600160405f2001541690565b6001915f90565b50635be958b160e11b8214612012565b9150506024116114bc576004356001600160a01b038116908190036114bc576120c6906118d4565b6001915f9190565b506308d6122d60e01b8214611ffd565b5063167bd39560e01b8214611ff6565b5050506001905f905f90565b5063d22b598960e01b8214611fe1565b50635326cae760e11b8214611fda565b5063294b14a960e11b8214611fd3565b506330cae18760e01b8214611fcc565b50505f905f905f90565b6004821061213a576001600160e01b031961215f8383611bd9565b16916310a6aa3760e31b831480156122b2575b80156122a2575b8015612292575b8015612282575b6120ee5763063fc60f60e21b83148015612272575b8015612262575b61223b5763012e238d60e51b8314801561222b575b6121e5575050305f525f60205260405f20905f526020526001600160401b0360405f205416905f91905f90565b9091506024116114bc57600401356001600160401b03811681036114bc57612087906001600160401b03165f5260016020526001600160401b03600160405f2001541690565b50635be958b160e11b83146121b8565b9091506024116114bc576004013560018060a01b0381168091036114bc576120c6906118d4565b506308d6122d60e01b83146121a3565b5063167bd39560e01b831461219c565b5063d22b598960e01b8314612187565b50635326cae760e11b8314612180565b5063294b14a960e11b8314612179565b506330cae18760e01b8314612172565b604051903d82523d5f602084013e60203d830101604052565b6122ec63ffffffff91939293611d57565b505092168063ffffffff84168181115f14612354570363ffffffff8111611adf5761233a63ffffffff8067ffffffff00000000935b168062069780118162069780180218166112194261236e565b9360201b1665ffffffffffff60401b8460401b1617179190565b505067ffffffff0000000061233a63ffffffff805f612321565b65ffffffffffff81116123865765ffffffffffff1690565b6306dfcc6560e41b5f52603060045260245260445ffdfea2646970667358221220536c773a57a7296667fcb872b9a9ea2467b38733268f7e756e1c68647559debc64736f6c634300081c0033a6eef7e35abe7026729641147f7915573c7e97b47efa546f5f6e3230263bcb49f98448b987f1428e0e230e1f3c6e2ce15b5693eaf31827fbd0b1ec4b424ae7cf","linkReferences":{}},"methodIdentifiers":{"ADMIN_ROLE()":"75b238fc","PUBLIC_ROLE()":"3ca7c02a","canCall(address,address,bytes4)":"b7009613","cancel(address,address,bytes)":"d6bb62c6","consumeScheduledOp(address,bytes)":"94c7d7ee","execute(address,bytes)":"1cff79cd","expiration()":"4665096d","fnRestricted()":"57a22111","fnUnrestricted()":"6f154d2d","getAccess(uint64,address)":"3078f114","getNonce(bytes32)":"4136a33c","getRoleAdmin(uint64)":"530dd456","getRoleGrantDelay(uint64)":"12be8727","getRoleGuardian(uint64)":"0b0a93ba","getSchedule(bytes32)":"3adc277a","getTargetAdminDelay(address)":"4c1da1e2","getTargetFunctionRole(address,bytes4)":"6d5115bd","grantRole(uint64,address,uint32)":"25c471a0","hasRole(uint64,address)":"d1f856ee","hashOperation(address,address,bytes)":"abd9bd2a","isTargetClosed(address)":"a166aa89","labelRole(uint64,string)":"853551b8","minSetback()":"cc1b6c81","multicall(bytes[])":"ac9650d8","renounceRole(uint64,address)":"fe0776f5","revokeRole(uint64,address)":"b7d2b162","schedule(address,bytes,uint48)":"f801a698","setGrantDelay(uint64,uint32)":"a64d95ce","setRoleAdmin(uint64,uint64)":"30cae187","setRoleGuardian(uint64,uint64)":"52962952","setTargetAdminDelay(address,uint32)":"d22b5989","setTargetClosed(address,bool)":"167bd395","setTargetFunctionRole(address,bytes4[],uint64)":"08d6122d","updateAuthority(address,address)":"18ff183c"},"id":142}