{"abi":[{"type":"function","name":"initialize","inputs":[{"name":"value","type":"uint256","internalType":"uint256"}],"outputs":[],"stateMutability":"payable"},{"type":"function","name":"migrate","inputs":[{"name":"value","type":"uint256","internalType":"uint256"},{"name":"anotherValue","type":"uint256","internalType":"uint256"}],"outputs":[],"stateMutability":"payable"},{"type":"function","name":"migrate","inputs":[],"outputs":[],"stateMutability":"payable"},{"type":"function","name":"x","inputs":[],"outputs":[{"name":"","type":"uint256","internalType":"uint256"}],"stateMutability":"view"},{"type":"function","name":"y","inputs":[],"outputs":[{"name":"","type":"uint256","internalType":"uint256"}],"stateMutability":"view"},{"type":"event","name":"Initialized","inputs":[{"name":"version","type":"uint64","indexed":false,"internalType":"uint64"}],"anonymous":false},{"type":"error","name":"InvalidInitialization","inputs":[]},{"type":"error","name":"NotInitializing","inputs":[]}],"bytecode":{"object":"0x6080806040523460155761026c908161001a8239f35b5f80fdfe6080806040526004361015610012575f80fd5b5f3560e01c9081630c55699c146101fd575080633e54bacb146101ce5780638fd3ab80146101a0578063a56dfe4a146101835763fe4b84df14610053575f80fd5b602036600319011261017f575f5160206102175f395f51905f525460ff8160401c16159067ffffffffffffffff811680159081610177575b600114908161016d575b159081610164575b506101555767ffffffffffffffff1981166001175f5160206102175f395f51905f525581610129575b506004355f556100d257005b68ff0000000000000000195f5160206102175f395f51905f5254165f5160206102175f395f51905f52557fc7f505b2f371ae2175ee4913f4499e1f2633a7b5936321eed1cdaeb6115181d2602060405160018152a1005b68ffffffffffffffffff191668010000000000000001175f5160206102175f395f51905f52555f6100c6565b63f92ee8a960e01b5f5260045ffd5b9050155f61009d565b303b159150610095565b83915061008b565b5f80fd5b3461017f575f36600319011261017f576020600254604051908152f35b5f36600319011261017f5760035460ff811661017f575f805460028054909255905560ff1916600117600355005b604036600319011261017f5760015460ff811661017f576004355f5560243560025560ff191660019081179055005b3461017f575f36600319011261017f576020905f548152f3fef0c57e16840df040f15088dc2f81fe391c3923bec73e23a9662efc9c229c6a00a264697066735822122089d181884b894af2bc72ae047cb7429a785db1127502e53feb2d5fdd4063194764736f6c634300081c0033","linkReferences":{}},"methodIdentifiers":{"initialize(uint256)":"fe4b84df","migrate()":"8fd3ab80","migrate(uint256,uint256)":"3e54bacb","x()":"0c55699c","y()":"a56dfe4a"},"id":167}