{"abi":[{"type":"constructor","inputs":[{"name":"name","type":"string","internalType":"string"},{"name":"symbol","type":"string","internalType":"string"},{"name":"offset","type":"uint96","internalType":"uint96"},{"name":"delegates","type":"address[]","internalType":"address[]"},{"name":"receivers","type":"address[]","internalType":"address[]"},{"name":"amounts","type":"uint96[]","internalType":"uint96[]"}],"stateMutability":"nonpayable"},{"type":"function","name":"CLOCK_MODE","inputs":[],"outputs":[{"name":"","type":"string","internalType":"string"}],"stateMutability":"view"},{"type":"function","name":"approve","inputs":[{"name":"to","type":"address","internalType":"address"},{"name":"tokenId","type":"uint256","internalType":"uint256"}],"outputs":[],"stateMutability":"nonpayable"},{"type":"function","name":"balanceOf","inputs":[{"name":"owner","type":"address","internalType":"address"}],"outputs":[{"name":"","type":"uint256","internalType":"uint256"}],"stateMutability":"view"},{"type":"function","name":"clock","inputs":[],"outputs":[{"name":"","type":"uint48","internalType":"uint48"}],"stateMutability":"view"},{"type":"function","name":"delegate","inputs":[{"name":"delegatee","type":"address","internalType":"address"}],"outputs":[],"stateMutability":"nonpayable"},{"type":"function","name":"delegateBySig","inputs":[{"name":"delegatee","type":"address","internalType":"address"},{"name":"nonce","type":"uint256","internalType":"uint256"},{"name":"expiry","type":"uint256","internalType":"uint256"},{"name":"v","type":"uint8","internalType":"uint8"},{"name":"r","type":"bytes32","internalType":"bytes32"},{"name":"s","type":"bytes32","internalType":"bytes32"}],"outputs":[],"stateMutability":"nonpayable"},{"type":"function","name":"delegates","inputs":[{"name":"account","type":"address","internalType":"address"}],"outputs":[{"name":"","type":"address","internalType":"address"}],"stateMutability":"view"},{"type":"function","name":"eip712Domain","inputs":[],"outputs":[{"name":"fields","type":"bytes1","internalType":"bytes1"},{"name":"name","type":"string","internalType":"string"},{"name":"version","type":"string","internalType":"string"},{"name":"chainId","type":"uint256","internalType":"uint256"},{"name":"verifyingContract","type":"address","internalType":"address"},{"name":"salt","type":"bytes32","internalType":"bytes32"},{"name":"extensions","type":"uint256[]","internalType":"uint256[]"}],"stateMutability":"view"},{"type":"function","name":"getApproved","inputs":[{"name":"tokenId","type":"uint256","internalType":"uint256"}],"outputs":[{"name":"","type":"address","internalType":"address"}],"stateMutability":"view"},{"type":"function","name":"getPastTotalSupply","inputs":[{"name":"timepoint","type":"uint256","internalType":"uint256"}],"outputs":[{"name":"","type":"uint256","internalType":"uint256"}],"stateMutability":"view"},{"type":"function","name":"getPastVotes","inputs":[{"name":"account","type":"address","internalType":"address"},{"name":"timepoint","type":"uint256","internalType":"uint256"}],"outputs":[{"name":"","type":"uint256","internalType":"uint256"}],"stateMutability":"view"},{"type":"function","name":"getVotes","inputs":[{"name":"account","type":"address","internalType":"address"}],"outputs":[{"name":"","type":"uint256","internalType":"uint256"}],"stateMutability":"view"},{"type":"function","name":"isApprovedForAll","inputs":[{"name":"owner","type":"address","internalType":"address"},{"name":"operator","type":"address","internalType":"address"}],"outputs":[{"name":"","type":"bool","internalType":"bool"}],"stateMutability":"view"},{"type":"function","name":"name","inputs":[],"outputs":[{"name":"","type":"string","internalType":"string"}],"stateMutability":"view"},{"type":"function","name":"nonces","inputs":[{"name":"owner","type":"address","internalType":"address"}],"outputs":[{"name":"","type":"uint256","internalType":"uint256"}],"stateMutability":"view"},{"type":"function","name":"ownerOf","inputs":[{"name":"tokenId","type":"uint256","internalType":"uint256"}],"outputs":[{"name":"","type":"address","internalType":"address"}],"stateMutability":"view"},{"type":"function","name":"paused","inputs":[],"outputs":[{"name":"","type":"bool","internalType":"bool"}],"stateMutability":"view"},{"type":"function","name":"safeTransferFrom","inputs":[{"name":"from","type":"address","internalType":"address"},{"name":"to","type":"address","internalType":"address"},{"name":"tokenId","type":"uint256","internalType":"uint256"}],"outputs":[],"stateMutability":"nonpayable"},{"type":"function","name":"safeTransferFrom","inputs":[{"name":"from","type":"address","internalType":"address"},{"name":"to","type":"address","internalType":"address"},{"name":"tokenId","type":"uint256","internalType":"uint256"},{"name":"data","type":"bytes","internalType":"bytes"}],"outputs":[],"stateMutability":"nonpayable"},{"type":"function","name":"setApprovalForAll","inputs":[{"name":"operator","type":"address","internalType":"address"},{"name":"approved","type":"bool","internalType":"bool"}],"outputs":[],"stateMutability":"nonpayable"},{"type":"function","name":"supportsInterface","inputs":[{"name":"interfaceId","type":"bytes4","internalType":"bytes4"}],"outputs":[{"name":"","type":"bool","internalType":"bool"}],"stateMutability":"view"},{"type":"function","name":"symbol","inputs":[],"outputs":[{"name":"","type":"string","internalType":"string"}],"stateMutability":"view"},{"type":"function","name":"tokenURI","inputs":[{"name":"tokenId","type":"uint256","internalType":"uint256"}],"outputs":[{"name":"","type":"string","internalType":"string"}],"stateMutability":"view"},{"type":"function","name":"transferFrom","inputs":[{"name":"from","type":"address","internalType":"address"},{"name":"to","type":"address","internalType":"address"},{"name":"tokenId","type":"uint256","internalType":"uint256"}],"outputs":[],"stateMutability":"nonpayable"},{"type":"event","name":"Approval","inputs":[{"name":"owner","type":"address","indexed":true,"internalType":"address"},{"name":"approved","type":"address","indexed":true,"internalType":"address"},{"name":"tokenId","type":"uint256","indexed":true,"internalType":"uint256"}],"anonymous":false},{"type":"event","name":"ApprovalForAll","inputs":[{"name":"owner","type":"address","indexed":true,"internalType":"address"},{"name":"operator","type":"address","indexed":true,"internalType":"address"},{"name":"approved","type":"bool","indexed":false,"internalType":"bool"}],"anonymous":false},{"type":"event","name":"ConsecutiveTransfer","inputs":[{"name":"fromTokenId","type":"uint256","indexed":true,"internalType":"uint256"},{"name":"toTokenId","type":"uint256","indexed":false,"internalType":"uint256"},{"name":"fromAddress","type":"address","indexed":true,"internalType":"address"},{"name":"toAddress","type":"address","indexed":true,"internalType":"address"}],"anonymous":false},{"type":"event","name":"DelegateChanged","inputs":[{"name":"delegator","type":"address","indexed":true,"internalType":"address"},{"name":"fromDelegate","type":"address","indexed":true,"internalType":"address"},{"name":"toDelegate","type":"address","indexed":true,"internalType":"address"}],"anonymous":false},{"type":"event","name":"DelegateVotesChanged","inputs":[{"name":"delegate","type":"address","indexed":true,"internalType":"address"},{"name":"previousVotes","type":"uint256","indexed":false,"internalType":"uint256"},{"name":"newVotes","type":"uint256","indexed":false,"internalType":"uint256"}],"anonymous":false},{"type":"event","name":"EIP712DomainChanged","inputs":[],"anonymous":false},{"type":"event","name":"Paused","inputs":[{"name":"account","type":"address","indexed":false,"internalType":"address"}],"anonymous":false},{"type":"event","name":"Transfer","inputs":[{"name":"from","type":"address","indexed":true,"internalType":"address"},{"name":"to","type":"address","indexed":true,"internalType":"address"},{"name":"tokenId","type":"uint256","indexed":true,"internalType":"uint256"}],"anonymous":false},{"type":"event","name":"Unpaused","inputs":[{"name":"account","type":"address","indexed":false,"internalType":"address"}],"anonymous":false},{"type":"error","name":"CheckpointUnorderedInsertion","inputs":[]},{"type":"error","name":"ECDSAInvalidSignature","inputs":[]},{"type":"error","name":"ECDSAInvalidSignatureLength","inputs":[{"name":"length","type":"uint256","internalType":"uint256"}]},{"type":"error","name":"ECDSAInvalidSignatureS","inputs":[{"name":"s","type":"bytes32","internalType":"bytes32"}]},{"type":"error","name":"ERC5805FutureLookup","inputs":[{"name":"timepoint","type":"uint256","internalType":"uint256"},{"name":"clock","type":"uint48","internalType":"uint48"}]},{"type":"error","name":"ERC6372InconsistentClock","inputs":[]},{"type":"error","name":"ERC721ExceededMaxBatchMint","inputs":[{"name":"batchSize","type":"uint256","internalType":"uint256"},{"name":"maxBatch","type":"uint256","internalType":"uint256"}]},{"type":"error","name":"ERC721ForbiddenBatchBurn","inputs":[]},{"type":"error","name":"ERC721ForbiddenBatchMint","inputs":[]},{"type":"error","name":"ERC721ForbiddenMint","inputs":[]},{"type":"error","name":"ERC721IncorrectOwner","inputs":[{"name":"sender","type":"address","internalType":"address"},{"name":"tokenId","type":"uint256","internalType":"uint256"},{"name":"owner","type":"address","internalType":"address"}]},{"type":"error","name":"ERC721InsufficientApproval","inputs":[{"name":"operator","type":"address","internalType":"address"},{"name":"tokenId","type":"uint256","internalType":"uint256"}]},{"type":"error","name":"ERC721InvalidApprover","inputs":[{"name":"approver","type":"address","internalType":"address"}]},{"type":"error","name":"ERC721InvalidOperator","inputs":[{"name":"operator","type":"address","internalType":"address"}]},{"type":"error","name":"ERC721InvalidOwner","inputs":[{"name":"owner","type":"address","internalType":"address"}]},{"type":"error","name":"ERC721InvalidReceiver","inputs":[{"name":"receiver","type":"address","internalType":"address"}]},{"type":"error","name":"ERC721InvalidSender","inputs":[{"name":"sender","type":"address","internalType":"address"}]},{"type":"error","name":"ERC721NonexistentToken","inputs":[{"name":"tokenId","type":"uint256","internalType":"uint256"}]},{"type":"error","name":"EnforcedPause","inputs":[]},{"type":"error","name":"ExpectedPause","inputs":[]},{"type":"error","name":"InvalidAccountNonce","inputs":[{"name":"account","type":"address","internalType":"address"},{"name":"currentNonce","type":"uint256","internalType":"uint256"}]},{"type":"error","name":"InvalidShortString","inputs":[]},{"type":"error","name":"SafeCastOverflowedUintDowncast","inputs":[{"name":"bits","type":"uint8","internalType":"uint8"},{"name":"value","type":"uint256","internalType":"uint256"}]},{"type":"error","name":"StringTooLong","inputs":[{"name":"str","type":"string","internalType":"string"}]},{"type":"error","name":"VotesExpiredSignature","inputs":[{"name":"expiry","type":"uint256","internalType":"uint256"}]}],"bytecode":{"object":"0x6101806040523461007c57610021610015610220565b9493909392919261032a565b604051611e1d90816112168239608051816117bd015260a0518161187a015260c05181611787015260e0518161180c01526101005181611832015261012051816107b9015261014051816107e201526101605181611ad50152f35b5f80fd5b634e487b7160e01b5f52604160045260245ffd5b601f909101601f19168101906001600160401b038211908210176100b757604052565b610080565b604051906100cb604083610094565b565b81601f8201121561007c578051906001600160401b0382116100b75760405192610101601f8401601f191660200185610094565b8284526020838301011161007c57815f9260208093018386015e8301015290565b51906001600160601b038216820361007c57565b6001600160401b0381116100b75760051b60200190565b9080601f8301121561007c5781519061016582610136565b926101736040519485610094565b82845260208085019360051b82010191821161007c57602001915b81831061019b5750505090565b82516001600160a01b038116810361007c5781526020928301920161018e565b9080601f8301121561007c5781516101d281610136565b926101e06040519485610094565b81845260208085019260051b82010192831161007c57602001905b8282106102085750505090565b6020809161021584610122565b8152019101906101fb565b6130739081380380604051936102368286610094565b843982019160c08184031261007c5780516001600160401b03811161007c57836102619183016100cd565b60208201519093906001600160401b03811161007c57816102839184016100cd565b9361029060408401610122565b60608401519094906001600160401b03811161007c57836102b291860161014d565b60808501519094906001600160401b03811161007c57846102d491830161014d565b60a08201519094906001600160401b03811161007c576102f492016101bb565b91959493929190565b634e487b7160e01b5f52603260045260245ffd5b80518210156103255760209160051b010190565b6102fd565b9061035791969396959495604051610343604082610094565b60018152603160f81b6020820152816103ef565b610160525f5b845181101561039f578061039961038661037960019489610311565b516001600160a01b031690565b610393610379848a610311565b906106ea565b0161035d565b50919092505f5b81518110156103e957806103e26103c261037960019486610311565b6103dc6103cf8489610311565b516001600160601b031690565b906107c0565b50016103a6565b50509050565b8251919390929091906001600160401b0382116100b757610419826104145f5461053b565b610573565b602090601f83116001146104a357918061044d9261045495945f92610498575b50508160011b915f199060031b1c19161790565b5f55610611565b61045d816108b1565b6101205261046a826109a6565b610140526020815191012060e05260208151910120610100524660a05261048f610a98565b6080523060c052565b015190505f80610439565b5f8052601f19831691907f290decd9548b62a8d60345a988386fc84ba6bc95484008f6362f93160ef3e563925f5b8181106105105750916001939185610454979694106104f8575b505050811b015f55610611565b01515f1960f88460031b161c191690555f80806104eb565b929360206001819287860151815501950193016104d1565b634e487b7160e01b5f525f60045260245ffd5b90600182811c92168015610569575b602083101461055557565b634e487b7160e01b5f52602260045260245ffd5b91607f169161054a565b601f811161057f575050565b5f805260205f20906020601f840160051c830193106105b8575b601f0160051c01905b8181106105ad575050565b5f81556001016105a2565b9091508190610599565b601f82116105cf57505050565b5f5260205f20906020601f840160051c83019310610607575b601f0160051c01905b8181106105fc575050565b5f81556001016105f1565b90915081906105e8565b80519091906001600160401b0381116100b75761063a8161063360015461053b565b60016105c2565b602092601f821160011461066e57610669929382915f926104985750508160011b915f199060031b1c19161790565b600155565b60015f52601f198216937fb10e2d527612073b26eecdfd717e6a320cf44b4afac2b0732d9fcbe2b7fa0cf6915f5b8681106106d257508360019596106106ba575b505050811b01600155565b01515f1960f88460031b161c191690555f80806106af565b9192602060018192868501518155019401920161069c565b6001600160a01b039081165f818152600c6020526040812080548585166001600160a01b0319821681179092559294929093169290839085907f3134e8a2e6d97e929a7e54011ea5485d7d196dd5f0ba4d4ef95803e8e3fc257f9080a48215610763576100cb925f52600360205260405f205491610af6565b6322718ad960e21b5f525f60045260245ffd5b634e487b7160e01b5f52601160045260245ffd5b6001600160601b0391821690821601919082116107a357565b610776565b6001600160601b039081165f1901919082116107a357565b906107c9610bf2565b916001600160601b038216806107e0575b50505090565b303b6108a2576001600160a01b03821692831561088e5761138880831161086e57505f929161081a61081561082c938861078a565b6107a8565b926108258685610eba565b5050610fb9565b6040516001600160601b039182168152908416907fdeaa91b6123d068f5821d0fb0678463d1a8a6079fe8af5de3ce5e896dcf9133d90602090a45f80806107da565b6308f58e5760e41b5f526001600160601b0390911660045260245260445ffd5b633250574960e11b5f90815260045260245ffd5b6329cfc83160e11b5f5260045ffd5b908151602081105f146108cc5750906108c990610c2a565b90565b6001600160401b0381116100b7576108f0816108e960095461053b565b60096105c2565b602092601f82116001146109275761091f929382915f926104985750508160011b915f199060031b1c19161790565b60095560ff90565b60095f52601f198216937f6e1540171b6c0c960b71a7020d9f60077f6af931a8bbf590da0223dacf75c7af915f5b86811061098e5750836001959610610976575b505050811b0160095560ff90565b01515f1960f88460031b161c191690555f8080610968565b91926020600181928685015181550194019201610955565b908151602081105f146109be5750906108c990610c2a565b6001600160401b0381116100b7576109e2816109db600a5461053b565b600a6105c2565b602092601f8211600114610a1957610a11929382915f926104985750508160011b915f199060031b1c19161790565b600a5560ff90565b600a5f52601f198216937fc65a7bb8d6351c1cf70c95a316cc6a92839c986682d98bc35f958f4883f9d2a8915f5b868110610a805750836001959610610a68575b505050811b01600a5560ff90565b01515f1960f88460031b161c191690555f8080610a5a565b91926020600181928685015181550194019201610a47565b60e051610100516040519060208201927f8b73c3c69bb8fe3d512ecc4cf759cc79239f7b179b0ffacaa9a75d522b39400f8452604083015260608201524660808201523060a082015260a08152610af060c082610094565b51902090565b6001600160a01b03808316939291908116908185141580610be9575b610b1e575b5050505050565b81610b8f575b505082610b33575b8080610b17565b6001600160a01b03165f908152600d602052604090205f5160206130535f395f51905f5291610b6c91610b669091610c95565b90610d3e565b604080516001600160d01b039384168152919092166020820152a25f8080610b2c565b6001600160a01b03165f908152600d602052604090205f5160206130535f395f51905f5290610bc790610bc186610c95565b90610cc6565b604080516001600160d01b039384168152919092166020820152a25f80610b24565b50831515610b12565b610bfa610dfb565b509015610c19576001600160601b039081166001019081116107a35790565b50610160516001600160601b031690565b601f815111610c55576020815191015160208210610c46571790565b5f198260200360031b1b161790565b604460209160405192839163305a27a960e01b83528160048401528051918291826024860152018484015e5f828201840152601f01601f19168101030190fd5b6001600160d01b038111610caf576001600160d01b031690565b6306dfcc6560e41b5f5260d060045260245260445ffd5b65ffffffffffff4311610d2657805480610cff5750610ceb610cfb925f5b60026111b9565b9065ffffffffffff4316906110fb565b9091565b805f198101116107a3575f82815260209020015f190154610cfb92610ceb9160301c610ce4565b6306dfcc6560e41b5f5260306004524360245260445ffd5b65ffffffffffff4311610d2657805480610d635750610ceb610cfb925f5b60016111b9565b805f198101116107a3575f82815260209020015f190154610cfb92610ceb9160301c610d5c565b65ffffffffffff4311610d2657600e5480610dbf5750610daf610cfb915f60026111b9565b65ffffffffffff4316600e6110fb565b805f198101116107a357600e5f525f5160206130335f395f51905f520154610cfb91610daf9160301c610ce4565b5f198101919082116107a357565b60065480610e0c57505f905f905f90565b805f198101116107a35760065f527ff652222313e28459528d920b65115c16c04f3efc82aaedc97be59f3f377c0d3e01546001916001600160601b0382169160601c90565b8054821015610325575f5260205f2001905f90565b8054680100000000000000008110156100b757610e8891600182018155610e51565b610eb557815160209092015160601b6001600160601b0319166001600160601b0392909216919091179055565b610528565b6006549192918015610f9057610ed2610efb91610ded565b60065f527ff652222313e28459528d920b65115c16c04f3efc82aaedc97be59f3f377c0d3f0190565b8054606081901c92916001600160601b03918216918316808311610f8157869203610f4a5780546001600160601b031660609290921b6001600160601b031916919091179055509190565b9190565b5050610f4690610f6a610f5b6100bc565b6001600160601b039092168252565b6001600160a01b03851660208201525b6006610e66565b632520601d60e01b5f5260045ffd5b50610fb490610fa0610f5b6100bc565b6001600160a01b0384166020820152610f7a565b5f9190565b6001600160a01b03165f81815260036020526040902080546001600160801b03909316928301905590610feb81610c95565b9165ffffffffffff4311610d2657600e54806110785750611014610daf6100cb945f60016111b9565b50508015611060575b600c6020527f13649b2456f1b42fef0f0040b3aaeabcd21a76a0f3f5defd4f583839455116e8545f9182526040909120546001600160a01b039081169116610af6565b61107161106c83610c95565b610d8a565b505061101d565b92835f198101116107a357600e5f525f5160206130335f395f51905f52909301546100cb9361101491610daf919060301c610d5c565b8054680100000000000000008110156100b7576110d091600182018155610e51565b610eb557815160209092015160301b65ffffffffffff191665ffffffffffff92909216919091179055565b805492939280156111945761111261111d91610ded565b825f5260205f200190565b8054603081901c9365ffffffffffff91821692918116808411610f81578793036111605750610f4692509065ffffffffffff82549181199060301b169116179055565b915050610f46916111806111726100bc565b65ffffffffffff9093168352565b6001600160d01b03861660208301526110ae565b5090610fb4916111a56111726100bc565b6001600160d01b03851660208301526110ae565b919091806002146111f8576001146111df57634e487b7160e01b5f52605160045260245ffd5b6001600160d01b03918216908216019081116107a35790565b506001600160d01b03908116918116919091039081116107a3579056fe60806040526004361015610011575f80fd5b5f3560e01c806301ffc9a71461019457806306fdde031461018f578063081812fc1461018a578063095ea7b31461018557806323b872dd146101805780633a46b1a81461017b57806342842e0e146101765780634bf5d7e914610171578063587cde1e1461016c5780635c19a95c146101675780635c975abb146101625780636352211e1461015d57806370a08231146101585780637ecebe001461015357806384b0196e1461014e5780638e539e8c1461014957806391ddadf41461014457806395d89b411461013f5780639ab24eb01461013a578063a22cb46514610135578063b88d4fde14610130578063c3cda5201461012b578063c87b56dd146101265763e985e9c514610121575f80fd5b610d54565b610cff565b610c1b565b610b93565b610a74565b610a2d565b610988565b61095d565b61089e565b6107a1565b610769565b61073e565b61070e565b6106ec565b6106ca565b61068a565b6105fa565b6105d1565b6104ec565b6104d5565b610394565b61032c565b610255565b6101af565b6001600160e01b03198116036101ab57565b5f80fd5b346101ab5760203660031901126101ab5760206004356101ce81610199565b63ffffffff60e01b166380ac58cd60e01b811490811561020c575b81156101fb575b506040519015158152f35b6301ffc9a760e01b1490505f6101f0565b635b5e139f60e01b811491506101e9565b805180835260209291819084018484015e5f828201840152601f01601f1916010190565b90602061025292818152019061021d565b90565b346101ab575f3660031901126101ab576040515f5f5461027481610dc4565b808452906001811690811561030857506001146102ac575b6102a88361029c81850382610b3f565b60405191829182610241565b0390f35b5f8080527f290decd9548b62a8d60345a988386fc84ba6bc95484008f6362f93160ef3e563939250905b8082106102ee5750909150810160200161029c61028c565b9192600181602092548385880101520191019092916102d6565b60ff191660208086019190915291151560051b8401909101915061029c905061028c565b346101ab5760203660031901126101ab57600435610349816111a5565b505f526004602052602060018060a01b0360405f205416604051908152f35b600435906001600160a01b03821682036101ab57565b602435906001600160a01b03821682036101ab57565b346101ab5760403660031901126101ab576103ad610368565b602435906103ba826111a5565b33151580610488575b8061044a575b61043757610435926104169181906001600160a01b0385811691167f8c5be1e5ebec7d5bd14f71427d1e84f3dd0314c0f7b2291e5b200ac8c7c3b9255f80a45f52600460205260405f2090565b80546001600160a01b0319166001600160a01b03909216919091179055565b005b63a9fbf51f60e01b5f523360045260245ffd5b5060ff6104803361046b8460018060a01b03165f52600560205260405f2090565b9060018060a01b03165f5260205260405f2090565b5416156103c9565b506001600160a01b0381163314156103c3565b60609060031901126101ab576004356001600160a01b03811681036101ab57906024356001600160a01b03811681036101ab579060443590565b346101ab576104356104e63661049b565b91610e7d565b346101ab5760403660031901126101ab57610505610368565b6001600160a01b03165f908152600d602052604090206105266024356111d4565b8154905f829160058411610579575b610540935084611585565b908161055e57505060205f5b6040516001600160d01b039091168152f35b61056960209261120d565b905f52815f20015460301c61054c565b919261058481611427565b81039081116105cc5761054093855f5265ffffffffffff8260205f2001541665ffffffffffff8516105f146105ba575091610535565b9291506105c69061121b565b90610535565b610db0565b346101ab576104356105e23661049b565b90604051926105f2602085610b3f565b5f84526110aa565b346101ab575f3660031901126101ab57610613436113f8565b65ffffffffffff80610624436113f8565b1691160361067b576102a860405161063d604082610b3f565b601d81527f6d6f64653d626c6f636b6e756d6265722666726f6d3d64656661756c74000000602082015260405191829160208352602083019061021d565b6301bfc1c560e61b5f5260045ffd5b346101ab5760203660031901126101ab576001600160a01b036106ab610368565b165f52600c602052602060018060a01b0360405f205416604051908152f35b346101ab5760203660031901126101ab576104356106e6610368565b33611229565b346101ab575f3660031901126101ab57602060ff600854166040519015158152f35b346101ab5760203660031901126101ab57602061072c6004356111a5565b6040516001600160a01b039091168152f35b346101ab5760203660031901126101ab57602061076161075c610368565b611079565b604051908152f35b346101ab5760203660031901126101ab576001600160a01b0361078a610368565b165f52600b602052602060405f2054604051908152f35b346101ab575f3660031901126101ab576108456107dd7f0000000000000000000000000000000000000000000000000000000000000000611703565b6108067f0000000000000000000000000000000000000000000000000000000000000000611754565b60206040516108158282610b3f565b5f81528161085381830194601f198301368737604051978897600f60f81b895260e0858a015260e089019061021d565b90878203604089015261021d565b914660608701523060808701525f60a087015285830360c087015251918281520192915f5b82811061088757505050500390f35b835185528695509381019392810192600101610878565b346101ab5760203660031901126101ab576108ba6004356111d4565b600e54905f829160058411610909575b6108d69350600e611585565b806108e757506040515f8152602090f35b6109046108f560209261120d565b600e5f52825f20015460301c90565b61054c565b919261091481611427565b81039081116105cc576108d693600e5f5265ffffffffffff8260205f2001541665ffffffffffff8516105f1461094b5750916108ca565b9291506109579061121b565b906108ca565b346101ab575f3660031901126101ab576020610978436113f8565b65ffffffffffff60405191168152f35b346101ab575f3660031901126101ab576040515f6001546109a881610dc4565b808452906001811690811561030857506001146109cf576102a88361029c81850382610b3f565b60015f9081527fb10e2d527612073b26eecdfd717e6a320cf44b4afac2b0732d9fcbe2b7fa0cf6939250905b808210610a135750909150810160200161029c61028c565b9192600181602092548385880101520191019092916109fb565b346101ab5760203660031901126101ab576001600160a01b03610a4e610368565b165f52600d602052602060018060d01b03610a6b60405f2061129c565b16604051908152f35b346101ab5760403660031901126101ab57610a8d610368565b6024358015158082036101ab576001600160a01b038316928315610b1857335f9081526005602090815260408083206001600160a01b039094168352929052209060ff801983541691161790557f17307eab39ab6107e8899845ad3d59bd9653f200f220920489ca2b5937696c3160405180610b13339482919091602081019215159052565b0390a3005b83630b61174360e31b5f5260045260245ffd5b634e487b7160e01b5f52604160045260245ffd5b90601f8019910116810190811067ffffffffffffffff821117610b6157604052565b610b2b565b60405190610b75604083610b3f565b565b67ffffffffffffffff8111610b6157601f01601f191660200190565b346101ab5760803660031901126101ab57610bac610368565b610bb461037e565b906044356064359267ffffffffffffffff84116101ab57366023850112156101ab57836004013592610be584610b77565b93610bf36040519586610b3f565b80855236602482880101116101ab576020815f926024610435990183890137860101526110aa565b346101ab5760c03660031901126101ab57610c34610368565b6044359060243560643560ff811681036101ab5760843560a43591854211610cec5791610ce091610ce79360426104359860405160208101917fe48329057bfd03d55e49b547132e39cffd9c1820ad7b9d4c5307691425d15adf835260018060a01b038b166040830152896060830152608082015260808152610cb860a082610b3f565b519020610cc3611784565b906040519161190160f01b8352600283015260228201522061133b565b9182611353565b611229565b85632341d78760e11b5f5260045260245ffd5b346101ab5760203660031901126101ab57610d1b6004356111a5565b505f604051610d2b602082610b3f565b526102a8604051610d3d602082610b3f565b5f815260405191829160208352602083019061021d565b346101ab5760403660031901126101ab57602060ff610da4610d74610368565b610d7c61037e565b6001600160a01b039182165f9081526005865260408082209290931681526020919091522090565b54166040519015158152f35b634e487b7160e01b5f52601160045260245ffd5b90600182811c92168015610df2575b6020831014610dde57565b634e487b7160e01b5f52602260045260245ffd5b91607f1691610dd3565b5f9291815491610e0b83610dc4565b8083529260018116908115610e605750600114610e2757505050565b5f9081526020812093945091925b838310610e46575060209250010190565b600181602092949394548385870101520191019190610e35565b915050602093945060ff929192191683830152151560051b010190565b9091906001600160a01b03831680156110665760ff6008541661105757610ea3836119c7565b9333151580610fb1575b506001600160a01b0385169182159085908215610f85575b6001600160a01b0384165f90815260036020526040902060018154019055610ef984610416845f52600260205260405f2090565b847fddf252ad1be2c89b69c2b068fc378daa952ba7f163c4a11628f55a4df523b3ef5f80a480610f7c575b610f6d57610f329085611b0c565b6001600160a01b03821603610f4657505050565b6364283d7b60e01b5f526001600160a01b039081166004526024919091521660445260645ffd5b6356c4a82960e11b5f5260045ffd5b50303b15610f24565b610f8e826113d6565b6001600160a01b0388165f90815260036020526040902080545f19019055610ec5565b80610ff9575b15610fc2575f610ead565b836001600160a01b038616610fe357637e27328960e01b5f5260045260245ffd5b63177e802f60e01b5f523360045260245260445ffd5b506001600160a01b038516338114908115611034575b5080610fb757505f848152600460205260409020546001600160a01b03163314610fb7565b5f90815260056020908152604080832033845290915281205460ff16915061100f565b63d93c066560e01b5f5260045ffd5b633250574960e11b5f525f60045260245ffd5b6001600160a01b03168015611097575f52600360205260405f205490565b6322718ad960e21b5f525f60045260245ffd5b9092916110b8818584610e7d565b833b6110c5575b50505050565b6020916110e76040519485938493630a85bd0160e11b855233600486016112db565b03815f6001600160a01b0387165af15f9181611174575b50611138575061110c61130c565b805191908261113157633250574960e11b5f526001600160a01b03821660045260245ffd5b6020915001fd5b6001600160e01b03191663757a42ff60e11b0161115957505f8080806110bf565b633250574960e11b5f526001600160a01b031660045260245ffd5b61119791925060203d60201161119e575b61118f8183610b3f565b8101906112c6565b905f6110fe565b503d611185565b6111ae816119c7565b906001600160a01b038216156111c2575090565b637e27328960e01b5f5260045260245ffd5b65ffffffffffff6111e4436113f8565b16808210156111f75750610252906113f8565b90637669fc0f60e11b5f5260045260245260445ffd5b5f198101919082116105cc57565b90600182018092116105cc57565b6001600160a01b038181165f818152600c6020526040902080546001600160a01b0319811684871617909155610b7594921692611296916001600160a01b0384169085907f3134e8a2e6d97e929a7e54011ea5485d7d196dd5f0ba4d4ef95803e8e3fc257f5f80a4611079565b916115e1565b805490816112aa5750505f90565b815f198101116105cc575f525f199060205f2001015460301c90565b908160209103126101ab575161025281610199565b6001600160a01b0391821681529116602082015260408101919091526080606082018190526102529291019061021d565b3d15611336573d9061131d82610b77565b9161132b6040519384610b3f565b82523d5f602084013e565b606090565b91610252939161134a936118a0565b9092919261194b565b6001600160a01b03165f818152600b602052604090208054600181019091559182900361137e575050565b6301d4b62360e61b5f5260045260245260445ffd5b604080519091906113a48382610b3f565b60208152918290601f190190369060200137565b81156113c2570490565b634e487b7160e01b5f52601260045260245ffd5b6113e8905f52600460205260405f2090565b80546001600160a01b0319169055565b65ffffffffffff81116114105765ffffffffffff1690565b6306dfcc6560e41b5f52603060045260245260445ffd5b600181111561025257806001600160801b821015611548575b6114ee6114e46114da6114d06114c66114bc6114ab6114f59760048a600160401b6114fa9c101561153b575b64010000000081101561152e575b62010000811015611521575b610100811015611514575b6010811015611507575b10156114ff575b60030260011c90565b6114b5818b6113b8565b0160011c90565b6114b5818a6113b8565b6114b581896113b8565b6114b581886113b8565b6114b581876113b8565b6114b581866113b8565b80936113b8565b821190565b900390565b60011b6114a2565b60041c9160021b9161149b565b60081c9160041b91611491565b60101c9160081b91611486565b60201c9160101b9161147a565b60401c9160201b9161146c565b50506114fa6114f56114ee6114e46114da6114d06114c66114bc6114ab61156f8a60801c90565b9850600160401b97506114409650505050505050565b905b8383106115945750505090565b9091926115a18185611bc8565b90835f5265ffffffffffff8260205f2001541665ffffffffffff8416105f146115ce5750925b9190611587565b935060018101809111156115c757610db0565b6001600160a01b038083169392919081169081851415806116fa575b611609575b5050505050565b8161168d575b50508261161e575b8080611602565b6001600160a01b03165f908152600d602052604090207fdec2bacdd2f05b59de34da9b523dff8be42e5e38e818c82fdb0bae774387a7249161166a916116649091611bdd565b90611c46565b604080516001600160d01b039384168152919092166020820152a25f8080611617565b6001600160a01b03165f908152600d602052604090207fdec2bacdd2f05b59de34da9b523dff8be42e5e38e818c82fdb0bae774387a724906116d8906116d286611bdd565b90611c0e565b604080516001600160d01b039384168152919092166020820152a25f8061160f565b508315156115fd565b60ff811461173a5760ff811690601f821161172b57611720611393565b918252602082015290565b632cd44ac360e21b5f5260045ffd5b506040516102528161174d816009610dfc565b0382610b3f565b60ff81146117715760ff811690601f821161172b57611720611393565b506040516102528161174d81600a610dfc565b307f00000000000000000000000000000000000000000000000000000000000000006001600160a01b03161480611877575b156117df577f000000000000000000000000000000000000000000000000000000000000000090565b60405160208101907f8b73c3c69bb8fe3d512ecc4cf759cc79239f7b179b0ffacaa9a75d522b39400f82527f000000000000000000000000000000000000000000000000000000000000000060408201527f000000000000000000000000000000000000000000000000000000000000000060608201524660808201523060a082015260a0815261187160c082610b3f565b51902090565b507f000000000000000000000000000000000000000000000000000000000000000046146117b6565b91907f7fffffffffffffffffffffffffffffff5d576e7357a4501ddfe92f46681b20a08411611922579160209360809260ff5f9560405194855216868401526040830152606082015282805260015afa15611917575f516001600160a01b0381161561190d57905f905f90565b505f906001905f90565b6040513d5f823e3d90fd5b5050505f9160039190565b6004111561193757565b634e487b7160e01b5f52602160045260245ffd5b6119548161192d565b8061195d575050565b6119668161192d565b6001810361197d5763f645eedf60e01b5f5260045ffd5b6119868161192d565b600281036119a1575063fce698f760e01b5f5260045260245ffd5b806119ad60039261192d565b146119b55750565b6335e2f38360e21b5f5260045260245ffd5b5f818152600260205260409020546001600160a01b03168015801590611afc575b8015611aca575b611ac55750611a158160ff6001918060081c5f526007602052161b60405f205416151590565b15611a1f57505f90565b6001600160601b03166006549081905f5b838110611a845750508103611a5157506102525f5b6001600160a01b031690565b60065f527ff652222313e28459528d920b65115c16c04f3efc82aaedc97be59f3f377c0d3f01546102529060601c611a45565b611a8e8482611bc8565b9060065f52826001600160601b038360205f20015416105f14611abd57506001810180911115611a3057610db0565b935092611a30565b905090565b506001600160601b037f00000000000000000000000000000000000000000000000000000000000000001682106119ef565b506001600160601b0382116119e8565b6001600160a01b0316908115611b74575b610b75916001916001600160a01b0316908115611b5c575b5f908152600c60205260408082205492825290205460a083901b83900390811691166115e1565b611b6d611b6884611bdd565b611c7a565b5050611b35565b611b7e6001611bdd565b91611b88436113f8565b92611b93600e61129c565b6001600160d01b0391821690821601929083116105cc57610b7593600193611bbc91600e611d11565b90505091509150611b1d565b90808216911860011c81018091116105cc5790565b6001600160d01b038111611bf7576001600160d01b031690565b6306dfcc6560e41b5f5260d060045260245260445ffd5b90611c18436113f8565b90611c228361129c565b6001600160d01b0391821690821603919082116105cc57611c4292611d11565b9091565b90611c50436113f8565b90611c5a8361129c565b6001600160d01b0391821690821601919082116105cc57611c4292611d11565b611c83436113f8565b90611c8e600e61129c565b6001600160d01b03918216908216039081116105cc57611c4291600e611d11565b908154600160401b811015610b615760018101808455811015611cfd575f9283526020928390208251929093015160301b65ffffffffffff191665ffffffffffff9290921691909117910155565b634e487b7160e01b5f52603260045260245ffd5b80549293928015611dbd57611d28611d339161120d565b825f5260205f200190565b8054603081901c9365ffffffffffff91821692918116808411611dae57879303611d7a5750611d7692509065ffffffffffff82549181199060301b169116179055565b9190565b915050611d7691611d9a611d8c610b66565b65ffffffffffff9093168352565b6001600160d01b0386166020830152611caf565b632520601d60e01b5f5260045ffd5b5090611de291611dce611d8c610b66565b6001600160d01b0385166020830152611caf565b5f919056fea2646970667358221220acdd32304525222c0ea53829c9dc5ded3b4981ccf9f186c971f4808ba4dc110e64736f6c634300081c0033bb7b4a454dc3493923482f07822329ed19e8244eff582cc204f8554c3620c3fcdec2bacdd2f05b59de34da9b523dff8be42e5e38e818c82fdb0bae774387a724","linkReferences":{}},"methodIdentifiers":{"CLOCK_MODE()":"4bf5d7e9","approve(address,uint256)":"095ea7b3","balanceOf(address)":"70a08231","clock()":"91ddadf4","delegate(address)":"5c19a95c","delegateBySig(address,uint256,uint256,uint8,bytes32,bytes32)":"c3cda520","delegates(address)":"587cde1e","eip712Domain()":"84b0196e","getApproved(uint256)":"081812fc","getPastTotalSupply(uint256)":"8e539e8c","getPastVotes(address,uint256)":"3a46b1a8","getVotes(address)":"9ab24eb0","isApprovedForAll(address,address)":"e985e9c5","name()":"06fdde03","nonces(address)":"7ecebe00","ownerOf(uint256)":"6352211e","paused()":"5c975abb","safeTransferFrom(address,address,uint256)":"42842e0e","safeTransferFrom(address,address,uint256,bytes)":"b88d4fde","setApprovalForAll(address,bool)":"a22cb465","supportsInterface(bytes4)":"01ffc9a7","symbol()":"95d89b41","tokenURI(uint256)":"c87b56dd","transferFrom(address,address,uint256)":"23b872dd"},"id":247}