{"abi":[{"type":"function","name":"allowance","inputs":[{"name":"token","type":"address","internalType":"contract IERC20"},{"name":"owner","type":"address","internalType":"address"},{"name":"spender","type":"address","internalType":"address"}],"outputs":[],"stateMutability":"nonpayable"},{"type":"function","name":"balanceOf","inputs":[{"name":"token","type":"address","internalType":"contract IERC20"},{"name":"account","type":"address","internalType":"address"}],"outputs":[],"stateMutability":"nonpayable"},{"type":"function","name":"decimals","inputs":[{"name":"token","type":"address","internalType":"contract IERC20Metadata"}],"outputs":[],"stateMutability":"nonpayable"},{"type":"function","name":"name","inputs":[{"name":"token","type":"address","internalType":"contract IERC20Metadata"}],"outputs":[],"stateMutability":"nonpayable"},{"type":"function","name":"symbol","inputs":[{"name":"token","type":"address","internalType":"contract IERC20Metadata"}],"outputs":[],"stateMutability":"nonpayable"},{"type":"function","name":"totalSupply","inputs":[{"name":"token","type":"address","internalType":"contract IERC20"}],"outputs":[],"stateMutability":"nonpayable"},{"type":"event","name":"ERC20Allowance","inputs":[{"name":"token","type":"address","indexed":false,"internalType":"contract IERC20"},{"name":"owner","type":"address","indexed":false,"internalType":"address"},{"name":"spender","type":"address","indexed":false,"internalType":"address"},{"name":"allowance","type":"uint256","indexed":false,"internalType":"uint256"}],"anonymous":false},{"type":"event","name":"ERC20BalanceOf","inputs":[{"name":"token","type":"address","indexed":false,"internalType":"contract IERC20"},{"name":"account","type":"address","indexed":false,"internalType":"address"},{"name":"balanceOf","type":"uint256","indexed":false,"internalType":"uint256"}],"anonymous":false},{"type":"event","name":"ERC20Decimals","inputs":[{"name":"token","type":"address","indexed":false,"internalType":"contract IERC20Metadata"},{"name":"decimals","type":"uint8","indexed":false,"internalType":"uint8"}],"anonymous":false},{"type":"event","name":"ERC20Name","inputs":[{"name":"token","type":"address","indexed":false,"internalType":"contract IERC20Metadata"},{"name":"name","type":"string","indexed":false,"internalType":"string"}],"anonymous":false},{"type":"event","name":"ERC20Symbol","inputs":[{"name":"token","type":"address","indexed":false,"internalType":"contract IERC20Metadata"},{"name":"symbol","type":"string","indexed":false,"internalType":"string"}],"anonymous":false},{"type":"event","name":"ERC20TotalSupply","inputs":[{"name":"token","type":"address","indexed":false,"internalType":"contract IERC20"},{"name":"totalSupply","type":"uint256","indexed":false,"internalType":"uint256"}],"anonymous":false}],"bytecode":{"object":"0x6080806040523460155761066f908161001a8239f35b5f80fdfe6080806040526004361015610012575f80fd5b5f3560e01c90816301984892146104b257508063927da105146103a3578063a86e3576146102fd578063d449a83214610222578063e4dc2aa4146101585763f7888aec1461005e575f80fd5b3461014157604036600319011261014157610077610528565b61007f61053e565b6040516370a0823160e01b81526001600160a01b03918216600482018190529290911691602082602481865afa91821561014d575f926100f3575b7ffa069972e8d8e0f3228defb44d5b7c9bc6c3f08ef98bc7d6a31a5ad2993a9795606085858560405192835260208301526040820152a1005b9150916020823d602011610145575b8161010f60209383610554565b8101031261014157905190917ffa069972e8d8e0f3228defb44d5b7c9bc6c3f08ef98bc7d6a31a5ad2993a97956100ba565b5f80fd5b3d9150610102565b6040513d5f823e3d90fd5b34610141576020366003190112610141576001600160a01b03610179610528565b166040516318160ddd60e01b8152602081600481855afa90811561014d575f916101d0575b7f6485fd49c668ab31aa6e76b818c9492f82e9a3727f8dbd1ded1f7a785b2c982e6040848482519182526020820152a1005b90506020813d60201161021a575b816101eb60209383610554565b8101031261014157517f6485fd49c668ab31aa6e76b818c9492f82e9a3727f8dbd1ded1f7a785b2c982e61019e565b3d91506101de565b34610141576020366003190112610141576004356001600160a01b038116908190036101415760405163313ce56760e01b8152602081600481855afa90811561014d575f916102a1575b7f85bc872b16b9db2e4ada370573ffd396602bfdacec01f732f2b5ab6f42f2443560408460ff858351928352166020820152a1005b90506020813d6020116102f5575b816102bc60209383610554565b81010312610141575160ff81168103610141577f85bc872b16b9db2e4ada370573ffd396602bfdacec01f732f2b5ab6f42f2443561026c565b3d91506102af565b34610141576020366003190112610141576004356001600160a01b03811690818103610141575f600492604051938480926395d89b4160e01b82525afa90811561014d577f26e04705bb26a7efc42c2fc229535a30faa3fff9a04cd15ed4a729c9bc4d35bf925f9261037f575b5061037a604051928392836105fd565b0390a1005b61039c9192503d805f833e6103948183610554565b81019061058a565b908361036a565b34610141576060366003190112610141576103bc610528565b6103c461053e565b6044356001600160a01b038116929083900361014157604051636eb1769f60e11b81526001600160a01b039283166004820181905260248201859052919092169190602082604481865afa91821561014d575f9261045c575b7fe09eed224b4f51d932c9802d15235a4e3d83e6e98746fbd17672bfa0c68cf2a5608085858886604051938452602084015260408301526060820152a1005b9291506020833d6020116104aa575b8161047860209383610554565b8101031261014157915190917fe09eed224b4f51d932c9802d15235a4e3d83e6e98746fbd17672bfa0c68cf2a561041d565b3d915061046b565b34610141576020366003190112610141576004356001600160a01b03811680820361014157826004815f936306fdde0360e01b82525afa90811561014d577f0485ca5375889f98baa3c2b6f4c5017f42445d46a8ea34301831f4c0656aeaef925f9261037f575061037a604051928392836105fd565b600435906001600160a01b038216820361014157565b602435906001600160a01b038216820361014157565b90601f8019910116810190811067ffffffffffffffff82111761057657604052565b634e487b7160e01b5f52604160045260245ffd5b6020818303126101415780519067ffffffffffffffff8211610141570181601f820112156101415780519067ffffffffffffffff821161057657604051926105dc601f8401601f191660200185610554565b8284526020838301011161014157815f9260208093018386015e8301015290565b6001600160a01b0390911681526040602080830182905283519183018290526060938291018484015e5f828201840152601f01601f191601019056fea26469706673582212208320f2e7a9c7d0a761130b87873ddda7eb4641851567d74e4e4aa3a90f97cc2e64736f6c634300081c0033","linkReferences":{}},"methodIdentifiers":{"allowance(address,address,address)":"927da105","balanceOf(address,address)":"f7888aec","decimals(address)":"d449a832","name(address)":"01984892","symbol(address)":"a86e3576","totalSupply(address)":"e4dc2aa4"},"id":233}