{"abi":[{"type":"function","name":"canCall","inputs":[{"name":"","type":"address","internalType":"address"},{"name":"","type":"address","internalType":"address"},{"name":"","type":"bytes4","internalType":"bytes4"}],"outputs":[],"stateMutability":"view"}],"bytecode":{"object":"0x6080806040523460135760b7908160188239f35b5f80fdfe608060405260043610156010575f80fd5b5f3560e01c63b7009613146022575f80fd5b34605357606036600319011260535760376057565b50603e606c565b506044356001600160e01b0319811603605357005b5f80fd5b600435906001600160a01b0382168203605357565b602435906001600160a01b038216820360535756fea26469706673582212206470c2162a7b344b7ffa6251cc15a3829bf9757af445b5290d146600bb702fb664736f6c634300081c0033","linkReferences":{}},"methodIdentifiers":{"canCall(address,address,bytes4)":"b7009613"},"id":144}