{"abi":[{"type":"function","name":"_setImmediate","inputs":[{"name":"immediate","type":"bool","internalType":"bool"}],"outputs":[],"stateMutability":"nonpayable"},{"type":"function","name":"canCall","inputs":[{"name":"","type":"address","internalType":"address"},{"name":"","type":"address","internalType":"address"},{"name":"","type":"bytes4","internalType":"bytes4"}],"outputs":[{"name":"immediate","type":"bool","internalType":"bool"}],"stateMutability":"view"}],"bytecode":{"object":"0x6080806040523460145760f990816100198239f35b5f80fdfe60808060405260043610156011575f80fd5b5f3560e01c80633e5047b214606e5763b700961314602d575f80fd5b34606a576060366003190112606a5760426099565b50604960ae565b506044356001600160e01b0319811603606a5760209060ff5f541615158152f35b5f80fd5b34606a576020366003190112606a57600435801515809103606a5760ff80195f54169116175f555f80f35b600435906001600160a01b0382168203606a57565b602435906001600160a01b0382168203606a5756fea26469706673582212204ca86d5435611a74899b65f6ae89b1fc2470f0fed73f3c983a0b60833d70d35464736f6c634300081c0033","linkReferences":{}},"methodIdentifiers":{"_setImmediate(bool)":"3e5047b2","canCall(address,address,bytes4)":"b7009613"},"id":144}