{"abi":[{"type":"function","name":"canCall","inputs":[{"name":"","type":"address","internalType":"address"},{"name":"","type":"address","internalType":"address"},{"name":"","type":"bytes4","internalType":"bytes4"}],"outputs":[{"name":"immediate","type":"bool","internalType":"bool"},{"name":"delay","type":"uint32","internalType":"uint32"}],"stateMutability":"pure"},{"type":"function","name":"consumeScheduledOp","inputs":[{"name":"caller","type":"address","internalType":"address"},{"name":"data","type":"bytes","internalType":"bytes"}],"outputs":[],"stateMutability":"nonpayable"},{"type":"event","name":"ConsumeScheduledOpCalled","inputs":[{"name":"caller","type":"address","indexed":false,"internalType":"address"},{"name":"data","type":"bytes","indexed":false,"internalType":"bytes"},{"name":"isConsuming","type":"bytes4","indexed":false,"internalType":"bytes4"}],"anonymous":false}],"bytecode":{"object":"0x6080806040523460155761029b908161001a8239f35b5f80fdfe6080806040526004361015610012575f80fd5b5f3560e01c90816394c7d7ee1461007c575063b700961314610032575f80fd5b346100785760603660031901126100785761004b610217565b5061005461022d565b506044356001600160e01b031981160361007857604080515f815260016020820152f35b5f80fd5b3461007857604036600319011261007857610095610217565b906024359167ffffffffffffffff8311610078573660238401121561007857826004013567ffffffffffffffff8111610203576100dc601f8201601f191660200184610243565b8083526020830193366024838301011161007857815f92602460209301873784010152604051638fb3603760e01b8152602081600481335afa9081156101f8575f91610193575b50907f6be74e75ed90ba015d494c939c763657508b563a99197bf1323feb9e8f08b4019360809260405194859360018060a01b03168452606060208501525180928160608601528585015e5f8383018501526001600160e01b0319166040830152601f01601f19168101030190a1005b90506020813d6020116101f0575b816101ae60209383610243565b810103126100785751906001600160e01b03198216820361007857907f6be74e75ed90ba015d494c939c763657508b563a99197bf1323feb9e8f08b401610123565b3d91506101a1565b6040513d5f823e3d90fd5b634e487b7160e01b5f52604160045260245ffd5b600435906001600160a01b038216820361007857565b602435906001600160a01b038216820361007857565b90601f8019910116810190811067ffffffffffffffff8211176102035760405256fea264697066735822122041b45795177fb4a5a3e2adc8ad78c523f1ac626348821700351c775608b812ae64736f6c634300081c0033","linkReferences":{}},"methodIdentifiers":{"canCall(address,address,bytes4)":"b7009613","consumeScheduledOp(address,bytes)":"94c7d7ee"},"id":144}