{"abi":[{"type":"function","name":"_setDelay","inputs":[{"name":"delay","type":"uint256","internalType":"uint256"}],"outputs":[],"stateMutability":"nonpayable"},{"type":"function","name":"_setImmediate","inputs":[{"name":"immediate","type":"bool","internalType":"bool"}],"outputs":[],"stateMutability":"nonpayable"},{"type":"function","name":"canCall","inputs":[{"name":"","type":"address","internalType":"address"},{"name":"","type":"address","internalType":"address"},{"name":"","type":"bytes4","internalType":"bytes4"}],"outputs":[{"name":"immediate","type":"bool","internalType":"bool"},{"name":"delay","type":"uint256","internalType":"uint256"}],"stateMutability":"view"}],"bytecode":{"object":"0x60808060405234601557610125908161001a8239f35b5f80fdfe60808060405260043610156011575f80fd5b5f3560e01c9081633e5047b214609a578163b7009613146054575063fc176c04146039575f80fd5b346050576020366003190112605057600435600155005b5f80fd5b346050576060366003190112605057606960c5565b50607060da565b506044356001600160e01b031981160360505760409060ff5f541660015490151582526020820152f35b34605057602036600319011260505760043580151580910360505760ff80195f54169116175f555f80f35b600435906001600160a01b0382168203605057565b602435906001600160a01b038216820360505756fea26469706673582212200b484c8e58d684825d167bf8efe5778dcbbd2567381c0871adab79dcdde0a64464736f6c634300081c0033","linkReferences":{}},"methodIdentifiers":{"_setDelay(uint256)":"fc176c04","_setImmediate(bool)":"3e5047b2","canCall(address,address,bytes4)":"b7009613"},"id":144}