{"abi":[{"type":"function","name":"canCall","inputs":[{"name":"","type":"address","internalType":"address"},{"name":"","type":"address","internalType":"address"},{"name":"","type":"bytes4","internalType":"bytes4"}],"outputs":[{"name":"","type":"bool","internalType":"bool"}],"stateMutability":"pure"}],"bytecode":{"object":"0x60808060405234601557610102908161001a8239f35b5f80fdfe60808060405260043610156011575f80fd5b5f3560e01c63b7009613146023575f80fd5b34609e576060366003190112609e57603860a2565b50603f60b7565b506044356001600160e01b0319811603609e5762461bcd60e51b815260206004820152602160248201527f4e6f74417574686f726974794d6f636b3a206e6f7420696d706c656d656e74656044820152601960fa1b6064820152608490fd5b5f80fd5b600435906001600160a01b0382168203609e57565b602435906001600160a01b0382168203609e5756fea264697066735822122046d55eba9e4d5e8f342e4cc790d7bdf8b62b8634c007215c9d9071a40f1a5a6264736f6c634300081c0033","linkReferences":{}},"methodIdentifiers":{"canCall(address,address,bytes4)":"b7009613"},"id":144}