{"abi":[{"type":"constructor","inputs":[],"stateMutability":"nonpayable"},{"type":"function","name":"count","inputs":[],"outputs":[{"name":"","type":"uint256","internalType":"uint256"}],"stateMutability":"view"},{"type":"function","name":"drasticMeasure","inputs":[],"outputs":[],"stateMutability":"nonpayable"},{"type":"function","name":"drasticMeasureTaken","inputs":[],"outputs":[{"name":"","type":"bool","internalType":"bool"}],"stateMutability":"view"},{"type":"function","name":"normalProcess","inputs":[],"outputs":[],"stateMutability":"nonpayable"},{"type":"function","name":"pause","inputs":[],"outputs":[],"stateMutability":"nonpayable"},{"type":"function","name":"paused","inputs":[],"outputs":[{"name":"","type":"bool","internalType":"bool"}],"stateMutability":"view"},{"type":"function","name":"unpause","inputs":[],"outputs":[],"stateMutability":"nonpayable"},{"type":"event","name":"Paused","inputs":[{"name":"account","type":"address","indexed":false,"internalType":"address"}],"anonymous":false},{"type":"event","name":"Unpaused","inputs":[{"name":"account","type":"address","indexed":false,"internalType":"address"}],"anonymous":false},{"type":"error","name":"EnforcedPause","inputs":[]},{"type":"error","name":"ExpectedPause","inputs":[]}],"bytecode":{"object":"0x608080604052346022575f805461ff001916815560015561023b90816100278239f35b5f80fdfe6080806040526004361015610012575f80fd5b5f3560e01c90816306661abd146101b6575080633f4ba83a1461016a5780635c975abb1461014957806376657b8e146101255780638456cb59146100d65780639958f045146100ae5763e7651d7a14610069575f80fd5b346100aa575f3660031901126100aa576100816101eb565b6001545f198114610096576001016001555f80f35b634e487b7160e01b5f52601160045260245ffd5b5f80fd5b346100aa575f3660031901126100aa576100c66101d0565b5f805461ff001916610100179055005b346100aa575f3660031901126100aa576100ee6101eb565b600160ff195f5416175f557f62e78cea01bee320cd4e420270b5ea74000d11b0c9f74754ebdbfc544b05a2586020604051338152a1005b346100aa575f3660031901126100aa57602060ff5f5460081c166040519015158152f35b346100aa575f3660031901126100aa57602060ff5f54166040519015158152f35b346100aa575f3660031901126100aa576101826101d0565b60ff195f54165f557f5db9ee0a495bf2e6ff9c91a7834c1ba4fdd244a5e8aa4e537bd38aeae4b073aa6020604051338152a1005b346100aa575f3660031901126100aa576020906001548152f35b60ff5f5416156101dc57565b638dfc202b60e01b5f5260045ffd5b60ff5f54166101f657565b63d93c066560e01b5f5260045ffdfea2646970667358221220f71bd18f48be925ac20472c8135a575dc368fad2293db8d0ba8cdf07b4d4463364736f6c634300081c0033","linkReferences":{}},"methodIdentifiers":{"count()":"06661abd","drasticMeasure()":"9958f045","drasticMeasureTaken()":"76657b8e","normalProcess()":"e7651d7a","pause()":"8456cb59","paused()":"5c975abb","unpause()":"3f4ba83a"},"id":162}