{"abi":[{"type":"constructor","inputs":[],"stateMutability":"nonpayable"},{"type":"function","name":"CLOCK_MODE","inputs":[],"outputs":[{"name":"","type":"string","internalType":"string"}],"stateMutability":"view"},{"type":"function","name":"DOMAIN_SEPARATOR","inputs":[],"outputs":[{"name":"","type":"bytes32","internalType":"bytes32"}],"stateMutability":"view"},{"type":"function","name":"allowance","inputs":[{"name":"owner","type":"address","internalType":"address"},{"name":"spender","type":"address","internalType":"address"}],"outputs":[{"name":"","type":"uint256","internalType":"uint256"}],"stateMutability":"view"},{"type":"function","name":"approve","inputs":[{"name":"spender","type":"address","internalType":"address"},{"name":"value","type":"uint256","internalType":"uint256"}],"outputs":[{"name":"","type":"bool","internalType":"bool"}],"stateMutability":"nonpayable"},{"type":"function","name":"balanceOf","inputs":[{"name":"account","type":"address","internalType":"address"}],"outputs":[{"name":"","type":"uint256","internalType":"uint256"}],"stateMutability":"view"},{"type":"function","name":"checkpoints","inputs":[{"name":"account","type":"address","internalType":"address"},{"name":"pos","type":"uint32","internalType":"uint32"}],"outputs":[{"name":"","type":"tuple","internalType":"struct Checkpoints.Checkpoint208","components":[{"name":"_key","type":"uint48","internalType":"uint48"},{"name":"_value","type":"uint208","internalType":"uint208"}]}],"stateMutability":"view"},{"type":"function","name":"clock","inputs":[],"outputs":[{"name":"","type":"uint48","internalType":"uint48"}],"stateMutability":"view"},{"type":"function","name":"decimals","inputs":[],"outputs":[{"name":"","type":"uint8","internalType":"uint8"}],"stateMutability":"view"},{"type":"function","name":"delegate","inputs":[{"name":"delegatee","type":"address","internalType":"address"}],"outputs":[],"stateMutability":"nonpayable"},{"type":"function","name":"delegateBySig","inputs":[{"name":"delegatee","type":"address","internalType":"address"},{"name":"nonce","type":"uint256","internalType":"uint256"},{"name":"expiry","type":"uint256","internalType":"uint256"},{"name":"v","type":"uint8","internalType":"uint8"},{"name":"r","type":"bytes32","internalType":"bytes32"},{"name":"s","type":"bytes32","internalType":"bytes32"}],"outputs":[],"stateMutability":"nonpayable"},{"type":"function","name":"delegates","inputs":[{"name":"account","type":"address","internalType":"address"}],"outputs":[{"name":"","type":"address","internalType":"address"}],"stateMutability":"view"},{"type":"function","name":"eip712Domain","inputs":[],"outputs":[{"name":"fields","type":"bytes1","internalType":"bytes1"},{"name":"name","type":"string","internalType":"string"},{"name":"version","type":"string","internalType":"string"},{"name":"chainId","type":"uint256","internalType":"uint256"},{"name":"verifyingContract","type":"address","internalType":"address"},{"name":"salt","type":"bytes32","internalType":"bytes32"},{"name":"extensions","type":"uint256[]","internalType":"uint256[]"}],"stateMutability":"view"},{"type":"function","name":"getPastTotalSupply","inputs":[{"name":"timepoint","type":"uint256","internalType":"uint256"}],"outputs":[{"name":"","type":"uint256","internalType":"uint256"}],"stateMutability":"view"},{"type":"function","name":"getPastVotes","inputs":[{"name":"account","type":"address","internalType":"address"},{"name":"timepoint","type":"uint256","internalType":"uint256"}],"outputs":[{"name":"","type":"uint256","internalType":"uint256"}],"stateMutability":"view"},{"type":"function","name":"getVotes","inputs":[{"name":"account","type":"address","internalType":"address"}],"outputs":[{"name":"","type":"uint256","internalType":"uint256"}],"stateMutability":"view"},{"type":"function","name":"name","inputs":[],"outputs":[{"name":"","type":"string","internalType":"string"}],"stateMutability":"view"},{"type":"function","name":"nonces","inputs":[{"name":"owner","type":"address","internalType":"address"}],"outputs":[{"name":"","type":"uint256","internalType":"uint256"}],"stateMutability":"view"},{"type":"function","name":"numCheckpoints","inputs":[{"name":"account","type":"address","internalType":"address"}],"outputs":[{"name":"","type":"uint32","internalType":"uint32"}],"stateMutability":"view"},{"type":"function","name":"permit","inputs":[{"name":"owner","type":"address","internalType":"address"},{"name":"spender","type":"address","internalType":"address"},{"name":"value","type":"uint256","internalType":"uint256"},{"name":"deadline","type":"uint256","internalType":"uint256"},{"name":"v","type":"uint8","internalType":"uint8"},{"name":"r","type":"bytes32","internalType":"bytes32"},{"name":"s","type":"bytes32","internalType":"bytes32"}],"outputs":[],"stateMutability":"nonpayable"},{"type":"function","name":"symbol","inputs":[],"outputs":[{"name":"","type":"string","internalType":"string"}],"stateMutability":"view"},{"type":"function","name":"totalSupply","inputs":[],"outputs":[{"name":"","type":"uint256","internalType":"uint256"}],"stateMutability":"view"},{"type":"function","name":"transfer","inputs":[{"name":"to","type":"address","internalType":"address"},{"name":"value","type":"uint256","internalType":"uint256"}],"outputs":[{"name":"","type":"bool","internalType":"bool"}],"stateMutability":"nonpayable"},{"type":"function","name":"transferFrom","inputs":[{"name":"from","type":"address","internalType":"address"},{"name":"to","type":"address","internalType":"address"},{"name":"value","type":"uint256","internalType":"uint256"}],"outputs":[{"name":"","type":"bool","internalType":"bool"}],"stateMutability":"nonpayable"},{"type":"event","name":"Approval","inputs":[{"name":"owner","type":"address","indexed":true,"internalType":"address"},{"name":"spender","type":"address","indexed":true,"internalType":"address"},{"name":"value","type":"uint256","indexed":false,"internalType":"uint256"}],"anonymous":false},{"type":"event","name":"DelegateChanged","inputs":[{"name":"delegator","type":"address","indexed":true,"internalType":"address"},{"name":"fromDelegate","type":"address","indexed":true,"internalType":"address"},{"name":"toDelegate","type":"address","indexed":true,"internalType":"address"}],"anonymous":false},{"type":"event","name":"DelegateVotesChanged","inputs":[{"name":"delegate","type":"address","indexed":true,"internalType":"address"},{"name":"previousVotes","type":"uint256","indexed":false,"internalType":"uint256"},{"name":"newVotes","type":"uint256","indexed":false,"internalType":"uint256"}],"anonymous":false},{"type":"event","name":"EIP712DomainChanged","inputs":[],"anonymous":false},{"type":"event","name":"Transfer","inputs":[{"name":"from","type":"address","indexed":true,"internalType":"address"},{"name":"to","type":"address","indexed":true,"internalType":"address"},{"name":"value","type":"uint256","indexed":false,"internalType":"uint256"}],"anonymous":false},{"type":"error","name":"CheckpointUnorderedInsertion","inputs":[]},{"type":"error","name":"ECDSAInvalidSignature","inputs":[]},{"type":"error","name":"ECDSAInvalidSignatureLength","inputs":[{"name":"length","type":"uint256","internalType":"uint256"}]},{"type":"error","name":"ECDSAInvalidSignatureS","inputs":[{"name":"s","type":"bytes32","internalType":"bytes32"}]},{"type":"error","name":"ERC20ExceededSafeSupply","inputs":[{"name":"increasedSupply","type":"uint256","internalType":"uint256"},{"name":"cap","type":"uint256","internalType":"uint256"}]},{"type":"error","name":"ERC20InsufficientAllowance","inputs":[{"name":"spender","type":"address","internalType":"address"},{"name":"allowance","type":"uint256","internalType":"uint256"},{"name":"needed","type":"uint256","internalType":"uint256"}]},{"type":"error","name":"ERC20InsufficientBalance","inputs":[{"name":"sender","type":"address","internalType":"address"},{"name":"balance","type":"uint256","internalType":"uint256"},{"name":"needed","type":"uint256","internalType":"uint256"}]},{"type":"error","name":"ERC20InvalidApprover","inputs":[{"name":"approver","type":"address","internalType":"address"}]},{"type":"error","name":"ERC20InvalidReceiver","inputs":[{"name":"receiver","type":"address","internalType":"address"}]},{"type":"error","name":"ERC20InvalidSender","inputs":[{"name":"sender","type":"address","internalType":"address"}]},{"type":"error","name":"ERC20InvalidSpender","inputs":[{"name":"spender","type":"address","internalType":"address"}]},{"type":"error","name":"ERC2612ExpiredSignature","inputs":[{"name":"deadline","type":"uint256","internalType":"uint256"}]},{"type":"error","name":"ERC2612InvalidSigner","inputs":[{"name":"signer","type":"address","internalType":"address"},{"name":"owner","type":"address","internalType":"address"}]},{"type":"error","name":"ERC5805FutureLookup","inputs":[{"name":"timepoint","type":"uint256","internalType":"uint256"},{"name":"clock","type":"uint48","internalType":"uint48"}]},{"type":"error","name":"ERC6372InconsistentClock","inputs":[]},{"type":"error","name":"InvalidAccountNonce","inputs":[{"name":"account","type":"address","internalType":"address"},{"name":"currentNonce","type":"uint256","internalType":"uint256"}]},{"type":"error","name":"InvalidShortString","inputs":[]},{"type":"error","name":"SafeCastOverflowedUintDowncast","inputs":[{"name":"bits","type":"uint8","internalType":"uint8"},{"name":"value","type":"uint256","internalType":"uint256"}]},{"type":"error","name":"StringTooLong","inputs":[{"name":"str","type":"string","internalType":"string"}]},{"type":"error","name":"VotesExpiredSignature","inputs":[{"name":"expiry","type":"uint256","internalType":"uint256"}]}],"bytecode":{"object":"0x610160604052346104275760405161001860408261042b565b60078152602081016626bcaa37b5b2b760c91b81526040519061003c60408361042b565b600782526626bcaa37b5b2b760c91b60208301526040519261005f60408561042b565b60038452624d544b60e81b60208501526040519361007e60408661042b565b60018552603160f81b60208601908152845190946001600160401b03821161032a5760035490600182811c9216801561041d575b602083101461030c5781601f8493116103af575b50602090601f8311600114610349575f9261033e575b50508160011b915f199060031b1c1916176003555b8051906001600160401b03821161032a5760045490600182811c92168015610320575b602083101461030c5781601f84931161029e575b50602090601f8311600114610238575f9261022d575b50508160011b915f199060031b1c1916176004555b61015c8161044e565b61012052610169846105d5565b61014052519020918260e05251902080610100524660a0526040519060208201927f8b73c3c69bb8fe3d512ecc4cf759cc79239f7b179b0ffacaa9a75d522b39400f8452604083015260608201524660808201523060a082015260a081526101d260c08261042b565b5190206080523060c052604051611a6e908161070e823960805181610f5b015260a05181611018015260c05181610f25015260e05181610faa01526101005181610fd0015261012051816106b9015261014051816106e20152f35b015190505f8061013e565b60045f9081528281209350601f198516905b818110610286575090846001959493921061026e575b505050811b01600455610153565b01515f1960f88460031b161c191690555f8080610260565b9293602060018192878601518155019501930161024a565b60045f529091507f8a35acfbc15ff81a39ae7d344fd709f28e8600b4aa8c65c6b64bfe7fe36bd19b601f840160051c81019160208510610302575b90601f859493920160051c01905b8181106102f45750610128565b5f81558493506001016102e7565b90915081906102d9565b634e487b7160e01b5f52602260045260245ffd5b91607f1691610114565b634e487b7160e01b5f52604160045260245ffd5b015190505f806100dc565b60035f9081528281209350601f198516905b818110610397575090846001959493921061037f575b505050811b016003556100f1565b01515f1960f88460031b161c191690555f8080610371565b9293602060018192878601518155019501930161035b565b60035f529091507fc2575a0e9e593c00f959f8c92f12db2869c3395a3b0502d05e2516446f71f85b601f840160051c81019160208510610413575b90601f859493920160051c01905b81811061040557506100c6565b5f81558493506001016103f8565b90915081906103ea565b91607f16916100b2565b5f80fd5b601f909101601f19168101906001600160401b0382119082101761032a57604052565b908151602081105f146104c8575090601f815111610488576020815191015160208210610479571790565b5f198260200360031b1b161790565b604460209160405192839163305a27a960e01b83528160048401528051918291826024860152018484015e5f828201840152601f01601f19168101030190fd5b6001600160401b03811161032a57600554600181811c911680156105cb575b602082101461030c57601f8111610598575b50602092601f821160011461053757928192935f9261052c575b50508160011b915f199060031b1c19161760055560ff90565b015190505f80610513565b601f1982169360055f52805f20915f5b8681106105805750836001959610610568575b505050811b0160055560ff90565b01515f1960f88460031b161c191690555f808061055a565b91926020600181928685015181550194019201610547565b60055f52601f60205f20910160051c810190601f830160051c015b8181106105c057506104f9565b5f81556001016105b3565b90607f16906104e7565b908151602081105f14610600575090601f815111610488576020815191015160208210610479571790565b6001600160401b03811161032a57600654600181811c91168015610703575b602082101461030c57601f81116106d0575b50602092601f821160011461066f57928192935f92610664575b50508160011b915f199060031b1c19161760065560ff90565b015190505f8061064b565b601f1982169360065f52805f20915f5b8681106106b857508360019596106106a0575b505050811b0160065560ff90565b01515f1960f88460031b161c191690555f8080610692565b9192602060018192868501518155019401920161067f565b60065f52601f60205f20910160051c810190601f830160051c015b8181106106f85750610631565b5f81556001016106eb565b90607f169061061f56fe60806040526004361015610011575f80fd5b5f3560e01c806306fdde0314610184578063095ea7b31461017f57806318160ddd1461017a57806323b872dd14610175578063313ce567146101705780633644e5151461016b5780633a46b1a8146101665780634bf5d7e914610161578063587cde1e1461015c5780635c19a95c146101575780636fcfff451461015257806370a082311461014d5780637ecebe001461014857806384b0196e146101435780638e539e8c1461013e57806391ddadf41461013957806395d89b41146101345780639ab24eb01461012f578063a9059cbb1461012a578063c3cda52014610125578063d505accf14610120578063dd62ed3e1461011b5763f1127ed814610116575f80fd5b610c44565b610bed565b610ac9565b6109ba565b610974565b61092d565b610888565b61085d565b61079e565b6106a1565b610669565b610631565b6105cf565b6105ab565b61056b565b6104db565b6103f6565b6103d4565b6103b9565b610319565b6102fc565b6102cb565b6101c1565b805180835260209291819084018484015e5f828201840152601f01601f1916010190565b9060206101be928181520190610189565b90565b3461029b575f36600319011261029b576040515f6003546101e181610cf6565b80845290600181169081156102775750600114610219575b6102158361020981850382610de4565b604051918291826101ad565b0390f35b60035f9081527fc2575a0e9e593c00f959f8c92f12db2869c3395a3b0502d05e2516446f71f85b939250905b80821061025d575090915081016020016102096101f9565b919260018160209254838588010152019101909291610245565b60ff191660208086019190915291151560051b8401909101915061020990506101f9565b5f80fd5b600435906001600160a01b038216820361029b57565b602435906001600160a01b038216820361029b57565b3461029b57604036600319011261029b576102f16102e761029f565b6024359033611187565b602060405160018152f35b3461029b575f36600319011261029b576020600254604051908152f35b3461029b57606036600319011261029b5761033261029f565b61033a6102b5565b6001600160a01b0382165f9081526001602090815260408083203384529091529020549160443591905f198410610382575b6103769350610e2f565b60405160018152602090f35b82841061039e576103998361037695033383611222565b61036c565b8284637dc7a0d960e11b5f523360045260245260445260645ffd5b3461029b575f36600319011261029b57602060405160128152f35b3461029b575f36600319011261029b5760206103ee610f22565b604051908152f35b3461029b57604036600319011261029b5761040f61029f565b6001600160a01b03165f90815260096020526040902061043060243561103e565b8154905f829160058411610483575b61044a935084611413565b908161046857505060205f5b6040516001600160d01b039091168152f35b61047360209261108b565b905f52815f20015460301c610456565b919261048e816112b5565b81039081116104d65761044a93855f5265ffffffffffff8260205f2001541665ffffffffffff8516105f146104c457509161043f565b9291506104d090611099565b9061043f565b611077565b3461029b575f36600319011261029b576104f443611268565b65ffffffffffff8061050543611268565b1691160361055c5761021560405161051e604082610de4565b601d81527f6d6f64653d626c6f636b6e756d6265722666726f6d3d64656661756c740000006020820152604051918291602083526020830190610189565b6301bfc1c560e61b5f5260045ffd5b3461029b57602036600319011261029b576001600160a01b0361058c61029f565b165f526008602052602060018060a01b0360405f205416604051908152f35b3461029b57602036600319011261029b576105cd6105c761029f565b336110a7565b005b3461029b57602036600319011261029b576001600160a01b036105f061029f565b165f52600960205260405f205463ffffffff811161061a5760405163ffffffff9091168152602090f35b6306dfcc6560e41b5f52602060045260245260445ffd5b3461029b57602036600319011261029b5760206103ee61064f61029f565b6001600160a01b03165f9081526020819052604090205490565b3461029b57602036600319011261029b576001600160a01b0361068a61029f565b165f526007602052602060405f2054604051908152f35b3461029b575f36600319011261029b576107456106dd7f0000000000000000000000000000000000000000000000000000000000000000611599565b6107067f00000000000000000000000000000000000000000000000000000000000000006115f9565b60206040516107158282610de4565b5f81528161075381830194601f198301368737604051978897600f60f81b895260e0858a015260e0890190610189565b908782036040890152610189565b914660608701523060808701525f60a087015285830360c087015251918281520192915f5b82811061078757505050500390f35b835185528695509381019392810192600101610778565b3461029b57602036600319011261029b576107ba60043561103e565b600a54905f829160058411610809575b6107d69350600a611413565b806107e757506040515f8152602090f35b6108046107f560209261108b565b600a5f52825f20015460301c90565b610456565b9192610814816112b5565b81039081116104d6576107d693600a5f5265ffffffffffff8260205f2001541665ffffffffffff8516105f1461084b5750916107ca565b92915061085790611099565b906107ca565b3461029b575f36600319011261029b57602061087843611268565b65ffffffffffff60405191168152f35b3461029b575f36600319011261029b576040515f6004546108a881610cf6565b808452906001811690811561027757506001146108cf576102158361020981850382610de4565b60045f9081527f8a35acfbc15ff81a39ae7d344fd709f28e8600b4aa8c65c6b64bfe7fe36bd19b939250905b808210610913575090915081016020016102096101f9565b9192600181602092548385880101520191019092916108fb565b3461029b57602036600319011261029b576001600160a01b0361094e61029f565b165f526009602052602060018060d01b0361096b60405f20611128565b16604051908152f35b3461029b57604036600319011261029b576102f161099061029f565b6024359033610e2f565b6064359060ff8216820361029b57565b6084359060ff8216820361029b57565b3461029b5760c036600319011261029b576109d361029f565b602435906044356109e261099a565b6084359060a43592804211610ab75791610a679391610a59610a5e9460405160208101917fe48329057bfd03d55e49b547132e39cffd9c1820ad7b9d4c5307691425d15adf835260018060a01b038a1660408301528a6060830152608082015260808152610a5160a082610de4565b519020611152565b611630565b909291926116db565b6001600160a01b0381165f908152600760205260409020805460018101909155809303610a98576105cd92506110a7565b90506301d4b62360e61b5f5260018060a01b031660045260245260445ffd5b632341d78760e11b5f5260045260245ffd5b3461029b5760e036600319011261029b57610ae261029f565b610aea6102b5565b6044359060643592610afa6109aa565b60a43560c43590864211610bda576001600160a01b0384165f908152600760205260409020805460018101909155610b9f9390610b9a909860405160208101917f6e71edae12b1b97f4d1f60370fef10105fa2faae0126114a169c64845d6126c9835260018060a01b0389169b8c604084015260018060a01b038b1660608401528b608084015260a083015260c082015260c08152610a5160e082610de4565b611178565b936001600160a01b03851603610bb9576105cd9350611187565b6325c0072360e11b5f526001600160a01b038085166004521660245260445ffd5b8663313c898160e11b5f5260045260245ffd5b3461029b57604036600319011261029b576020610c3b610c0b61029f565b610c136102b5565b6001600160a01b039182165f9081526001855260408082209290931681526020919091522090565b54604051908152f35b3461029b57604036600319011261029b57610c5d61029f565b6024359063ffffffff8216820361029b5761021591610cac91610c7e610e17565b50610c87610e17565b506001600160a01b03165f908152600960205260409020610ca6610e17565b50611757565b5060405190610cba82610dc3565b5465ffffffffffff811680835260309190911c60209283019081526040805192835290516001600160d01b031692820192909252918291820190565b90600182811c92168015610d24575b6020831014610d1057565b634e487b7160e01b5f52602260045260245ffd5b91607f1691610d05565b5f9291815491610d3d83610cf6565b8083529260018116908115610d925750600114610d5957505050565b5f9081526020812093945091925b838310610d78575060209250010190565b600181602092949394548385870101520191019190610d67565b915050602093945060ff929192191683830152151560051b010190565b634e487b7160e01b5f52604160045260245ffd5b6040810190811067ffffffffffffffff821117610ddf57604052565b610daf565b90601f8019910116810190811067ffffffffffffffff821117610ddf57604052565b60405190610e15604083610de4565b565b60405190610e2482610dc3565b5f6020838281520152565b6001600160a01b038116939291908415610f0f576001600160a01b0382168015610efc576001600160a01b0382165f90815260208190526040902054848110610ee1579584610e15969703610e938460018060a01b03165f525f60205260405f2090565b556001600160a01b0384165f908152602081815260409182902080548801905590518681527fddf252ad1be2c89b69c2b068fc378daa952ba7f163c4a11628f55a4df523b3ef9190a3611852565b84908763391434e360e21b5f5260045260245260445260645ffd5b63ec442f0560e01b5f525f60045260245ffd5b634b637e8f60e11b5f525f60045260245ffd5b307f00000000000000000000000000000000000000000000000000000000000000006001600160a01b03161480611015575b15610f7d577f000000000000000000000000000000000000000000000000000000000000000090565b60405160208101907f8b73c3c69bb8fe3d512ecc4cf759cc79239f7b179b0ffacaa9a75d522b39400f82527f000000000000000000000000000000000000000000000000000000000000000060408201527f000000000000000000000000000000000000000000000000000000000000000060608201524660808201523060a082015260a0815261100f60c082610de4565b51902090565b507f00000000000000000000000000000000000000000000000000000000000000004614610f54565b65ffffffffffff61104e43611268565b168082101561106157506101be90611268565b90637669fc0f60e11b5f5260045260245260445ffd5b634e487b7160e01b5f52601160045260245ffd5b5f198101919082116104d657565b90600182018092116104d657565b6001600160a01b038181165f81815260086020526040812080548685166001600160a01b031982168117909255610e15969416946111229390928691907f3134e8a2e6d97e929a7e54011ea5485d7d196dd5f0ba4d4ef95803e8e3fc257f9080a46001600160a01b03165f9081526020819052604090205490565b91611477565b805490816111365750505f90565b815f198101116104d6575f525f199060205f2001015460301c90565b60429061115d610f22565b906040519161190160f01b8352600283015260228201522090565b916101be9391610a5e93611630565b6001600160a01b031690811561120f576001600160a01b0381169283156111fc57806111ef7f8c5be1e5ebec7d5bd14f71427d1e84f3dd0314c0f7b2291e5b200ac8c7c3b92593855f52600160205260405f209060018060a01b03165f5260205260405f2090565b55604051908152602090a3565b634a1406b160e11b5f525f60045260245ffd5b63e602df0560e01b5f525f60045260245ffd5b6001600160a01b031690811561120f576001600160a01b038116156111fc57611265915f52600160205260405f209060018060a01b03165f5260205260405f2090565b55565b65ffffffffffff81116112805765ffffffffffff1690565b6306dfcc6560e41b5f52603060045260245260445ffd5b81156112a1570490565b634e487b7160e01b5f52601260045260245ffd5b60018111156101be57806001600160801b8210156113d6575b61137c61137261136861135e61135461134a6113396113839760048a600160401b6113889c10156113c9575b6401000000008110156113bc575b620100008110156113af575b6101008110156113a2575b6010811015611395575b101561138d575b60030260011c90565b611343818b611297565b0160011c90565b611343818a611297565b6113438189611297565b6113438188611297565b6113438187611297565b6113438186611297565b8093611297565b821190565b900390565b60011b611330565b60041c9160021b91611329565b60081c9160041b9161131f565b60101c9160081b91611314565b60201c9160101b91611308565b60401c9160201b916112fa565b505061138861138361137c61137261136861135e61135461134a6113396113fd8a60801c90565b9850600160401b97506112ce9650505050505050565b91905b8382106114235750505090565b9091928083169080841860011c82018092116104d657845f5265ffffffffffff8260205f2001541665ffffffffffff8416105f146114655750925b9190611416565b93925061147190611099565b9161145e565b6001600160a01b03808316939291908116908185141580611590575b61149f575b5050505050565b81611523575b5050826114b4575b8080611498565b6001600160a01b03165f9081526009602052604090207fdec2bacdd2f05b59de34da9b523dff8be42e5e38e818c82fdb0bae774387a72491611500916114fa9091611780565b906117e9565b604080516001600160d01b039384168152919092166020820152a25f80806114ad565b6001600160a01b03165f9081526009602052604090207fdec2bacdd2f05b59de34da9b523dff8be42e5e38e818c82fdb0bae774387a7249061156e9061156886611780565b906117b1565b604080516001600160d01b039384168152919092166020820152a25f806114a5565b50831515611493565b60ff81146115df5760ff811690601f82116115d057604051916115bd604084610de4565b6020808452838101919036833783525290565b632cd44ac360e21b5f5260045ffd5b506040516101be816115f2816005610d2e565b0382610de4565b60ff811461161d5760ff811690601f82116115d057604051916115bd604084610de4565b506040516101be816115f2816006610d2e565b91907f7fffffffffffffffffffffffffffffff5d576e7357a4501ddfe92f46681b20a084116116b2579160209360809260ff5f9560405194855216868401526040830152606082015282805260015afa156116a7575f516001600160a01b0381161561169d57905f905f90565b505f906001905f90565b6040513d5f823e3d90fd5b5050505f9160039190565b600411156116c757565b634e487b7160e01b5f52602160045260245ffd5b6116e4816116bd565b806116ed575050565b6116f6816116bd565b6001810361170d5763f645eedf60e01b5f5260045ffd5b611716816116bd565b60028103611731575063fce698f760e01b5f5260045260245ffd5b8061173d6003926116bd565b146117455750565b6335e2f38360e21b5f5260045260245ffd5b805482101561176c575f5260205f2001905f90565b634e487b7160e01b5f52603260045260245ffd5b6001600160d01b03811161179a576001600160d01b031690565b6306dfcc6560e41b5f5260d060045260245260445ffd5b906117bb43611268565b906117c583611128565b6001600160d01b0391821690821603919082116104d6576117e592611962565b9091565b906117f343611268565b906117fd83611128565b6001600160d01b0391821690821601919082116104d6576117e592611962565b61182643611268565b90611831600a611128565b6001600160d01b03918216908216039081116104d6576117e591600a611962565b9091906001600160a01b031680156118b9575b610e15926001600160a01b03169081156118a1575b5f90815260086020526040808220549282529020546001600160a01b039081169116611477565b6118b26118ad84611780565b61181d565b505061187a565b6118c282611780565b926118cc43611268565b936118d7600a611128565b6001600160d01b0391821690821601949085116104d657610e15946118fd91600a611962565b9050509250611865565b8054600160401b811015610ddf5761192491600182018155611757565b61194f57815160209092015160301b65ffffffffffff191665ffffffffffff92909216919091179055565b634e487b7160e01b5f525f60045260245ffd5b80549293928015611a0e576119796119849161108b565b825f5260205f200190565b8054603081901c9365ffffffffffff918216929181168084116119ff578793036119cb57506119c792509065ffffffffffff82549181199060301b169116179055565b9190565b9150506119c7916119eb6119dd610e06565b65ffffffffffff9093168352565b6001600160d01b0386166020830152611907565b632520601d60e01b5f5260045ffd5b5090611a3391611a1f6119dd610e06565b6001600160d01b0385166020830152611907565b5f919056fea2646970667358221220d5e656d015c2dc11565f4d932fb69ccd3b4538c6f49ec39cdda32f39c716c63d64736f6c634300081c0033","linkReferences":{}},"methodIdentifiers":{"CLOCK_MODE()":"4bf5d7e9","DOMAIN_SEPARATOR()":"3644e515","allowance(address,address)":"dd62ed3e","approve(address,uint256)":"095ea7b3","balanceOf(address)":"70a08231","checkpoints(address,uint32)":"f1127ed8","clock()":"91ddadf4","decimals()":"313ce567","delegate(address)":"5c19a95c","delegateBySig(address,uint256,uint256,uint8,bytes32,bytes32)":"c3cda520","delegates(address)":"587cde1e","eip712Domain()":"84b0196e","getPastTotalSupply(uint256)":"8e539e8c","getPastVotes(address,uint256)":"3a46b1a8","getVotes(address)":"9ab24eb0","name()":"06fdde03","nonces(address)":"7ecebe00","numCheckpoints(address)":"6fcfff45","permit(address,address,uint256,uint256,uint8,bytes32,bytes32)":"d505accf","symbol()":"95d89b41","totalSupply()":"18160ddd","transfer(address,uint256)":"a9059cbb","transferFrom(address,address,uint256)":"23b872dd"},"id":193}